{
	"verify/NFT-MP-Combine.sol": {
		"NFTMarketplace": {
			"abi": [
				{
					"inputs": [
						{
							"internalType": "address",
							"name": "wrapToken",
							"type": "address"
						},
						{
							"internalType": "uint256",
							"name": "feePercentage",
							"type": "uint256"
						},
						{
							"internalType": "address payable",
							"name": "feeDestinationAddress",
							"type": "address"
						}
					],
					"stateMutability": "nonpayable",
					"type": "constructor"
				},
				{
					"anonymous": false,
					"inputs": [
						{
							"indexed": true,
							"internalType": "address",
							"name": "previousOwner",
							"type": "address"
						},
						{
							"indexed": true,
							"internalType": "address",
							"name": "newOwner",
							"type": "address"
						}
					],
					"name": "OwnershipTransferred",
					"type": "event"
				},
				{
					"inputs": [],
					"name": "_feeDestinationAddress",
					"outputs": [
						{
							"internalType": "address payable",
							"name": "",
							"type": "address"
						}
					],
					"stateMutability": "view",
					"type": "function"
				},
				{
					"inputs": [],
					"name": "_feePercentage",
					"outputs": [
						{
							"internalType": "uint256",
							"name": "",
							"type": "uint256"
						}
					],
					"stateMutability": "view",
					"type": "function"
				},
				{
					"inputs": [],
					"name": "_wrapToken",
					"outputs": [
						{
							"internalType": "contract IERC20",
							"name": "",
							"type": "address"
						}
					],
					"stateMutability": "view",
					"type": "function"
				},
				{
					"inputs": [
						{
							"internalType": "address",
							"name": "nftContractId",
							"type": "address"
						},
						{
							"internalType": "uint256",
							"name": "tokenId",
							"type": "uint256"
						}
					],
					"name": "cancel",
					"outputs": [],
					"stateMutability": "nonpayable",
					"type": "function"
				},
				{
					"inputs": [
						{
							"internalType": "address",
							"name": "nftContractId",
							"type": "address"
						},
						{
							"internalType": "uint256",
							"name": "tokenId",
							"type": "uint256"
						},
						{
							"internalType": "uint256",
							"name": "price",
							"type": "uint256"
						},
						{
							"internalType": "address",
							"name": "buyerAccount",
							"type": "address"
						}
					],
					"name": "closeMarketForAuctionType",
					"outputs": [],
					"stateMutability": "nonpayable",
					"type": "function"
				},
				{
					"inputs": [
						{
							"internalType": "address",
							"name": "nftContractId",
							"type": "address"
						},
						{
							"internalType": "uint256",
							"name": "tokenId",
							"type": "uint256"
						},
						{
							"internalType": "uint256",
							"name": "price",
							"type": "uint256"
						}
					],
					"name": "closeMarketForFixedType",
					"outputs": [],
					"stateMutability": "nonpayable",
					"type": "function"
				},
				{
					"inputs": [
						{
							"internalType": "address",
							"name": "nftContractId",
							"type": "address"
						},
						{
							"internalType": "uint256",
							"name": "tokenId",
							"type": "uint256"
						}
					],
					"name": "getMarketObj",
					"outputs": [
						{
							"components": [
								{
									"internalType": "address",
									"name": "contractAddress",
									"type": "address"
								},
								{
									"internalType": "uint256",
									"name": "tokenId",
									"type": "uint256"
								},
								{
									"internalType": "enum NFTMarketplace.EOrderType",
									"name": "orderType",
									"type": "uint8"
								},
								{
									"internalType": "enum NFTMarketplace.EOrderStatus",
									"name": "orderStatus",
									"type": "uint8"
								},
								{
									"internalType": "uint256",
									"name": "askAmount",
									"type": "uint256"
								},
								{
									"internalType": "uint256",
									"name": "maxAskAmount",
									"type": "uint256"
								},
								{
									"internalType": "address",
									"name": "currentOwner",
									"type": "address"
								},
								{
									"internalType": "address",
									"name": "newOwner",
									"type": "address"
								}
							],
							"internalType": "struct NFTMarketplace.Market",
							"name": "",
							"type": "tuple"
						}
					],
					"stateMutability": "view",
					"type": "function"
				},
				{
					"inputs": [
						{
							"internalType": "bytes32",
							"name": "",
							"type": "bytes32"
						}
					],
					"name": "markets",
					"outputs": [
						{
							"internalType": "address",
							"name": "contractAddress",
							"type": "address"
						},
						{
							"internalType": "uint256",
							"name": "tokenId",
							"type": "uint256"
						},
						{
							"internalType": "enum NFTMarketplace.EOrderType",
							"name": "orderType",
							"type": "uint8"
						},
						{
							"internalType": "enum NFTMarketplace.EOrderStatus",
							"name": "orderStatus",
							"type": "uint8"
						},
						{
							"internalType": "uint256",
							"name": "askAmount",
							"type": "uint256"
						},
						{
							"internalType": "uint256",
							"name": "maxAskAmount",
							"type": "uint256"
						},
						{
							"internalType": "address",
							"name": "currentOwner",
							"type": "address"
						},
						{
							"internalType": "address",
							"name": "newOwner",
							"type": "address"
						}
					],
					"stateMutability": "view",
					"type": "function"
				},
				{
					"inputs": [
						{
							"internalType": "address",
							"name": "nftContractId",
							"type": "address"
						},
						{
							"internalType": "uint256",
							"name": "tokenId",
							"type": "uint256"
						},
						{
							"internalType": "uint256",
							"name": "price",
							"type": "uint256"
						},
						{
							"internalType": "uint256",
							"name": "maxPrice",
							"type": "uint256"
						}
					],
					"name": "openMarketForAuctionType",
					"outputs": [],
					"stateMutability": "nonpayable",
					"type": "function"
				},
				{
					"inputs": [
						{
							"internalType": "address",
							"name": "nftContractId",
							"type": "address"
						},
						{
							"internalType": "uint256",
							"name": "tokenId",
							"type": "uint256"
						},
						{
							"internalType": "uint256",
							"name": "price",
							"type": "uint256"
						}
					],
					"name": "openMarketForFixedType",
					"outputs": [],
					"stateMutability": "nonpayable",
					"type": "function"
				},
				{
					"inputs": [],
					"name": "owner",
					"outputs": [
						{
							"internalType": "address",
							"name": "",
							"type": "address"
						}
					],
					"stateMutability": "view",
					"type": "function"
				},
				{
					"inputs": [],
					"name": "renounceOwnership",
					"outputs": [],
					"stateMutability": "nonpayable",
					"type": "function"
				},
				{
					"inputs": [
						{
							"internalType": "address",
							"name": "erc20Token",
							"type": "address"
						}
					],
					"name": "setERC20Token",
					"outputs": [],
					"stateMutability": "nonpayable",
					"type": "function"
				},
				{
					"inputs": [
						{
							"internalType": "address payable",
							"name": "value",
							"type": "address"
						}
					],
					"name": "setFeeDestinationAddress",
					"outputs": [],
					"stateMutability": "nonpayable",
					"type": "function"
				},
				{
					"inputs": [
						{
							"internalType": "uint256",
							"name": "value",
							"type": "uint256"
						}
					],
					"name": "setFeePercentage",
					"outputs": [],
					"stateMutability": "nonpayable",
					"type": "function"
				},
				{
					"inputs": [
						{
							"internalType": "address",
							"name": "newOwner",
							"type": "address"
						}
					],
					"name": "transferOwnership",
					"outputs": [],
					"stateMutability": "nonpayable",
					"type": "function"
				}
			],
			"devdoc": {
				"kind": "dev",
				"methods": {},
				"version": 1
			},
			"evm": {
				"assembly": "    /* \"verify/NFT-MP-Combine.sol\":26337:34244  contract NFTMarketplace is Ownable {\r... */\n  mstore(0x40, 0x80)\n    /* \"verify/NFT-MP-Combine.sol\":27092:27381  constructor(address wrapToken,\r... */\n  callvalue\n  dup1\n  iszero\n  tag_1\n  jumpi\n  0x00\n  dup1\n  revert\ntag_1:\n  pop\n  mload(0x40)\n  sub(codesize, bytecodeSize)\n  dup1\n  bytecodeSize\n  dup4\n  codecopy\n  dup2\n  dup2\n  add\n  0x40\n  mstore\n  dup2\n  add\n  swap1\n  tag_2\n  swap2\n  swap1\n  tag_3\n  jump\t// in\ntag_2:\n    /* \"verify/NFT-MP-Combine.sol\":665:675  msg.sender */\n  caller\n    /* \"verify/NFT-MP-Combine.sol\":656:662  _owner */\n  0x00\n  dup1\n    /* \"verify/NFT-MP-Combine.sol\":656:675  _owner = msg.sender */\n  0x0100\n  exp\n  dup2\n  sload\n  dup2\n  0xffffffffffffffffffffffffffffffffffffffff\n  mul\n  not\n  and\n  swap1\n  dup4\n  0xffffffffffffffffffffffffffffffffffffffff\n  and\n  mul\n  or\n  swap1\n  sstore\n  pop\n    /* \"verify/NFT-MP-Combine.sol\":724:730  _owner */\n  0x00\n  dup1\n  sload\n  swap1\n  0x0100\n  exp\n  swap1\n  div\n  0xffffffffffffffffffffffffffffffffffffffff\n  and\n    /* \"verify/NFT-MP-Combine.sol\":691:731  OwnershipTransferred(address(0), _owner) */\n  0xffffffffffffffffffffffffffffffffffffffff\n  and\n    /* \"verify/NFT-MP-Combine.sol\":720:721  0 */\n  0x00\n    /* \"verify/NFT-MP-Combine.sol\":691:731  OwnershipTransferred(address(0), _owner) */\n  0xffffffffffffffffffffffffffffffffffffffff\n  and\n  0x8be0079c531659141344cd1fd0a4f28419497f9722a3daafe3b4186f6b6457e0\n  mload(0x40)\n  mload(0x40)\n  dup1\n  swap2\n  sub\n  swap1\n  log3\n    /* \"verify/NFT-MP-Combine.sol\":27258:27271  feePercentage */\n  dup2\n    /* \"verify/NFT-MP-Combine.sol\":27241:27255  _feePercentage */\n  0x02\n    /* \"verify/NFT-MP-Combine.sol\":27241:27271  _feePercentage = feePercentage */\n  dup2\n  swap1\n  sstore\n  pop\n    /* \"verify/NFT-MP-Combine.sol\":27311:27332  feeDestinationAddress */\n  dup1\n    /* \"verify/NFT-MP-Combine.sol\":27286:27308  _feeDestinationAddress */\n  0x03\n  0x00\n    /* \"verify/NFT-MP-Combine.sol\":27286:27332  _feeDestinationAddress = feeDestinationAddress */\n  0x0100\n  exp\n  dup2\n  sload\n  dup2\n  0xffffffffffffffffffffffffffffffffffffffff\n  mul\n  not\n  and\n  swap1\n  dup4\n  0xffffffffffffffffffffffffffffffffffffffff\n  and\n  mul\n  or\n  swap1\n  sstore\n  pop\n    /* \"verify/NFT-MP-Combine.sol\":27363:27372  wrapToken */\n  dup3\n    /* \"verify/NFT-MP-Combine.sol\":27343:27353  _wrapToken */\n  0x01\n  0x00\n    /* \"verify/NFT-MP-Combine.sol\":27343:27373  _wrapToken = IERC20(wrapToken) */\n  0x0100\n  exp\n  dup2\n  sload\n  dup2\n  0xffffffffffffffffffffffffffffffffffffffff\n  mul\n  not\n  and\n  swap1\n  dup4\n  0xffffffffffffffffffffffffffffffffffffffff\n  and\n  mul\n  or\n  swap1\n  sstore\n  pop\n    /* \"verify/NFT-MP-Combine.sol\":27092:27381  constructor(address wrapToken,\r... */\n  pop\n  pop\n  pop\n    /* \"verify/NFT-MP-Combine.sol\":26337:34244  contract NFTMarketplace is Ownable {\r... */\n  jump(tag_8)\n    /* \"#utility.yul\":7:150   */\ntag_10:\n    /* \"#utility.yul\":64:69   */\n  0x00\n    /* \"#utility.yul\":95:101   */\n  dup2\n    /* \"#utility.yul\":89:102   */\n  mload\n    /* \"#utility.yul\":80:102   */\n  swap1\n  pop\n    /* \"#utility.yul\":111:144   */\n  tag_12\n    /* \"#utility.yul\":138:143   */\n  dup2\n    /* \"#utility.yul\":111:144   */\n  tag_13\n  jump\t// in\ntag_12:\n    /* \"#utility.yul\":70:150   */\n  swap3\n  swap2\n  pop\n  pop\n  jump\t// out\n    /* \"#utility.yul\":156:315   */\ntag_14:\n    /* \"#utility.yul\":221:226   */\n  0x00\n    /* \"#utility.yul\":252:258   */\n  dup2\n    /* \"#utility.yul\":246:259   */\n  mload\n    /* \"#utility.yul\":237:259   */\n  swap1\n  pop\n    /* \"#utility.yul\":268:309   */\n  tag_16\n    /* \"#utility.yul\":303:308   */\n  dup2\n    /* \"#utility.yul\":268:309   */\n  tag_17\n  jump\t// in\ntag_16:\n    /* \"#utility.yul\":227:315   */\n  swap3\n  swap2\n  pop\n  pop\n  jump\t// out\n    /* \"#utility.yul\":321:464   */\ntag_18:\n    /* \"#utility.yul\":378:383   */\n  0x00\n    /* \"#utility.yul\":409:415   */\n  dup2\n    /* \"#utility.yul\":403:416   */\n  mload\n    /* \"#utility.yul\":394:416   */\n  swap1\n  pop\n    /* \"#utility.yul\":425:458   */\n  tag_20\n    /* \"#utility.yul\":452:457   */\n  dup2\n    /* \"#utility.yul\":425:458   */\n  tag_21\n  jump\t// in\ntag_20:\n    /* \"#utility.yul\":384:464   */\n  swap3\n  swap2\n  pop\n  pop\n  jump\t// out\n    /* \"#utility.yul\":470:1082   */\ntag_3:\n    /* \"#utility.yul\":566:572   */\n  0x00\n    /* \"#utility.yul\":574:580   */\n  dup1\n    /* \"#utility.yul\":582:588   */\n  0x00\n    /* \"#utility.yul\":631:633   */\n  0x60\n    /* \"#utility.yul\":619:628   */\n  dup5\n    /* \"#utility.yul\":610:617   */\n  dup7\n    /* \"#utility.yul\":606:629   */\n  sub\n    /* \"#utility.yul\":602:634   */\n  slt\n    /* \"#utility.yul\":599:601   */\n  iszero\n  tag_23\n  jumpi\n    /* \"#utility.yul\":647:648   */\n  0x00\n    /* \"#utility.yul\":644:645   */\n  dup1\n    /* \"#utility.yul\":637:649   */\n  revert\n    /* \"#utility.yul\":599:601   */\ntag_23:\n    /* \"#utility.yul\":690:691   */\n  0x00\n    /* \"#utility.yul\":715:779   */\n  tag_24\n    /* \"#utility.yul\":771:778   */\n  dup7\n    /* \"#utility.yul\":762:768   */\n  dup3\n    /* \"#utility.yul\":751:760   */\n  dup8\n    /* \"#utility.yul\":747:769   */\n  add\n    /* \"#utility.yul\":715:779   */\n  tag_10\n  jump\t// in\ntag_24:\n    /* \"#utility.yul\":705:779   */\n  swap4\n  pop\n    /* \"#utility.yul\":661:789   */\n  pop\n    /* \"#utility.yul\":828:830   */\n  0x20\n    /* \"#utility.yul\":854:918   */\n  tag_25\n    /* \"#utility.yul\":910:917   */\n  dup7\n    /* \"#utility.yul\":901:907   */\n  dup3\n    /* \"#utility.yul\":890:899   */\n  dup8\n    /* \"#utility.yul\":886:908   */\n  add\n    /* \"#utility.yul\":854:918   */\n  tag_18\n  jump\t// in\ntag_25:\n    /* \"#utility.yul\":844:918   */\n  swap3\n  pop\n    /* \"#utility.yul\":799:928   */\n  pop\n    /* \"#utility.yul\":967:969   */\n  0x40\n    /* \"#utility.yul\":993:1065   */\n  tag_26\n    /* \"#utility.yul\":1057:1064   */\n  dup7\n    /* \"#utility.yul\":1048:1054   */\n  dup3\n    /* \"#utility.yul\":1037:1046   */\n  dup8\n    /* \"#utility.yul\":1033:1055   */\n  add\n    /* \"#utility.yul\":993:1065   */\n  tag_14\n  jump\t// in\ntag_26:\n    /* \"#utility.yul\":983:1065   */\n  swap2\n  pop\n    /* \"#utility.yul\":938:1075   */\n  pop\n    /* \"#utility.yul\":589:1082   */\n  swap3\n  pop\n  swap3\n  pop\n  swap3\n  jump\t// out\n    /* \"#utility.yul\":1088:1184   */\ntag_27:\n    /* \"#utility.yul\":1125:1132   */\n  0x00\n    /* \"#utility.yul\":1154:1178   */\n  tag_29\n    /* \"#utility.yul\":1172:1177   */\n  dup3\n    /* \"#utility.yul\":1154:1178   */\n  tag_30\n  jump\t// in\ntag_29:\n    /* \"#utility.yul\":1143:1178   */\n  swap1\n  pop\n    /* \"#utility.yul\":1133:1184   */\n  swap2\n  swap1\n  pop\n  jump\t// out\n    /* \"#utility.yul\":1190:1294   */\ntag_31:\n    /* \"#utility.yul\":1235:1242   */\n  0x00\n    /* \"#utility.yul\":1264:1288   */\n  tag_33\n    /* \"#utility.yul\":1282:1287   */\n  dup3\n    /* \"#utility.yul\":1264:1288   */\n  tag_30\n  jump\t// in\ntag_33:\n    /* \"#utility.yul\":1253:1288   */\n  swap1\n  pop\n    /* \"#utility.yul\":1243:1294   */\n  swap2\n  swap1\n  pop\n  jump\t// out\n    /* \"#utility.yul\":1300:1426   */\ntag_30:\n    /* \"#utility.yul\":1337:1344   */\n  0x00\n    /* \"#utility.yul\":1377:1419   */\n  0xffffffffffffffffffffffffffffffffffffffff\n    /* \"#utility.yul\":1370:1375   */\n  dup3\n    /* \"#utility.yul\":1366:1420   */\n  and\n    /* \"#utility.yul\":1355:1420   */\n  swap1\n  pop\n    /* \"#utility.yul\":1345:1426   */\n  swap2\n  swap1\n  pop\n  jump\t// out\n    /* \"#utility.yul\":1432:1509   */\ntag_35:\n    /* \"#utility.yul\":1469:1476   */\n  0x00\n    /* \"#utility.yul\":1498:1503   */\n  dup2\n    /* \"#utility.yul\":1487:1503   */\n  swap1\n  pop\n    /* \"#utility.yul\":1477:1509   */\n  swap2\n  swap1\n  pop\n  jump\t// out\n    /* \"#utility.yul\":1515:1637   */\ntag_13:\n    /* \"#utility.yul\":1588:1612   */\n  tag_38\n    /* \"#utility.yul\":1606:1611   */\n  dup2\n    /* \"#utility.yul\":1588:1612   */\n  tag_27\n  jump\t// in\ntag_38:\n    /* \"#utility.yul\":1581:1586   */\n  dup2\n    /* \"#utility.yul\":1578:1613   */\n  eq\n    /* \"#utility.yul\":1568:1570   */\n  tag_39\n  jumpi\n    /* \"#utility.yul\":1627:1628   */\n  0x00\n    /* \"#utility.yul\":1624:1625   */\n  dup1\n    /* \"#utility.yul\":1617:1629   */\n  revert\n    /* \"#utility.yul\":1568:1570   */\ntag_39:\n    /* \"#utility.yul\":1558:1637   */\n  pop\n  jump\t// out\n    /* \"#utility.yul\":1643:1781   */\ntag_17:\n    /* \"#utility.yul\":1724:1756   */\n  tag_41\n    /* \"#utility.yul\":1750:1755   */\n  dup2\n    /* \"#utility.yul\":1724:1756   */\n  tag_31\n  jump\t// in\ntag_41:\n    /* \"#utility.yul\":1717:1722   */\n  dup2\n    /* \"#utility.yul\":1714:1757   */\n  eq\n    /* \"#utility.yul\":1704:1706   */\n  tag_42\n  jumpi\n    /* \"#utility.yul\":1771:1772   */\n  0x00\n    /* \"#utility.yul\":1768:1769   */\n  dup1\n    /* \"#utility.yul\":1761:1773   */\n  revert\n    /* \"#utility.yul\":1704:1706   */\ntag_42:\n    /* \"#utility.yul\":1694:1781   */\n  pop\n  jump\t// out\n    /* \"#utility.yul\":1787:1909   */\ntag_21:\n    /* \"#utility.yul\":1860:1884   */\n  tag_44\n    /* \"#utility.yul\":1878:1883   */\n  dup2\n    /* \"#utility.yul\":1860:1884   */\n  tag_35\n  jump\t// in\ntag_44:\n    /* \"#utility.yul\":1853:1858   */\n  dup2\n    /* \"#utility.yul\":1850:1885   */\n  eq\n    /* \"#utility.yul\":1840:1842   */\n  tag_45\n  jumpi\n    /* \"#utility.yul\":1899:1900   */\n  0x00\n    /* \"#utility.yul\":1896:1897   */\n  dup1\n    /* \"#utility.yul\":1889:1901   */\n  revert\n    /* \"#utility.yul\":1840:1842   */\ntag_45:\n    /* \"#utility.yul\":1830:1909   */\n  pop\n  jump\t// out\n    /* \"verify/NFT-MP-Combine.sol\":26337:34244  contract NFTMarketplace is Ownable {\r... */\ntag_8:\n  dataSize(sub_0)\n  dup1\n  dataOffset(sub_0)\n  0x00\n  codecopy\n  0x00\n  return\nstop\n\nsub_0: assembly {\n        /* \"verify/NFT-MP-Combine.sol\":26337:34244  contract NFTMarketplace is Ownable {\r... */\n      mstore(0x40, 0x80)\n      callvalue\n      dup1\n      iszero\n      tag_1\n      jumpi\n      0x00\n      dup1\n      revert\n    tag_1:\n      pop\n      jumpi(tag_2, lt(calldatasize, 0x04))\n      shr(0xe0, calldataload(0x00))\n      dup1\n      0x9677d02e\n      gt\n      tag_19\n      jumpi\n      dup1\n      0xde562487\n      gt\n      tag_20\n      jumpi\n      dup1\n      0xde562487\n      eq\n      tag_15\n      jumpi\n      dup1\n      0xec102464\n      eq\n      tag_16\n      jumpi\n      dup1\n      0xf2fde38b\n      eq\n      tag_17\n      jumpi\n      dup1\n      0xf699343e\n      eq\n      tag_18\n      jumpi\n      jump(tag_2)\n    tag_20:\n      dup1\n      0x9677d02e\n      eq\n      tag_11\n      jumpi\n      dup1\n      0x98590ef9\n      eq\n      tag_12\n      jumpi\n      dup1\n      0xae06c1b7\n      eq\n      tag_13\n      jumpi\n      dup1\n      0xcb278aad\n      eq\n      tag_14\n      jumpi\n      jump(tag_2)\n    tag_19:\n      dup1\n      0x6548d2c2\n      gt\n      tag_21\n      jumpi\n      dup1\n      0x6548d2c2\n      eq\n      tag_7\n      jumpi\n      dup1\n      0x715018a6\n      eq\n      tag_8\n      jumpi\n      dup1\n      0x7564912b\n      eq\n      tag_9\n      jumpi\n      dup1\n      0x8da5cb5b\n      eq\n      tag_10\n      jumpi\n      jump(tag_2)\n    tag_21:\n      dup1\n      0x10ae7085\n      eq\n      tag_3\n      jumpi\n      dup1\n      0x1f40ff84\n      eq\n      tag_4\n      jumpi\n      dup1\n      0x26f8a07a\n      eq\n      tag_5\n      jumpi\n      dup1\n      0x3dfe9242\n      eq\n      tag_6\n      jumpi\n    tag_2:\n      0x00\n      dup1\n      revert\n        /* \"verify/NFT-MP-Combine.sol\":26988:27034  address  payable public _feeDestinationAddress */\n    tag_3:\n      tag_22\n      tag_23\n      jump\t// in\n    tag_22:\n      mload(0x40)\n      tag_24\n      swap2\n      swap1\n      tag_25\n      jump\t// in\n    tag_24:\n      mload(0x40)\n      dup1\n      swap2\n      sub\n      swap1\n      return\n        /* \"verify/NFT-MP-Combine.sol\":31614:33571  function closeMarketForAuctionType(address nftContractId, uint256 tokenId, uint256 price, address buyerAccount ) external{\r... */\n    tag_4:\n      tag_26\n      0x04\n      dup1\n      calldatasize\n      sub\n      dup2\n      add\n      swap1\n      tag_27\n      swap2\n      swap1\n      tag_28\n      jump\t// in\n    tag_27:\n      tag_29\n      jump\t// in\n    tag_26:\n      stop\n        /* \"verify/NFT-MP-Combine.sol\":27622:27748  function setFeeDestinationAddress (address payable value) external onlyOwner{\r... */\n    tag_5:\n      tag_30\n      0x04\n      dup1\n      calldatasize\n      sub\n      dup2\n      add\n      swap1\n      tag_31\n      swap2\n      swap1\n      tag_32\n      jump\t// in\n    tag_31:\n      tag_33\n      jump\t// in\n    tag_30:\n      stop\n        /* \"verify/NFT-MP-Combine.sol\":29610:31606  function closeMarketForFixedType(address nftContractId, uint256 tokenId, uint price ) external { \r... */\n    tag_6:\n      tag_34\n      0x04\n      dup1\n      calldatasize\n      sub\n      dup2\n      add\n      swap1\n      tag_35\n      swap2\n      swap1\n      tag_36\n      jump\t// in\n    tag_35:\n      tag_37\n      jump\t// in\n    tag_34:\n      stop\n        /* \"verify/NFT-MP-Combine.sol\":27940:28156  function getMarketObj(address nftContractId, uint256 tokenId) public view returns (Market memory){\r... */\n    tag_7:\n      tag_38\n      0x04\n      dup1\n      calldatasize\n      sub\n      dup2\n      add\n      swap1\n      tag_39\n      swap2\n      swap1\n      tag_40\n      jump\t// in\n    tag_39:\n      tag_41\n      jump\t// in\n    tag_38:\n      mload(0x40)\n      tag_42\n      swap2\n      swap1\n      tag_43\n      jump\t// in\n    tag_42:\n      mload(0x40)\n      dup1\n      swap2\n      sub\n      swap1\n      return\n        /* \"verify/NFT-MP-Combine.sol\":934:1074  function renounceOwnership() public onlyOwner {\r... */\n    tag_8:\n      tag_44\n      tag_45\n      jump\t// in\n    tag_44:\n      stop\n        /* \"verify/NFT-MP-Combine.sol\":27041:27083  mapping (bytes32 => Market) public markets */\n    tag_9:\n      tag_46\n      0x04\n      dup1\n      calldatasize\n      sub\n      dup2\n      add\n      swap1\n      tag_47\n      swap2\n      swap1\n      tag_48\n      jump\t// in\n    tag_47:\n      tag_49\n      jump\t// in\n    tag_46:\n      mload(0x40)\n      tag_50\n      swap9\n      swap8\n      swap7\n      swap6\n      swap5\n      swap4\n      swap3\n      swap2\n      swap1\n      tag_51\n      jump\t// in\n    tag_50:\n      mload(0x40)\n      dup1\n      swap2\n      sub\n      swap1\n      return\n        /* \"verify/NFT-MP-Combine.sol\":847:926  function owner() public view returns (address) {\r... */\n    tag_10:\n      tag_52\n      tag_53\n      jump\t// in\n    tag_52:\n      mload(0x40)\n      tag_54\n      swap2\n      swap1\n      tag_55\n      jump\t// in\n    tag_54:\n      mload(0x40)\n      dup1\n      swap2\n      sub\n      swap1\n      return\n        /* \"verify/NFT-MP-Combine.sol\":28341:28543  function openMarketForAuctionType(address nftContractId, uint256 tokenId, uint256 price, uint256 maxPrice) external{\r... */\n    tag_11:\n      tag_56\n      0x04\n      dup1\n      calldatasize\n      sub\n      dup2\n      add\n      swap1\n      tag_57\n      swap2\n      swap1\n      tag_58\n      jump\t// in\n    tag_57:\n      tag_59\n      jump\t// in\n    tag_56:\n      stop\n        /* \"verify/NFT-MP-Combine.sol\":33728:34239  function cancel(address nftContractId,  uint256 tokenId) external{\r... */\n    tag_12:\n      tag_60\n      0x04\n      dup1\n      calldatasize\n      sub\n      dup2\n      add\n      swap1\n      tag_61\n      swap2\n      swap1\n      tag_40\n      jump\t// in\n    tag_61:\n      tag_62\n      jump\t// in\n    tag_60:\n      stop\n        /* \"verify/NFT-MP-Combine.sol\":27512:27614  function setFeePercentage (uint256 value) external onlyOwner{\r... */\n    tag_13:\n      tag_63\n      0x04\n      dup1\n      calldatasize\n      sub\n      dup2\n      add\n      swap1\n      tag_64\n      swap2\n      swap1\n      tag_65\n      jump\t// in\n    tag_64:\n      tag_66\n      jump\t// in\n    tag_63:\n      stop\n        /* \"verify/NFT-MP-Combine.sol\":26921:26945  IERC20 public _wrapToken */\n    tag_14:\n      tag_67\n      tag_68\n      jump\t// in\n    tag_67:\n      mload(0x40)\n      tag_69\n      swap2\n      swap1\n      tag_70\n      jump\t// in\n    tag_69:\n      mload(0x40)\n      dup1\n      swap2\n      sub\n      swap1\n      return\n        /* \"verify/NFT-MP-Combine.sol\":27389:27506  function setERC20Token (address erc20Token) external onlyOwner{\r... */\n    tag_15:\n      tag_71\n      0x04\n      dup1\n      calldatasize\n      sub\n      dup2\n      add\n      swap1\n      tag_72\n      swap2\n      swap1\n      tag_73\n      jump\t// in\n    tag_72:\n      tag_74\n      jump\t// in\n    tag_71:\n      stop\n        /* \"verify/NFT-MP-Combine.sol\":28164:28333  function openMarketForFixedType(address nftContractId, uint256 tokenId, uint256 price) external{\r... */\n    tag_16:\n      tag_75\n      0x04\n      dup1\n      calldatasize\n      sub\n      dup2\n      add\n      swap1\n      tag_76\n      swap2\n      swap1\n      tag_36\n      jump\t// in\n    tag_76:\n      tag_77\n      jump\t// in\n    tag_75:\n      stop\n        /* \"verify/NFT-MP-Combine.sol\":1178:1287  function transferOwnership(address newOwner) public onlyOwner {\r... */\n    tag_17:\n      tag_78\n      0x04\n      dup1\n      calldatasize\n      sub\n      dup2\n      add\n      swap1\n      tag_79\n      swap2\n      swap1\n      tag_73\n      jump\t// in\n    tag_79:\n      tag_80\n      jump\t// in\n    tag_78:\n      stop\n        /* \"verify/NFT-MP-Combine.sol\":26952:26981  uint256 public _feePercentage */\n    tag_18:\n      tag_81\n      tag_82\n      jump\t// in\n    tag_81:\n      mload(0x40)\n      tag_83\n      swap2\n      swap1\n      tag_84\n      jump\t// in\n    tag_83:\n      mload(0x40)\n      dup1\n      swap2\n      sub\n      swap1\n      return\n        /* \"verify/NFT-MP-Combine.sol\":26988:27034  address  payable public _feeDestinationAddress */\n    tag_23:\n      0x03\n      0x00\n      swap1\n      sload\n      swap1\n      0x0100\n      exp\n      swap1\n      div\n      0xffffffffffffffffffffffffffffffffffffffff\n      and\n      dup2\n      jump\t// out\n        /* \"verify/NFT-MP-Combine.sol\":31614:33571  function closeMarketForAuctionType(address nftContractId, uint256 tokenId, uint256 price, address buyerAccount ) external{\r... */\n    tag_29:\n        /* \"verify/NFT-MP-Combine.sol\":31746:31763  bytes32 uniqueKey */\n      0x00\n        /* \"verify/NFT-MP-Combine.sol\":31766:31808  getPrivateUniqueKey(nftContractId,tokenId) */\n      tag_86\n        /* \"verify/NFT-MP-Combine.sol\":31786:31799  nftContractId */\n      dup6\n        /* \"verify/NFT-MP-Combine.sol\":31800:31807  tokenId */\n      dup6\n        /* \"verify/NFT-MP-Combine.sol\":31766:31785  getPrivateUniqueKey */\n      tag_87\n        /* \"verify/NFT-MP-Combine.sol\":31766:31808  getPrivateUniqueKey(nftContractId,tokenId) */\n      jump\t// in\n    tag_86:\n        /* \"verify/NFT-MP-Combine.sol\":31746:31808  bytes32 uniqueKey = getPrivateUniqueKey(nftContractId,tokenId) */\n      swap1\n      pop\n        /* \"verify/NFT-MP-Combine.sol\":31859:31869  msg.sender */\n      caller\n        /* \"verify/NFT-MP-Combine.sol\":31824:31869  markets[uniqueKey].currentOwner != msg.sender */\n      0xffffffffffffffffffffffffffffffffffffffff\n      and\n        /* \"verify/NFT-MP-Combine.sol\":31824:31831  markets */\n      0x04\n        /* \"verify/NFT-MP-Combine.sol\":31824:31842  markets[uniqueKey] */\n      0x00\n        /* \"verify/NFT-MP-Combine.sol\":31832:31841  uniqueKey */\n      dup4\n        /* \"verify/NFT-MP-Combine.sol\":31824:31842  markets[uniqueKey] */\n      dup2\n      mstore\n      0x20\n      add\n      swap1\n      dup2\n      mstore\n      0x20\n      add\n      0x00\n      keccak256\n        /* \"verify/NFT-MP-Combine.sol\":31824:31855  markets[uniqueKey].currentOwner */\n      0x05\n      add\n      0x00\n      swap1\n      sload\n      swap1\n      0x0100\n      exp\n      swap1\n      div\n      0xffffffffffffffffffffffffffffffffffffffff\n      and\n        /* \"verify/NFT-MP-Combine.sol\":31824:31869  markets[uniqueKey].currentOwner != msg.sender */\n      0xffffffffffffffffffffffffffffffffffffffff\n      and\n      eq\n        /* \"verify/NFT-MP-Combine.sol\":31821:31932  if(markets[uniqueKey].currentOwner != msg.sender){\r... */\n      tag_88\n      jumpi\n        /* \"verify/NFT-MP-Combine.sol\":31885:31920  revert (\"only for market operator\") */\n      mload(0x40)\n      0x08c379a000000000000000000000000000000000000000000000000000000000\n      dup2\n      mstore\n      0x04\n      add\n      tag_89\n      swap1\n      tag_90\n      jump\t// in\n    tag_89:\n      mload(0x40)\n      dup1\n      swap2\n      sub\n      swap1\n      revert\n        /* \"verify/NFT-MP-Combine.sol\":31821:31932  if(markets[uniqueKey].currentOwner != msg.sender){\r... */\n    tag_88:\n        /* \"verify/NFT-MP-Combine.sol\":31983:32012  EOrderStatus.OpenForTheMarket */\n      0x01\n        /* \"verify/NFT-MP-Combine.sol\":31949:32012  markets[uniqueKey].orderStatus == EOrderStatus.OpenForTheMarket */\n      0x03\n      dup2\n      gt\n      iszero\n      tag_91\n      jumpi\n      mstore(0x00, 0x4e487b7100000000000000000000000000000000000000000000000000000000)\n      mstore(0x04, 0x21)\n      revert(0x00, 0x24)\n    tag_91:\n        /* \"verify/NFT-MP-Combine.sol\":31949:31956  markets */\n      0x04\n        /* \"verify/NFT-MP-Combine.sol\":31949:31967  markets[uniqueKey] */\n      0x00\n        /* \"verify/NFT-MP-Combine.sol\":31957:31966  uniqueKey */\n      dup4\n        /* \"verify/NFT-MP-Combine.sol\":31949:31967  markets[uniqueKey] */\n      dup2\n      mstore\n      0x20\n      add\n      swap1\n      dup2\n      mstore\n      0x20\n      add\n      0x00\n      keccak256\n        /* \"verify/NFT-MP-Combine.sol\":31949:31979  markets[uniqueKey].orderStatus */\n      0x02\n      add\n      0x01\n      swap1\n      sload\n      swap1\n      0x0100\n      exp\n      swap1\n      div\n      0xff\n      and\n        /* \"verify/NFT-MP-Combine.sol\":31949:32012  markets[uniqueKey].orderStatus == EOrderStatus.OpenForTheMarket */\n      0x03\n      dup2\n      gt\n      iszero\n      tag_92\n      jumpi\n      mstore(0x00, 0x4e487b7100000000000000000000000000000000000000000000000000000000)\n      mstore(0x04, 0x21)\n      revert(0x00, 0x24)\n    tag_92:\n      eq\n        /* \"verify/NFT-MP-Combine.sol\":31946:33564  if(markets[uniqueKey].orderStatus == EOrderStatus.OpenForTheMarket){\r... */\n      iszero\n      tag_93\n      jumpi\n        /* \"verify/NFT-MP-Combine.sol\":32063:32081  EOrderType.Auction */\n      0x02\n        /* \"verify/NFT-MP-Combine.sol\":32031:32081  markets[uniqueKey].orderType != EOrderType.Auction */\n      dup1\n      dup2\n      gt\n      iszero\n      tag_94\n      jumpi\n      mstore(0x00, 0x4e487b7100000000000000000000000000000000000000000000000000000000)\n      mstore(0x04, 0x21)\n      revert(0x00, 0x24)\n    tag_94:\n        /* \"verify/NFT-MP-Combine.sol\":32031:32038  markets */\n      0x04\n        /* \"verify/NFT-MP-Combine.sol\":32031:32049  markets[uniqueKey] */\n      0x00\n        /* \"verify/NFT-MP-Combine.sol\":32039:32048  uniqueKey */\n      dup4\n        /* \"verify/NFT-MP-Combine.sol\":32031:32049  markets[uniqueKey] */\n      dup2\n      mstore\n      0x20\n      add\n      swap1\n      dup2\n      mstore\n      0x20\n      add\n      0x00\n      keccak256\n        /* \"verify/NFT-MP-Combine.sol\":32031:32059  markets[uniqueKey].orderType */\n      0x02\n      add\n      0x00\n      swap1\n      sload\n      swap1\n      0x0100\n      exp\n      swap1\n      div\n      0xff\n      and\n        /* \"verify/NFT-MP-Combine.sol\":32031:32081  markets[uniqueKey].orderType != EOrderType.Auction */\n      0x02\n      dup2\n      gt\n      iszero\n      tag_95\n      jumpi\n      mstore(0x00, 0x4e487b7100000000000000000000000000000000000000000000000000000000)\n      mstore(0x04, 0x21)\n      revert(0x00, 0x24)\n    tag_95:\n      eq\n        /* \"verify/NFT-MP-Combine.sol\":32028:32155  if(markets[uniqueKey].orderType != EOrderType.Auction){\r... */\n      tag_96\n      jumpi\n        /* \"verify/NFT-MP-Combine.sol\":32101:32139  revert (\"nft is not open for Auction\") */\n      mload(0x40)\n      0x08c379a000000000000000000000000000000000000000000000000000000000\n      dup2\n      mstore\n      0x04\n      add\n      tag_97\n      swap1\n      tag_98\n      jump\t// in\n    tag_97:\n      mload(0x40)\n      dup1\n      swap2\n      sub\n      swap1\n      revert\n        /* \"verify/NFT-MP-Combine.sol\":32028:32155  if(markets[uniqueKey].orderType != EOrderType.Auction){\r... */\n    tag_96:\n        /* \"verify/NFT-MP-Combine.sol\":32205:32210  price */\n      dup3\n        /* \"verify/NFT-MP-Combine.sol\":32174:32181  markets */\n      0x04\n        /* \"verify/NFT-MP-Combine.sol\":32174:32192  markets[uniqueKey] */\n      0x00\n        /* \"verify/NFT-MP-Combine.sol\":32182:32191  uniqueKey */\n      dup4\n        /* \"verify/NFT-MP-Combine.sol\":32174:32192  markets[uniqueKey] */\n      dup2\n      mstore\n      0x20\n      add\n      swap1\n      dup2\n      mstore\n      0x20\n      add\n      0x00\n      keccak256\n        /* \"verify/NFT-MP-Combine.sol\":32174:32202  markets[uniqueKey].askAmount */\n      0x03\n      add\n      sload\n        /* \"verify/NFT-MP-Combine.sol\":32174:32210  markets[uniqueKey].askAmount < price */\n      lt\n        /* \"verify/NFT-MP-Combine.sol\":32171:33485  if(markets[uniqueKey].askAmount < price){\r... */\n      iszero\n      tag_99\n      jumpi\n        /* \"verify/NFT-MP-Combine.sol\":32230:32254  INFTContract nftContract */\n      0x00\n        /* \"verify/NFT-MP-Combine.sol\":32270:32277  markets */\n      0x04\n        /* \"verify/NFT-MP-Combine.sol\":32270:32288  markets[uniqueKey] */\n      0x00\n        /* \"verify/NFT-MP-Combine.sol\":32278:32287  uniqueKey */\n      dup4\n        /* \"verify/NFT-MP-Combine.sol\":32270:32288  markets[uniqueKey] */\n      dup2\n      mstore\n      0x20\n      add\n      swap1\n      dup2\n      mstore\n      0x20\n      add\n      0x00\n      keccak256\n        /* \"verify/NFT-MP-Combine.sol\":32270:32304  markets[uniqueKey].contractAddress */\n      0x00\n      add\n      0x00\n      swap1\n      sload\n      swap1\n      0x0100\n      exp\n      swap1\n      div\n      0xffffffffffffffffffffffffffffffffffffffff\n      and\n        /* \"verify/NFT-MP-Combine.sol\":32230:32305  INFTContract nftContract = INFTContract(markets[uniqueKey].contractAddress) */\n      swap1\n      pop\n        /* \"verify/NFT-MP-Combine.sol\":32358:32369  uint256 fee */\n      0x00\n        /* \"verify/NFT-MP-Combine.sol\":32372:32411  getFeePercentage(price, _feePercentage) */\n      tag_100\n        /* \"verify/NFT-MP-Combine.sol\":32389:32394  price */\n      dup6\n        /* \"verify/NFT-MP-Combine.sol\":32396:32410  _feePercentage */\n      sload(0x02)\n        /* \"verify/NFT-MP-Combine.sol\":32372:32388  getFeePercentage */\n      tag_101\n        /* \"verify/NFT-MP-Combine.sol\":32372:32411  getFeePercentage(price, _feePercentage) */\n      jump\t// in\n    tag_100:\n        /* \"verify/NFT-MP-Combine.sol\":32358:32411  uint256 fee = getFeePercentage(price, _feePercentage) */\n      swap1\n      pop\n        /* \"verify/NFT-MP-Combine.sol\":32457:32458  0 */\n      0x00\n        /* \"verify/NFT-MP-Combine.sol\":32451:32454  fee */\n      dup2\n        /* \"verify/NFT-MP-Combine.sol\":32451:32458  fee > 0 */\n      gt\n        /* \"verify/NFT-MP-Combine.sol\":32448:32566  if(fee > 0){\r... */\n      iszero\n      tag_102\n      jumpi\n        /* \"verify/NFT-MP-Combine.sol\":32482:32492  _wrapToken */\n      0x01\n      0x00\n      swap1\n      sload\n      swap1\n      0x0100\n      exp\n      swap1\n      div\n      0xffffffffffffffffffffffffffffffffffffffff\n      and\n        /* \"verify/NFT-MP-Combine.sol\":32482:32505  _wrapToken.transferFrom */\n      0xffffffffffffffffffffffffffffffffffffffff\n      and\n      0x23b872dd\n        /* \"verify/NFT-MP-Combine.sol\":32506:32518  buyerAccount */\n      dup6\n        /* \"verify/NFT-MP-Combine.sol\":32519:32541  _feeDestinationAddress */\n      0x03\n      0x00\n      swap1\n      sload\n      swap1\n      0x0100\n      exp\n      swap1\n      div\n      0xffffffffffffffffffffffffffffffffffffffff\n      and\n        /* \"verify/NFT-MP-Combine.sol\":32542:32545  fee */\n      dup5\n        /* \"verify/NFT-MP-Combine.sol\":32482:32546  _wrapToken.transferFrom(buyerAccount,_feeDestinationAddress,fee) */\n      mload(0x40)\n      dup5\n      0xffffffff\n      and\n      0xe0\n      shl\n      dup2\n      mstore\n      0x04\n      add\n      tag_103\n      swap4\n      swap3\n      swap2\n      swap1\n      tag_104\n      jump\t// in\n    tag_103:\n      0x20\n      mload(0x40)\n      dup1\n      dup4\n      sub\n      dup2\n      0x00\n      dup8\n      dup1\n      extcodesize\n      iszero\n      dup1\n      iszero\n      tag_105\n      jumpi\n      0x00\n      dup1\n      revert\n    tag_105:\n      pop\n      gas\n      call\n      iszero\n      dup1\n      iszero\n      tag_107\n      jumpi\n      returndatasize\n      0x00\n      dup1\n      returndatacopy\n      revert(0x00, returndatasize)\n    tag_107:\n      pop\n      pop\n      pop\n      pop\n      mload(0x40)\n      returndatasize\n      not(0x1f)\n      0x1f\n      dup3\n      add\n      and\n      dup3\n      add\n      dup1\n      0x40\n      mstore\n      pop\n      dup2\n      add\n      swap1\n      tag_108\n      swap2\n      swap1\n      tag_109\n      jump\t// in\n    tag_108:\n      pop\n        /* \"verify/NFT-MP-Combine.sol\":32448:32566  if(fee > 0){\r... */\n    tag_102:\n        /* \"verify/NFT-MP-Combine.sol\":32633:32649  uint256 royality */\n      0x00\n        /* \"verify/NFT-MP-Combine.sol\":32651:32666  address creator */\n      dup1\n        /* \"verify/NFT-MP-Combine.sol\":32670:32681  nftContract */\n      dup4\n        /* \"verify/NFT-MP-Combine.sol\":32670:32700  nftContract.getRoyalityDetails */\n      0xffffffffffffffffffffffffffffffffffffffff\n      and\n      0x179efa20\n        /* \"verify/NFT-MP-Combine.sol\":32701:32708  tokenId */\n      dup10\n        /* \"verify/NFT-MP-Combine.sol\":32670:32709  nftContract.getRoyalityDetails(tokenId) */\n      mload(0x40)\n      dup3\n      0xffffffff\n      and\n      0xe0\n      shl\n      dup2\n      mstore\n      0x04\n      add\n      tag_110\n      swap2\n      swap1\n      tag_84\n      jump\t// in\n    tag_110:\n      0x40\n      dup1\n      mload\n      dup1\n      dup4\n      sub\n      dup2\n      dup7\n      dup1\n      extcodesize\n      iszero\n      dup1\n      iszero\n      tag_111\n      jumpi\n      0x00\n      dup1\n      revert\n    tag_111:\n      pop\n      gas\n      staticcall\n      iszero\n      dup1\n      iszero\n      tag_113\n      jumpi\n      returndatasize\n      0x00\n      dup1\n      returndatacopy\n      revert(0x00, returndatasize)\n    tag_113:\n      pop\n      pop\n      pop\n      pop\n      mload(0x40)\n      returndatasize\n      not(0x1f)\n      0x1f\n      dup3\n      add\n      and\n      dup3\n      add\n      dup1\n      0x40\n      mstore\n      pop\n      dup2\n      add\n      swap1\n      tag_114\n      swap2\n      swap1\n      tag_115\n      jump\t// in\n    tag_114:\n        /* \"verify/NFT-MP-Combine.sol\":32632:32709  (uint256 royality, address creator) = nftContract.getRoyalityDetails(tokenId) */\n      swap2\n      pop\n      swap2\n      pop\n        /* \"verify/NFT-MP-Combine.sol\":32728:32747  uint256 royalityFee */\n      0x00\n        /* \"verify/NFT-MP-Combine.sol\":32750:32783  getFeePercentage(price, royality) */\n      tag_116\n        /* \"verify/NFT-MP-Combine.sol\":32767:32772  price */\n      dup9\n        /* \"verify/NFT-MP-Combine.sol\":32774:32782  royality */\n      dup5\n        /* \"verify/NFT-MP-Combine.sol\":32750:32766  getFeePercentage */\n      tag_101\n        /* \"verify/NFT-MP-Combine.sol\":32750:32783  getFeePercentage(price, royality) */\n      jump\t// in\n    tag_116:\n        /* \"verify/NFT-MP-Combine.sol\":32728:32783  uint256 royalityFee = getFeePercentage(price, royality) */\n      swap1\n      pop\n        /* \"verify/NFT-MP-Combine.sol\":32802:32812  _wrapToken */\n      0x01\n      0x00\n      swap1\n      sload\n      swap1\n      0x0100\n      exp\n      swap1\n      div\n      0xffffffffffffffffffffffffffffffffffffffff\n      and\n        /* \"verify/NFT-MP-Combine.sol\":32802:32825  _wrapToken.transferFrom */\n      0xffffffffffffffffffffffffffffffffffffffff\n      and\n      0x23b872dd\n        /* \"verify/NFT-MP-Combine.sol\":32826:32838  buyerAccount */\n      dup9\n        /* \"verify/NFT-MP-Combine.sol\":32839:32846  creator */\n      dup5\n        /* \"verify/NFT-MP-Combine.sol\":32847:32858  royalityFee */\n      dup5\n        /* \"verify/NFT-MP-Combine.sol\":32802:32859  _wrapToken.transferFrom(buyerAccount,creator,royalityFee) */\n      mload(0x40)\n      dup5\n      0xffffffff\n      and\n      0xe0\n      shl\n      dup2\n      mstore\n      0x04\n      add\n      tag_117\n      swap4\n      swap3\n      swap2\n      swap1\n      tag_118\n      jump\t// in\n    tag_117:\n      0x20\n      mload(0x40)\n      dup1\n      dup4\n      sub\n      dup2\n      0x00\n      dup8\n      dup1\n      extcodesize\n      iszero\n      dup1\n      iszero\n      tag_119\n      jumpi\n      0x00\n      dup1\n      revert\n    tag_119:\n      pop\n      gas\n      call\n      iszero\n      dup1\n      iszero\n      tag_121\n      jumpi\n      returndatasize\n      0x00\n      dup1\n      returndatacopy\n      revert(0x00, returndatasize)\n    tag_121:\n      pop\n      pop\n      pop\n      pop\n      mload(0x40)\n      returndatasize\n      not(0x1f)\n      0x1f\n      dup3\n      add\n      and\n      dup3\n      add\n      dup1\n      0x40\n      mstore\n      pop\n      dup2\n      add\n      swap1\n      tag_122\n      swap2\n      swap1\n      tag_109\n      jump\t// in\n    tag_122:\n      pop\n        /* \"verify/NFT-MP-Combine.sol\":32878:32896  uint256 ownerShare */\n      0x00\n        /* \"verify/NFT-MP-Combine.sol\":32899:32930  price.sub(fee.add(royalityFee)) */\n      tag_123\n        /* \"verify/NFT-MP-Combine.sol\":32909:32929  fee.add(royalityFee) */\n      tag_124\n        /* \"verify/NFT-MP-Combine.sol\":32917:32928  royalityFee */\n      dup4\n        /* \"verify/NFT-MP-Combine.sol\":32909:32912  fee */\n      dup8\n        /* \"verify/NFT-MP-Combine.sol\":32909:32916  fee.add */\n      tag_125\n      swap1\n        /* \"verify/NFT-MP-Combine.sol\":32909:32929  fee.add(royalityFee) */\n      swap2\n      swap1\n      0xffffffff\n      and\n      jump\t// in\n    tag_124:\n        /* \"verify/NFT-MP-Combine.sol\":32899:32904  price */\n      dup11\n        /* \"verify/NFT-MP-Combine.sol\":32899:32908  price.sub */\n      tag_126\n      swap1\n        /* \"verify/NFT-MP-Combine.sol\":32899:32930  price.sub(fee.add(royalityFee)) */\n      swap2\n      swap1\n      0xffffffff\n      and\n      jump\t// in\n    tag_123:\n        /* \"verify/NFT-MP-Combine.sol\":32878:32930  uint256 ownerShare = price.sub(fee.add(royalityFee)) */\n      swap1\n      pop\n        /* \"verify/NFT-MP-Combine.sol\":32992:33002  _wrapToken */\n      0x01\n      0x00\n      swap1\n      sload\n      swap1\n      0x0100\n      exp\n      swap1\n      div\n      0xffffffffffffffffffffffffffffffffffffffff\n      and\n        /* \"verify/NFT-MP-Combine.sol\":32992:33015  _wrapToken.transferFrom */\n      0xffffffffffffffffffffffffffffffffffffffff\n      and\n      0x23b872dd\n        /* \"verify/NFT-MP-Combine.sol\":33016:33028  buyerAccount */\n      dup10\n        /* \"verify/NFT-MP-Combine.sol\":33029:33036  markets */\n      0x04\n        /* \"verify/NFT-MP-Combine.sol\":33029:33047  markets[uniqueKey] */\n      0x00\n        /* \"verify/NFT-MP-Combine.sol\":33037:33046  uniqueKey */\n      dup12\n        /* \"verify/NFT-MP-Combine.sol\":33029:33047  markets[uniqueKey] */\n      dup2\n      mstore\n      0x20\n      add\n      swap1\n      dup2\n      mstore\n      0x20\n      add\n      0x00\n      keccak256\n        /* \"verify/NFT-MP-Combine.sol\":33029:33060  markets[uniqueKey].currentOwner */\n      0x05\n      add\n      0x00\n      swap1\n      sload\n      swap1\n      0x0100\n      exp\n      swap1\n      div\n      0xffffffffffffffffffffffffffffffffffffffff\n      and\n        /* \"verify/NFT-MP-Combine.sol\":33061:33071  ownerShare */\n      dup5\n        /* \"verify/NFT-MP-Combine.sol\":32992:33072  _wrapToken.transferFrom(buyerAccount,markets[uniqueKey].currentOwner,ownerShare) */\n      mload(0x40)\n      dup5\n      0xffffffff\n      and\n      0xe0\n      shl\n      dup2\n      mstore\n      0x04\n      add\n      tag_127\n      swap4\n      swap3\n      swap2\n      swap1\n      tag_118\n      jump\t// in\n    tag_127:\n      0x20\n      mload(0x40)\n      dup1\n      dup4\n      sub\n      dup2\n      0x00\n      dup8\n      dup1\n      extcodesize\n      iszero\n      dup1\n      iszero\n      tag_128\n      jumpi\n      0x00\n      dup1\n      revert\n    tag_128:\n      pop\n      gas\n      call\n      iszero\n      dup1\n      iszero\n      tag_130\n      jumpi\n      returndatasize\n      0x00\n      dup1\n      returndatacopy\n      revert(0x00, returndatasize)\n    tag_130:\n      pop\n      pop\n      pop\n      pop\n      mload(0x40)\n      returndatasize\n      not(0x1f)\n      0x1f\n      dup3\n      add\n      and\n      dup3\n      add\n      dup1\n      0x40\n      mstore\n      pop\n      dup2\n      add\n      swap1\n      tag_131\n      swap2\n      swap1\n      tag_109\n      jump\t// in\n    tag_131:\n      pop\n        /* \"verify/NFT-MP-Combine.sol\":33139:33150  nftContract */\n      dup6\n        /* \"verify/NFT-MP-Combine.sol\":33139:33167  nftContract.safeTransferFrom */\n      0xffffffffffffffffffffffffffffffffffffffff\n      and\n      0x42842e0e\n        /* \"verify/NFT-MP-Combine.sol\":33168:33175  markets */\n      0x04\n        /* \"verify/NFT-MP-Combine.sol\":33168:33186  markets[uniqueKey] */\n      0x00\n        /* \"verify/NFT-MP-Combine.sol\":33176:33185  uniqueKey */\n      dup11\n        /* \"verify/NFT-MP-Combine.sol\":33168:33186  markets[uniqueKey] */\n      dup2\n      mstore\n      0x20\n      add\n      swap1\n      dup2\n      mstore\n      0x20\n      add\n      0x00\n      keccak256\n        /* \"verify/NFT-MP-Combine.sol\":33168:33199  markets[uniqueKey].currentOwner */\n      0x05\n      add\n      0x00\n      swap1\n      sload\n      swap1\n      0x0100\n      exp\n      swap1\n      div\n      0xffffffffffffffffffffffffffffffffffffffff\n      and\n        /* \"verify/NFT-MP-Combine.sol\":33201:33213  buyerAccount */\n      dup11\n        /* \"verify/NFT-MP-Combine.sol\":33215:33222  tokenId */\n      dup14\n        /* \"verify/NFT-MP-Combine.sol\":33139:33223  nftContract.safeTransferFrom(markets[uniqueKey].currentOwner, buyerAccount, tokenId) */\n      mload(0x40)\n      dup5\n      0xffffffff\n      and\n      0xe0\n      shl\n      dup2\n      mstore\n      0x04\n      add\n      tag_132\n      swap4\n      swap3\n      swap2\n      swap1\n      tag_118\n      jump\t// in\n    tag_132:\n      0x00\n      mload(0x40)\n      dup1\n      dup4\n      sub\n      dup2\n      0x00\n      dup8\n      dup1\n      extcodesize\n      iszero\n      dup1\n      iszero\n      tag_133\n      jumpi\n      0x00\n      dup1\n      revert\n    tag_133:\n      pop\n      gas\n      call\n      iszero\n      dup1\n      iszero\n      tag_135\n      jumpi\n      returndatasize\n      0x00\n      dup1\n      returndatacopy\n      revert(0x00, returndatasize)\n    tag_135:\n      pop\n      pop\n      pop\n      pop\n        /* \"verify/NFT-MP-Combine.sol\":33314:33339  EOrderStatus.MarketClosed */\n      0x03\n        /* \"verify/NFT-MP-Combine.sol\":33281:33288  markets */\n      0x04\n        /* \"verify/NFT-MP-Combine.sol\":33281:33299  markets[uniqueKey] */\n      0x00\n        /* \"verify/NFT-MP-Combine.sol\":33289:33298  uniqueKey */\n      dup10\n        /* \"verify/NFT-MP-Combine.sol\":33281:33299  markets[uniqueKey] */\n      dup2\n      mstore\n      0x20\n      add\n      swap1\n      dup2\n      mstore\n      0x20\n      add\n      0x00\n      keccak256\n        /* \"verify/NFT-MP-Combine.sol\":33281:33311  markets[uniqueKey].orderStatus */\n      0x02\n      add\n      0x01\n        /* \"verify/NFT-MP-Combine.sol\":33281:33339  markets[uniqueKey].orderStatus = EOrderStatus.MarketClosed */\n      0x0100\n      exp\n      dup2\n      sload\n      dup2\n      0xff\n      mul\n      not\n      and\n      swap1\n      dup4\n      0x03\n      dup2\n      gt\n      iszero\n      tag_136\n      jumpi\n      mstore(0x00, 0x4e487b7100000000000000000000000000000000000000000000000000000000)\n      mstore(0x04, 0x21)\n      revert(0x00, 0x24)\n    tag_136:\n      mul\n      or\n      swap1\n      sstore\n      pop\n        /* \"verify/NFT-MP-Combine.sol\":33388:33400  buyerAccount */\n      dup8\n        /* \"verify/NFT-MP-Combine.sol\":33358:33365  markets */\n      0x04\n        /* \"verify/NFT-MP-Combine.sol\":33358:33376  markets[uniqueKey] */\n      0x00\n        /* \"verify/NFT-MP-Combine.sol\":33366:33375  uniqueKey */\n      dup10\n        /* \"verify/NFT-MP-Combine.sol\":33358:33376  markets[uniqueKey] */\n      dup2\n      mstore\n      0x20\n      add\n      swap1\n      dup2\n      mstore\n      0x20\n      add\n      0x00\n      keccak256\n        /* \"verify/NFT-MP-Combine.sol\":33358:33385  markets[uniqueKey].newOwner */\n      0x06\n      add\n      0x00\n        /* \"verify/NFT-MP-Combine.sol\":33358:33400  markets[uniqueKey].newOwner = buyerAccount */\n      0x0100\n      exp\n      dup2\n      sload\n      dup2\n      0xffffffffffffffffffffffffffffffffffffffff\n      mul\n      not\n      and\n      swap1\n      dup4\n      0xffffffffffffffffffffffffffffffffffffffff\n      and\n      mul\n      or\n      swap1\n      sstore\n      pop\n        /* \"verify/NFT-MP-Combine.sol\":32171:33485  if(markets[uniqueKey].askAmount < price){\r... */\n      pop\n      pop\n      pop\n      pop\n      pop\n      pop\n      jump(tag_137)\n    tag_99:\n        /* \"verify/NFT-MP-Combine.sol\":33441:33469  revert (\"Value not matched\") */\n      mload(0x40)\n      0x08c379a000000000000000000000000000000000000000000000000000000000\n      dup2\n      mstore\n      0x04\n      add\n      tag_138\n      swap1\n      tag_139\n      jump\t// in\n    tag_138:\n      mload(0x40)\n      dup1\n      swap2\n      sub\n      swap1\n      revert\n        /* \"verify/NFT-MP-Combine.sol\":32171:33485  if(markets[uniqueKey].askAmount < price){\r... */\n    tag_137:\n        /* \"verify/NFT-MP-Combine.sol\":31946:33564  if(markets[uniqueKey].orderStatus == EOrderStatus.OpenForTheMarket){\r... */\n      jump(tag_140)\n    tag_93:\n        /* \"verify/NFT-MP-Combine.sol\":33515:33552  revert (\"Market order is not opened\") */\n      mload(0x40)\n      0x08c379a000000000000000000000000000000000000000000000000000000000\n      dup2\n      mstore\n      0x04\n      add\n      tag_141\n      swap1\n      tag_142\n      jump\t// in\n    tag_141:\n      mload(0x40)\n      dup1\n      swap2\n      sub\n      swap1\n      revert\n        /* \"verify/NFT-MP-Combine.sol\":31946:33564  if(markets[uniqueKey].orderStatus == EOrderStatus.OpenForTheMarket){\r... */\n    tag_140:\n        /* \"verify/NFT-MP-Combine.sol\":31614:33571  function closeMarketForAuctionType(address nftContractId, uint256 tokenId, uint256 price, address buyerAccount ) external{\r... */\n      pop\n      pop\n      pop\n      pop\n      pop\n      jump\t// out\n        /* \"verify/NFT-MP-Combine.sol\":27622:27748  function setFeeDestinationAddress (address payable value) external onlyOwner{\r... */\n    tag_33:\n        /* \"verify/NFT-MP-Combine.sol\":454:464  msg.sender */\n      caller\n        /* \"verify/NFT-MP-Combine.sol\":444:464  _owner == msg.sender */\n      0xffffffffffffffffffffffffffffffffffffffff\n      and\n        /* \"verify/NFT-MP-Combine.sol\":444:450  _owner */\n      0x00\n      dup1\n      sload\n      swap1\n      0x0100\n      exp\n      swap1\n      div\n      0xffffffffffffffffffffffffffffffffffffffff\n      and\n        /* \"verify/NFT-MP-Combine.sol\":444:464  _owner == msg.sender */\n      0xffffffffffffffffffffffffffffffffffffffff\n      and\n      eq\n        /* \"verify/NFT-MP-Combine.sol\":422:534  require(\r... */\n      tag_144\n      jumpi\n      mload(0x40)\n      0x08c379a000000000000000000000000000000000000000000000000000000000\n      dup2\n      mstore\n      0x04\n      add\n      tag_145\n      swap1\n      tag_146\n      jump\t// in\n    tag_145:\n      mload(0x40)\n      dup1\n      swap2\n      sub\n      swap1\n      revert\n    tag_144:\n        /* \"verify/NFT-MP-Combine.sol\":27734:27739  value */\n      dup1\n        /* \"verify/NFT-MP-Combine.sol\":27709:27731  _feeDestinationAddress */\n      0x03\n      0x00\n        /* \"verify/NFT-MP-Combine.sol\":27709:27739  _feeDestinationAddress = value */\n      0x0100\n      exp\n      dup2\n      sload\n      dup2\n      0xffffffffffffffffffffffffffffffffffffffff\n      mul\n      not\n      and\n      swap1\n      dup4\n      0xffffffffffffffffffffffffffffffffffffffff\n      and\n      mul\n      or\n      swap1\n      sstore\n      pop\n        /* \"verify/NFT-MP-Combine.sol\":27622:27748  function setFeeDestinationAddress (address payable value) external onlyOwner{\r... */\n      pop\n      jump\t// out\n        /* \"verify/NFT-MP-Combine.sol\":29610:31606  function closeMarketForFixedType(address nftContractId, uint256 tokenId, uint price ) external { \r... */\n    tag_37:\n        /* \"verify/NFT-MP-Combine.sol\":29717:29734  bytes32 uniqueKey */\n      0x00\n        /* \"verify/NFT-MP-Combine.sol\":29737:29779  getPrivateUniqueKey(nftContractId,tokenId) */\n      tag_149\n        /* \"verify/NFT-MP-Combine.sol\":29757:29770  nftContractId */\n      dup5\n        /* \"verify/NFT-MP-Combine.sol\":29771:29778  tokenId */\n      dup5\n        /* \"verify/NFT-MP-Combine.sol\":29737:29756  getPrivateUniqueKey */\n      tag_87\n        /* \"verify/NFT-MP-Combine.sol\":29737:29779  getPrivateUniqueKey(nftContractId,tokenId) */\n      jump\t// in\n    tag_149:\n        /* \"verify/NFT-MP-Combine.sol\":29717:29779  bytes32 uniqueKey = getPrivateUniqueKey(nftContractId,tokenId) */\n      swap1\n      pop\n        /* \"verify/NFT-MP-Combine.sol\":29837:29866  EOrderStatus.OpenForTheMarket */\n      0x01\n        /* \"verify/NFT-MP-Combine.sol\":29803:29866  markets[uniqueKey].orderStatus == EOrderStatus.OpenForTheMarket */\n      0x03\n      dup2\n      gt\n      iszero\n      tag_150\n      jumpi\n      mstore(0x00, 0x4e487b7100000000000000000000000000000000000000000000000000000000)\n      mstore(0x04, 0x21)\n      revert(0x00, 0x24)\n    tag_150:\n        /* \"verify/NFT-MP-Combine.sol\":29803:29810  markets */\n      0x04\n        /* \"verify/NFT-MP-Combine.sol\":29803:29821  markets[uniqueKey] */\n      0x00\n        /* \"verify/NFT-MP-Combine.sol\":29811:29820  uniqueKey */\n      dup4\n        /* \"verify/NFT-MP-Combine.sol\":29803:29821  markets[uniqueKey] */\n      dup2\n      mstore\n      0x20\n      add\n      swap1\n      dup2\n      mstore\n      0x20\n      add\n      0x00\n      keccak256\n        /* \"verify/NFT-MP-Combine.sol\":29803:29833  markets[uniqueKey].orderStatus */\n      0x02\n      add\n      0x01\n      swap1\n      sload\n      swap1\n      0x0100\n      exp\n      swap1\n      div\n      0xff\n      and\n        /* \"verify/NFT-MP-Combine.sol\":29803:29866  markets[uniqueKey].orderStatus == EOrderStatus.OpenForTheMarket */\n      0x03\n      dup2\n      gt\n      iszero\n      tag_151\n      jumpi\n      mstore(0x00, 0x4e487b7100000000000000000000000000000000000000000000000000000000)\n      mstore(0x04, 0x21)\n      revert(0x00, 0x24)\n    tag_151:\n      eq\n        /* \"verify/NFT-MP-Combine.sol\":29800:31599  if(markets[uniqueKey].orderStatus == EOrderStatus.OpenForTheMarket){\r... */\n      iszero\n      tag_152\n      jumpi\n        /* \"verify/NFT-MP-Combine.sol\":29919:29934  EOrderType.None */\n      0x00\n        /* \"verify/NFT-MP-Combine.sol\":29887:29934  markets[uniqueKey].orderType == EOrderType.None */\n      0x02\n      dup2\n      gt\n      iszero\n      tag_153\n      jumpi\n      mstore(0x00, 0x4e487b7100000000000000000000000000000000000000000000000000000000)\n      mstore(0x04, 0x21)\n      revert(0x00, 0x24)\n    tag_153:\n        /* \"verify/NFT-MP-Combine.sol\":29887:29894  markets */\n      0x04\n        /* \"verify/NFT-MP-Combine.sol\":29887:29905  markets[uniqueKey] */\n      0x00\n        /* \"verify/NFT-MP-Combine.sol\":29895:29904  uniqueKey */\n      dup4\n        /* \"verify/NFT-MP-Combine.sol\":29887:29905  markets[uniqueKey] */\n      dup2\n      mstore\n      0x20\n      add\n      swap1\n      dup2\n      mstore\n      0x20\n      add\n      0x00\n      keccak256\n        /* \"verify/NFT-MP-Combine.sol\":29887:29915  markets[uniqueKey].orderType */\n      0x02\n      add\n      0x00\n      swap1\n      sload\n      swap1\n      0x0100\n      exp\n      swap1\n      div\n      0xff\n      and\n        /* \"verify/NFT-MP-Combine.sol\":29887:29934  markets[uniqueKey].orderType == EOrderType.None */\n      0x02\n      dup2\n      gt\n      iszero\n      tag_154\n      jumpi\n      mstore(0x00, 0x4e487b7100000000000000000000000000000000000000000000000000000000)\n      mstore(0x04, 0x21)\n      revert(0x00, 0x24)\n    tag_154:\n      eq\n        /* \"verify/NFT-MP-Combine.sol\":29884:30421  if(markets[uniqueKey].orderType == EOrderType.None){\r... */\n      iszero\n      tag_155\n      jumpi\n        /* \"verify/NFT-MP-Combine.sol\":29954:29979  revert (\"nft not opened\") */\n      mload(0x40)\n      0x08c379a000000000000000000000000000000000000000000000000000000000\n      dup2\n      mstore\n      0x04\n      add\n      tag_156\n      swap1\n      tag_157\n      jump\t// in\n    tag_156:\n      mload(0x40)\n      dup1\n      swap2\n      sub\n      swap1\n      revert\n        /* \"verify/NFT-MP-Combine.sol\":29884:30421  if(markets[uniqueKey].orderType == EOrderType.None){\r... */\n    tag_155:\n        /* \"verify/NFT-MP-Combine.sol\":30055:30071  EOrderType.Fixed */\n      0x01\n        /* \"verify/NFT-MP-Combine.sol\":30023:30071  markets[uniqueKey].orderType == EOrderType.Fixed */\n      0x02\n      dup2\n      gt\n      iszero\n      tag_159\n      jumpi\n      mstore(0x00, 0x4e487b7100000000000000000000000000000000000000000000000000000000)\n      mstore(0x04, 0x21)\n      revert(0x00, 0x24)\n    tag_159:\n        /* \"verify/NFT-MP-Combine.sol\":30023:30030  markets */\n      0x04\n        /* \"verify/NFT-MP-Combine.sol\":30023:30041  markets[uniqueKey] */\n      0x00\n        /* \"verify/NFT-MP-Combine.sol\":30031:30040  uniqueKey */\n      dup4\n        /* \"verify/NFT-MP-Combine.sol\":30023:30041  markets[uniqueKey] */\n      dup2\n      mstore\n      0x20\n      add\n      swap1\n      dup2\n      mstore\n      0x20\n      add\n      0x00\n      keccak256\n        /* \"verify/NFT-MP-Combine.sol\":30023:30051  markets[uniqueKey].orderType */\n      0x02\n      add\n      0x00\n      swap1\n      sload\n      swap1\n      0x0100\n      exp\n      swap1\n      div\n      0xff\n      and\n        /* \"verify/NFT-MP-Combine.sol\":30023:30071  markets[uniqueKey].orderType == EOrderType.Fixed */\n      0x02\n      dup2\n      gt\n      iszero\n      tag_160\n      jumpi\n      mstore(0x00, 0x4e487b7100000000000000000000000000000000000000000000000000000000)\n      mstore(0x04, 0x21)\n      revert(0x00, 0x24)\n    tag_160:\n      eq\n        /* \"verify/NFT-MP-Combine.sol\":30020:30421  if(markets[uniqueKey].orderType == EOrderType.Fixed){\r... */\n      iszero\n      tag_161\n      jumpi\n        /* \"verify/NFT-MP-Combine.sol\":30125:30130  price */\n      dup2\n        /* \"verify/NFT-MP-Combine.sol\":30094:30101  markets */\n      0x04\n        /* \"verify/NFT-MP-Combine.sol\":30094:30112  markets[uniqueKey] */\n      0x00\n        /* \"verify/NFT-MP-Combine.sol\":30102:30111  uniqueKey */\n      dup4\n        /* \"verify/NFT-MP-Combine.sol\":30094:30112  markets[uniqueKey] */\n      dup2\n      mstore\n      0x20\n      add\n      swap1\n      dup2\n      mstore\n      0x20\n      add\n      0x00\n      keccak256\n        /* \"verify/NFT-MP-Combine.sol\":30094:30122  markets[uniqueKey].askAmount */\n      0x03\n      add\n      sload\n        /* \"verify/NFT-MP-Combine.sol\":30094:30130  markets[uniqueKey].askAmount < price */\n      lt\n        /* \"verify/NFT-MP-Combine.sol\":30091:30202  if(markets[uniqueKey].askAmount < price){\r... */\n      iszero\n      tag_162\n      jumpi\n        /* \"verify/NFT-MP-Combine.sol\":30154:30182  revert (\"Value not matched\") */\n      mload(0x40)\n      0x08c379a000000000000000000000000000000000000000000000000000000000\n      dup2\n      mstore\n      0x04\n      add\n      tag_163\n      swap1\n      tag_139\n      jump\t// in\n    tag_163:\n      mload(0x40)\n      dup1\n      swap2\n      sub\n      swap1\n      revert\n        /* \"verify/NFT-MP-Combine.sol\":30091:30202  if(markets[uniqueKey].askAmount < price){\r... */\n    tag_162:\n        /* \"verify/NFT-MP-Combine.sol\":30020:30421  if(markets[uniqueKey].orderType == EOrderType.Fixed){\r... */\n      jump(tag_164)\n    tag_161:\n        /* \"verify/NFT-MP-Combine.sol\":30258:30276  EOrderType.Auction */\n      0x02\n        /* \"verify/NFT-MP-Combine.sol\":30226:30276  markets[uniqueKey].orderType == EOrderType.Auction */\n      dup1\n      dup2\n      gt\n      iszero\n      tag_165\n      jumpi\n      mstore(0x00, 0x4e487b7100000000000000000000000000000000000000000000000000000000)\n      mstore(0x04, 0x21)\n      revert(0x00, 0x24)\n    tag_165:\n        /* \"verify/NFT-MP-Combine.sol\":30226:30233  markets */\n      0x04\n        /* \"verify/NFT-MP-Combine.sol\":30226:30244  markets[uniqueKey] */\n      0x00\n        /* \"verify/NFT-MP-Combine.sol\":30234:30243  uniqueKey */\n      dup4\n        /* \"verify/NFT-MP-Combine.sol\":30226:30244  markets[uniqueKey] */\n      dup2\n      mstore\n      0x20\n      add\n      swap1\n      dup2\n      mstore\n      0x20\n      add\n      0x00\n      keccak256\n        /* \"verify/NFT-MP-Combine.sol\":30226:30254  markets[uniqueKey].orderType */\n      0x02\n      add\n      0x00\n      swap1\n      sload\n      swap1\n      0x0100\n      exp\n      swap1\n      div\n      0xff\n      and\n        /* \"verify/NFT-MP-Combine.sol\":30226:30276  markets[uniqueKey].orderType == EOrderType.Auction */\n      0x02\n      dup2\n      gt\n      iszero\n      tag_166\n      jumpi\n      mstore(0x00, 0x4e487b7100000000000000000000000000000000000000000000000000000000)\n      mstore(0x04, 0x21)\n      revert(0x00, 0x24)\n    tag_166:\n      eq\n        /* \"verify/NFT-MP-Combine.sol\":30222:30421  if (markets[uniqueKey].orderType == EOrderType.Auction){\r... */\n      iszero\n      tag_167\n      jumpi\n        /* \"verify/NFT-MP-Combine.sol\":30329:30334  price */\n      dup2\n        /* \"verify/NFT-MP-Combine.sol\":30295:30302  markets */\n      0x04\n        /* \"verify/NFT-MP-Combine.sol\":30295:30313  markets[uniqueKey] */\n      0x00\n        /* \"verify/NFT-MP-Combine.sol\":30303:30312  uniqueKey */\n      dup4\n        /* \"verify/NFT-MP-Combine.sol\":30295:30313  markets[uniqueKey] */\n      dup2\n      mstore\n      0x20\n      add\n      swap1\n      dup2\n      mstore\n      0x20\n      add\n      0x00\n      keccak256\n        /* \"verify/NFT-MP-Combine.sol\":30295:30326  markets[uniqueKey].maxAskAmount */\n      0x04\n      add\n      sload\n        /* \"verify/NFT-MP-Combine.sol\":30295:30334  markets[uniqueKey].maxAskAmount < price */\n      lt\n        /* \"verify/NFT-MP-Combine.sol\":30292:30406  if(markets[uniqueKey].maxAskAmount < price){\r... */\n      iszero\n      tag_168\n      jumpi\n        /* \"verify/NFT-MP-Combine.sol\":30358:30386  revert (\"Value not matched\") */\n      mload(0x40)\n      0x08c379a000000000000000000000000000000000000000000000000000000000\n      dup2\n      mstore\n      0x04\n      add\n      tag_169\n      swap1\n      tag_139\n      jump\t// in\n    tag_169:\n      mload(0x40)\n      dup1\n      swap2\n      sub\n      swap1\n      revert\n        /* \"verify/NFT-MP-Combine.sol\":30292:30406  if(markets[uniqueKey].maxAskAmount < price){\r... */\n    tag_168:\n        /* \"verify/NFT-MP-Combine.sol\":30222:30421  if (markets[uniqueKey].orderType == EOrderType.Auction){\r... */\n    tag_167:\n        /* \"verify/NFT-MP-Combine.sol\":30020:30421  if(markets[uniqueKey].orderType == EOrderType.Fixed){\r... */\n    tag_164:\n        /* \"verify/NFT-MP-Combine.sol\":30439:30463  INFTContract nftContract */\n      0x00\n        /* \"verify/NFT-MP-Combine.sol\":30479:30486  markets */\n      0x04\n        /* \"verify/NFT-MP-Combine.sol\":30479:30497  markets[uniqueKey] */\n      0x00\n        /* \"verify/NFT-MP-Combine.sol\":30487:30496  uniqueKey */\n      dup4\n        /* \"verify/NFT-MP-Combine.sol\":30479:30497  markets[uniqueKey] */\n      dup2\n      mstore\n      0x20\n      add\n      swap1\n      dup2\n      mstore\n      0x20\n      add\n      0x00\n      keccak256\n        /* \"verify/NFT-MP-Combine.sol\":30479:30513  markets[uniqueKey].contractAddress */\n      0x00\n      add\n      0x00\n      swap1\n      sload\n      swap1\n      0x0100\n      exp\n      swap1\n      div\n      0xffffffffffffffffffffffffffffffffffffffff\n      and\n        /* \"verify/NFT-MP-Combine.sol\":30439:30514  INFTContract nftContract = INFTContract(markets[uniqueKey].contractAddress) */\n      swap1\n      pop\n        /* \"verify/NFT-MP-Combine.sol\":30530:30546  uint256 royality */\n      0x00\n        /* \"verify/NFT-MP-Combine.sol\":30548:30563  address creator */\n      dup1\n        /* \"verify/NFT-MP-Combine.sol\":30567:30578  nftContract */\n      dup3\n        /* \"verify/NFT-MP-Combine.sol\":30567:30597  nftContract.getRoyalityDetails */\n      0xffffffffffffffffffffffffffffffffffffffff\n      and\n      0x179efa20\n        /* \"verify/NFT-MP-Combine.sol\":30598:30605  tokenId */\n      dup8\n        /* \"verify/NFT-MP-Combine.sol\":30567:30606  nftContract.getRoyalityDetails(tokenId) */\n      mload(0x40)\n      dup3\n      0xffffffff\n      and\n      0xe0\n      shl\n      dup2\n      mstore\n      0x04\n      add\n      tag_170\n      swap2\n      swap1\n      tag_84\n      jump\t// in\n    tag_170:\n      0x40\n      dup1\n      mload\n      dup1\n      dup4\n      sub\n      dup2\n      dup7\n      dup1\n      extcodesize\n      iszero\n      dup1\n      iszero\n      tag_171\n      jumpi\n      0x00\n      dup1\n      revert\n    tag_171:\n      pop\n      gas\n      staticcall\n      iszero\n      dup1\n      iszero\n      tag_173\n      jumpi\n      returndatasize\n      0x00\n      dup1\n      returndatacopy\n      revert(0x00, returndatasize)\n    tag_173:\n      pop\n      pop\n      pop\n      pop\n      mload(0x40)\n      returndatasize\n      not(0x1f)\n      0x1f\n      dup3\n      add\n      and\n      dup3\n      add\n      dup1\n      0x40\n      mstore\n      pop\n      dup2\n      add\n      swap1\n      tag_174\n      swap2\n      swap1\n      tag_115\n      jump\t// in\n    tag_174:\n        /* \"verify/NFT-MP-Combine.sol\":30529:30606  (uint256 royality, address creator) = nftContract.getRoyalityDetails(tokenId) */\n      swap2\n      pop\n      swap2\n      pop\n        /* \"verify/NFT-MP-Combine.sol\":30655:30666  uint256 fee */\n      0x00\n        /* \"verify/NFT-MP-Combine.sol\":30669:30708  getFeePercentage(price, _feePercentage) */\n      tag_175\n        /* \"verify/NFT-MP-Combine.sol\":30686:30691  price */\n      dup7\n        /* \"verify/NFT-MP-Combine.sol\":30693:30707  _feePercentage */\n      sload(0x02)\n        /* \"verify/NFT-MP-Combine.sol\":30669:30685  getFeePercentage */\n      tag_101\n        /* \"verify/NFT-MP-Combine.sol\":30669:30708  getFeePercentage(price, _feePercentage) */\n      jump\t// in\n    tag_175:\n        /* \"verify/NFT-MP-Combine.sol\":30655:30708  uint256 fee = getFeePercentage(price, _feePercentage) */\n      swap1\n      pop\n        /* \"verify/NFT-MP-Combine.sol\":30732:30733  0 */\n      0x00\n        /* \"verify/NFT-MP-Combine.sol\":30726:30729  fee */\n      dup2\n        /* \"verify/NFT-MP-Combine.sol\":30726:30733  fee > 0 */\n      gt\n        /* \"verify/NFT-MP-Combine.sol\":30723:30840  if(fee > 0){\r... */\n      iszero\n      tag_176\n      jumpi\n        /* \"verify/NFT-MP-Combine.sol\":30757:30767  _wrapToken */\n      0x01\n      0x00\n      swap1\n      sload\n      swap1\n      0x0100\n      exp\n      swap1\n      div\n      0xffffffffffffffffffffffffffffffffffffffff\n      and\n        /* \"verify/NFT-MP-Combine.sol\":30757:30780  _wrapToken.transferFrom */\n      0xffffffffffffffffffffffffffffffffffffffff\n      and\n      0x23b872dd\n        /* \"verify/NFT-MP-Combine.sol\":30781:30791  msg.sender */\n      caller\n        /* \"verify/NFT-MP-Combine.sol\":30793:30815  _feeDestinationAddress */\n      0x03\n      0x00\n      swap1\n      sload\n      swap1\n      0x0100\n      exp\n      swap1\n      div\n      0xffffffffffffffffffffffffffffffffffffffff\n      and\n        /* \"verify/NFT-MP-Combine.sol\":30816:30819  fee */\n      dup5\n        /* \"verify/NFT-MP-Combine.sol\":30757:30820  _wrapToken.transferFrom(msg.sender ,_feeDestinationAddress,fee) */\n      mload(0x40)\n      dup5\n      0xffffffff\n      and\n      0xe0\n      shl\n      dup2\n      mstore\n      0x04\n      add\n      tag_177\n      swap4\n      swap3\n      swap2\n      swap1\n      tag_104\n      jump\t// in\n    tag_177:\n      0x20\n      mload(0x40)\n      dup1\n      dup4\n      sub\n      dup2\n      0x00\n      dup8\n      dup1\n      extcodesize\n      iszero\n      dup1\n      iszero\n      tag_178\n      jumpi\n      0x00\n      dup1\n      revert\n    tag_178:\n      pop\n      gas\n      call\n      iszero\n      dup1\n      iszero\n      tag_180\n      jumpi\n      returndatasize\n      0x00\n      dup1\n      returndatacopy\n      revert(0x00, returndatasize)\n    tag_180:\n      pop\n      pop\n      pop\n      pop\n      mload(0x40)\n      returndatasize\n      not(0x1f)\n      0x1f\n      dup3\n      add\n      and\n      dup3\n      add\n      dup1\n      0x40\n      mstore\n      pop\n      dup2\n      add\n      swap1\n      tag_181\n      swap2\n      swap1\n      tag_109\n      jump\t// in\n    tag_181:\n      pop\n        /* \"verify/NFT-MP-Combine.sol\":30723:30840  if(fee > 0){\r... */\n    tag_176:\n        /* \"verify/NFT-MP-Combine.sol\":30882:30901  uint256 royalityFee */\n      0x00\n        /* \"verify/NFT-MP-Combine.sol\":30904:30937  getFeePercentage(price, royality) */\n      tag_182\n        /* \"verify/NFT-MP-Combine.sol\":30921:30926  price */\n      dup8\n        /* \"verify/NFT-MP-Combine.sol\":30928:30936  royality */\n      dup6\n        /* \"verify/NFT-MP-Combine.sol\":30904:30920  getFeePercentage */\n      tag_101\n        /* \"verify/NFT-MP-Combine.sol\":30904:30937  getFeePercentage(price, royality) */\n      jump\t// in\n    tag_182:\n        /* \"verify/NFT-MP-Combine.sol\":30882:30937  uint256 royalityFee = getFeePercentage(price, royality) */\n      swap1\n      pop\n        /* \"verify/NFT-MP-Combine.sol\":30952:30962  _wrapToken */\n      0x01\n      0x00\n      swap1\n      sload\n      swap1\n      0x0100\n      exp\n      swap1\n      div\n      0xffffffffffffffffffffffffffffffffffffffff\n      and\n        /* \"verify/NFT-MP-Combine.sol\":30952:30975  _wrapToken.transferFrom */\n      0xffffffffffffffffffffffffffffffffffffffff\n      and\n      0x23b872dd\n        /* \"verify/NFT-MP-Combine.sol\":30976:30986  msg.sender */\n      caller\n        /* \"verify/NFT-MP-Combine.sol\":30987:30994  creator */\n      dup6\n        /* \"verify/NFT-MP-Combine.sol\":30995:31006  royalityFee */\n      dup5\n        /* \"verify/NFT-MP-Combine.sol\":30952:31007  _wrapToken.transferFrom(msg.sender,creator,royalityFee) */\n      mload(0x40)\n      dup5\n      0xffffffff\n      and\n      0xe0\n      shl\n      dup2\n      mstore\n      0x04\n      add\n      tag_183\n      swap4\n      swap3\n      swap2\n      swap1\n      tag_118\n      jump\t// in\n    tag_183:\n      0x20\n      mload(0x40)\n      dup1\n      dup4\n      sub\n      dup2\n      0x00\n      dup8\n      dup1\n      extcodesize\n      iszero\n      dup1\n      iszero\n      tag_184\n      jumpi\n      0x00\n      dup1\n      revert\n    tag_184:\n      pop\n      gas\n      call\n      iszero\n      dup1\n      iszero\n      tag_186\n      jumpi\n      returndatasize\n      0x00\n      dup1\n      returndatacopy\n      revert(0x00, returndatasize)\n    tag_186:\n      pop\n      pop\n      pop\n      pop\n      mload(0x40)\n      returndatasize\n      not(0x1f)\n      0x1f\n      dup3\n      add\n      and\n      dup3\n      add\n      dup1\n      0x40\n      mstore\n      pop\n      dup2\n      add\n      swap1\n      tag_187\n      swap2\n      swap1\n      tag_109\n      jump\t// in\n    tag_187:\n      pop\n        /* \"verify/NFT-MP-Combine.sol\":31026:31044  uint256 ownerShare */\n      0x00\n        /* \"verify/NFT-MP-Combine.sol\":31047:31078  price.sub(fee.add(royalityFee)) */\n      tag_188\n        /* \"verify/NFT-MP-Combine.sol\":31057:31077  fee.add(royalityFee) */\n      tag_189\n        /* \"verify/NFT-MP-Combine.sol\":31065:31076  royalityFee */\n      dup4\n        /* \"verify/NFT-MP-Combine.sol\":31057:31060  fee */\n      dup6\n        /* \"verify/NFT-MP-Combine.sol\":31057:31064  fee.add */\n      tag_125\n      swap1\n        /* \"verify/NFT-MP-Combine.sol\":31057:31077  fee.add(royalityFee) */\n      swap2\n      swap1\n      0xffffffff\n      and\n      jump\t// in\n    tag_189:\n        /* \"verify/NFT-MP-Combine.sol\":31047:31052  price */\n      dup10\n        /* \"verify/NFT-MP-Combine.sol\":31047:31056  price.sub */\n      tag_126\n      swap1\n        /* \"verify/NFT-MP-Combine.sol\":31047:31078  price.sub(fee.add(royalityFee)) */\n      swap2\n      swap1\n      0xffffffff\n      and\n      jump\t// in\n    tag_188:\n        /* \"verify/NFT-MP-Combine.sol\":31026:31078  uint256 ownerShare = price.sub(fee.add(royalityFee)) */\n      swap1\n      pop\n        /* \"verify/NFT-MP-Combine.sol\":31134:31144  _wrapToken */\n      0x01\n      0x00\n      swap1\n      sload\n      swap1\n      0x0100\n      exp\n      swap1\n      div\n      0xffffffffffffffffffffffffffffffffffffffff\n      and\n        /* \"verify/NFT-MP-Combine.sol\":31134:31157  _wrapToken.transferFrom */\n      0xffffffffffffffffffffffffffffffffffffffff\n      and\n      0x23b872dd\n        /* \"verify/NFT-MP-Combine.sol\":31159:31169  msg.sender */\n      caller\n        /* \"verify/NFT-MP-Combine.sol\":31170:31177  markets */\n      0x04\n        /* \"verify/NFT-MP-Combine.sol\":31170:31188  markets[uniqueKey] */\n      0x00\n        /* \"verify/NFT-MP-Combine.sol\":31178:31187  uniqueKey */\n      dup12\n        /* \"verify/NFT-MP-Combine.sol\":31170:31188  markets[uniqueKey] */\n      dup2\n      mstore\n      0x20\n      add\n      swap1\n      dup2\n      mstore\n      0x20\n      add\n      0x00\n      keccak256\n        /* \"verify/NFT-MP-Combine.sol\":31170:31201  markets[uniqueKey].currentOwner */\n      0x05\n      add\n      0x00\n      swap1\n      sload\n      swap1\n      0x0100\n      exp\n      swap1\n      div\n      0xffffffffffffffffffffffffffffffffffffffff\n      and\n        /* \"verify/NFT-MP-Combine.sol\":31202:31212  ownerShare */\n      dup5\n        /* \"verify/NFT-MP-Combine.sol\":31134:31213  _wrapToken.transferFrom( msg.sender,markets[uniqueKey].currentOwner,ownerShare) */\n      mload(0x40)\n      dup5\n      0xffffffff\n      and\n      0xe0\n      shl\n      dup2\n      mstore\n      0x04\n      add\n      tag_190\n      swap4\n      swap3\n      swap2\n      swap1\n      tag_118\n      jump\t// in\n    tag_190:\n      0x20\n      mload(0x40)\n      dup1\n      dup4\n      sub\n      dup2\n      0x00\n      dup8\n      dup1\n      extcodesize\n      iszero\n      dup1\n      iszero\n      tag_191\n      jumpi\n      0x00\n      dup1\n      revert\n    tag_191:\n      pop\n      gas\n      call\n      iszero\n      dup1\n      iszero\n      tag_193\n      jumpi\n      returndatasize\n      0x00\n      dup1\n      returndatacopy\n      revert(0x00, returndatasize)\n    tag_193:\n      pop\n      pop\n      pop\n      pop\n      mload(0x40)\n      returndatasize\n      not(0x1f)\n      0x1f\n      dup3\n      add\n      and\n      dup3\n      add\n      dup1\n      0x40\n      mstore\n      pop\n      dup2\n      add\n      swap1\n      tag_194\n      swap2\n      swap1\n      tag_109\n      jump\t// in\n    tag_194:\n      pop\n        /* \"verify/NFT-MP-Combine.sol\":31272:31283  nftContract */\n      dup6\n        /* \"verify/NFT-MP-Combine.sol\":31272:31300  nftContract.safeTransferFrom */\n      0xffffffffffffffffffffffffffffffffffffffff\n      and\n      0x42842e0e\n        /* \"verify/NFT-MP-Combine.sol\":31301:31308  markets */\n      0x04\n        /* \"verify/NFT-MP-Combine.sol\":31301:31319  markets[uniqueKey] */\n      0x00\n        /* \"verify/NFT-MP-Combine.sol\":31309:31318  uniqueKey */\n      dup11\n        /* \"verify/NFT-MP-Combine.sol\":31301:31319  markets[uniqueKey] */\n      dup2\n      mstore\n      0x20\n      add\n      swap1\n      dup2\n      mstore\n      0x20\n      add\n      0x00\n      keccak256\n        /* \"verify/NFT-MP-Combine.sol\":31301:31332  markets[uniqueKey].currentOwner */\n      0x05\n      add\n      0x00\n      swap1\n      sload\n      swap1\n      0x0100\n      exp\n      swap1\n      div\n      0xffffffffffffffffffffffffffffffffffffffff\n      and\n        /* \"verify/NFT-MP-Combine.sol\":31334:31344  msg.sender */\n      caller\n        /* \"verify/NFT-MP-Combine.sol\":31346:31353  tokenId */\n      dup13\n        /* \"verify/NFT-MP-Combine.sol\":31272:31354  nftContract.safeTransferFrom(markets[uniqueKey].currentOwner, msg.sender, tokenId) */\n      mload(0x40)\n      dup5\n      0xffffffff\n      and\n      0xe0\n      shl\n      dup2\n      mstore\n      0x04\n      add\n      tag_195\n      swap4\n      swap3\n      swap2\n      swap1\n      tag_118\n      jump\t// in\n    tag_195:\n      0x00\n      mload(0x40)\n      dup1\n      dup4\n      sub\n      dup2\n      0x00\n      dup8\n      dup1\n      extcodesize\n      iszero\n      dup1\n      iszero\n      tag_196\n      jumpi\n      0x00\n      dup1\n      revert\n    tag_196:\n      pop\n      gas\n      call\n      iszero\n      dup1\n      iszero\n      tag_198\n      jumpi\n      returndatasize\n      0x00\n      dup1\n      returndatacopy\n      revert(0x00, returndatasize)\n    tag_198:\n      pop\n      pop\n      pop\n      pop\n        /* \"verify/NFT-MP-Combine.sol\":31437:31462  EOrderStatus.MarketClosed */\n      0x03\n        /* \"verify/NFT-MP-Combine.sol\":31404:31411  markets */\n      0x04\n        /* \"verify/NFT-MP-Combine.sol\":31404:31422  markets[uniqueKey] */\n      0x00\n        /* \"verify/NFT-MP-Combine.sol\":31412:31421  uniqueKey */\n      dup10\n        /* \"verify/NFT-MP-Combine.sol\":31404:31422  markets[uniqueKey] */\n      dup2\n      mstore\n      0x20\n      add\n      swap1\n      dup2\n      mstore\n      0x20\n      add\n      0x00\n      keccak256\n        /* \"verify/NFT-MP-Combine.sol\":31404:31434  markets[uniqueKey].orderStatus */\n      0x02\n      add\n      0x01\n        /* \"verify/NFT-MP-Combine.sol\":31404:31462  markets[uniqueKey].orderStatus = EOrderStatus.MarketClosed */\n      0x0100\n      exp\n      dup2\n      sload\n      dup2\n      0xff\n      mul\n      not\n      and\n      swap1\n      dup4\n      0x03\n      dup2\n      gt\n      iszero\n      tag_199\n      jumpi\n      mstore(0x00, 0x4e487b7100000000000000000000000000000000000000000000000000000000)\n      mstore(0x04, 0x21)\n      revert(0x00, 0x24)\n    tag_199:\n      mul\n      or\n      swap1\n      sstore\n      pop\n        /* \"verify/NFT-MP-Combine.sol\":31507:31517  msg.sender */\n      caller\n        /* \"verify/NFT-MP-Combine.sol\":31477:31484  markets */\n      0x04\n        /* \"verify/NFT-MP-Combine.sol\":31477:31495  markets[uniqueKey] */\n      0x00\n        /* \"verify/NFT-MP-Combine.sol\":31485:31494  uniqueKey */\n      dup10\n        /* \"verify/NFT-MP-Combine.sol\":31477:31495  markets[uniqueKey] */\n      dup2\n      mstore\n      0x20\n      add\n      swap1\n      dup2\n      mstore\n      0x20\n      add\n      0x00\n      keccak256\n        /* \"verify/NFT-MP-Combine.sol\":31477:31504  markets[uniqueKey].newOwner */\n      0x06\n      add\n      0x00\n        /* \"verify/NFT-MP-Combine.sol\":31477:31517  markets[uniqueKey].newOwner = msg.sender */\n      0x0100\n      exp\n      dup2\n      sload\n      dup2\n      0xffffffffffffffffffffffffffffffffffffffff\n      mul\n      not\n      and\n      swap1\n      dup4\n      0xffffffffffffffffffffffffffffffffffffffff\n      and\n      mul\n      or\n      swap1\n      sstore\n      pop\n        /* \"verify/NFT-MP-Combine.sol\":29800:31599  if(markets[uniqueKey].orderStatus == EOrderStatus.OpenForTheMarket){\r... */\n      pop\n      pop\n      pop\n      pop\n      pop\n      pop\n      jump(tag_200)\n    tag_152:\n        /* \"verify/NFT-MP-Combine.sol\":31550:31587  revert (\"Market order is not opened\") */\n      mload(0x40)\n      0x08c379a000000000000000000000000000000000000000000000000000000000\n      dup2\n      mstore\n      0x04\n      add\n      tag_201\n      swap1\n      tag_142\n      jump\t// in\n    tag_201:\n      mload(0x40)\n      dup1\n      swap2\n      sub\n      swap1\n      revert\n        /* \"verify/NFT-MP-Combine.sol\":29800:31599  if(markets[uniqueKey].orderStatus == EOrderStatus.OpenForTheMarket){\r... */\n    tag_200:\n        /* \"verify/NFT-MP-Combine.sol\":29610:31606  function closeMarketForFixedType(address nftContractId, uint256 tokenId, uint price ) external { \r... */\n      pop\n      pop\n      pop\n      pop\n      jump\t// out\n        /* \"verify/NFT-MP-Combine.sol\":27940:28156  function getMarketObj(address nftContractId, uint256 tokenId) public view returns (Market memory){\r... */\n    tag_41:\n        /* \"verify/NFT-MP-Combine.sol\":28023:28036  Market memory */\n      tag_202\n      tag_203\n      jump\t// in\n    tag_202:\n        /* \"verify/NFT-MP-Combine.sol\":28048:28065  bytes32 uniqueKey */\n      0x00\n        /* \"verify/NFT-MP-Combine.sol\":28068:28110  getPrivateUniqueKey(nftContractId,tokenId) */\n      tag_205\n        /* \"verify/NFT-MP-Combine.sol\":28088:28101  nftContractId */\n      dup5\n        /* \"verify/NFT-MP-Combine.sol\":28102:28109  tokenId */\n      dup5\n        /* \"verify/NFT-MP-Combine.sol\":28068:28087  getPrivateUniqueKey */\n      tag_87\n        /* \"verify/NFT-MP-Combine.sol\":28068:28110  getPrivateUniqueKey(nftContractId,tokenId) */\n      jump\t// in\n    tag_205:\n        /* \"verify/NFT-MP-Combine.sol\":28048:28110  bytes32 uniqueKey = getPrivateUniqueKey(nftContractId,tokenId) */\n      swap1\n      pop\n        /* \"verify/NFT-MP-Combine.sol\":28130:28137  markets */\n      0x04\n        /* \"verify/NFT-MP-Combine.sol\":28130:28148  markets[uniqueKey] */\n      0x00\n        /* \"verify/NFT-MP-Combine.sol\":28138:28147  uniqueKey */\n      dup3\n        /* \"verify/NFT-MP-Combine.sol\":28130:28148  markets[uniqueKey] */\n      dup2\n      mstore\n      0x20\n      add\n      swap1\n      dup2\n      mstore\n      0x20\n      add\n      0x00\n      keccak256\n        /* \"verify/NFT-MP-Combine.sol\":28123:28148  return markets[uniqueKey] */\n      mload(0x40)\n      dup1\n      0x0100\n      add\n      0x40\n      mstore\n      swap1\n      dup2\n      0x00\n      dup3\n      add\n      0x00\n      swap1\n      sload\n      swap1\n      0x0100\n      exp\n      swap1\n      div\n      0xffffffffffffffffffffffffffffffffffffffff\n      and\n      0xffffffffffffffffffffffffffffffffffffffff\n      and\n      0xffffffffffffffffffffffffffffffffffffffff\n      and\n      dup2\n      mstore\n      0x20\n      add\n      0x01\n      dup3\n      add\n      sload\n      dup2\n      mstore\n      0x20\n      add\n      0x02\n      dup3\n      add\n      0x00\n      swap1\n      sload\n      swap1\n      0x0100\n      exp\n      swap1\n      div\n      0xff\n      and\n      0x02\n      dup2\n      gt\n      iszero\n      tag_206\n      jumpi\n      mstore(0x00, 0x4e487b7100000000000000000000000000000000000000000000000000000000)\n      mstore(0x04, 0x21)\n      revert(0x00, 0x24)\n    tag_206:\n      0x02\n      dup2\n      gt\n      iszero\n      tag_207\n      jumpi\n      mstore(0x00, 0x4e487b7100000000000000000000000000000000000000000000000000000000)\n      mstore(0x04, 0x21)\n      revert(0x00, 0x24)\n    tag_207:\n      dup2\n      mstore\n      0x20\n      add\n      0x02\n      dup3\n      add\n      0x01\n      swap1\n      sload\n      swap1\n      0x0100\n      exp\n      swap1\n      div\n      0xff\n      and\n      0x03\n      dup2\n      gt\n      iszero\n      tag_208\n      jumpi\n      mstore(0x00, 0x4e487b7100000000000000000000000000000000000000000000000000000000)\n      mstore(0x04, 0x21)\n      revert(0x00, 0x24)\n    tag_208:\n      0x03\n      dup2\n      gt\n      iszero\n      tag_209\n      jumpi\n      mstore(0x00, 0x4e487b7100000000000000000000000000000000000000000000000000000000)\n      mstore(0x04, 0x21)\n      revert(0x00, 0x24)\n    tag_209:\n      dup2\n      mstore\n      0x20\n      add\n      0x03\n      dup3\n      add\n      sload\n      dup2\n      mstore\n      0x20\n      add\n      0x04\n      dup3\n      add\n      sload\n      dup2\n      mstore\n      0x20\n      add\n      0x05\n      dup3\n      add\n      0x00\n      swap1\n      sload\n      swap1\n      0x0100\n      exp\n      swap1\n      div\n      0xffffffffffffffffffffffffffffffffffffffff\n      and\n      0xffffffffffffffffffffffffffffffffffffffff\n      and\n      0xffffffffffffffffffffffffffffffffffffffff\n      and\n      dup2\n      mstore\n      0x20\n      add\n      0x06\n      dup3\n      add\n      0x00\n      swap1\n      sload\n      swap1\n      0x0100\n      exp\n      swap1\n      div\n      0xffffffffffffffffffffffffffffffffffffffff\n      and\n      0xffffffffffffffffffffffffffffffffffffffff\n      and\n      0xffffffffffffffffffffffffffffffffffffffff\n      and\n      dup2\n      mstore\n      pop\n      pop\n      swap2\n      pop\n      pop\n        /* \"verify/NFT-MP-Combine.sol\":27940:28156  function getMarketObj(address nftContractId, uint256 tokenId) public view returns (Market memory){\r... */\n      swap3\n      swap2\n      pop\n      pop\n      jump\t// out\n        /* \"verify/NFT-MP-Combine.sol\":934:1074  function renounceOwnership() public onlyOwner {\r... */\n    tag_45:\n        /* \"verify/NFT-MP-Combine.sol\":454:464  msg.sender */\n      caller\n        /* \"verify/NFT-MP-Combine.sol\":444:464  _owner == msg.sender */\n      0xffffffffffffffffffffffffffffffffffffffff\n      and\n        /* \"verify/NFT-MP-Combine.sol\":444:450  _owner */\n      0x00\n      dup1\n      sload\n      swap1\n      0x0100\n      exp\n      swap1\n      div\n      0xffffffffffffffffffffffffffffffffffffffff\n      and\n        /* \"verify/NFT-MP-Combine.sol\":444:464  _owner == msg.sender */\n      0xffffffffffffffffffffffffffffffffffffffff\n      and\n      eq\n        /* \"verify/NFT-MP-Combine.sol\":422:534  require(\r... */\n      tag_211\n      jumpi\n      mload(0x40)\n      0x08c379a000000000000000000000000000000000000000000000000000000000\n      dup2\n      mstore\n      0x04\n      add\n      tag_212\n      swap1\n      tag_146\n      jump\t// in\n    tag_212:\n      mload(0x40)\n      dup1\n      swap2\n      sub\n      swap1\n      revert\n    tag_211:\n        /* \"verify/NFT-MP-Combine.sol\":1033:1034  0 */\n      0x00\n        /* \"verify/NFT-MP-Combine.sol\":996:1036  OwnershipTransferred(_owner, address(0)) */\n      0xffffffffffffffffffffffffffffffffffffffff\n      and\n        /* \"verify/NFT-MP-Combine.sol\":1017:1023  _owner */\n      0x00\n      dup1\n      sload\n      swap1\n      0x0100\n      exp\n      swap1\n      div\n      0xffffffffffffffffffffffffffffffffffffffff\n      and\n        /* \"verify/NFT-MP-Combine.sol\":996:1036  OwnershipTransferred(_owner, address(0)) */\n      0xffffffffffffffffffffffffffffffffffffffff\n      and\n      0x8be0079c531659141344cd1fd0a4f28419497f9722a3daafe3b4186f6b6457e0\n      mload(0x40)\n      mload(0x40)\n      dup1\n      swap2\n      sub\n      swap1\n      log3\n        /* \"verify/NFT-MP-Combine.sol\":1064:1065  0 */\n      0x00\n        /* \"verify/NFT-MP-Combine.sol\":1047:1053  _owner */\n      dup1\n      0x00\n        /* \"verify/NFT-MP-Combine.sol\":1047:1066  _owner = address(0) */\n      0x0100\n      exp\n      dup2\n      sload\n      dup2\n      0xffffffffffffffffffffffffffffffffffffffff\n      mul\n      not\n      and\n      swap1\n      dup4\n      0xffffffffffffffffffffffffffffffffffffffff\n      and\n      mul\n      or\n      swap1\n      sstore\n      pop\n        /* \"verify/NFT-MP-Combine.sol\":934:1074  function renounceOwnership() public onlyOwner {\r... */\n      jump\t// out\n        /* \"verify/NFT-MP-Combine.sol\":27041:27083  mapping (bytes32 => Market) public markets */\n    tag_49:\n      mstore(0x20, 0x04)\n      dup1\n      0x00\n      mstore\n      keccak256(0x00, 0x40)\n      0x00\n      swap2\n      pop\n      swap1\n      pop\n      dup1\n      0x00\n      add\n      0x00\n      swap1\n      sload\n      swap1\n      0x0100\n      exp\n      swap1\n      div\n      0xffffffffffffffffffffffffffffffffffffffff\n      and\n      swap1\n      dup1\n      0x01\n      add\n      sload\n      swap1\n      dup1\n      0x02\n      add\n      0x00\n      swap1\n      sload\n      swap1\n      0x0100\n      exp\n      swap1\n      div\n      0xff\n      and\n      swap1\n      dup1\n      0x02\n      add\n      0x01\n      swap1\n      sload\n      swap1\n      0x0100\n      exp\n      swap1\n      div\n      0xff\n      and\n      swap1\n      dup1\n      0x03\n      add\n      sload\n      swap1\n      dup1\n      0x04\n      add\n      sload\n      swap1\n      dup1\n      0x05\n      add\n      0x00\n      swap1\n      sload\n      swap1\n      0x0100\n      exp\n      swap1\n      div\n      0xffffffffffffffffffffffffffffffffffffffff\n      and\n      swap1\n      dup1\n      0x06\n      add\n      0x00\n      swap1\n      sload\n      swap1\n      0x0100\n      exp\n      swap1\n      div\n      0xffffffffffffffffffffffffffffffffffffffff\n      and\n      swap1\n      pop\n      dup9\n      jump\t// out\n        /* \"verify/NFT-MP-Combine.sol\":847:926  function owner() public view returns (address) {\r... */\n    tag_53:\n        /* \"verify/NFT-MP-Combine.sol\":885:892  address */\n      0x00\n        /* \"verify/NFT-MP-Combine.sol\":912:918  _owner */\n      dup1\n      0x00\n      swap1\n      sload\n      swap1\n      0x0100\n      exp\n      swap1\n      div\n      0xffffffffffffffffffffffffffffffffffffffff\n      and\n        /* \"verify/NFT-MP-Combine.sol\":905:918  return _owner */\n      swap1\n      pop\n        /* \"verify/NFT-MP-Combine.sol\":847:926  function owner() public view returns (address) {\r... */\n      swap1\n      jump\t// out\n        /* \"verify/NFT-MP-Combine.sol\":28341:28543  function openMarketForAuctionType(address nftContractId, uint256 tokenId, uint256 price, uint256 maxPrice) external{\r... */\n    tag_59:\n        /* \"verify/NFT-MP-Combine.sol\":28467:28535  openMarket(nftContractId,tokenId,price,EOrderType.Auction, maxPrice) */\n      tag_216\n        /* \"verify/NFT-MP-Combine.sol\":28478:28491  nftContractId */\n      dup5\n        /* \"verify/NFT-MP-Combine.sol\":28492:28499  tokenId */\n      dup5\n        /* \"verify/NFT-MP-Combine.sol\":28500:28505  price */\n      dup5\n        /* \"verify/NFT-MP-Combine.sol\":28506:28524  EOrderType.Auction */\n      0x02\n        /* \"verify/NFT-MP-Combine.sol\":28526:28534  maxPrice */\n      dup6\n        /* \"verify/NFT-MP-Combine.sol\":28467:28477  openMarket */\n      tag_217\n        /* \"verify/NFT-MP-Combine.sol\":28467:28535  openMarket(nftContractId,tokenId,price,EOrderType.Auction, maxPrice) */\n      jump\t// in\n    tag_216:\n        /* \"verify/NFT-MP-Combine.sol\":28341:28543  function openMarketForAuctionType(address nftContractId, uint256 tokenId, uint256 price, uint256 maxPrice) external{\r... */\n      pop\n      pop\n      pop\n      pop\n      jump\t// out\n        /* \"verify/NFT-MP-Combine.sol\":33728:34239  function cancel(address nftContractId,  uint256 tokenId) external{\r... */\n    tag_62:\n        /* \"verify/NFT-MP-Combine.sol\":33804:33821  bytes32 uniqueKey */\n      0x00\n        /* \"verify/NFT-MP-Combine.sol\":33824:33866  getPrivateUniqueKey(nftContractId,tokenId) */\n      tag_219\n        /* \"verify/NFT-MP-Combine.sol\":33844:33857  nftContractId */\n      dup4\n        /* \"verify/NFT-MP-Combine.sol\":33858:33865  tokenId */\n      dup4\n        /* \"verify/NFT-MP-Combine.sol\":33824:33843  getPrivateUniqueKey */\n      tag_87\n        /* \"verify/NFT-MP-Combine.sol\":33824:33866  getPrivateUniqueKey(nftContractId,tokenId) */\n      jump\t// in\n    tag_219:\n        /* \"verify/NFT-MP-Combine.sol\":33804:33866  bytes32 uniqueKey = getPrivateUniqueKey(nftContractId,tokenId) */\n      swap1\n      pop\n        /* \"verify/NFT-MP-Combine.sol\":33921:33931  msg.sender */\n      caller\n        /* \"verify/NFT-MP-Combine.sol\":33886:33931  markets[uniqueKey].currentOwner != msg.sender */\n      0xffffffffffffffffffffffffffffffffffffffff\n      and\n        /* \"verify/NFT-MP-Combine.sol\":33886:33893  markets */\n      0x04\n        /* \"verify/NFT-MP-Combine.sol\":33886:33904  markets[uniqueKey] */\n      0x00\n        /* \"verify/NFT-MP-Combine.sol\":33894:33903  uniqueKey */\n      dup4\n        /* \"verify/NFT-MP-Combine.sol\":33886:33904  markets[uniqueKey] */\n      dup2\n      mstore\n      0x20\n      add\n      swap1\n      dup2\n      mstore\n      0x20\n      add\n      0x00\n      keccak256\n        /* \"verify/NFT-MP-Combine.sol\":33886:33917  markets[uniqueKey].currentOwner */\n      0x05\n      add\n      0x00\n      swap1\n      sload\n      swap1\n      0x0100\n      exp\n      swap1\n      div\n      0xffffffffffffffffffffffffffffffffffffffff\n      and\n        /* \"verify/NFT-MP-Combine.sol\":33886:33931  markets[uniqueKey].currentOwner != msg.sender */\n      0xffffffffffffffffffffffffffffffffffffffff\n      and\n      eq\n        /* \"verify/NFT-MP-Combine.sol\":33883:33994  if(markets[uniqueKey].currentOwner != msg.sender){\r... */\n      tag_220\n      jumpi\n        /* \"verify/NFT-MP-Combine.sol\":33947:33982  revert (\"only for market operator\") */\n      mload(0x40)\n      0x08c379a000000000000000000000000000000000000000000000000000000000\n      dup2\n      mstore\n      0x04\n      add\n      tag_221\n      swap1\n      tag_90\n      jump\t// in\n    tag_221:\n      mload(0x40)\n      dup1\n      swap2\n      sub\n      swap1\n      revert\n        /* \"verify/NFT-MP-Combine.sol\":33883:33994  if(markets[uniqueKey].currentOwner != msg.sender){\r... */\n    tag_220:\n        /* \"verify/NFT-MP-Combine.sol\":34045:34074  EOrderStatus.OpenForTheMarket */\n      0x01\n        /* \"verify/NFT-MP-Combine.sol\":34011:34074  markets[uniqueKey].orderStatus == EOrderStatus.OpenForTheMarket */\n      0x03\n      dup2\n      gt\n      iszero\n      tag_222\n      jumpi\n      mstore(0x00, 0x4e487b7100000000000000000000000000000000000000000000000000000000)\n      mstore(0x04, 0x21)\n      revert(0x00, 0x24)\n    tag_222:\n        /* \"verify/NFT-MP-Combine.sol\":34011:34018  markets */\n      0x04\n        /* \"verify/NFT-MP-Combine.sol\":34011:34029  markets[uniqueKey] */\n      0x00\n        /* \"verify/NFT-MP-Combine.sol\":34019:34028  uniqueKey */\n      dup4\n        /* \"verify/NFT-MP-Combine.sol\":34011:34029  markets[uniqueKey] */\n      dup2\n      mstore\n      0x20\n      add\n      swap1\n      dup2\n      mstore\n      0x20\n      add\n      0x00\n      keccak256\n        /* \"verify/NFT-MP-Combine.sol\":34011:34041  markets[uniqueKey].orderStatus */\n      0x02\n      add\n      0x01\n      swap1\n      sload\n      swap1\n      0x0100\n      exp\n      swap1\n      div\n      0xff\n      and\n        /* \"verify/NFT-MP-Combine.sol\":34011:34074  markets[uniqueKey].orderStatus == EOrderStatus.OpenForTheMarket */\n      0x03\n      dup2\n      gt\n      iszero\n      tag_223\n      jumpi\n      mstore(0x00, 0x4e487b7100000000000000000000000000000000000000000000000000000000)\n      mstore(0x04, 0x21)\n      revert(0x00, 0x24)\n    tag_223:\n      eq\n        /* \"verify/NFT-MP-Combine.sol\":34008:34232  if(markets[uniqueKey].orderStatus == EOrderStatus.OpenForTheMarket){\r... */\n      iszero\n      tag_224\n      jumpi\n        /* \"verify/NFT-MP-Combine.sol\":34124:34152  EOrderStatus.MarketCancelled */\n      0x02\n        /* \"verify/NFT-MP-Combine.sol\":34090:34097  markets */\n      0x04\n        /* \"verify/NFT-MP-Combine.sol\":34090:34108  markets[uniqueKey] */\n      0x00\n        /* \"verify/NFT-MP-Combine.sol\":34098:34107  uniqueKey */\n      dup4\n        /* \"verify/NFT-MP-Combine.sol\":34090:34108  markets[uniqueKey] */\n      dup2\n      mstore\n      0x20\n      add\n      swap1\n      dup2\n      mstore\n      0x20\n      add\n      0x00\n      keccak256\n        /* \"verify/NFT-MP-Combine.sol\":34090:34120  markets[uniqueKey].orderStatus */\n      0x02\n      add\n      0x01\n        /* \"verify/NFT-MP-Combine.sol\":34090:34152  markets[uniqueKey].orderStatus =  EOrderStatus.MarketCancelled */\n      0x0100\n      exp\n      dup2\n      sload\n      dup2\n      0xff\n      mul\n      not\n      and\n      swap1\n      dup4\n      0x03\n      dup2\n      gt\n      iszero\n      tag_225\n      jumpi\n      mstore(0x00, 0x4e487b7100000000000000000000000000000000000000000000000000000000)\n      mstore(0x04, 0x21)\n      revert(0x00, 0x24)\n    tag_225:\n      mul\n      or\n      swap1\n      sstore\n      pop\n        /* \"verify/NFT-MP-Combine.sol\":34008:34232  if(markets[uniqueKey].orderStatus == EOrderStatus.OpenForTheMarket){\r... */\n      jump(tag_226)\n    tag_224:\n        /* \"verify/NFT-MP-Combine.sol\":34183:34220  revert (\"Market order is not opened\") */\n      mload(0x40)\n      0x08c379a000000000000000000000000000000000000000000000000000000000\n      dup2\n      mstore\n      0x04\n      add\n      tag_227\n      swap1\n      tag_142\n      jump\t// in\n    tag_227:\n      mload(0x40)\n      dup1\n      swap2\n      sub\n      swap1\n      revert\n        /* \"verify/NFT-MP-Combine.sol\":34008:34232  if(markets[uniqueKey].orderStatus == EOrderStatus.OpenForTheMarket){\r... */\n    tag_226:\n        /* \"verify/NFT-MP-Combine.sol\":33728:34239  function cancel(address nftContractId,  uint256 tokenId) external{\r... */\n      pop\n      pop\n      pop\n      jump\t// out\n        /* \"verify/NFT-MP-Combine.sol\":27512:27614  function setFeePercentage (uint256 value) external onlyOwner{\r... */\n    tag_66:\n        /* \"verify/NFT-MP-Combine.sol\":454:464  msg.sender */\n      caller\n        /* \"verify/NFT-MP-Combine.sol\":444:464  _owner == msg.sender */\n      0xffffffffffffffffffffffffffffffffffffffff\n      and\n        /* \"verify/NFT-MP-Combine.sol\":444:450  _owner */\n      0x00\n      dup1\n      sload\n      swap1\n      0x0100\n      exp\n      swap1\n      div\n      0xffffffffffffffffffffffffffffffffffffffff\n      and\n        /* \"verify/NFT-MP-Combine.sol\":444:464  _owner == msg.sender */\n      0xffffffffffffffffffffffffffffffffffffffff\n      and\n      eq\n        /* \"verify/NFT-MP-Combine.sol\":422:534  require(\r... */\n      tag_229\n      jumpi\n      mload(0x40)\n      0x08c379a000000000000000000000000000000000000000000000000000000000\n      dup2\n      mstore\n      0x04\n      add\n      tag_230\n      swap1\n      tag_146\n      jump\t// in\n    tag_230:\n      mload(0x40)\n      dup1\n      swap2\n      sub\n      swap1\n      revert\n    tag_229:\n        /* \"verify/NFT-MP-Combine.sol\":27600:27605  value */\n      dup1\n        /* \"verify/NFT-MP-Combine.sol\":27583:27597  _feePercentage */\n      0x02\n        /* \"verify/NFT-MP-Combine.sol\":27583:27605  _feePercentage = value */\n      dup2\n      swap1\n      sstore\n      pop\n        /* \"verify/NFT-MP-Combine.sol\":27512:27614  function setFeePercentage (uint256 value) external onlyOwner{\r... */\n      pop\n      jump\t// out\n        /* \"verify/NFT-MP-Combine.sol\":26921:26945  IERC20 public _wrapToken */\n    tag_68:\n      0x01\n      0x00\n      swap1\n      sload\n      swap1\n      0x0100\n      exp\n      swap1\n      div\n      0xffffffffffffffffffffffffffffffffffffffff\n      and\n      dup2\n      jump\t// out\n        /* \"verify/NFT-MP-Combine.sol\":27389:27506  function setERC20Token (address erc20Token) external onlyOwner{\r... */\n    tag_74:\n        /* \"verify/NFT-MP-Combine.sol\":454:464  msg.sender */\n      caller\n        /* \"verify/NFT-MP-Combine.sol\":444:464  _owner == msg.sender */\n      0xffffffffffffffffffffffffffffffffffffffff\n      and\n        /* \"verify/NFT-MP-Combine.sol\":444:450  _owner */\n      0x00\n      dup1\n      sload\n      swap1\n      0x0100\n      exp\n      swap1\n      div\n      0xffffffffffffffffffffffffffffffffffffffff\n      and\n        /* \"verify/NFT-MP-Combine.sol\":444:464  _owner == msg.sender */\n      0xffffffffffffffffffffffffffffffffffffffff\n      and\n      eq\n        /* \"verify/NFT-MP-Combine.sol\":422:534  require(\r... */\n      tag_233\n      jumpi\n      mload(0x40)\n      0x08c379a000000000000000000000000000000000000000000000000000000000\n      dup2\n      mstore\n      0x04\n      add\n      tag_234\n      swap1\n      tag_146\n      jump\t// in\n    tag_234:\n      mload(0x40)\n      dup1\n      swap2\n      sub\n      swap1\n      revert\n    tag_233:\n        /* \"verify/NFT-MP-Combine.sol\":27486:27496  erc20Token */\n      dup1\n        /* \"verify/NFT-MP-Combine.sol\":27466:27476  _wrapToken */\n      0x01\n      0x00\n        /* \"verify/NFT-MP-Combine.sol\":27466:27497  _wrapToken = IERC20(erc20Token) */\n      0x0100\n      exp\n      dup2\n      sload\n      dup2\n      0xffffffffffffffffffffffffffffffffffffffff\n      mul\n      not\n      and\n      swap1\n      dup4\n      0xffffffffffffffffffffffffffffffffffffffff\n      and\n      mul\n      or\n      swap1\n      sstore\n      pop\n        /* \"verify/NFT-MP-Combine.sol\":27389:27506  function setERC20Token (address erc20Token) external onlyOwner{\r... */\n      pop\n      jump\t// out\n        /* \"verify/NFT-MP-Combine.sol\":28164:28333  function openMarketForFixedType(address nftContractId, uint256 tokenId, uint256 price) external{\r... */\n    tag_77:\n        /* \"verify/NFT-MP-Combine.sol\":28266:28325  openMarket(nftContractId,tokenId,price,EOrderType.Fixed, 0) */\n      tag_237\n        /* \"verify/NFT-MP-Combine.sol\":28277:28290  nftContractId */\n      dup4\n        /* \"verify/NFT-MP-Combine.sol\":28291:28298  tokenId */\n      dup4\n        /* \"verify/NFT-MP-Combine.sol\":28299:28304  price */\n      dup4\n        /* \"verify/NFT-MP-Combine.sol\":28305:28321  EOrderType.Fixed */\n      0x01\n        /* \"verify/NFT-MP-Combine.sol\":28323:28324  0 */\n      0x00\n        /* \"verify/NFT-MP-Combine.sol\":28266:28276  openMarket */\n      tag_217\n        /* \"verify/NFT-MP-Combine.sol\":28266:28325  openMarket(nftContractId,tokenId,price,EOrderType.Fixed, 0) */\n      jump\t// in\n    tag_237:\n        /* \"verify/NFT-MP-Combine.sol\":28164:28333  function openMarketForFixedType(address nftContractId, uint256 tokenId, uint256 price) external{\r... */\n      pop\n      pop\n      pop\n      jump\t// out\n        /* \"verify/NFT-MP-Combine.sol\":1178:1287  function transferOwnership(address newOwner) public onlyOwner {\r... */\n    tag_80:\n        /* \"verify/NFT-MP-Combine.sol\":454:464  msg.sender */\n      caller\n        /* \"verify/NFT-MP-Combine.sol\":444:464  _owner == msg.sender */\n      0xffffffffffffffffffffffffffffffffffffffff\n      and\n        /* \"verify/NFT-MP-Combine.sol\":444:450  _owner */\n      0x00\n      dup1\n      sload\n      swap1\n      0x0100\n      exp\n      swap1\n      div\n      0xffffffffffffffffffffffffffffffffffffffff\n      and\n        /* \"verify/NFT-MP-Combine.sol\":444:464  _owner == msg.sender */\n      0xffffffffffffffffffffffffffffffffffffffff\n      and\n      eq\n        /* \"verify/NFT-MP-Combine.sol\":422:534  require(\r... */\n      tag_239\n      jumpi\n      mload(0x40)\n      0x08c379a000000000000000000000000000000000000000000000000000000000\n      dup2\n      mstore\n      0x04\n      add\n      tag_240\n      swap1\n      tag_146\n      jump\t// in\n    tag_240:\n      mload(0x40)\n      dup1\n      swap2\n      sub\n      swap1\n      revert\n    tag_239:\n        /* \"verify/NFT-MP-Combine.sol\":1251:1279  _transferOwnership(newOwner) */\n      tag_242\n        /* \"verify/NFT-MP-Combine.sol\":1270:1278  newOwner */\n      dup2\n        /* \"verify/NFT-MP-Combine.sol\":1251:1269  _transferOwnership */\n      tag_243\n        /* \"verify/NFT-MP-Combine.sol\":1251:1279  _transferOwnership(newOwner) */\n      jump\t// in\n    tag_242:\n        /* \"verify/NFT-MP-Combine.sol\":1178:1287  function transferOwnership(address newOwner) public onlyOwner {\r... */\n      pop\n      jump\t// out\n        /* \"verify/NFT-MP-Combine.sol\":26952:26981  uint256 public _feePercentage */\n    tag_82:\n      sload(0x02)\n      dup2\n      jump\t// out\n        /* \"verify/NFT-MP-Combine.sol\":27756:27932  function getPrivateUniqueKey(address nftContractId, uint256 tokenId) private pure returns (bytes32){\r... */\n    tag_87:\n        /* \"verify/NFT-MP-Combine.sol\":27847:27854  bytes32 */\n      0x00\n        /* \"verify/NFT-MP-Combine.sol\":27900:27913  nftContractId */\n      dup3\n        /* \"verify/NFT-MP-Combine.sol\":27915:27922  tokenId */\n      dup3\n        /* \"verify/NFT-MP-Combine.sol\":27883:27923  abi.encodePacked(nftContractId, tokenId) */\n      add(0x20, mload(0x40))\n      tag_245\n      swap3\n      swap2\n      swap1\n      tag_246\n      jump\t// in\n    tag_245:\n      mload(0x40)\n      0x20\n      dup2\n      dup4\n      sub\n      sub\n      dup2\n      mstore\n      swap1\n      0x40\n      mstore\n        /* \"verify/NFT-MP-Combine.sol\":27873:27924  keccak256(abi.encodePacked(nftContractId, tokenId)) */\n      dup1\n      mload\n      swap1\n      0x20\n      add\n      keccak256\n        /* \"verify/NFT-MP-Combine.sol\":27866:27924  return keccak256(abi.encodePacked(nftContractId, tokenId)) */\n      swap1\n      pop\n        /* \"verify/NFT-MP-Combine.sol\":27756:27932  function getPrivateUniqueKey(address nftContractId, uint256 tokenId) private pure returns (bytes32){\r... */\n      swap3\n      swap2\n      pop\n      pop\n      jump\t// out\n        /* \"verify/NFT-MP-Combine.sol\":33579:33720  function getFeePercentage(uint256 price, uint256 percent) private pure returns (uint256){\r... */\n    tag_101:\n        /* \"verify/NFT-MP-Combine.sol\":33659:33666  uint256 */\n      0x00\n        /* \"verify/NFT-MP-Combine.sol\":33685:33712  price.mul(percent).div(100) */\n      tag_248\n        /* \"verify/NFT-MP-Combine.sol\":33708:33711  100 */\n      0x64\n        /* \"verify/NFT-MP-Combine.sol\":33685:33703  price.mul(percent) */\n      tag_249\n        /* \"verify/NFT-MP-Combine.sol\":33695:33702  percent */\n      dup5\n        /* \"verify/NFT-MP-Combine.sol\":33685:33690  price */\n      dup7\n        /* \"verify/NFT-MP-Combine.sol\":33685:33694  price.mul */\n      tag_250\n      swap1\n        /* \"verify/NFT-MP-Combine.sol\":33685:33703  price.mul(percent) */\n      swap2\n      swap1\n      0xffffffff\n      and\n      jump\t// in\n    tag_249:\n        /* \"verify/NFT-MP-Combine.sol\":33685:33707  price.mul(percent).div */\n      tag_251\n      swap1\n        /* \"verify/NFT-MP-Combine.sol\":33685:33712  price.mul(percent).div(100) */\n      swap2\n      swap1\n      0xffffffff\n      and\n      jump\t// in\n    tag_248:\n        /* \"verify/NFT-MP-Combine.sol\":33678:33712  return price.mul(percent).div(100) */\n      swap1\n      pop\n        /* \"verify/NFT-MP-Combine.sol\":33579:33720  function getFeePercentage(uint256 price, uint256 percent) private pure returns (uint256){\r... */\n      swap3\n      swap2\n      pop\n      pop\n      jump\t// out\n        /* \"verify/NFT-MP-Combine.sol\":4174:4272  function add(uint256 a, uint256 b) internal pure returns (uint256) {\r... */\n    tag_125:\n        /* \"verify/NFT-MP-Combine.sol\":4232:4239  uint256 */\n      0x00\n        /* \"verify/NFT-MP-Combine.sol\":4263:4264  b */\n      dup2\n        /* \"verify/NFT-MP-Combine.sol\":4259:4260  a */\n      dup4\n        /* \"verify/NFT-MP-Combine.sol\":4259:4264  a + b */\n      tag_253\n      swap2\n      swap1\n      tag_254\n      jump\t// in\n    tag_253:\n        /* \"verify/NFT-MP-Combine.sol\":4252:4264  return a + b */\n      swap1\n      pop\n        /* \"verify/NFT-MP-Combine.sol\":4174:4272  function add(uint256 a, uint256 b) internal pure returns (uint256) {\r... */\n      swap3\n      swap2\n      pop\n      pop\n      jump\t// out\n        /* \"verify/NFT-MP-Combine.sol\":4555:4653  function sub(uint256 a, uint256 b) internal pure returns (uint256) {\r... */\n    tag_126:\n        /* \"verify/NFT-MP-Combine.sol\":4613:4620  uint256 */\n      0x00\n        /* \"verify/NFT-MP-Combine.sol\":4644:4645  b */\n      dup2\n        /* \"verify/NFT-MP-Combine.sol\":4640:4641  a */\n      dup4\n        /* \"verify/NFT-MP-Combine.sol\":4640:4645  a - b */\n      tag_256\n      swap2\n      swap1\n      tag_257\n      jump\t// in\n    tag_256:\n        /* \"verify/NFT-MP-Combine.sol\":4633:4645  return a - b */\n      swap1\n      pop\n        /* \"verify/NFT-MP-Combine.sol\":4555:4653  function sub(uint256 a, uint256 b) internal pure returns (uint256) {\r... */\n      swap3\n      swap2\n      pop\n      pop\n      jump\t// out\n        /* \"verify/NFT-MP-Combine.sol\":28551:29602  function openMarket(address nftContractId, uint256 tokenId, uint256 price, EOrderType orderType, uint256 maxPrice) private{\r... */\n    tag_217:\n        /* \"verify/NFT-MP-Combine.sol\":28684:28701  bytes32 uniqueKey */\n      0x00\n        /* \"verify/NFT-MP-Combine.sol\":28704:28746  getPrivateUniqueKey(nftContractId,tokenId) */\n      tag_259\n        /* \"verify/NFT-MP-Combine.sol\":28724:28737  nftContractId */\n      dup7\n        /* \"verify/NFT-MP-Combine.sol\":28738:28745  tokenId */\n      dup7\n        /* \"verify/NFT-MP-Combine.sol\":28704:28723  getPrivateUniqueKey */\n      tag_87\n        /* \"verify/NFT-MP-Combine.sol\":28704:28746  getPrivateUniqueKey(nftContractId,tokenId) */\n      jump\t// in\n    tag_259:\n        /* \"verify/NFT-MP-Combine.sol\":28684:28746  bytes32 uniqueKey = getPrivateUniqueKey(nftContractId,tokenId) */\n      swap1\n      pop\n        /* \"verify/NFT-MP-Combine.sol\":28796:28825  EOrderStatus.OpenForTheMarket */\n      0x01\n        /* \"verify/NFT-MP-Combine.sol\":28762:28825  markets[uniqueKey].orderStatus == EOrderStatus.OpenForTheMarket */\n      0x03\n      dup2\n      gt\n      iszero\n      tag_260\n      jumpi\n      mstore(0x00, 0x4e487b7100000000000000000000000000000000000000000000000000000000)\n      mstore(0x04, 0x21)\n      revert(0x00, 0x24)\n    tag_260:\n        /* \"verify/NFT-MP-Combine.sol\":28762:28769  markets */\n      0x04\n        /* \"verify/NFT-MP-Combine.sol\":28762:28780  markets[uniqueKey] */\n      0x00\n        /* \"verify/NFT-MP-Combine.sol\":28770:28779  uniqueKey */\n      dup4\n        /* \"verify/NFT-MP-Combine.sol\":28762:28780  markets[uniqueKey] */\n      dup2\n      mstore\n      0x20\n      add\n      swap1\n      dup2\n      mstore\n      0x20\n      add\n      0x00\n      keccak256\n        /* \"verify/NFT-MP-Combine.sol\":28762:28792  markets[uniqueKey].orderStatus */\n      0x02\n      add\n      0x01\n      swap1\n      sload\n      swap1\n      0x0100\n      exp\n      swap1\n      div\n      0xff\n      and\n        /* \"verify/NFT-MP-Combine.sol\":28762:28825  markets[uniqueKey].orderStatus == EOrderStatus.OpenForTheMarket */\n      0x03\n      dup2\n      gt\n      iszero\n      tag_261\n      jumpi\n      mstore(0x00, 0x4e487b7100000000000000000000000000000000000000000000000000000000)\n      mstore(0x04, 0x21)\n      revert(0x00, 0x24)\n    tag_261:\n      eq\n        /* \"verify/NFT-MP-Combine.sol\":28759:28894  if(markets[uniqueKey].orderStatus == EOrderStatus.OpenForTheMarket){\r... */\n      iszero\n      tag_262\n      jumpi\n        /* \"verify/NFT-MP-Combine.sol\":28841:28882  revert (\"Market order is already opened\") */\n      mload(0x40)\n      0x08c379a000000000000000000000000000000000000000000000000000000000\n      dup2\n      mstore\n      0x04\n      add\n      tag_263\n      swap1\n      tag_264\n      jump\t// in\n    tag_263:\n      mload(0x40)\n      dup1\n      swap2\n      sub\n      swap1\n      revert\n        /* \"verify/NFT-MP-Combine.sol\":28759:28894  if(markets[uniqueKey].orderStatus == EOrderStatus.OpenForTheMarket){\r... */\n    tag_262:\n        /* \"verify/NFT-MP-Combine.sol\":28926:28927  0 */\n      0x00\n        /* \"verify/NFT-MP-Combine.sol\":28917:28922  price */\n      dup5\n        /* \"verify/NFT-MP-Combine.sol\":28917:28927  price <= 0 */\n      gt\n        /* \"verify/NFT-MP-Combine.sol\":28914:28996  if(price <= 0){\r... */\n      tag_265\n      jumpi\n        /* \"verify/NFT-MP-Combine.sol\":28943:28984  revert (\"Price Should be greater then 0\") */\n      mload(0x40)\n      0x08c379a000000000000000000000000000000000000000000000000000000000\n      dup2\n      mstore\n      0x04\n      add\n      tag_266\n      swap1\n      tag_267\n      jump\t// in\n    tag_266:\n      mload(0x40)\n      dup1\n      swap2\n      sub\n      swap1\n      revert\n        /* \"verify/NFT-MP-Combine.sol\":28914:28996  if(price <= 0){\r... */\n    tag_265:\n        /* \"verify/NFT-MP-Combine.sol\":29024:29042  EOrderType.Auction */\n      0x02\n        /* \"verify/NFT-MP-Combine.sol\":29011:29042  orderType == EOrderType.Auction */\n      dup1\n      dup2\n      gt\n      iszero\n      tag_268\n      jumpi\n      mstore(0x00, 0x4e487b7100000000000000000000000000000000000000000000000000000000)\n      mstore(0x04, 0x21)\n      revert(0x00, 0x24)\n    tag_268:\n        /* \"verify/NFT-MP-Combine.sol\":29011:29020  orderType */\n      dup4\n        /* \"verify/NFT-MP-Combine.sol\":29011:29042  orderType == EOrderType.Auction */\n      0x02\n      dup2\n      gt\n      iszero\n      tag_269\n      jumpi\n      mstore(0x00, 0x4e487b7100000000000000000000000000000000000000000000000000000000)\n      mstore(0x04, 0x21)\n      revert(0x00, 0x24)\n    tag_269:\n      eq\n        /* \"verify/NFT-MP-Combine.sol\":29011:29062  orderType == EOrderType.Auction && price > maxPrice */\n      dup1\n      iszero\n      tag_270\n      jumpi\n      pop\n        /* \"verify/NFT-MP-Combine.sol\":29054:29062  maxPrice */\n      dup2\n        /* \"verify/NFT-MP-Combine.sol\":29046:29051  price */\n      dup5\n        /* \"verify/NFT-MP-Combine.sol\":29046:29062  price > maxPrice */\n      gt\n        /* \"verify/NFT-MP-Combine.sol\":29011:29062  orderType == EOrderType.Auction && price > maxPrice */\n    tag_270:\n        /* \"verify/NFT-MP-Combine.sol\":29008:29139  if(orderType == EOrderType.Auction && price > maxPrice){\r... */\n      iszero\n      tag_271\n      jumpi\n        /* \"verify/NFT-MP-Combine.sol\":29078:29127  revert (\"end Price Should be greater then price\") */\n      mload(0x40)\n      0x08c379a000000000000000000000000000000000000000000000000000000000\n      dup2\n      mstore\n      0x04\n      add\n      tag_272\n      swap1\n      tag_273\n      jump\t// in\n    tag_272:\n      mload(0x40)\n      dup1\n      swap2\n      sub\n      swap1\n      revert\n        /* \"verify/NFT-MP-Combine.sol\":29008:29139  if(orderType == EOrderType.Auction && price > maxPrice){\r... */\n    tag_271:\n        /* \"verify/NFT-MP-Combine.sol\":29184:29213  EOrderStatus.OpenForTheMarket */\n      0x01\n        /* \"verify/NFT-MP-Combine.sol\":29151:29158  markets */\n      0x04\n        /* \"verify/NFT-MP-Combine.sol\":29151:29169  markets[uniqueKey] */\n      0x00\n        /* \"verify/NFT-MP-Combine.sol\":29159:29168  uniqueKey */\n      dup4\n        /* \"verify/NFT-MP-Combine.sol\":29151:29169  markets[uniqueKey] */\n      dup2\n      mstore\n      0x20\n      add\n      swap1\n      dup2\n      mstore\n      0x20\n      add\n      0x00\n      keccak256\n        /* \"verify/NFT-MP-Combine.sol\":29151:29181  markets[uniqueKey].orderStatus */\n      0x02\n      add\n      0x01\n        /* \"verify/NFT-MP-Combine.sol\":29151:29213  markets[uniqueKey].orderStatus = EOrderStatus.OpenForTheMarket */\n      0x0100\n      exp\n      dup2\n      sload\n      dup2\n      0xff\n      mul\n      not\n      and\n      swap1\n      dup4\n      0x03\n      dup2\n      gt\n      iszero\n      tag_274\n      jumpi\n      mstore(0x00, 0x4e487b7100000000000000000000000000000000000000000000000000000000)\n      mstore(0x04, 0x21)\n      revert(0x00, 0x24)\n    tag_274:\n      mul\n      or\n      swap1\n      sstore\n      pop\n        /* \"verify/NFT-MP-Combine.sol\":29255:29264  orderType */\n      dup3\n        /* \"verify/NFT-MP-Combine.sol\":29224:29231  markets */\n      0x04\n        /* \"verify/NFT-MP-Combine.sol\":29224:29242  markets[uniqueKey] */\n      0x00\n        /* \"verify/NFT-MP-Combine.sol\":29232:29241  uniqueKey */\n      dup4\n        /* \"verify/NFT-MP-Combine.sol\":29224:29242  markets[uniqueKey] */\n      dup2\n      mstore\n      0x20\n      add\n      swap1\n      dup2\n      mstore\n      0x20\n      add\n      0x00\n      keccak256\n        /* \"verify/NFT-MP-Combine.sol\":29224:29252  markets[uniqueKey].orderType */\n      0x02\n      add\n      0x00\n        /* \"verify/NFT-MP-Combine.sol\":29224:29264  markets[uniqueKey].orderType = orderType */\n      0x0100\n      exp\n      dup2\n      sload\n      dup2\n      0xff\n      mul\n      not\n      and\n      swap1\n      dup4\n      0x02\n      dup2\n      gt\n      iszero\n      tag_275\n      jumpi\n      mstore(0x00, 0x4e487b7100000000000000000000000000000000000000000000000000000000)\n      mstore(0x04, 0x21)\n      revert(0x00, 0x24)\n    tag_275:\n      mul\n      or\n      swap1\n      sstore\n      pop\n        /* \"verify/NFT-MP-Combine.sol\":29306:29311  price */\n      dup4\n        /* \"verify/NFT-MP-Combine.sol\":29275:29282  markets */\n      0x04\n        /* \"verify/NFT-MP-Combine.sol\":29275:29293  markets[uniqueKey] */\n      0x00\n        /* \"verify/NFT-MP-Combine.sol\":29283:29292  uniqueKey */\n      dup4\n        /* \"verify/NFT-MP-Combine.sol\":29275:29293  markets[uniqueKey] */\n      dup2\n      mstore\n      0x20\n      add\n      swap1\n      dup2\n      mstore\n      0x20\n      add\n      0x00\n      keccak256\n        /* \"verify/NFT-MP-Combine.sol\":29275:29303  markets[uniqueKey].askAmount */\n      0x03\n      add\n        /* \"verify/NFT-MP-Combine.sol\":29275:29311  markets[uniqueKey].askAmount = price */\n      dup2\n      swap1\n      sstore\n      pop\n        /* \"verify/NFT-MP-Combine.sol\":29356:29364  maxPrice */\n      dup2\n        /* \"verify/NFT-MP-Combine.sol\":29322:29329  markets */\n      0x04\n        /* \"verify/NFT-MP-Combine.sol\":29322:29340  markets[uniqueKey] */\n      0x00\n        /* \"verify/NFT-MP-Combine.sol\":29330:29339  uniqueKey */\n      dup4\n        /* \"verify/NFT-MP-Combine.sol\":29322:29340  markets[uniqueKey] */\n      dup2\n      mstore\n      0x20\n      add\n      swap1\n      dup2\n      mstore\n      0x20\n      add\n      0x00\n      keccak256\n        /* \"verify/NFT-MP-Combine.sol\":29322:29353  markets[uniqueKey].maxAskAmount */\n      0x04\n      add\n        /* \"verify/NFT-MP-Combine.sol\":29322:29364  markets[uniqueKey].maxAskAmount = maxPrice */\n      dup2\n      swap1\n      sstore\n      pop\n        /* \"verify/NFT-MP-Combine.sol\":29412:29425  nftContractId */\n      dup6\n        /* \"verify/NFT-MP-Combine.sol\":29375:29382  markets */\n      0x04\n        /* \"verify/NFT-MP-Combine.sol\":29375:29393  markets[uniqueKey] */\n      0x00\n        /* \"verify/NFT-MP-Combine.sol\":29383:29392  uniqueKey */\n      dup4\n        /* \"verify/NFT-MP-Combine.sol\":29375:29393  markets[uniqueKey] */\n      dup2\n      mstore\n      0x20\n      add\n      swap1\n      dup2\n      mstore\n      0x20\n      add\n      0x00\n      keccak256\n        /* \"verify/NFT-MP-Combine.sol\":29375:29409  markets[uniqueKey].contractAddress */\n      0x00\n      add\n      0x00\n        /* \"verify/NFT-MP-Combine.sol\":29375:29425  markets[uniqueKey].contractAddress = nftContractId */\n      0x0100\n      exp\n      dup2\n      sload\n      dup2\n      0xffffffffffffffffffffffffffffffffffffffff\n      mul\n      not\n      and\n      swap1\n      dup4\n      0xffffffffffffffffffffffffffffffffffffffff\n      and\n      mul\n      or\n      swap1\n      sstore\n      pop\n        /* \"verify/NFT-MP-Combine.sol\":29465:29472  tokenId */\n      dup5\n        /* \"verify/NFT-MP-Combine.sol\":29436:29443  markets */\n      0x04\n        /* \"verify/NFT-MP-Combine.sol\":29436:29454  markets[uniqueKey] */\n      0x00\n        /* \"verify/NFT-MP-Combine.sol\":29444:29453  uniqueKey */\n      dup4\n        /* \"verify/NFT-MP-Combine.sol\":29436:29454  markets[uniqueKey] */\n      dup2\n      mstore\n      0x20\n      add\n      swap1\n      dup2\n      mstore\n      0x20\n      add\n      0x00\n      keccak256\n        /* \"verify/NFT-MP-Combine.sol\":29436:29462  markets[uniqueKey].tokenId */\n      0x01\n      add\n        /* \"verify/NFT-MP-Combine.sol\":29436:29472  markets[uniqueKey].tokenId = tokenId */\n      dup2\n      swap1\n      sstore\n      pop\n        /* \"verify/NFT-MP-Combine.sol\":29517:29527  msg.sender */\n      caller\n        /* \"verify/NFT-MP-Combine.sol\":29483:29490  markets */\n      0x04\n        /* \"verify/NFT-MP-Combine.sol\":29483:29501  markets[uniqueKey] */\n      0x00\n        /* \"verify/NFT-MP-Combine.sol\":29491:29500  uniqueKey */\n      dup4\n        /* \"verify/NFT-MP-Combine.sol\":29483:29501  markets[uniqueKey] */\n      dup2\n      mstore\n      0x20\n      add\n      swap1\n      dup2\n      mstore\n      0x20\n      add\n      0x00\n      keccak256\n        /* \"verify/NFT-MP-Combine.sol\":29483:29514  markets[uniqueKey].currentOwner */\n      0x05\n      add\n      0x00\n        /* \"verify/NFT-MP-Combine.sol\":29483:29527  markets[uniqueKey].currentOwner = msg.sender */\n      0x0100\n      exp\n      dup2\n      sload\n      dup2\n      0xffffffffffffffffffffffffffffffffffffffff\n      mul\n      not\n      and\n      swap1\n      dup4\n      0xffffffffffffffffffffffffffffffffffffffff\n      and\n      mul\n      or\n      swap1\n      sstore\n      pop\n        /* \"verify/NFT-MP-Combine.sol\":28551:29602  function openMarket(address nftContractId, uint256 tokenId, uint256 price, EOrderType orderType, uint256 maxPrice) private{\r... */\n      pop\n      pop\n      pop\n      pop\n      pop\n      pop\n      jump\t// out\n        /* \"verify/NFT-MP-Combine.sol\":1392:1658  function _transferOwnership(address newOwner) internal {\r... */\n    tag_243:\n        /* \"verify/NFT-MP-Combine.sol\":1500:1501  0 */\n      0x00\n        /* \"verify/NFT-MP-Combine.sol\":1480:1502  newOwner != address(0) */\n      0xffffffffffffffffffffffffffffffffffffffff\n      and\n        /* \"verify/NFT-MP-Combine.sol\":1480:1488  newOwner */\n      dup2\n        /* \"verify/NFT-MP-Combine.sol\":1480:1502  newOwner != address(0) */\n      0xffffffffffffffffffffffffffffffffffffffff\n      and\n      eq\n      iszero\n        /* \"verify/NFT-MP-Combine.sol\":1458:1568  require(\r... */\n      tag_277\n      jumpi\n      mload(0x40)\n      0x08c379a000000000000000000000000000000000000000000000000000000000\n      dup2\n      mstore\n      0x04\n      add\n      tag_278\n      swap1\n      tag_279\n      jump\t// in\n    tag_278:\n      mload(0x40)\n      dup1\n      swap2\n      sub\n      swap1\n      revert\n    tag_277:\n        /* \"verify/NFT-MP-Combine.sol\":1613:1621  newOwner */\n      dup1\n        /* \"verify/NFT-MP-Combine.sol\":1584:1622  OwnershipTransferred(_owner, newOwner) */\n      0xffffffffffffffffffffffffffffffffffffffff\n      and\n        /* \"verify/NFT-MP-Combine.sol\":1605:1611  _owner */\n      0x00\n      dup1\n      sload\n      swap1\n      0x0100\n      exp\n      swap1\n      div\n      0xffffffffffffffffffffffffffffffffffffffff\n      and\n        /* \"verify/NFT-MP-Combine.sol\":1584:1622  OwnershipTransferred(_owner, newOwner) */\n      0xffffffffffffffffffffffffffffffffffffffff\n      and\n      0x8be0079c531659141344cd1fd0a4f28419497f9722a3daafe3b4186f6b6457e0\n      mload(0x40)\n      mload(0x40)\n      dup1\n      swap2\n      sub\n      swap1\n      log3\n        /* \"verify/NFT-MP-Combine.sol\":1642:1650  newOwner */\n      dup1\n        /* \"verify/NFT-MP-Combine.sol\":1633:1639  _owner */\n      0x00\n      dup1\n        /* \"verify/NFT-MP-Combine.sol\":1633:1650  _owner = newOwner */\n      0x0100\n      exp\n      dup2\n      sload\n      dup2\n      0xffffffffffffffffffffffffffffffffffffffff\n      mul\n      not\n      and\n      swap1\n      dup4\n      0xffffffffffffffffffffffffffffffffffffffff\n      and\n      mul\n      or\n      swap1\n      sstore\n      pop\n        /* \"verify/NFT-MP-Combine.sol\":1392:1658  function _transferOwnership(address newOwner) internal {\r... */\n      pop\n      jump\t// out\n        /* \"verify/NFT-MP-Combine.sol\":4912:5010  function mul(uint256 a, uint256 b) internal pure returns (uint256) {\r... */\n    tag_250:\n        /* \"verify/NFT-MP-Combine.sol\":4970:4977  uint256 */\n      0x00\n        /* \"verify/NFT-MP-Combine.sol\":5001:5002  b */\n      dup2\n        /* \"verify/NFT-MP-Combine.sol\":4997:4998  a */\n      dup4\n        /* \"verify/NFT-MP-Combine.sol\":4997:5002  a * b */\n      tag_281\n      swap2\n      swap1\n      tag_282\n      jump\t// in\n    tag_281:\n        /* \"verify/NFT-MP-Combine.sol\":4990:5002  return a * b */\n      swap1\n      pop\n        /* \"verify/NFT-MP-Combine.sol\":4912:5010  function mul(uint256 a, uint256 b) internal pure returns (uint256) {\r... */\n      swap3\n      swap2\n      pop\n      pop\n      jump\t// out\n        /* \"verify/NFT-MP-Combine.sol\":5311:5409  function div(uint256 a, uint256 b) internal pure returns (uint256) {\r... */\n    tag_251:\n        /* \"verify/NFT-MP-Combine.sol\":5369:5376  uint256 */\n      0x00\n        /* \"verify/NFT-MP-Combine.sol\":5400:5401  b */\n      dup2\n        /* \"verify/NFT-MP-Combine.sol\":5396:5397  a */\n      dup4\n        /* \"verify/NFT-MP-Combine.sol\":5396:5401  a / b */\n      tag_284\n      swap2\n      swap1\n      tag_285\n      jump\t// in\n    tag_284:\n        /* \"verify/NFT-MP-Combine.sol\":5389:5401  return a / b */\n      swap1\n      pop\n        /* \"verify/NFT-MP-Combine.sol\":5311:5409  function div(uint256 a, uint256 b) internal pure returns (uint256) {\r... */\n      swap3\n      swap2\n      pop\n      pop\n      jump\t// out\n    tag_203:\n      mload(0x40)\n      dup1\n      0x0100\n      add\n      0x40\n      mstore\n      dup1\n      and(0xffffffffffffffffffffffffffffffffffffffff, 0x00)\n      dup2\n      mstore\n      0x20\n      add\n      0x00\n      dup2\n      mstore\n      0x20\n      add\n      0x00\n      0x02\n      dup2\n      gt\n      iszero\n      tag_286\n      jumpi\n      mstore(0x00, 0x4e487b7100000000000000000000000000000000000000000000000000000000)\n      mstore(0x04, 0x21)\n      revert(0x00, 0x24)\n    tag_286:\n      dup2\n      mstore\n      0x20\n      add\n      0x00\n      0x03\n      dup2\n      gt\n      iszero\n      tag_287\n      jumpi\n      mstore(0x00, 0x4e487b7100000000000000000000000000000000000000000000000000000000)\n      mstore(0x04, 0x21)\n      revert(0x00, 0x24)\n    tag_287:\n      dup2\n      mstore\n      0x20\n      add\n      0x00\n      dup2\n      mstore\n      0x20\n      add\n      0x00\n      dup2\n      mstore\n      0x20\n      add\n      and(0xffffffffffffffffffffffffffffffffffffffff, 0x00)\n      dup2\n      mstore\n      0x20\n      add\n      and(0xffffffffffffffffffffffffffffffffffffffff, 0x00)\n      dup2\n      mstore\n      pop\n      swap1\n      jump\t// out\n        /* \"#utility.yul\":7:146   */\n    tag_289:\n        /* \"#utility.yul\":53:58   */\n      0x00\n        /* \"#utility.yul\":91:97   */\n      dup2\n        /* \"#utility.yul\":78:98   */\n      calldataload\n        /* \"#utility.yul\":69:98   */\n      swap1\n      pop\n        /* \"#utility.yul\":107:140   */\n      tag_291\n        /* \"#utility.yul\":134:139   */\n      dup2\n        /* \"#utility.yul\":107:140   */\n      tag_292\n      jump\t// in\n    tag_291:\n        /* \"#utility.yul\":59:146   */\n      swap3\n      swap2\n      pop\n      pop\n      jump\t// out\n        /* \"#utility.yul\":152:295   */\n    tag_293:\n        /* \"#utility.yul\":209:214   */\n      0x00\n        /* \"#utility.yul\":240:246   */\n      dup2\n        /* \"#utility.yul\":234:247   */\n      mload\n        /* \"#utility.yul\":225:247   */\n      swap1\n      pop\n        /* \"#utility.yul\":256:289   */\n      tag_295\n        /* \"#utility.yul\":283:288   */\n      dup2\n        /* \"#utility.yul\":256:289   */\n      tag_292\n      jump\t// in\n    tag_295:\n        /* \"#utility.yul\":215:295   */\n      swap3\n      swap2\n      pop\n      pop\n      jump\t// out\n        /* \"#utility.yul\":301:456   */\n    tag_296:\n        /* \"#utility.yul\":355:360   */\n      0x00\n        /* \"#utility.yul\":393:399   */\n      dup2\n        /* \"#utility.yul\":380:400   */\n      calldataload\n        /* \"#utility.yul\":371:400   */\n      swap1\n      pop\n        /* \"#utility.yul\":409:450   */\n      tag_298\n        /* \"#utility.yul\":444:449   */\n      dup2\n        /* \"#utility.yul\":409:450   */\n      tag_299\n      jump\t// in\n    tag_298:\n        /* \"#utility.yul\":361:456   */\n      swap3\n      swap2\n      pop\n      pop\n      jump\t// out\n        /* \"#utility.yul\":462:599   */\n    tag_300:\n        /* \"#utility.yul\":516:521   */\n      0x00\n        /* \"#utility.yul\":547:553   */\n      dup2\n        /* \"#utility.yul\":541:554   */\n      mload\n        /* \"#utility.yul\":532:554   */\n      swap1\n      pop\n        /* \"#utility.yul\":563:593   */\n      tag_302\n        /* \"#utility.yul\":587:592   */\n      dup2\n        /* \"#utility.yul\":563:593   */\n      tag_303\n      jump\t// in\n    tag_302:\n        /* \"#utility.yul\":522:599   */\n      swap3\n      swap2\n      pop\n      pop\n      jump\t// out\n        /* \"#utility.yul\":605:744   */\n    tag_304:\n        /* \"#utility.yul\":651:656   */\n      0x00\n        /* \"#utility.yul\":689:695   */\n      dup2\n        /* \"#utility.yul\":676:696   */\n      calldataload\n        /* \"#utility.yul\":667:696   */\n      swap1\n      pop\n        /* \"#utility.yul\":705:738   */\n      tag_306\n        /* \"#utility.yul\":732:737   */\n      dup2\n        /* \"#utility.yul\":705:738   */\n      tag_307\n      jump\t// in\n    tag_306:\n        /* \"#utility.yul\":657:744   */\n      swap3\n      swap2\n      pop\n      pop\n      jump\t// out\n        /* \"#utility.yul\":750:889   */\n    tag_308:\n        /* \"#utility.yul\":796:801   */\n      0x00\n        /* \"#utility.yul\":834:840   */\n      dup2\n        /* \"#utility.yul\":821:841   */\n      calldataload\n        /* \"#utility.yul\":812:841   */\n      swap1\n      pop\n        /* \"#utility.yul\":850:883   */\n      tag_310\n        /* \"#utility.yul\":877:882   */\n      dup2\n        /* \"#utility.yul\":850:883   */\n      tag_311\n      jump\t// in\n    tag_310:\n        /* \"#utility.yul\":802:889   */\n      swap3\n      swap2\n      pop\n      pop\n      jump\t// out\n        /* \"#utility.yul\":895:1038   */\n    tag_312:\n        /* \"#utility.yul\":952:957   */\n      0x00\n        /* \"#utility.yul\":983:989   */\n      dup2\n        /* \"#utility.yul\":977:990   */\n      mload\n        /* \"#utility.yul\":968:990   */\n      swap1\n      pop\n        /* \"#utility.yul\":999:1032   */\n      tag_314\n        /* \"#utility.yul\":1026:1031   */\n      dup2\n        /* \"#utility.yul\":999:1032   */\n      tag_311\n      jump\t// in\n    tag_314:\n        /* \"#utility.yul\":958:1038   */\n      swap3\n      swap2\n      pop\n      pop\n      jump\t// out\n        /* \"#utility.yul\":1044:1306   */\n    tag_73:\n        /* \"#utility.yul\":1103:1109   */\n      0x00\n        /* \"#utility.yul\":1152:1154   */\n      0x20\n        /* \"#utility.yul\":1140:1149   */\n      dup3\n        /* \"#utility.yul\":1131:1138   */\n      dup5\n        /* \"#utility.yul\":1127:1150   */\n      sub\n        /* \"#utility.yul\":1123:1155   */\n      slt\n        /* \"#utility.yul\":1120:1122   */\n      iszero\n      tag_316\n      jumpi\n        /* \"#utility.yul\":1168:1169   */\n      0x00\n        /* \"#utility.yul\":1165:1166   */\n      dup1\n        /* \"#utility.yul\":1158:1170   */\n      revert\n        /* \"#utility.yul\":1120:1122   */\n    tag_316:\n        /* \"#utility.yul\":1211:1212   */\n      0x00\n        /* \"#utility.yul\":1236:1289   */\n      tag_317\n        /* \"#utility.yul\":1281:1288   */\n      dup5\n        /* \"#utility.yul\":1272:1278   */\n      dup3\n        /* \"#utility.yul\":1261:1270   */\n      dup6\n        /* \"#utility.yul\":1257:1279   */\n      add\n        /* \"#utility.yul\":1236:1289   */\n      tag_289\n      jump\t// in\n    tag_317:\n        /* \"#utility.yul\":1226:1289   */\n      swap2\n      pop\n        /* \"#utility.yul\":1182:1299   */\n      pop\n        /* \"#utility.yul\":1110:1306   */\n      swap3\n      swap2\n      pop\n      pop\n      jump\t// out\n        /* \"#utility.yul\":1312:1590   */\n    tag_32:\n        /* \"#utility.yul\":1379:1385   */\n      0x00\n        /* \"#utility.yul\":1428:1430   */\n      0x20\n        /* \"#utility.yul\":1416:1425   */\n      dup3\n        /* \"#utility.yul\":1407:1414   */\n      dup5\n        /* \"#utility.yul\":1403:1426   */\n      sub\n        /* \"#utility.yul\":1399:1431   */\n      slt\n        /* \"#utility.yul\":1396:1398   */\n      iszero\n      tag_319\n      jumpi\n        /* \"#utility.yul\":1444:1445   */\n      0x00\n        /* \"#utility.yul\":1441:1442   */\n      dup1\n        /* \"#utility.yul\":1434:1446   */\n      revert\n        /* \"#utility.yul\":1396:1398   */\n    tag_319:\n        /* \"#utility.yul\":1487:1488   */\n      0x00\n        /* \"#utility.yul\":1512:1573   */\n      tag_320\n        /* \"#utility.yul\":1565:1572   */\n      dup5\n        /* \"#utility.yul\":1556:1562   */\n      dup3\n        /* \"#utility.yul\":1545:1554   */\n      dup6\n        /* \"#utility.yul\":1541:1563   */\n      add\n        /* \"#utility.yul\":1512:1573   */\n      tag_296\n      jump\t// in\n    tag_320:\n        /* \"#utility.yul\":1502:1573   */\n      swap2\n      pop\n        /* \"#utility.yul\":1458:1583   */\n      pop\n        /* \"#utility.yul\":1386:1590   */\n      swap3\n      swap2\n      pop\n      pop\n      jump\t// out\n        /* \"#utility.yul\":1596:2003   */\n    tag_40:\n        /* \"#utility.yul\":1664:1670   */\n      0x00\n        /* \"#utility.yul\":1672:1678   */\n      dup1\n        /* \"#utility.yul\":1721:1723   */\n      0x40\n        /* \"#utility.yul\":1709:1718   */\n      dup4\n        /* \"#utility.yul\":1700:1707   */\n      dup6\n        /* \"#utility.yul\":1696:1719   */\n      sub\n        /* \"#utility.yul\":1692:1724   */\n      slt\n        /* \"#utility.yul\":1689:1691   */\n      iszero\n      tag_322\n      jumpi\n        /* \"#utility.yul\":1737:1738   */\n      0x00\n        /* \"#utility.yul\":1734:1735   */\n      dup1\n        /* \"#utility.yul\":1727:1739   */\n      revert\n        /* \"#utility.yul\":1689:1691   */\n    tag_322:\n        /* \"#utility.yul\":1780:1781   */\n      0x00\n        /* \"#utility.yul\":1805:1858   */\n      tag_323\n        /* \"#utility.yul\":1850:1857   */\n      dup6\n        /* \"#utility.yul\":1841:1847   */\n      dup3\n        /* \"#utility.yul\":1830:1839   */\n      dup7\n        /* \"#utility.yul\":1826:1848   */\n      add\n        /* \"#utility.yul\":1805:1858   */\n      tag_289\n      jump\t// in\n    tag_323:\n        /* \"#utility.yul\":1795:1858   */\n      swap3\n      pop\n        /* \"#utility.yul\":1751:1868   */\n      pop\n        /* \"#utility.yul\":1907:1909   */\n      0x20\n        /* \"#utility.yul\":1933:1986   */\n      tag_324\n        /* \"#utility.yul\":1978:1985   */\n      dup6\n        /* \"#utility.yul\":1969:1975   */\n      dup3\n        /* \"#utility.yul\":1958:1967   */\n      dup7\n        /* \"#utility.yul\":1954:1976   */\n      add\n        /* \"#utility.yul\":1933:1986   */\n      tag_308\n      jump\t// in\n    tag_324:\n        /* \"#utility.yul\":1923:1986   */\n      swap2\n      pop\n        /* \"#utility.yul\":1878:1996   */\n      pop\n        /* \"#utility.yul\":1679:2003   */\n      swap3\n      pop\n      swap3\n      swap1\n      pop\n      jump\t// out\n        /* \"#utility.yul\":2009:2561   */\n    tag_36:\n        /* \"#utility.yul\":2086:2092   */\n      0x00\n        /* \"#utility.yul\":2094:2100   */\n      dup1\n        /* \"#utility.yul\":2102:2108   */\n      0x00\n        /* \"#utility.yul\":2151:2153   */\n      0x60\n        /* \"#utility.yul\":2139:2148   */\n      dup5\n        /* \"#utility.yul\":2130:2137   */\n      dup7\n        /* \"#utility.yul\":2126:2149   */\n      sub\n        /* \"#utility.yul\":2122:2154   */\n      slt\n        /* \"#utility.yul\":2119:2121   */\n      iszero\n      tag_326\n      jumpi\n        /* \"#utility.yul\":2167:2168   */\n      0x00\n        /* \"#utility.yul\":2164:2165   */\n      dup1\n        /* \"#utility.yul\":2157:2169   */\n      revert\n        /* \"#utility.yul\":2119:2121   */\n    tag_326:\n        /* \"#utility.yul\":2210:2211   */\n      0x00\n        /* \"#utility.yul\":2235:2288   */\n      tag_327\n        /* \"#utility.yul\":2280:2287   */\n      dup7\n        /* \"#utility.yul\":2271:2277   */\n      dup3\n        /* \"#utility.yul\":2260:2269   */\n      dup8\n        /* \"#utility.yul\":2256:2278   */\n      add\n        /* \"#utility.yul\":2235:2288   */\n      tag_289\n      jump\t// in\n    tag_327:\n        /* \"#utility.yul\":2225:2288   */\n      swap4\n      pop\n        /* \"#utility.yul\":2181:2298   */\n      pop\n        /* \"#utility.yul\":2337:2339   */\n      0x20\n        /* \"#utility.yul\":2363:2416   */\n      tag_328\n        /* \"#utility.yul\":2408:2415   */\n      dup7\n        /* \"#utility.yul\":2399:2405   */\n      dup3\n        /* \"#utility.yul\":2388:2397   */\n      dup8\n        /* \"#utility.yul\":2384:2406   */\n      add\n        /* \"#utility.yul\":2363:2416   */\n      tag_308\n      jump\t// in\n    tag_328:\n        /* \"#utility.yul\":2353:2416   */\n      swap3\n      pop\n        /* \"#utility.yul\":2308:2426   */\n      pop\n        /* \"#utility.yul\":2465:2467   */\n      0x40\n        /* \"#utility.yul\":2491:2544   */\n      tag_329\n        /* \"#utility.yul\":2536:2543   */\n      dup7\n        /* \"#utility.yul\":2527:2533   */\n      dup3\n        /* \"#utility.yul\":2516:2525   */\n      dup8\n        /* \"#utility.yul\":2512:2534   */\n      add\n        /* \"#utility.yul\":2491:2544   */\n      tag_308\n      jump\t// in\n    tag_329:\n        /* \"#utility.yul\":2481:2544   */\n      swap2\n      pop\n        /* \"#utility.yul\":2436:2554   */\n      pop\n        /* \"#utility.yul\":2109:2561   */\n      swap3\n      pop\n      swap3\n      pop\n      swap3\n      jump\t// out\n        /* \"#utility.yul\":2567:3265   */\n    tag_28:\n        /* \"#utility.yul\":2653:2659   */\n      0x00\n        /* \"#utility.yul\":2661:2667   */\n      dup1\n        /* \"#utility.yul\":2669:2675   */\n      0x00\n        /* \"#utility.yul\":2677:2683   */\n      dup1\n        /* \"#utility.yul\":2726:2729   */\n      0x80\n        /* \"#utility.yul\":2714:2723   */\n      dup6\n        /* \"#utility.yul\":2705:2712   */\n      dup8\n        /* \"#utility.yul\":2701:2724   */\n      sub\n        /* \"#utility.yul\":2697:2730   */\n      slt\n        /* \"#utility.yul\":2694:2696   */\n      iszero\n      tag_331\n      jumpi\n        /* \"#utility.yul\":2743:2744   */\n      0x00\n        /* \"#utility.yul\":2740:2741   */\n      dup1\n        /* \"#utility.yul\":2733:2745   */\n      revert\n        /* \"#utility.yul\":2694:2696   */\n    tag_331:\n        /* \"#utility.yul\":2786:2787   */\n      0x00\n        /* \"#utility.yul\":2811:2864   */\n      tag_332\n        /* \"#utility.yul\":2856:2863   */\n      dup8\n        /* \"#utility.yul\":2847:2853   */\n      dup3\n        /* \"#utility.yul\":2836:2845   */\n      dup9\n        /* \"#utility.yul\":2832:2854   */\n      add\n        /* \"#utility.yul\":2811:2864   */\n      tag_289\n      jump\t// in\n    tag_332:\n        /* \"#utility.yul\":2801:2864   */\n      swap5\n      pop\n        /* \"#utility.yul\":2757:2874   */\n      pop\n        /* \"#utility.yul\":2913:2915   */\n      0x20\n        /* \"#utility.yul\":2939:2992   */\n      tag_333\n        /* \"#utility.yul\":2984:2991   */\n      dup8\n        /* \"#utility.yul\":2975:2981   */\n      dup3\n        /* \"#utility.yul\":2964:2973   */\n      dup9\n        /* \"#utility.yul\":2960:2982   */\n      add\n        /* \"#utility.yul\":2939:2992   */\n      tag_308\n      jump\t// in\n    tag_333:\n        /* \"#utility.yul\":2929:2992   */\n      swap4\n      pop\n        /* \"#utility.yul\":2884:3002   */\n      pop\n        /* \"#utility.yul\":3041:3043   */\n      0x40\n        /* \"#utility.yul\":3067:3120   */\n      tag_334\n        /* \"#utility.yul\":3112:3119   */\n      dup8\n        /* \"#utility.yul\":3103:3109   */\n      dup3\n        /* \"#utility.yul\":3092:3101   */\n      dup9\n        /* \"#utility.yul\":3088:3110   */\n      add\n        /* \"#utility.yul\":3067:3120   */\n      tag_308\n      jump\t// in\n    tag_334:\n        /* \"#utility.yul\":3057:3120   */\n      swap3\n      pop\n        /* \"#utility.yul\":3012:3130   */\n      pop\n        /* \"#utility.yul\":3169:3171   */\n      0x60\n        /* \"#utility.yul\":3195:3248   */\n      tag_335\n        /* \"#utility.yul\":3240:3247   */\n      dup8\n        /* \"#utility.yul\":3231:3237   */\n      dup3\n        /* \"#utility.yul\":3220:3229   */\n      dup9\n        /* \"#utility.yul\":3216:3238   */\n      add\n        /* \"#utility.yul\":3195:3248   */\n      tag_289\n      jump\t// in\n    tag_335:\n        /* \"#utility.yul\":3185:3248   */\n      swap2\n      pop\n        /* \"#utility.yul\":3140:3258   */\n      pop\n        /* \"#utility.yul\":2684:3265   */\n      swap3\n      swap6\n      swap2\n      swap5\n      pop\n      swap3\n      pop\n      jump\t// out\n        /* \"#utility.yul\":3271:3969   */\n    tag_58:\n        /* \"#utility.yul\":3357:3363   */\n      0x00\n        /* \"#utility.yul\":3365:3371   */\n      dup1\n        /* \"#utility.yul\":3373:3379   */\n      0x00\n        /* \"#utility.yul\":3381:3387   */\n      dup1\n        /* \"#utility.yul\":3430:3433   */\n      0x80\n        /* \"#utility.yul\":3418:3427   */\n      dup6\n        /* \"#utility.yul\":3409:3416   */\n      dup8\n        /* \"#utility.yul\":3405:3428   */\n      sub\n        /* \"#utility.yul\":3401:3434   */\n      slt\n        /* \"#utility.yul\":3398:3400   */\n      iszero\n      tag_337\n      jumpi\n        /* \"#utility.yul\":3447:3448   */\n      0x00\n        /* \"#utility.yul\":3444:3445   */\n      dup1\n        /* \"#utility.yul\":3437:3449   */\n      revert\n        /* \"#utility.yul\":3398:3400   */\n    tag_337:\n        /* \"#utility.yul\":3490:3491   */\n      0x00\n        /* \"#utility.yul\":3515:3568   */\n      tag_338\n        /* \"#utility.yul\":3560:3567   */\n      dup8\n        /* \"#utility.yul\":3551:3557   */\n      dup3\n        /* \"#utility.yul\":3540:3549   */\n      dup9\n        /* \"#utility.yul\":3536:3558   */\n      add\n        /* \"#utility.yul\":3515:3568   */\n      tag_289\n      jump\t// in\n    tag_338:\n        /* \"#utility.yul\":3505:3568   */\n      swap5\n      pop\n        /* \"#utility.yul\":3461:3578   */\n      pop\n        /* \"#utility.yul\":3617:3619   */\n      0x20\n        /* \"#utility.yul\":3643:3696   */\n      tag_339\n        /* \"#utility.yul\":3688:3695   */\n      dup8\n        /* \"#utility.yul\":3679:3685   */\n      dup3\n        /* \"#utility.yul\":3668:3677   */\n      dup9\n        /* \"#utility.yul\":3664:3686   */\n      add\n        /* \"#utility.yul\":3643:3696   */\n      tag_308\n      jump\t// in\n    tag_339:\n        /* \"#utility.yul\":3633:3696   */\n      swap4\n      pop\n        /* \"#utility.yul\":3588:3706   */\n      pop\n        /* \"#utility.yul\":3745:3747   */\n      0x40\n        /* \"#utility.yul\":3771:3824   */\n      tag_340\n        /* \"#utility.yul\":3816:3823   */\n      dup8\n        /* \"#utility.yul\":3807:3813   */\n      dup3\n        /* \"#utility.yul\":3796:3805   */\n      dup9\n        /* \"#utility.yul\":3792:3814   */\n      add\n        /* \"#utility.yul\":3771:3824   */\n      tag_308\n      jump\t// in\n    tag_340:\n        /* \"#utility.yul\":3761:3824   */\n      swap3\n      pop\n        /* \"#utility.yul\":3716:3834   */\n      pop\n        /* \"#utility.yul\":3873:3875   */\n      0x60\n        /* \"#utility.yul\":3899:3952   */\n      tag_341\n        /* \"#utility.yul\":3944:3951   */\n      dup8\n        /* \"#utility.yul\":3935:3941   */\n      dup3\n        /* \"#utility.yul\":3924:3933   */\n      dup9\n        /* \"#utility.yul\":3920:3942   */\n      add\n        /* \"#utility.yul\":3899:3952   */\n      tag_308\n      jump\t// in\n    tag_341:\n        /* \"#utility.yul\":3889:3952   */\n      swap2\n      pop\n        /* \"#utility.yul\":3844:3962   */\n      pop\n        /* \"#utility.yul\":3388:3969   */\n      swap3\n      swap6\n      swap2\n      swap5\n      pop\n      swap3\n      pop\n      jump\t// out\n        /* \"#utility.yul\":3975:4253   */\n    tag_109:\n        /* \"#utility.yul\":4042:4048   */\n      0x00\n        /* \"#utility.yul\":4091:4093   */\n      0x20\n        /* \"#utility.yul\":4079:4088   */\n      dup3\n        /* \"#utility.yul\":4070:4077   */\n      dup5\n        /* \"#utility.yul\":4066:4089   */\n      sub\n        /* \"#utility.yul\":4062:4094   */\n      slt\n        /* \"#utility.yul\":4059:4061   */\n      iszero\n      tag_343\n      jumpi\n        /* \"#utility.yul\":4107:4108   */\n      0x00\n        /* \"#utility.yul\":4104:4105   */\n      dup1\n        /* \"#utility.yul\":4097:4109   */\n      revert\n        /* \"#utility.yul\":4059:4061   */\n    tag_343:\n        /* \"#utility.yul\":4150:4151   */\n      0x00\n        /* \"#utility.yul\":4175:4236   */\n      tag_344\n        /* \"#utility.yul\":4228:4235   */\n      dup5\n        /* \"#utility.yul\":4219:4225   */\n      dup3\n        /* \"#utility.yul\":4208:4217   */\n      dup6\n        /* \"#utility.yul\":4204:4226   */\n      add\n        /* \"#utility.yul\":4175:4236   */\n      tag_300\n      jump\t// in\n    tag_344:\n        /* \"#utility.yul\":4165:4236   */\n      swap2\n      pop\n        /* \"#utility.yul\":4121:4246   */\n      pop\n        /* \"#utility.yul\":4049:4253   */\n      swap3\n      swap2\n      pop\n      pop\n      jump\t// out\n        /* \"#utility.yul\":4259:4521   */\n    tag_48:\n        /* \"#utility.yul\":4318:4324   */\n      0x00\n        /* \"#utility.yul\":4367:4369   */\n      0x20\n        /* \"#utility.yul\":4355:4364   */\n      dup3\n        /* \"#utility.yul\":4346:4353   */\n      dup5\n        /* \"#utility.yul\":4342:4365   */\n      sub\n        /* \"#utility.yul\":4338:4370   */\n      slt\n        /* \"#utility.yul\":4335:4337   */\n      iszero\n      tag_346\n      jumpi\n        /* \"#utility.yul\":4383:4384   */\n      0x00\n        /* \"#utility.yul\":4380:4381   */\n      dup1\n        /* \"#utility.yul\":4373:4385   */\n      revert\n        /* \"#utility.yul\":4335:4337   */\n    tag_346:\n        /* \"#utility.yul\":4426:4427   */\n      0x00\n        /* \"#utility.yul\":4451:4504   */\n      tag_347\n        /* \"#utility.yul\":4496:4503   */\n      dup5\n        /* \"#utility.yul\":4487:4493   */\n      dup3\n        /* \"#utility.yul\":4476:4485   */\n      dup6\n        /* \"#utility.yul\":4472:4494   */\n      add\n        /* \"#utility.yul\":4451:4504   */\n      tag_304\n      jump\t// in\n    tag_347:\n        /* \"#utility.yul\":4441:4504   */\n      swap2\n      pop\n        /* \"#utility.yul\":4397:4514   */\n      pop\n        /* \"#utility.yul\":4325:4521   */\n      swap3\n      swap2\n      pop\n      pop\n      jump\t// out\n        /* \"#utility.yul\":4527:4789   */\n    tag_65:\n        /* \"#utility.yul\":4586:4592   */\n      0x00\n        /* \"#utility.yul\":4635:4637   */\n      0x20\n        /* \"#utility.yul\":4623:4632   */\n      dup3\n        /* \"#utility.yul\":4614:4621   */\n      dup5\n        /* \"#utility.yul\":4610:4633   */\n      sub\n        /* \"#utility.yul\":4606:4638   */\n      slt\n        /* \"#utility.yul\":4603:4605   */\n      iszero\n      tag_349\n      jumpi\n        /* \"#utility.yul\":4651:4652   */\n      0x00\n        /* \"#utility.yul\":4648:4649   */\n      dup1\n        /* \"#utility.yul\":4641:4653   */\n      revert\n        /* \"#utility.yul\":4603:4605   */\n    tag_349:\n        /* \"#utility.yul\":4694:4695   */\n      0x00\n        /* \"#utility.yul\":4719:4772   */\n      tag_350\n        /* \"#utility.yul\":4764:4771   */\n      dup5\n        /* \"#utility.yul\":4755:4761   */\n      dup3\n        /* \"#utility.yul\":4744:4753   */\n      dup6\n        /* \"#utility.yul\":4740:4762   */\n      add\n        /* \"#utility.yul\":4719:4772   */\n      tag_308\n      jump\t// in\n    tag_350:\n        /* \"#utility.yul\":4709:4772   */\n      swap2\n      pop\n        /* \"#utility.yul\":4665:4782   */\n      pop\n        /* \"#utility.yul\":4593:4789   */\n      swap3\n      swap2\n      pop\n      pop\n      jump\t// out\n        /* \"#utility.yul\":4795:5235   */\n    tag_115:\n        /* \"#utility.yul\":4874:4880   */\n      0x00\n        /* \"#utility.yul\":4882:4888   */\n      dup1\n        /* \"#utility.yul\":4931:4933   */\n      0x40\n        /* \"#utility.yul\":4919:4928   */\n      dup4\n        /* \"#utility.yul\":4910:4917   */\n      dup6\n        /* \"#utility.yul\":4906:4929   */\n      sub\n        /* \"#utility.yul\":4902:4934   */\n      slt\n        /* \"#utility.yul\":4899:4901   */\n      iszero\n      tag_352\n      jumpi\n        /* \"#utility.yul\":4947:4948   */\n      0x00\n        /* \"#utility.yul\":4944:4945   */\n      dup1\n        /* \"#utility.yul\":4937:4949   */\n      revert\n        /* \"#utility.yul\":4899:4901   */\n    tag_352:\n        /* \"#utility.yul\":4990:4991   */\n      0x00\n        /* \"#utility.yul\":5015:5079   */\n      tag_353\n        /* \"#utility.yul\":5071:5078   */\n      dup6\n        /* \"#utility.yul\":5062:5068   */\n      dup3\n        /* \"#utility.yul\":5051:5060   */\n      dup7\n        /* \"#utility.yul\":5047:5069   */\n      add\n        /* \"#utility.yul\":5015:5079   */\n      tag_312\n      jump\t// in\n    tag_353:\n        /* \"#utility.yul\":5005:5079   */\n      swap3\n      pop\n        /* \"#utility.yul\":4961:5089   */\n      pop\n        /* \"#utility.yul\":5128:5130   */\n      0x20\n        /* \"#utility.yul\":5154:5218   */\n      tag_354\n        /* \"#utility.yul\":5210:5217   */\n      dup6\n        /* \"#utility.yul\":5201:5207   */\n      dup3\n        /* \"#utility.yul\":5190:5199   */\n      dup7\n        /* \"#utility.yul\":5186:5208   */\n      add\n        /* \"#utility.yul\":5154:5218   */\n      tag_293\n      jump\t// in\n    tag_354:\n        /* \"#utility.yul\":5144:5218   */\n      swap2\n      pop\n        /* \"#utility.yul\":5099:5228   */\n      pop\n        /* \"#utility.yul\":4889:5235   */\n      swap3\n      pop\n      swap3\n      swap1\n      pop\n      jump\t// out\n        /* \"#utility.yul\":5241:5388   */\n    tag_355:\n        /* \"#utility.yul\":5336:5381   */\n      tag_357\n        /* \"#utility.yul\":5375:5380   */\n      dup2\n        /* \"#utility.yul\":5336:5381   */\n      tag_358\n      jump\t// in\n    tag_357:\n        /* \"#utility.yul\":5331:5334   */\n      dup3\n        /* \"#utility.yul\":5324:5382   */\n      mstore\n        /* \"#utility.yul\":5314:5388   */\n      pop\n      pop\n      jump\t// out\n        /* \"#utility.yul\":5394:5536   */\n    tag_359:\n        /* \"#utility.yul\":5497:5529   */\n      tag_361\n        /* \"#utility.yul\":5523:5528   */\n      dup2\n        /* \"#utility.yul\":5497:5529   */\n      tag_362\n      jump\t// in\n    tag_361:\n        /* \"#utility.yul\":5492:5495   */\n      dup3\n        /* \"#utility.yul\":5485:5530   */\n      mstore\n        /* \"#utility.yul\":5475:5536   */\n      pop\n      pop\n      jump\t// out\n        /* \"#utility.yul\":5542:5650   */\n    tag_363:\n        /* \"#utility.yul\":5619:5643   */\n      tag_365\n        /* \"#utility.yul\":5637:5642   */\n      dup2\n        /* \"#utility.yul\":5619:5643   */\n      tag_366\n      jump\t// in\n    tag_365:\n        /* \"#utility.yul\":5614:5617   */\n      dup3\n        /* \"#utility.yul\":5607:5644   */\n      mstore\n        /* \"#utility.yul\":5597:5650   */\n      pop\n      pop\n      jump\t// out\n        /* \"#utility.yul\":5656:5774   */\n    tag_367:\n        /* \"#utility.yul\":5743:5767   */\n      tag_369\n        /* \"#utility.yul\":5761:5766   */\n      dup2\n        /* \"#utility.yul\":5743:5767   */\n      tag_366\n      jump\t// in\n    tag_369:\n        /* \"#utility.yul\":5738:5741   */\n      dup3\n        /* \"#utility.yul\":5731:5768   */\n      mstore\n        /* \"#utility.yul\":5721:5774   */\n      pop\n      pop\n      jump\t// out\n        /* \"#utility.yul\":5780:5937   */\n    tag_370:\n        /* \"#utility.yul\":5885:5930   */\n      tag_372\n        /* \"#utility.yul\":5905:5929   */\n      tag_373\n        /* \"#utility.yul\":5923:5928   */\n      dup3\n        /* \"#utility.yul\":5905:5929   */\n      tag_366\n      jump\t// in\n    tag_373:\n        /* \"#utility.yul\":5885:5930   */\n      tag_374\n      jump\t// in\n    tag_372:\n        /* \"#utility.yul\":5880:5883   */\n      dup3\n        /* \"#utility.yul\":5873:5931   */\n      mstore\n        /* \"#utility.yul\":5863:5937   */\n      pop\n      pop\n      jump\t// out\n        /* \"#utility.yul\":5943:6102   */\n    tag_375:\n        /* \"#utility.yul\":6044:6095   */\n      tag_377\n        /* \"#utility.yul\":6089:6094   */\n      dup2\n        /* \"#utility.yul\":6044:6095   */\n      tag_378\n      jump\t// in\n    tag_377:\n        /* \"#utility.yul\":6039:6042   */\n      dup3\n        /* \"#utility.yul\":6032:6096   */\n      mstore\n        /* \"#utility.yul\":6022:6102   */\n      pop\n      pop\n      jump\t// out\n        /* \"#utility.yul\":6108:6257   */\n    tag_379:\n        /* \"#utility.yul\":6199:6250   */\n      tag_381\n        /* \"#utility.yul\":6244:6249   */\n      dup2\n        /* \"#utility.yul\":6199:6250   */\n      tag_382\n      jump\t// in\n    tag_381:\n        /* \"#utility.yul\":6194:6197   */\n      dup3\n        /* \"#utility.yul\":6187:6251   */\n      mstore\n        /* \"#utility.yul\":6177:6257   */\n      pop\n      pop\n      jump\t// out\n        /* \"#utility.yul\":6263:6422   */\n    tag_383:\n        /* \"#utility.yul\":6364:6415   */\n      tag_385\n        /* \"#utility.yul\":6409:6414   */\n      dup2\n        /* \"#utility.yul\":6364:6415   */\n      tag_382\n      jump\t// in\n    tag_385:\n        /* \"#utility.yul\":6359:6362   */\n      dup3\n        /* \"#utility.yul\":6352:6416   */\n      mstore\n        /* \"#utility.yul\":6342:6422   */\n      pop\n      pop\n      jump\t// out\n        /* \"#utility.yul\":6428:6573   */\n    tag_386:\n        /* \"#utility.yul\":6517:6566   */\n      tag_388\n        /* \"#utility.yul\":6560:6565   */\n      dup2\n        /* \"#utility.yul\":6517:6566   */\n      tag_389\n      jump\t// in\n    tag_388:\n        /* \"#utility.yul\":6512:6515   */\n      dup3\n        /* \"#utility.yul\":6505:6567   */\n      mstore\n        /* \"#utility.yul\":6495:6573   */\n      pop\n      pop\n      jump\t// out\n        /* \"#utility.yul\":6579:6734   */\n    tag_390:\n        /* \"#utility.yul\":6678:6727   */\n      tag_392\n        /* \"#utility.yul\":6721:6726   */\n      dup2\n        /* \"#utility.yul\":6678:6727   */\n      tag_389\n      jump\t// in\n    tag_392:\n        /* \"#utility.yul\":6673:6676   */\n      dup3\n        /* \"#utility.yul\":6666:6728   */\n      mstore\n        /* \"#utility.yul\":6656:6734   */\n      pop\n      pop\n      jump\t// out\n        /* \"#utility.yul\":6740:7106   */\n    tag_393:\n        /* \"#utility.yul\":6882:6885   */\n      0x00\n        /* \"#utility.yul\":6903:6970   */\n      tag_395\n        /* \"#utility.yul\":6967:6969   */\n      0x0e\n        /* \"#utility.yul\":6962:6965   */\n      dup4\n        /* \"#utility.yul\":6903:6970   */\n      tag_396\n      jump\t// in\n    tag_395:\n        /* \"#utility.yul\":6896:6970   */\n      swap2\n      pop\n        /* \"#utility.yul\":6979:7072   */\n      tag_397\n        /* \"#utility.yul\":7068:7071   */\n      dup3\n        /* \"#utility.yul\":6979:7072   */\n      tag_398\n      jump\t// in\n    tag_397:\n        /* \"#utility.yul\":7097:7099   */\n      0x20\n        /* \"#utility.yul\":7092:7095   */\n      dup3\n        /* \"#utility.yul\":7088:7100   */\n      add\n        /* \"#utility.yul\":7081:7100   */\n      swap1\n      pop\n        /* \"#utility.yul\":6886:7106   */\n      swap2\n      swap1\n      pop\n      jump\t// out\n        /* \"#utility.yul\":7112:7478   */\n    tag_399:\n        /* \"#utility.yul\":7254:7257   */\n      0x00\n        /* \"#utility.yul\":7275:7342   */\n      tag_401\n        /* \"#utility.yul\":7339:7341   */\n      0x2a\n        /* \"#utility.yul\":7334:7337   */\n      dup4\n        /* \"#utility.yul\":7275:7342   */\n      tag_396\n      jump\t// in\n    tag_401:\n        /* \"#utility.yul\":7268:7342   */\n      swap2\n      pop\n        /* \"#utility.yul\":7351:7444   */\n      tag_402\n        /* \"#utility.yul\":7440:7443   */\n      dup3\n        /* \"#utility.yul\":7351:7444   */\n      tag_403\n      jump\t// in\n    tag_402:\n        /* \"#utility.yul\":7469:7471   */\n      0x40\n        /* \"#utility.yul\":7464:7467   */\n      dup3\n        /* \"#utility.yul\":7460:7472   */\n      add\n        /* \"#utility.yul\":7453:7472   */\n      swap1\n      pop\n        /* \"#utility.yul\":7258:7478   */\n      swap2\n      swap1\n      pop\n      jump\t// out\n        /* \"#utility.yul\":7484:7850   */\n    tag_404:\n        /* \"#utility.yul\":7626:7629   */\n      0x00\n        /* \"#utility.yul\":7647:7714   */\n      tag_406\n        /* \"#utility.yul\":7711:7713   */\n      0x11\n        /* \"#utility.yul\":7706:7709   */\n      dup4\n        /* \"#utility.yul\":7647:7714   */\n      tag_396\n      jump\t// in\n    tag_406:\n        /* \"#utility.yul\":7640:7714   */\n      swap2\n      pop\n        /* \"#utility.yul\":7723:7816   */\n      tag_407\n        /* \"#utility.yul\":7812:7815   */\n      dup3\n        /* \"#utility.yul\":7723:7816   */\n      tag_408\n      jump\t// in\n    tag_407:\n        /* \"#utility.yul\":7841:7843   */\n      0x20\n        /* \"#utility.yul\":7836:7839   */\n      dup3\n        /* \"#utility.yul\":7832:7844   */\n      add\n        /* \"#utility.yul\":7825:7844   */\n      swap1\n      pop\n        /* \"#utility.yul\":7630:7850   */\n      swap2\n      swap1\n      pop\n      jump\t// out\n        /* \"#utility.yul\":7856:8222   */\n    tag_409:\n        /* \"#utility.yul\":7998:8001   */\n      0x00\n        /* \"#utility.yul\":8019:8086   */\n      tag_411\n        /* \"#utility.yul\":8083:8085   */\n      0x26\n        /* \"#utility.yul\":8078:8081   */\n      dup4\n        /* \"#utility.yul\":8019:8086   */\n      tag_396\n      jump\t// in\n    tag_411:\n        /* \"#utility.yul\":8012:8086   */\n      swap2\n      pop\n        /* \"#utility.yul\":8095:8188   */\n      tag_412\n        /* \"#utility.yul\":8184:8187   */\n      dup3\n        /* \"#utility.yul\":8095:8188   */\n      tag_413\n      jump\t// in\n    tag_412:\n        /* \"#utility.yul\":8213:8215   */\n      0x40\n        /* \"#utility.yul\":8208:8211   */\n      dup3\n        /* \"#utility.yul\":8204:8216   */\n      add\n        /* \"#utility.yul\":8197:8216   */\n      swap1\n      pop\n        /* \"#utility.yul\":8002:8222   */\n      swap2\n      swap1\n      pop\n      jump\t// out\n        /* \"#utility.yul\":8228:8594   */\n    tag_414:\n        /* \"#utility.yul\":8370:8373   */\n      0x00\n        /* \"#utility.yul\":8391:8458   */\n      tag_416\n        /* \"#utility.yul\":8455:8457   */\n      0x18\n        /* \"#utility.yul\":8450:8453   */\n      dup4\n        /* \"#utility.yul\":8391:8458   */\n      tag_396\n      jump\t// in\n    tag_416:\n        /* \"#utility.yul\":8384:8458   */\n      swap2\n      pop\n        /* \"#utility.yul\":8467:8560   */\n      tag_417\n        /* \"#utility.yul\":8556:8559   */\n      dup3\n        /* \"#utility.yul\":8467:8560   */\n      tag_418\n      jump\t// in\n    tag_417:\n        /* \"#utility.yul\":8585:8587   */\n      0x20\n        /* \"#utility.yul\":8580:8583   */\n      dup3\n        /* \"#utility.yul\":8576:8588   */\n      add\n        /* \"#utility.yul\":8569:8588   */\n      swap1\n      pop\n        /* \"#utility.yul\":8374:8594   */\n      swap2\n      swap1\n      pop\n      jump\t// out\n        /* \"#utility.yul\":8600:8966   */\n    tag_419:\n        /* \"#utility.yul\":8742:8745   */\n      0x00\n        /* \"#utility.yul\":8763:8830   */\n      tag_421\n        /* \"#utility.yul\":8827:8829   */\n      0x1e\n        /* \"#utility.yul\":8822:8825   */\n      dup4\n        /* \"#utility.yul\":8763:8830   */\n      tag_396\n      jump\t// in\n    tag_421:\n        /* \"#utility.yul\":8756:8830   */\n      swap2\n      pop\n        /* \"#utility.yul\":8839:8932   */\n      tag_422\n        /* \"#utility.yul\":8928:8931   */\n      dup3\n        /* \"#utility.yul\":8839:8932   */\n      tag_423\n      jump\t// in\n    tag_422:\n        /* \"#utility.yul\":8957:8959   */\n      0x20\n        /* \"#utility.yul\":8952:8955   */\n      dup3\n        /* \"#utility.yul\":8948:8960   */\n      add\n        /* \"#utility.yul\":8941:8960   */\n      swap1\n      pop\n        /* \"#utility.yul\":8746:8966   */\n      swap2\n      swap1\n      pop\n      jump\t// out\n        /* \"#utility.yul\":8972:9338   */\n    tag_424:\n        /* \"#utility.yul\":9114:9117   */\n      0x00\n        /* \"#utility.yul\":9135:9202   */\n      tag_426\n        /* \"#utility.yul\":9199:9201   */\n      0x1a\n        /* \"#utility.yul\":9194:9197   */\n      dup4\n        /* \"#utility.yul\":9135:9202   */\n      tag_396\n      jump\t// in\n    tag_426:\n        /* \"#utility.yul\":9128:9202   */\n      swap2\n      pop\n        /* \"#utility.yul\":9211:9304   */\n      tag_427\n        /* \"#utility.yul\":9300:9303   */\n      dup3\n        /* \"#utility.yul\":9211:9304   */\n      tag_428\n      jump\t// in\n    tag_427:\n        /* \"#utility.yul\":9329:9331   */\n      0x20\n        /* \"#utility.yul\":9324:9327   */\n      dup3\n        /* \"#utility.yul\":9320:9332   */\n      add\n        /* \"#utility.yul\":9313:9332   */\n      swap1\n      pop\n        /* \"#utility.yul\":9118:9338   */\n      swap2\n      swap1\n      pop\n      jump\t// out\n        /* \"#utility.yul\":9344:9710   */\n    tag_429:\n        /* \"#utility.yul\":9486:9489   */\n      0x00\n        /* \"#utility.yul\":9507:9574   */\n      tag_431\n        /* \"#utility.yul\":9571:9573   */\n      0x1b\n        /* \"#utility.yul\":9566:9569   */\n      dup4\n        /* \"#utility.yul\":9507:9574   */\n      tag_396\n      jump\t// in\n    tag_431:\n        /* \"#utility.yul\":9500:9574   */\n      swap2\n      pop\n        /* \"#utility.yul\":9583:9676   */\n      tag_432\n        /* \"#utility.yul\":9672:9675   */\n      dup3\n        /* \"#utility.yul\":9583:9676   */\n      tag_433\n      jump\t// in\n    tag_432:\n        /* \"#utility.yul\":9701:9703   */\n      0x20\n        /* \"#utility.yul\":9696:9699   */\n      dup3\n        /* \"#utility.yul\":9692:9704   */\n      add\n        /* \"#utility.yul\":9685:9704   */\n      swap1\n      pop\n        /* \"#utility.yul\":9490:9710   */\n      swap2\n      swap1\n      pop\n      jump\t// out\n        /* \"#utility.yul\":9716:10082   */\n    tag_434:\n        /* \"#utility.yul\":9858:9861   */\n      0x00\n        /* \"#utility.yul\":9879:9946   */\n      tag_436\n        /* \"#utility.yul\":9943:9945   */\n      0x1e\n        /* \"#utility.yul\":9938:9941   */\n      dup4\n        /* \"#utility.yul\":9879:9946   */\n      tag_396\n      jump\t// in\n    tag_436:\n        /* \"#utility.yul\":9872:9946   */\n      swap2\n      pop\n        /* \"#utility.yul\":9955:10048   */\n      tag_437\n        /* \"#utility.yul\":10044:10047   */\n      dup3\n        /* \"#utility.yul\":9955:10048   */\n      tag_438\n      jump\t// in\n    tag_437:\n        /* \"#utility.yul\":10073:10075   */\n      0x20\n        /* \"#utility.yul\":10068:10071   */\n      dup3\n        /* \"#utility.yul\":10064:10076   */\n      add\n        /* \"#utility.yul\":10057:10076   */\n      swap1\n      pop\n        /* \"#utility.yul\":9862:10082   */\n      swap2\n      swap1\n      pop\n      jump\t// out\n        /* \"#utility.yul\":10088:10454   */\n    tag_439:\n        /* \"#utility.yul\":10230:10233   */\n      0x00\n        /* \"#utility.yul\":10251:10318   */\n      tag_441\n        /* \"#utility.yul\":10315:10317   */\n      0x26\n        /* \"#utility.yul\":10310:10313   */\n      dup4\n        /* \"#utility.yul\":10251:10318   */\n      tag_396\n      jump\t// in\n    tag_441:\n        /* \"#utility.yul\":10244:10318   */\n      swap2\n      pop\n        /* \"#utility.yul\":10327:10420   */\n      tag_442\n        /* \"#utility.yul\":10416:10419   */\n      dup3\n        /* \"#utility.yul\":10327:10420   */\n      tag_443\n      jump\t// in\n    tag_442:\n        /* \"#utility.yul\":10445:10447   */\n      0x40\n        /* \"#utility.yul\":10440:10443   */\n      dup3\n        /* \"#utility.yul\":10436:10448   */\n      add\n        /* \"#utility.yul\":10429:10448   */\n      swap1\n      pop\n        /* \"#utility.yul\":10234:10454   */\n      swap2\n      swap1\n      pop\n      jump\t// out\n        /* \"#utility.yul\":10528:12154   */\n    tag_444:\n        /* \"#utility.yul\":10671:10677   */\n      0x0100\n        /* \"#utility.yul\":10666:10669   */\n      dup3\n        /* \"#utility.yul\":10662:10678   */\n      add\n        /* \"#utility.yul\":10771:10775   */\n      0x00\n        /* \"#utility.yul\":10764:10769   */\n      dup3\n        /* \"#utility.yul\":10760:10776   */\n      add\n        /* \"#utility.yul\":10754:10777   */\n      mload\n        /* \"#utility.yul\":10790:10853   */\n      tag_446\n        /* \"#utility.yul\":10847:10851   */\n      0x00\n        /* \"#utility.yul\":10842:10845   */\n      dup6\n        /* \"#utility.yul\":10838:10852   */\n      add\n        /* \"#utility.yul\":10824:10836   */\n      dup3\n        /* \"#utility.yul\":10790:10853   */\n      tag_363\n      jump\t// in\n    tag_446:\n        /* \"#utility.yul\":10688:10863   */\n      pop\n        /* \"#utility.yul\":10948:10952   */\n      0x20\n        /* \"#utility.yul\":10941:10946   */\n      dup3\n        /* \"#utility.yul\":10937:10953   */\n      add\n        /* \"#utility.yul\":10931:10954   */\n      mload\n        /* \"#utility.yul\":10967:11030   */\n      tag_447\n        /* \"#utility.yul\":11024:11028   */\n      0x20\n        /* \"#utility.yul\":11019:11022   */\n      dup6\n        /* \"#utility.yul\":11015:11029   */\n      add\n        /* \"#utility.yul\":11001:11013   */\n      dup3\n        /* \"#utility.yul\":10967:11030   */\n      tag_448\n      jump\t// in\n    tag_447:\n        /* \"#utility.yul\":10873:11040   */\n      pop\n        /* \"#utility.yul\":11127:11131   */\n      0x40\n        /* \"#utility.yul\":11120:11125   */\n      dup3\n        /* \"#utility.yul\":11116:11132   */\n      add\n        /* \"#utility.yul\":11110:11133   */\n      mload\n        /* \"#utility.yul\":11146:11221   */\n      tag_449\n        /* \"#utility.yul\":11215:11219   */\n      0x40\n        /* \"#utility.yul\":11210:11213   */\n      dup6\n        /* \"#utility.yul\":11206:11220   */\n      add\n        /* \"#utility.yul\":11192:11204   */\n      dup3\n        /* \"#utility.yul\":11146:11221   */\n      tag_386\n      jump\t// in\n    tag_449:\n        /* \"#utility.yul\":11050:11231   */\n      pop\n        /* \"#utility.yul\":11320:11324   */\n      0x60\n        /* \"#utility.yul\":11313:11318   */\n      dup3\n        /* \"#utility.yul\":11309:11325   */\n      add\n        /* \"#utility.yul\":11303:11326   */\n      mload\n        /* \"#utility.yul\":11339:11416   */\n      tag_450\n        /* \"#utility.yul\":11410:11414   */\n      0x60\n        /* \"#utility.yul\":11405:11408   */\n      dup6\n        /* \"#utility.yul\":11401:11415   */\n      add\n        /* \"#utility.yul\":11387:11399   */\n      dup3\n        /* \"#utility.yul\":11339:11416   */\n      tag_379\n      jump\t// in\n    tag_450:\n        /* \"#utility.yul\":11241:11426   */\n      pop\n        /* \"#utility.yul\":11513:11517   */\n      0x80\n        /* \"#utility.yul\":11506:11511   */\n      dup3\n        /* \"#utility.yul\":11502:11518   */\n      add\n        /* \"#utility.yul\":11496:11519   */\n      mload\n        /* \"#utility.yul\":11532:11595   */\n      tag_451\n        /* \"#utility.yul\":11589:11593   */\n      0x80\n        /* \"#utility.yul\":11584:11587   */\n      dup6\n        /* \"#utility.yul\":11580:11594   */\n      add\n        /* \"#utility.yul\":11566:11578   */\n      dup3\n        /* \"#utility.yul\":11532:11595   */\n      tag_448\n      jump\t// in\n    tag_451:\n        /* \"#utility.yul\":11436:11605   */\n      pop\n        /* \"#utility.yul\":11695:11699   */\n      0xa0\n        /* \"#utility.yul\":11688:11693   */\n      dup3\n        /* \"#utility.yul\":11684:11700   */\n      add\n        /* \"#utility.yul\":11678:11701   */\n      mload\n        /* \"#utility.yul\":11714:11777   */\n      tag_452\n        /* \"#utility.yul\":11771:11775   */\n      0xa0\n        /* \"#utility.yul\":11766:11769   */\n      dup6\n        /* \"#utility.yul\":11762:11776   */\n      add\n        /* \"#utility.yul\":11748:11760   */\n      dup3\n        /* \"#utility.yul\":11714:11777   */\n      tag_448\n      jump\t// in\n    tag_452:\n        /* \"#utility.yul\":11615:11787   */\n      pop\n        /* \"#utility.yul\":11877:11881   */\n      0xc0\n        /* \"#utility.yul\":11870:11875   */\n      dup3\n        /* \"#utility.yul\":11866:11882   */\n      add\n        /* \"#utility.yul\":11860:11883   */\n      mload\n        /* \"#utility.yul\":11896:11959   */\n      tag_453\n        /* \"#utility.yul\":11953:11957   */\n      0xc0\n        /* \"#utility.yul\":11948:11951   */\n      dup6\n        /* \"#utility.yul\":11944:11958   */\n      add\n        /* \"#utility.yul\":11930:11942   */\n      dup3\n        /* \"#utility.yul\":11896:11959   */\n      tag_363\n      jump\t// in\n    tag_453:\n        /* \"#utility.yul\":11797:11969   */\n      pop\n        /* \"#utility.yul\":12055:12059   */\n      0xe0\n        /* \"#utility.yul\":12048:12053   */\n      dup3\n        /* \"#utility.yul\":12044:12060   */\n      add\n        /* \"#utility.yul\":12038:12061   */\n      mload\n        /* \"#utility.yul\":12074:12137   */\n      tag_454\n        /* \"#utility.yul\":12131:12135   */\n      0xe0\n        /* \"#utility.yul\":12126:12129   */\n      dup6\n        /* \"#utility.yul\":12122:12136   */\n      add\n        /* \"#utility.yul\":12108:12120   */\n      dup3\n        /* \"#utility.yul\":12074:12137   */\n      tag_363\n      jump\t// in\n    tag_454:\n        /* \"#utility.yul\":11979:12147   */\n      pop\n        /* \"#utility.yul\":10640:12154   */\n      pop\n      pop\n      pop\n      jump\t// out\n        /* \"#utility.yul\":12160:12268   */\n    tag_448:\n        /* \"#utility.yul\":12237:12261   */\n      tag_456\n        /* \"#utility.yul\":12255:12260   */\n      dup2\n        /* \"#utility.yul\":12237:12261   */\n      tag_457\n      jump\t// in\n    tag_456:\n        /* \"#utility.yul\":12232:12235   */\n      dup3\n        /* \"#utility.yul\":12225:12262   */\n      mstore\n        /* \"#utility.yul\":12215:12268   */\n      pop\n      pop\n      jump\t// out\n        /* \"#utility.yul\":12274:12392   */\n    tag_458:\n        /* \"#utility.yul\":12361:12385   */\n      tag_460\n        /* \"#utility.yul\":12379:12384   */\n      dup2\n        /* \"#utility.yul\":12361:12385   */\n      tag_457\n      jump\t// in\n    tag_460:\n        /* \"#utility.yul\":12356:12359   */\n      dup3\n        /* \"#utility.yul\":12349:12386   */\n      mstore\n        /* \"#utility.yul\":12339:12392   */\n      pop\n      pop\n      jump\t// out\n        /* \"#utility.yul\":12398:12555   */\n    tag_461:\n        /* \"#utility.yul\":12503:12548   */\n      tag_463\n        /* \"#utility.yul\":12523:12547   */\n      tag_464\n        /* \"#utility.yul\":12541:12546   */\n      dup3\n        /* \"#utility.yul\":12523:12547   */\n      tag_457\n      jump\t// in\n    tag_464:\n        /* \"#utility.yul\":12503:12548   */\n      tag_465\n      jump\t// in\n    tag_463:\n        /* \"#utility.yul\":12498:12501   */\n      dup3\n        /* \"#utility.yul\":12491:12549   */\n      mstore\n        /* \"#utility.yul\":12481:12555   */\n      pop\n      pop\n      jump\t// out\n        /* \"#utility.yul\":12561:12958   */\n    tag_246:\n        /* \"#utility.yul\":12701:12704   */\n      0x00\n        /* \"#utility.yul\":12716:12791   */\n      tag_467\n        /* \"#utility.yul\":12787:12790   */\n      dup3\n        /* \"#utility.yul\":12778:12784   */\n      dup6\n        /* \"#utility.yul\":12716:12791   */\n      tag_370\n      jump\t// in\n    tag_467:\n        /* \"#utility.yul\":12816:12818   */\n      0x14\n        /* \"#utility.yul\":12811:12814   */\n      dup3\n        /* \"#utility.yul\":12807:12819   */\n      add\n        /* \"#utility.yul\":12800:12819   */\n      swap2\n      pop\n        /* \"#utility.yul\":12829:12904   */\n      tag_468\n        /* \"#utility.yul\":12900:12903   */\n      dup3\n        /* \"#utility.yul\":12891:12897   */\n      dup5\n        /* \"#utility.yul\":12829:12904   */\n      tag_461\n      jump\t// in\n    tag_468:\n        /* \"#utility.yul\":12929:12931   */\n      0x20\n        /* \"#utility.yul\":12924:12927   */\n      dup3\n        /* \"#utility.yul\":12920:12932   */\n      add\n        /* \"#utility.yul\":12913:12932   */\n      swap2\n      pop\n        /* \"#utility.yul\":12949:12952   */\n      dup2\n        /* \"#utility.yul\":12942:12952   */\n      swap1\n      pop\n        /* \"#utility.yul\":12705:12958   */\n      swap4\n      swap3\n      pop\n      pop\n      pop\n      jump\t// out\n        /* \"#utility.yul\":12964:13186   */\n    tag_55:\n        /* \"#utility.yul\":13057:13061   */\n      0x00\n        /* \"#utility.yul\":13095:13097   */\n      0x20\n        /* \"#utility.yul\":13084:13093   */\n      dup3\n        /* \"#utility.yul\":13080:13098   */\n      add\n        /* \"#utility.yul\":13072:13098   */\n      swap1\n      pop\n        /* \"#utility.yul\":13108:13179   */\n      tag_470\n        /* \"#utility.yul\":13176:13177   */\n      0x00\n        /* \"#utility.yul\":13165:13174   */\n      dup4\n        /* \"#utility.yul\":13161:13178   */\n      add\n        /* \"#utility.yul\":13152:13158   */\n      dup5\n        /* \"#utility.yul\":13108:13179   */\n      tag_367\n      jump\t// in\n    tag_470:\n        /* \"#utility.yul\":13062:13186   */\n      swap3\n      swap2\n      pop\n      pop\n      jump\t// out\n        /* \"#utility.yul\":13192:13446   */\n    tag_25:\n        /* \"#utility.yul\":13301:13305   */\n      0x00\n        /* \"#utility.yul\":13339:13341   */\n      0x20\n        /* \"#utility.yul\":13328:13337   */\n      dup3\n        /* \"#utility.yul\":13324:13342   */\n      add\n        /* \"#utility.yul\":13316:13342   */\n      swap1\n      pop\n        /* \"#utility.yul\":13352:13439   */\n      tag_472\n        /* \"#utility.yul\":13436:13437   */\n      0x00\n        /* \"#utility.yul\":13425:13434   */\n      dup4\n        /* \"#utility.yul\":13421:13438   */\n      add\n        /* \"#utility.yul\":13412:13418   */\n      dup5\n        /* \"#utility.yul\":13352:13439   */\n      tag_359\n      jump\t// in\n    tag_472:\n        /* \"#utility.yul\":13306:13446   */\n      swap3\n      swap2\n      pop\n      pop\n      jump\t// out\n        /* \"#utility.yul\":13452:13910   */\n    tag_104:\n        /* \"#utility.yul\":13609:13613   */\n      0x00\n        /* \"#utility.yul\":13647:13649   */\n      0x60\n        /* \"#utility.yul\":13636:13645   */\n      dup3\n        /* \"#utility.yul\":13632:13650   */\n      add\n        /* \"#utility.yul\":13624:13650   */\n      swap1\n      pop\n        /* \"#utility.yul\":13660:13731   */\n      tag_474\n        /* \"#utility.yul\":13728:13729   */\n      0x00\n        /* \"#utility.yul\":13717:13726   */\n      dup4\n        /* \"#utility.yul\":13713:13730   */\n      add\n        /* \"#utility.yul\":13704:13710   */\n      dup7\n        /* \"#utility.yul\":13660:13731   */\n      tag_367\n      jump\t// in\n    tag_474:\n        /* \"#utility.yul\":13741:13821   */\n      tag_475\n        /* \"#utility.yul\":13817:13819   */\n      0x20\n        /* \"#utility.yul\":13806:13815   */\n      dup4\n        /* \"#utility.yul\":13802:13820   */\n      add\n        /* \"#utility.yul\":13793:13799   */\n      dup6\n        /* \"#utility.yul\":13741:13821   */\n      tag_355\n      jump\t// in\n    tag_475:\n        /* \"#utility.yul\":13831:13903   */\n      tag_476\n        /* \"#utility.yul\":13899:13901   */\n      0x40\n        /* \"#utility.yul\":13888:13897   */\n      dup4\n        /* \"#utility.yul\":13884:13902   */\n      add\n        /* \"#utility.yul\":13875:13881   */\n      dup5\n        /* \"#utility.yul\":13831:13903   */\n      tag_458\n      jump\t// in\n    tag_476:\n        /* \"#utility.yul\":13614:13910   */\n      swap5\n      swap4\n      pop\n      pop\n      pop\n      pop\n      jump\t// out\n        /* \"#utility.yul\":13916:14358   */\n    tag_118:\n        /* \"#utility.yul\":14065:14069   */\n      0x00\n        /* \"#utility.yul\":14103:14105   */\n      0x60\n        /* \"#utility.yul\":14092:14101   */\n      dup3\n        /* \"#utility.yul\":14088:14106   */\n      add\n        /* \"#utility.yul\":14080:14106   */\n      swap1\n      pop\n        /* \"#utility.yul\":14116:14187   */\n      tag_478\n        /* \"#utility.yul\":14184:14185   */\n      0x00\n        /* \"#utility.yul\":14173:14182   */\n      dup4\n        /* \"#utility.yul\":14169:14186   */\n      add\n        /* \"#utility.yul\":14160:14166   */\n      dup7\n        /* \"#utility.yul\":14116:14187   */\n      tag_367\n      jump\t// in\n    tag_478:\n        /* \"#utility.yul\":14197:14269   */\n      tag_479\n        /* \"#utility.yul\":14265:14267   */\n      0x20\n        /* \"#utility.yul\":14254:14263   */\n      dup4\n        /* \"#utility.yul\":14250:14268   */\n      add\n        /* \"#utility.yul\":14241:14247   */\n      dup6\n        /* \"#utility.yul\":14197:14269   */\n      tag_367\n      jump\t// in\n    tag_479:\n        /* \"#utility.yul\":14279:14351   */\n      tag_480\n        /* \"#utility.yul\":14347:14349   */\n      0x40\n        /* \"#utility.yul\":14336:14345   */\n      dup4\n        /* \"#utility.yul\":14332:14350   */\n      add\n        /* \"#utility.yul\":14323:14329   */\n      dup5\n        /* \"#utility.yul\":14279:14351   */\n      tag_458\n      jump\t// in\n    tag_480:\n        /* \"#utility.yul\":14070:14358   */\n      swap5\n      swap4\n      pop\n      pop\n      pop\n      pop\n      jump\t// out\n        /* \"#utility.yul\":14364:15413   */\n    tag_51:\n        /* \"#utility.yul\":14679:14683   */\n      0x00\n        /* \"#utility.yul\":14717:14720   */\n      0x0100\n        /* \"#utility.yul\":14706:14715   */\n      dup3\n        /* \"#utility.yul\":14702:14721   */\n      add\n        /* \"#utility.yul\":14694:14721   */\n      swap1\n      pop\n        /* \"#utility.yul\":14731:14802   */\n      tag_482\n        /* \"#utility.yul\":14799:14800   */\n      0x00\n        /* \"#utility.yul\":14788:14797   */\n      dup4\n        /* \"#utility.yul\":14784:14801   */\n      add\n        /* \"#utility.yul\":14775:14781   */\n      dup12\n        /* \"#utility.yul\":14731:14802   */\n      tag_367\n      jump\t// in\n    tag_482:\n        /* \"#utility.yul\":14812:14884   */\n      tag_483\n        /* \"#utility.yul\":14880:14882   */\n      0x20\n        /* \"#utility.yul\":14869:14878   */\n      dup4\n        /* \"#utility.yul\":14865:14883   */\n      add\n        /* \"#utility.yul\":14856:14862   */\n      dup11\n        /* \"#utility.yul\":14812:14884   */\n      tag_458\n      jump\t// in\n    tag_483:\n        /* \"#utility.yul\":14894:14978   */\n      tag_484\n        /* \"#utility.yul\":14974:14976   */\n      0x40\n        /* \"#utility.yul\":14963:14972   */\n      dup4\n        /* \"#utility.yul\":14959:14977   */\n      add\n        /* \"#utility.yul\":14950:14956   */\n      dup10\n        /* \"#utility.yul\":14894:14978   */\n      tag_390\n      jump\t// in\n    tag_484:\n        /* \"#utility.yul\":14988:15074   */\n      tag_485\n        /* \"#utility.yul\":15070:15072   */\n      0x60\n        /* \"#utility.yul\":15059:15068   */\n      dup4\n        /* \"#utility.yul\":15055:15073   */\n      add\n        /* \"#utility.yul\":15046:15052   */\n      dup9\n        /* \"#utility.yul\":14988:15074   */\n      tag_383\n      jump\t// in\n    tag_485:\n        /* \"#utility.yul\":15084:15157   */\n      tag_486\n        /* \"#utility.yul\":15152:15155   */\n      0x80\n        /* \"#utility.yul\":15141:15150   */\n      dup4\n        /* \"#utility.yul\":15137:15156   */\n      add\n        /* \"#utility.yul\":15128:15134   */\n      dup8\n        /* \"#utility.yul\":15084:15157   */\n      tag_458\n      jump\t// in\n    tag_486:\n        /* \"#utility.yul\":15167:15240   */\n      tag_487\n        /* \"#utility.yul\":15235:15238   */\n      0xa0\n        /* \"#utility.yul\":15224:15233   */\n      dup4\n        /* \"#utility.yul\":15220:15239   */\n      add\n        /* \"#utility.yul\":15211:15217   */\n      dup7\n        /* \"#utility.yul\":15167:15240   */\n      tag_458\n      jump\t// in\n    tag_487:\n        /* \"#utility.yul\":15250:15323   */\n      tag_488\n        /* \"#utility.yul\":15318:15321   */\n      0xc0\n        /* \"#utility.yul\":15307:15316   */\n      dup4\n        /* \"#utility.yul\":15303:15322   */\n      add\n        /* \"#utility.yul\":15294:15300   */\n      dup6\n        /* \"#utility.yul\":15250:15323   */\n      tag_367\n      jump\t// in\n    tag_488:\n        /* \"#utility.yul\":15333:15406   */\n      tag_489\n        /* \"#utility.yul\":15401:15404   */\n      0xe0\n        /* \"#utility.yul\":15390:15399   */\n      dup4\n        /* \"#utility.yul\":15386:15405   */\n      add\n        /* \"#utility.yul\":15377:15383   */\n      dup5\n        /* \"#utility.yul\":15333:15406   */\n      tag_367\n      jump\t// in\n    tag_489:\n        /* \"#utility.yul\":14684:15413   */\n      swap10\n      swap9\n      pop\n      pop\n      pop\n      pop\n      pop\n      pop\n      pop\n      pop\n      pop\n      jump\t// out\n        /* \"#utility.yul\":15419:15669   */\n    tag_70:\n        /* \"#utility.yul\":15526:15530   */\n      0x00\n        /* \"#utility.yul\":15564:15566   */\n      0x20\n        /* \"#utility.yul\":15553:15562   */\n      dup3\n        /* \"#utility.yul\":15549:15567   */\n      add\n        /* \"#utility.yul\":15541:15567   */\n      swap1\n      pop\n        /* \"#utility.yul\":15577:15662   */\n      tag_491\n        /* \"#utility.yul\":15659:15660   */\n      0x00\n        /* \"#utility.yul\":15648:15657   */\n      dup4\n        /* \"#utility.yul\":15644:15661   */\n      add\n        /* \"#utility.yul\":15635:15641   */\n      dup5\n        /* \"#utility.yul\":15577:15662   */\n      tag_375\n      jump\t// in\n    tag_491:\n        /* \"#utility.yul\":15531:15669   */\n      swap3\n      swap2\n      pop\n      pop\n      jump\t// out\n        /* \"#utility.yul\":15675:16094   */\n    tag_157:\n        /* \"#utility.yul\":15841:15845   */\n      0x00\n        /* \"#utility.yul\":15879:15881   */\n      0x20\n        /* \"#utility.yul\":15868:15877   */\n      dup3\n        /* \"#utility.yul\":15864:15882   */\n      add\n        /* \"#utility.yul\":15856:15882   */\n      swap1\n      pop\n        /* \"#utility.yul\":15928:15937   */\n      dup2\n        /* \"#utility.yul\":15922:15926   */\n      dup2\n        /* \"#utility.yul\":15918:15938   */\n      sub\n        /* \"#utility.yul\":15914:15915   */\n      0x00\n        /* \"#utility.yul\":15903:15912   */\n      dup4\n        /* \"#utility.yul\":15899:15916   */\n      add\n        /* \"#utility.yul\":15892:15939   */\n      mstore\n        /* \"#utility.yul\":15956:16087   */\n      tag_493\n        /* \"#utility.yul\":16082:16086   */\n      dup2\n        /* \"#utility.yul\":15956:16087   */\n      tag_393\n      jump\t// in\n    tag_493:\n        /* \"#utility.yul\":15948:16087   */\n      swap1\n      pop\n        /* \"#utility.yul\":15846:16094   */\n      swap2\n      swap1\n      pop\n      jump\t// out\n        /* \"#utility.yul\":16100:16519   */\n    tag_146:\n        /* \"#utility.yul\":16266:16270   */\n      0x00\n        /* \"#utility.yul\":16304:16306   */\n      0x20\n        /* \"#utility.yul\":16293:16302   */\n      dup3\n        /* \"#utility.yul\":16289:16307   */\n      add\n        /* \"#utility.yul\":16281:16307   */\n      swap1\n      pop\n        /* \"#utility.yul\":16353:16362   */\n      dup2\n        /* \"#utility.yul\":16347:16351   */\n      dup2\n        /* \"#utility.yul\":16343:16363   */\n      sub\n        /* \"#utility.yul\":16339:16340   */\n      0x00\n        /* \"#utility.yul\":16328:16337   */\n      dup4\n        /* \"#utility.yul\":16324:16341   */\n      add\n        /* \"#utility.yul\":16317:16364   */\n      mstore\n        /* \"#utility.yul\":16381:16512   */\n      tag_495\n        /* \"#utility.yul\":16507:16511   */\n      dup2\n        /* \"#utility.yul\":16381:16512   */\n      tag_399\n      jump\t// in\n    tag_495:\n        /* \"#utility.yul\":16373:16512   */\n      swap1\n      pop\n        /* \"#utility.yul\":16271:16519   */\n      swap2\n      swap1\n      pop\n      jump\t// out\n        /* \"#utility.yul\":16525:16944   */\n    tag_139:\n        /* \"#utility.yul\":16691:16695   */\n      0x00\n        /* \"#utility.yul\":16729:16731   */\n      0x20\n        /* \"#utility.yul\":16718:16727   */\n      dup3\n        /* \"#utility.yul\":16714:16732   */\n      add\n        /* \"#utility.yul\":16706:16732   */\n      swap1\n      pop\n        /* \"#utility.yul\":16778:16787   */\n      dup2\n        /* \"#utility.yul\":16772:16776   */\n      dup2\n        /* \"#utility.yul\":16768:16788   */\n      sub\n        /* \"#utility.yul\":16764:16765   */\n      0x00\n        /* \"#utility.yul\":16753:16762   */\n      dup4\n        /* \"#utility.yul\":16749:16766   */\n      add\n        /* \"#utility.yul\":16742:16789   */\n      mstore\n        /* \"#utility.yul\":16806:16937   */\n      tag_497\n        /* \"#utility.yul\":16932:16936   */\n      dup2\n        /* \"#utility.yul\":16806:16937   */\n      tag_404\n      jump\t// in\n    tag_497:\n        /* \"#utility.yul\":16798:16937   */\n      swap1\n      pop\n        /* \"#utility.yul\":16696:16944   */\n      swap2\n      swap1\n      pop\n      jump\t// out\n        /* \"#utility.yul\":16950:17369   */\n    tag_279:\n        /* \"#utility.yul\":17116:17120   */\n      0x00\n        /* \"#utility.yul\":17154:17156   */\n      0x20\n        /* \"#utility.yul\":17143:17152   */\n      dup3\n        /* \"#utility.yul\":17139:17157   */\n      add\n        /* \"#utility.yul\":17131:17157   */\n      swap1\n      pop\n        /* \"#utility.yul\":17203:17212   */\n      dup2\n        /* \"#utility.yul\":17197:17201   */\n      dup2\n        /* \"#utility.yul\":17193:17213   */\n      sub\n        /* \"#utility.yul\":17189:17190   */\n      0x00\n        /* \"#utility.yul\":17178:17187   */\n      dup4\n        /* \"#utility.yul\":17174:17191   */\n      add\n        /* \"#utility.yul\":17167:17214   */\n      mstore\n        /* \"#utility.yul\":17231:17362   */\n      tag_499\n        /* \"#utility.yul\":17357:17361   */\n      dup2\n        /* \"#utility.yul\":17231:17362   */\n      tag_409\n      jump\t// in\n    tag_499:\n        /* \"#utility.yul\":17223:17362   */\n      swap1\n      pop\n        /* \"#utility.yul\":17121:17369   */\n      swap2\n      swap1\n      pop\n      jump\t// out\n        /* \"#utility.yul\":17375:17794   */\n    tag_90:\n        /* \"#utility.yul\":17541:17545   */\n      0x00\n        /* \"#utility.yul\":17579:17581   */\n      0x20\n        /* \"#utility.yul\":17568:17577   */\n      dup3\n        /* \"#utility.yul\":17564:17582   */\n      add\n        /* \"#utility.yul\":17556:17582   */\n      swap1\n      pop\n        /* \"#utility.yul\":17628:17637   */\n      dup2\n        /* \"#utility.yul\":17622:17626   */\n      dup2\n        /* \"#utility.yul\":17618:17638   */\n      sub\n        /* \"#utility.yul\":17614:17615   */\n      0x00\n        /* \"#utility.yul\":17603:17612   */\n      dup4\n        /* \"#utility.yul\":17599:17616   */\n      add\n        /* \"#utility.yul\":17592:17639   */\n      mstore\n        /* \"#utility.yul\":17656:17787   */\n      tag_501\n        /* \"#utility.yul\":17782:17786   */\n      dup2\n        /* \"#utility.yul\":17656:17787   */\n      tag_414\n      jump\t// in\n    tag_501:\n        /* \"#utility.yul\":17648:17787   */\n      swap1\n      pop\n        /* \"#utility.yul\":17546:17794   */\n      swap2\n      swap1\n      pop\n      jump\t// out\n        /* \"#utility.yul\":17800:18219   */\n    tag_264:\n        /* \"#utility.yul\":17966:17970   */\n      0x00\n        /* \"#utility.yul\":18004:18006   */\n      0x20\n        /* \"#utility.yul\":17993:18002   */\n      dup3\n        /* \"#utility.yul\":17989:18007   */\n      add\n        /* \"#utility.yul\":17981:18007   */\n      swap1\n      pop\n        /* \"#utility.yul\":18053:18062   */\n      dup2\n        /* \"#utility.yul\":18047:18051   */\n      dup2\n        /* \"#utility.yul\":18043:18063   */\n      sub\n        /* \"#utility.yul\":18039:18040   */\n      0x00\n        /* \"#utility.yul\":18028:18037   */\n      dup4\n        /* \"#utility.yul\":18024:18041   */\n      add\n        /* \"#utility.yul\":18017:18064   */\n      mstore\n        /* \"#utility.yul\":18081:18212   */\n      tag_503\n        /* \"#utility.yul\":18207:18211   */\n      dup2\n        /* \"#utility.yul\":18081:18212   */\n      tag_419\n      jump\t// in\n    tag_503:\n        /* \"#utility.yul\":18073:18212   */\n      swap1\n      pop\n        /* \"#utility.yul\":17971:18219   */\n      swap2\n      swap1\n      pop\n      jump\t// out\n        /* \"#utility.yul\":18225:18644   */\n    tag_142:\n        /* \"#utility.yul\":18391:18395   */\n      0x00\n        /* \"#utility.yul\":18429:18431   */\n      0x20\n        /* \"#utility.yul\":18418:18427   */\n      dup3\n        /* \"#utility.yul\":18414:18432   */\n      add\n        /* \"#utility.yul\":18406:18432   */\n      swap1\n      pop\n        /* \"#utility.yul\":18478:18487   */\n      dup2\n        /* \"#utility.yul\":18472:18476   */\n      dup2\n        /* \"#utility.yul\":18468:18488   */\n      sub\n        /* \"#utility.yul\":18464:18465   */\n      0x00\n        /* \"#utility.yul\":18453:18462   */\n      dup4\n        /* \"#utility.yul\":18449:18466   */\n      add\n        /* \"#utility.yul\":18442:18489   */\n      mstore\n        /* \"#utility.yul\":18506:18637   */\n      tag_505\n        /* \"#utility.yul\":18632:18636   */\n      dup2\n        /* \"#utility.yul\":18506:18637   */\n      tag_424\n      jump\t// in\n    tag_505:\n        /* \"#utility.yul\":18498:18637   */\n      swap1\n      pop\n        /* \"#utility.yul\":18396:18644   */\n      swap2\n      swap1\n      pop\n      jump\t// out\n        /* \"#utility.yul\":18650:19069   */\n    tag_98:\n        /* \"#utility.yul\":18816:18820   */\n      0x00\n        /* \"#utility.yul\":18854:18856   */\n      0x20\n        /* \"#utility.yul\":18843:18852   */\n      dup3\n        /* \"#utility.yul\":18839:18857   */\n      add\n        /* \"#utility.yul\":18831:18857   */\n      swap1\n      pop\n        /* \"#utility.yul\":18903:18912   */\n      dup2\n        /* \"#utility.yul\":18897:18901   */\n      dup2\n        /* \"#utility.yul\":18893:18913   */\n      sub\n        /* \"#utility.yul\":18889:18890   */\n      0x00\n        /* \"#utility.yul\":18878:18887   */\n      dup4\n        /* \"#utility.yul\":18874:18891   */\n      add\n        /* \"#utility.yul\":18867:18914   */\n      mstore\n        /* \"#utility.yul\":18931:19062   */\n      tag_507\n        /* \"#utility.yul\":19057:19061   */\n      dup2\n        /* \"#utility.yul\":18931:19062   */\n      tag_429\n      jump\t// in\n    tag_507:\n        /* \"#utility.yul\":18923:19062   */\n      swap1\n      pop\n        /* \"#utility.yul\":18821:19069   */\n      swap2\n      swap1\n      pop\n      jump\t// out\n        /* \"#utility.yul\":19075:19494   */\n    tag_267:\n        /* \"#utility.yul\":19241:19245   */\n      0x00\n        /* \"#utility.yul\":19279:19281   */\n      0x20\n        /* \"#utility.yul\":19268:19277   */\n      dup3\n        /* \"#utility.yul\":19264:19282   */\n      add\n        /* \"#utility.yul\":19256:19282   */\n      swap1\n      pop\n        /* \"#utility.yul\":19328:19337   */\n      dup2\n        /* \"#utility.yul\":19322:19326   */\n      dup2\n        /* \"#utility.yul\":19318:19338   */\n      sub\n        /* \"#utility.yul\":19314:19315   */\n      0x00\n        /* \"#utility.yul\":19303:19312   */\n      dup4\n        /* \"#utility.yul\":19299:19316   */\n      add\n        /* \"#utility.yul\":19292:19339   */\n      mstore\n        /* \"#utility.yul\":19356:19487   */\n      tag_509\n        /* \"#utility.yul\":19482:19486   */\n      dup2\n        /* \"#utility.yul\":19356:19487   */\n      tag_434\n      jump\t// in\n    tag_509:\n        /* \"#utility.yul\":19348:19487   */\n      swap1\n      pop\n        /* \"#utility.yul\":19246:19494   */\n      swap2\n      swap1\n      pop\n      jump\t// out\n        /* \"#utility.yul\":19500:19919   */\n    tag_273:\n        /* \"#utility.yul\":19666:19670   */\n      0x00\n        /* \"#utility.yul\":19704:19706   */\n      0x20\n        /* \"#utility.yul\":19693:19702   */\n      dup3\n        /* \"#utility.yul\":19689:19707   */\n      add\n        /* \"#utility.yul\":19681:19707   */\n      swap1\n      pop\n        /* \"#utility.yul\":19753:19762   */\n      dup2\n        /* \"#utility.yul\":19747:19751   */\n      dup2\n        /* \"#utility.yul\":19743:19763   */\n      sub\n        /* \"#utility.yul\":19739:19740   */\n      0x00\n        /* \"#utility.yul\":19728:19737   */\n      dup4\n        /* \"#utility.yul\":19724:19741   */\n      add\n        /* \"#utility.yul\":19717:19764   */\n      mstore\n        /* \"#utility.yul\":19781:19912   */\n      tag_511\n        /* \"#utility.yul\":19907:19911   */\n      dup2\n        /* \"#utility.yul\":19781:19912   */\n      tag_439\n      jump\t// in\n    tag_511:\n        /* \"#utility.yul\":19773:19912   */\n      swap1\n      pop\n        /* \"#utility.yul\":19671:19919   */\n      swap2\n      swap1\n      pop\n      jump\t// out\n        /* \"#utility.yul\":19925:20240   */\n    tag_43:\n        /* \"#utility.yul\":20064:20068   */\n      0x00\n        /* \"#utility.yul\":20102:20105   */\n      0x0100\n        /* \"#utility.yul\":20091:20100   */\n      dup3\n        /* \"#utility.yul\":20087:20106   */\n      add\n        /* \"#utility.yul\":20079:20106   */\n      swap1\n      pop\n        /* \"#utility.yul\":20116:20233   */\n      tag_513\n        /* \"#utility.yul\":20230:20231   */\n      0x00\n        /* \"#utility.yul\":20219:20228   */\n      dup4\n        /* \"#utility.yul\":20215:20232   */\n      add\n        /* \"#utility.yul\":20206:20212   */\n      dup5\n        /* \"#utility.yul\":20116:20233   */\n      tag_444\n      jump\t// in\n    tag_513:\n        /* \"#utility.yul\":20069:20240   */\n      swap3\n      swap2\n      pop\n      pop\n      jump\t// out\n        /* \"#utility.yul\":20246:20468   */\n    tag_84:\n        /* \"#utility.yul\":20339:20343   */\n      0x00\n        /* \"#utility.yul\":20377:20379   */\n      0x20\n        /* \"#utility.yul\":20366:20375   */\n      dup3\n        /* \"#utility.yul\":20362:20380   */\n      add\n        /* \"#utility.yul\":20354:20380   */\n      swap1\n      pop\n        /* \"#utility.yul\":20390:20461   */\n      tag_515\n        /* \"#utility.yul\":20458:20459   */\n      0x00\n        /* \"#utility.yul\":20447:20456   */\n      dup4\n        /* \"#utility.yul\":20443:20460   */\n      add\n        /* \"#utility.yul\":20434:20440   */\n      dup5\n        /* \"#utility.yul\":20390:20461   */\n      tag_458\n      jump\t// in\n    tag_515:\n        /* \"#utility.yul\":20344:20468   */\n      swap3\n      swap2\n      pop\n      pop\n      jump\t// out\n        /* \"#utility.yul\":20474:20643   */\n    tag_396:\n        /* \"#utility.yul\":20558:20569   */\n      0x00\n        /* \"#utility.yul\":20592:20598   */\n      dup3\n        /* \"#utility.yul\":20587:20590   */\n      dup3\n        /* \"#utility.yul\":20580:20599   */\n      mstore\n        /* \"#utility.yul\":20632:20636   */\n      0x20\n        /* \"#utility.yul\":20627:20630   */\n      dup3\n        /* \"#utility.yul\":20623:20637   */\n      add\n        /* \"#utility.yul\":20608:20637   */\n      swap1\n      pop\n        /* \"#utility.yul\":20570:20643   */\n      swap3\n      swap2\n      pop\n      pop\n      jump\t// out\n        /* \"#utility.yul\":20649:20954   */\n    tag_254:\n        /* \"#utility.yul\":20689:20692   */\n      0x00\n        /* \"#utility.yul\":20708:20728   */\n      tag_518\n        /* \"#utility.yul\":20726:20727   */\n      dup3\n        /* \"#utility.yul\":20708:20728   */\n      tag_457\n      jump\t// in\n    tag_518:\n        /* \"#utility.yul\":20703:20728   */\n      swap2\n      pop\n        /* \"#utility.yul\":20742:20762   */\n      tag_519\n        /* \"#utility.yul\":20760:20761   */\n      dup4\n        /* \"#utility.yul\":20742:20762   */\n      tag_457\n      jump\t// in\n    tag_519:\n        /* \"#utility.yul\":20737:20762   */\n      swap3\n      pop\n        /* \"#utility.yul\":20896:20897   */\n      dup3\n        /* \"#utility.yul\":20828:20894   */\n      0xffffffffffffffffffffffffffffffffffffffffffffffffffffffffffffffff\n        /* \"#utility.yul\":20824:20898   */\n      sub\n        /* \"#utility.yul\":20821:20822   */\n      dup3\n        /* \"#utility.yul\":20818:20899   */\n      gt\n        /* \"#utility.yul\":20815:20817   */\n      iszero\n      tag_520\n      jumpi\n        /* \"#utility.yul\":20902:20920   */\n      tag_521\n      tag_522\n      jump\t// in\n    tag_521:\n        /* \"#utility.yul\":20815:20817   */\n    tag_520:\n        /* \"#utility.yul\":20946:20947   */\n      dup3\n        /* \"#utility.yul\":20943:20944   */\n      dup3\n        /* \"#utility.yul\":20939:20948   */\n      add\n        /* \"#utility.yul\":20932:20948   */\n      swap1\n      pop\n        /* \"#utility.yul\":20693:20954   */\n      swap3\n      swap2\n      pop\n      pop\n      jump\t// out\n        /* \"#utility.yul\":20960:21145   */\n    tag_285:\n        /* \"#utility.yul\":21000:21001   */\n      0x00\n        /* \"#utility.yul\":21017:21037   */\n      tag_524\n        /* \"#utility.yul\":21035:21036   */\n      dup3\n        /* \"#utility.yul\":21017:21037   */\n      tag_457\n      jump\t// in\n    tag_524:\n        /* \"#utility.yul\":21012:21037   */\n      swap2\n      pop\n        /* \"#utility.yul\":21051:21071   */\n      tag_525\n        /* \"#utility.yul\":21069:21070   */\n      dup4\n        /* \"#utility.yul\":21051:21071   */\n      tag_457\n      jump\t// in\n    tag_525:\n        /* \"#utility.yul\":21046:21071   */\n      swap3\n      pop\n        /* \"#utility.yul\":21090:21091   */\n      dup3\n        /* \"#utility.yul\":21080:21082   */\n      tag_526\n      jumpi\n        /* \"#utility.yul\":21095:21113   */\n      tag_527\n      tag_528\n      jump\t// in\n    tag_527:\n        /* \"#utility.yul\":21080:21082   */\n    tag_526:\n        /* \"#utility.yul\":21137:21138   */\n      dup3\n        /* \"#utility.yul\":21134:21135   */\n      dup3\n        /* \"#utility.yul\":21130:21139   */\n      div\n        /* \"#utility.yul\":21125:21139   */\n      swap1\n      pop\n        /* \"#utility.yul\":21002:21145   */\n      swap3\n      swap2\n      pop\n      pop\n      jump\t// out\n        /* \"#utility.yul\":21151:21499   */\n    tag_282:\n        /* \"#utility.yul\":21191:21198   */\n      0x00\n        /* \"#utility.yul\":21214:21234   */\n      tag_530\n        /* \"#utility.yul\":21232:21233   */\n      dup3\n        /* \"#utility.yul\":21214:21234   */\n      tag_457\n      jump\t// in\n    tag_530:\n        /* \"#utility.yul\":21209:21234   */\n      swap2\n      pop\n        /* \"#utility.yul\":21248:21268   */\n      tag_531\n        /* \"#utility.yul\":21266:21267   */\n      dup4\n        /* \"#utility.yul\":21248:21268   */\n      tag_457\n      jump\t// in\n    tag_531:\n        /* \"#utility.yul\":21243:21268   */\n      swap3\n      pop\n        /* \"#utility.yul\":21436:21437   */\n      dup2\n        /* \"#utility.yul\":21368:21434   */\n      0xffffffffffffffffffffffffffffffffffffffffffffffffffffffffffffffff\n        /* \"#utility.yul\":21364:21438   */\n      div\n        /* \"#utility.yul\":21361:21362   */\n      dup4\n        /* \"#utility.yul\":21358:21439   */\n      gt\n        /* \"#utility.yul\":21353:21354   */\n      dup3\n        /* \"#utility.yul\":21346:21355   */\n      iszero\n        /* \"#utility.yul\":21339:21356   */\n      iszero\n        /* \"#utility.yul\":21335:21440   */\n      and\n        /* \"#utility.yul\":21332:21334   */\n      iszero\n      tag_532\n      jumpi\n        /* \"#utility.yul\":21443:21461   */\n      tag_533\n      tag_522\n      jump\t// in\n    tag_533:\n        /* \"#utility.yul\":21332:21334   */\n    tag_532:\n        /* \"#utility.yul\":21491:21492   */\n      dup3\n        /* \"#utility.yul\":21488:21489   */\n      dup3\n        /* \"#utility.yul\":21484:21493   */\n      mul\n        /* \"#utility.yul\":21473:21493   */\n      swap1\n      pop\n        /* \"#utility.yul\":21199:21499   */\n      swap3\n      swap2\n      pop\n      pop\n      jump\t// out\n        /* \"#utility.yul\":21505:21696   */\n    tag_257:\n        /* \"#utility.yul\":21545:21549   */\n      0x00\n        /* \"#utility.yul\":21565:21585   */\n      tag_535\n        /* \"#utility.yul\":21583:21584   */\n      dup3\n        /* \"#utility.yul\":21565:21585   */\n      tag_457\n      jump\t// in\n    tag_535:\n        /* \"#utility.yul\":21560:21585   */\n      swap2\n      pop\n        /* \"#utility.yul\":21599:21619   */\n      tag_536\n        /* \"#utility.yul\":21617:21618   */\n      dup4\n        /* \"#utility.yul\":21599:21619   */\n      tag_457\n      jump\t// in\n    tag_536:\n        /* \"#utility.yul\":21594:21619   */\n      swap3\n      pop\n        /* \"#utility.yul\":21638:21639   */\n      dup3\n        /* \"#utility.yul\":21635:21636   */\n      dup3\n        /* \"#utility.yul\":21632:21640   */\n      lt\n        /* \"#utility.yul\":21629:21631   */\n      iszero\n      tag_537\n      jumpi\n        /* \"#utility.yul\":21643:21661   */\n      tag_538\n      tag_522\n      jump\t// in\n    tag_538:\n        /* \"#utility.yul\":21629:21631   */\n    tag_537:\n        /* \"#utility.yul\":21688:21689   */\n      dup3\n        /* \"#utility.yul\":21685:21686   */\n      dup3\n        /* \"#utility.yul\":21681:21690   */\n      sub\n        /* \"#utility.yul\":21673:21690   */\n      swap1\n      pop\n        /* \"#utility.yul\":21550:21696   */\n      swap3\n      swap2\n      pop\n      pop\n      jump\t// out\n        /* \"#utility.yul\":21702:21798   */\n    tag_366:\n        /* \"#utility.yul\":21739:21746   */\n      0x00\n        /* \"#utility.yul\":21768:21792   */\n      tag_540\n        /* \"#utility.yul\":21786:21791   */\n      dup3\n        /* \"#utility.yul\":21768:21792   */\n      tag_541\n      jump\t// in\n    tag_540:\n        /* \"#utility.yul\":21757:21792   */\n      swap1\n      pop\n        /* \"#utility.yul\":21747:21798   */\n      swap2\n      swap1\n      pop\n      jump\t// out\n        /* \"#utility.yul\":21804:21908   */\n    tag_362:\n        /* \"#utility.yul\":21849:21856   */\n      0x00\n        /* \"#utility.yul\":21878:21902   */\n      tag_543\n        /* \"#utility.yul\":21896:21901   */\n      dup3\n        /* \"#utility.yul\":21878:21902   */\n      tag_541\n      jump\t// in\n    tag_543:\n        /* \"#utility.yul\":21867:21902   */\n      swap1\n      pop\n        /* \"#utility.yul\":21857:21908   */\n      swap2\n      swap1\n      pop\n      jump\t// out\n        /* \"#utility.yul\":21914:22004   */\n    tag_544:\n        /* \"#utility.yul\":21948:21955   */\n      0x00\n        /* \"#utility.yul\":21991:21996   */\n      dup2\n        /* \"#utility.yul\":21984:21997   */\n      iszero\n        /* \"#utility.yul\":21977:21998   */\n      iszero\n        /* \"#utility.yul\":21966:21998   */\n      swap1\n      pop\n        /* \"#utility.yul\":21956:22004   */\n      swap2\n      swap1\n      pop\n      jump\t// out\n        /* \"#utility.yul\":22010:22087   */\n    tag_546:\n        /* \"#utility.yul\":22047:22054   */\n      0x00\n        /* \"#utility.yul\":22076:22081   */\n      dup2\n        /* \"#utility.yul\":22065:22081   */\n      swap1\n      pop\n        /* \"#utility.yul\":22055:22087   */\n      swap2\n      swap1\n      pop\n      jump\t// out\n        /* \"#utility.yul\":22093:22236   */\n    tag_548:\n        /* \"#utility.yul\":22146:22153   */\n      0x00\n        /* \"#utility.yul\":22175:22180   */\n      dup2\n        /* \"#utility.yul\":22164:22180   */\n      swap1\n      pop\n        /* \"#utility.yul\":22181:22230   */\n      tag_550\n        /* \"#utility.yul\":22224:22229   */\n      dup3\n        /* \"#utility.yul\":22181:22230   */\n      tag_551\n      jump\t// in\n    tag_550:\n        /* \"#utility.yul\":22154:22236   */\n      swap2\n      swap1\n      pop\n      jump\t// out\n        /* \"#utility.yul\":22242:22381   */\n    tag_552:\n        /* \"#utility.yul\":22293:22300   */\n      0x00\n        /* \"#utility.yul\":22322:22327   */\n      dup2\n        /* \"#utility.yul\":22311:22327   */\n      swap1\n      pop\n        /* \"#utility.yul\":22328:22375   */\n      tag_554\n        /* \"#utility.yul\":22369:22374   */\n      dup3\n        /* \"#utility.yul\":22328:22375   */\n      tag_555\n      jump\t// in\n    tag_554:\n        /* \"#utility.yul\":22301:22381   */\n      swap2\n      swap1\n      pop\n      jump\t// out\n        /* \"#utility.yul\":22387:22513   */\n    tag_541:\n        /* \"#utility.yul\":22424:22431   */\n      0x00\n        /* \"#utility.yul\":22464:22506   */\n      0xffffffffffffffffffffffffffffffffffffffff\n        /* \"#utility.yul\":22457:22462   */\n      dup3\n        /* \"#utility.yul\":22453:22507   */\n      and\n        /* \"#utility.yul\":22442:22507   */\n      swap1\n      pop\n        /* \"#utility.yul\":22432:22513   */\n      swap2\n      swap1\n      pop\n      jump\t// out\n        /* \"#utility.yul\":22519:22596   */\n    tag_457:\n        /* \"#utility.yul\":22556:22563   */\n      0x00\n        /* \"#utility.yul\":22585:22590   */\n      dup2\n        /* \"#utility.yul\":22574:22590   */\n      swap1\n      pop\n        /* \"#utility.yul\":22564:22596   */\n      swap2\n      swap1\n      pop\n      jump\t// out\n        /* \"#utility.yul\":22602:22736   */\n    tag_358:\n        /* \"#utility.yul\":22660:22669   */\n      0x00\n        /* \"#utility.yul\":22693:22730   */\n      tag_559\n        /* \"#utility.yul\":22724:22729   */\n      dup3\n        /* \"#utility.yul\":22693:22730   */\n      tag_560\n      jump\t// in\n    tag_559:\n        /* \"#utility.yul\":22680:22730   */\n      swap1\n      pop\n        /* \"#utility.yul\":22670:22736   */\n      swap2\n      swap1\n      pop\n      jump\t// out\n        /* \"#utility.yul\":22742:22896   */\n    tag_378:\n        /* \"#utility.yul\":22806:22815   */\n      0x00\n        /* \"#utility.yul\":22839:22890   */\n      tag_562\n        /* \"#utility.yul\":22884:22889   */\n      dup3\n        /* \"#utility.yul\":22839:22890   */\n      tag_563\n      jump\t// in\n    tag_562:\n        /* \"#utility.yul\":22826:22890   */\n      swap1\n      pop\n        /* \"#utility.yul\":22816:22896   */\n      swap2\n      swap1\n      pop\n      jump\t// out\n        /* \"#utility.yul\":22902:23029   */\n    tag_563:\n        /* \"#utility.yul\":22966:22975   */\n      0x00\n        /* \"#utility.yul\":22999:23023   */\n      tag_565\n        /* \"#utility.yul\":23017:23022   */\n      dup3\n        /* \"#utility.yul\":22999:23023   */\n      tag_541\n      jump\t// in\n    tag_565:\n        /* \"#utility.yul\":22986:23023   */\n      swap1\n      pop\n        /* \"#utility.yul\":22976:23029   */\n      swap2\n      swap1\n      pop\n      jump\t// out\n        /* \"#utility.yul\":23035:23178   */\n    tag_382:\n        /* \"#utility.yul\":23099:23108   */\n      0x00\n        /* \"#utility.yul\":23132:23172   */\n      tag_567\n        /* \"#utility.yul\":23166:23171   */\n      dup3\n        /* \"#utility.yul\":23132:23172   */\n      tag_548\n      jump\t// in\n    tag_567:\n        /* \"#utility.yul\":23119:23172   */\n      swap1\n      pop\n        /* \"#utility.yul\":23109:23178   */\n      swap2\n      swap1\n      pop\n      jump\t// out\n        /* \"#utility.yul\":23184:23323   */\n    tag_389:\n        /* \"#utility.yul\":23246:23255   */\n      0x00\n        /* \"#utility.yul\":23279:23317   */\n      tag_569\n        /* \"#utility.yul\":23311:23316   */\n      dup3\n        /* \"#utility.yul\":23279:23317   */\n      tag_552\n      jump\t// in\n    tag_569:\n        /* \"#utility.yul\":23266:23317   */\n      swap1\n      pop\n        /* \"#utility.yul\":23256:23323   */\n      swap2\n      swap1\n      pop\n      jump\t// out\n        /* \"#utility.yul\":23329:23455   */\n    tag_560:\n        /* \"#utility.yul\":23379:23388   */\n      0x00\n        /* \"#utility.yul\":23412:23449   */\n      tag_571\n        /* \"#utility.yul\":23443:23448   */\n      dup3\n        /* \"#utility.yul\":23412:23449   */\n      tag_572\n      jump\t// in\n    tag_571:\n        /* \"#utility.yul\":23399:23449   */\n      swap1\n      pop\n        /* \"#utility.yul\":23389:23455   */\n      swap2\n      swap1\n      pop\n      jump\t// out\n        /* \"#utility.yul\":23461:23574   */\n    tag_572:\n        /* \"#utility.yul\":23511:23520   */\n      0x00\n        /* \"#utility.yul\":23544:23568   */\n      tag_574\n        /* \"#utility.yul\":23562:23567   */\n      dup3\n        /* \"#utility.yul\":23544:23568   */\n      tag_541\n      jump\t// in\n    tag_574:\n        /* \"#utility.yul\":23531:23568   */\n      swap1\n      pop\n        /* \"#utility.yul\":23521:23574   */\n      swap2\n      swap1\n      pop\n      jump\t// out\n        /* \"#utility.yul\":23580:23680   */\n    tag_374:\n        /* \"#utility.yul\":23619:23626   */\n      0x00\n        /* \"#utility.yul\":23648:23674   */\n      tag_576\n        /* \"#utility.yul\":23668:23673   */\n      dup3\n        /* \"#utility.yul\":23648:23674   */\n      tag_577\n      jump\t// in\n    tag_576:\n        /* \"#utility.yul\":23637:23674   */\n      swap1\n      pop\n        /* \"#utility.yul\":23627:23680   */\n      swap2\n      swap1\n      pop\n      jump\t// out\n        /* \"#utility.yul\":23686:23780   */\n    tag_577:\n        /* \"#utility.yul\":23725:23732   */\n      0x00\n        /* \"#utility.yul\":23754:23774   */\n      tag_579\n        /* \"#utility.yul\":23768:23773   */\n      dup3\n        /* \"#utility.yul\":23754:23774   */\n      tag_580\n      jump\t// in\n    tag_579:\n        /* \"#utility.yul\":23743:23774   */\n      swap1\n      pop\n        /* \"#utility.yul\":23733:23780   */\n      swap2\n      swap1\n      pop\n      jump\t// out\n        /* \"#utility.yul\":23786:23865   */\n    tag_465:\n        /* \"#utility.yul\":23825:23832   */\n      0x00\n        /* \"#utility.yul\":23854:23859   */\n      dup2\n        /* \"#utility.yul\":23843:23859   */\n      swap1\n      pop\n        /* \"#utility.yul\":23833:23865   */\n      swap2\n      swap1\n      pop\n      jump\t// out\n        /* \"#utility.yul\":23871:24051   */\n    tag_522:\n        /* \"#utility.yul\":23919:23996   */\n      0x4e487b7100000000000000000000000000000000000000000000000000000000\n        /* \"#utility.yul\":23916:23917   */\n      0x00\n        /* \"#utility.yul\":23909:23997   */\n      mstore\n        /* \"#utility.yul\":24016:24020   */\n      0x11\n        /* \"#utility.yul\":24013:24014   */\n      0x04\n        /* \"#utility.yul\":24006:24021   */\n      mstore\n        /* \"#utility.yul\":24040:24044   */\n      0x24\n        /* \"#utility.yul\":24037:24038   */\n      0x00\n        /* \"#utility.yul\":24030:24045   */\n      revert\n        /* \"#utility.yul\":24057:24237   */\n    tag_528:\n        /* \"#utility.yul\":24105:24182   */\n      0x4e487b7100000000000000000000000000000000000000000000000000000000\n        /* \"#utility.yul\":24102:24103   */\n      0x00\n        /* \"#utility.yul\":24095:24183   */\n      mstore\n        /* \"#utility.yul\":24202:24206   */\n      0x12\n        /* \"#utility.yul\":24199:24200   */\n      0x04\n        /* \"#utility.yul\":24192:24207   */\n      mstore\n        /* \"#utility.yul\":24226:24230   */\n      0x24\n        /* \"#utility.yul\":24223:24224   */\n      0x00\n        /* \"#utility.yul\":24216:24231   */\n      revert\n        /* \"#utility.yul\":24243:24423   */\n    tag_584:\n        /* \"#utility.yul\":24291:24368   */\n      0x4e487b7100000000000000000000000000000000000000000000000000000000\n        /* \"#utility.yul\":24288:24289   */\n      0x00\n        /* \"#utility.yul\":24281:24369   */\n      mstore\n        /* \"#utility.yul\":24388:24392   */\n      0x21\n        /* \"#utility.yul\":24385:24386   */\n      0x04\n        /* \"#utility.yul\":24378:24393   */\n      mstore\n        /* \"#utility.yul\":24412:24416   */\n      0x24\n        /* \"#utility.yul\":24409:24410   */\n      0x00\n        /* \"#utility.yul\":24402:24417   */\n      revert\n        /* \"#utility.yul\":24429:24523   */\n    tag_580:\n        /* \"#utility.yul\":24462:24470   */\n      0x00\n        /* \"#utility.yul\":24510:24515   */\n      dup2\n        /* \"#utility.yul\":24506:24508   */\n      0x60\n        /* \"#utility.yul\":24502:24516   */\n      shl\n        /* \"#utility.yul\":24481:24516   */\n      swap1\n      pop\n        /* \"#utility.yul\":24471:24523   */\n      swap2\n      swap1\n      pop\n      jump\t// out\n        /* \"#utility.yul\":24529:24693   */\n    tag_398:\n        /* \"#utility.yul\":24669:24685   */\n      0x6e6674206e6f74206f70656e6564000000000000000000000000000000000000\n        /* \"#utility.yul\":24665:24666   */\n      0x00\n        /* \"#utility.yul\":24657:24663   */\n      dup3\n        /* \"#utility.yul\":24653:24667   */\n      add\n        /* \"#utility.yul\":24646:24686   */\n      mstore\n        /* \"#utility.yul\":24635:24693   */\n      pop\n      jump\t// out\n        /* \"#utility.yul\":24699:24928   */\n    tag_403:\n        /* \"#utility.yul\":24839:24873   */\n      0x4f776e61626c653a206f6e6c79206f776e65722063616e2063616c6c20746869\n        /* \"#utility.yul\":24835:24836   */\n      0x00\n        /* \"#utility.yul\":24827:24833   */\n      dup3\n        /* \"#utility.yul\":24823:24837   */\n      add\n        /* \"#utility.yul\":24816:24874   */\n      mstore\n        /* \"#utility.yul\":24908:24920   */\n      0x732066756e6374696f6e00000000000000000000000000000000000000000000\n        /* \"#utility.yul\":24903:24905   */\n      0x20\n        /* \"#utility.yul\":24895:24901   */\n      dup3\n        /* \"#utility.yul\":24891:24906   */\n      add\n        /* \"#utility.yul\":24884:24921   */\n      mstore\n        /* \"#utility.yul\":24805:24928   */\n      pop\n      jump\t// out\n        /* \"#utility.yul\":24934:25101   */\n    tag_408:\n        /* \"#utility.yul\":25074:25093   */\n      0x56616c7565206e6f74206d617463686564000000000000000000000000000000\n        /* \"#utility.yul\":25070:25071   */\n      0x00\n        /* \"#utility.yul\":25062:25068   */\n      dup3\n        /* \"#utility.yul\":25058:25072   */\n      add\n        /* \"#utility.yul\":25051:25094   */\n      mstore\n        /* \"#utility.yul\":25040:25101   */\n      pop\n      jump\t// out\n        /* \"#utility.yul\":25107:25332   */\n    tag_413:\n        /* \"#utility.yul\":25247:25281   */\n      0x4f776e61626c653a206e6577206f776e657220697320746865207a65726f2061\n        /* \"#utility.yul\":25243:25244   */\n      0x00\n        /* \"#utility.yul\":25235:25241   */\n      dup3\n        /* \"#utility.yul\":25231:25245   */\n      add\n        /* \"#utility.yul\":25224:25282   */\n      mstore\n        /* \"#utility.yul\":25316:25324   */\n      0x6464726573730000000000000000000000000000000000000000000000000000\n        /* \"#utility.yul\":25311:25313   */\n      0x20\n        /* \"#utility.yul\":25303:25309   */\n      dup3\n        /* \"#utility.yul\":25299:25314   */\n      add\n        /* \"#utility.yul\":25292:25325   */\n      mstore\n        /* \"#utility.yul\":25213:25332   */\n      pop\n      jump\t// out\n        /* \"#utility.yul\":25338:25512   */\n    tag_418:\n        /* \"#utility.yul\":25478:25504   */\n      0x6f6e6c7920666f72206d61726b6574206f70657261746f720000000000000000\n        /* \"#utility.yul\":25474:25475   */\n      0x00\n        /* \"#utility.yul\":25466:25472   */\n      dup3\n        /* \"#utility.yul\":25462:25476   */\n      add\n        /* \"#utility.yul\":25455:25505   */\n      mstore\n        /* \"#utility.yul\":25444:25512   */\n      pop\n      jump\t// out\n        /* \"#utility.yul\":25518:25698   */\n    tag_423:\n        /* \"#utility.yul\":25658:25690   */\n      0x4d61726b6574206f7264657220697320616c7265616479206f70656e65640000\n        /* \"#utility.yul\":25654:25655   */\n      0x00\n        /* \"#utility.yul\":25646:25652   */\n      dup3\n        /* \"#utility.yul\":25642:25656   */\n      add\n        /* \"#utility.yul\":25635:25691   */\n      mstore\n        /* \"#utility.yul\":25624:25698   */\n      pop\n      jump\t// out\n        /* \"#utility.yul\":25704:25880   */\n    tag_428:\n        /* \"#utility.yul\":25844:25872   */\n      0x4d61726b6574206f72646572206973206e6f74206f70656e6564000000000000\n        /* \"#utility.yul\":25840:25841   */\n      0x00\n        /* \"#utility.yul\":25832:25838   */\n      dup3\n        /* \"#utility.yul\":25828:25842   */\n      add\n        /* \"#utility.yul\":25821:25873   */\n      mstore\n        /* \"#utility.yul\":25810:25880   */\n      pop\n      jump\t// out\n        /* \"#utility.yul\":25886:26063   */\n    tag_433:\n        /* \"#utility.yul\":26026:26055   */\n      0x6e6674206973206e6f74206f70656e20666f722041756374696f6e0000000000\n        /* \"#utility.yul\":26022:26023   */\n      0x00\n        /* \"#utility.yul\":26014:26020   */\n      dup3\n        /* \"#utility.yul\":26010:26024   */\n      add\n        /* \"#utility.yul\":26003:26056   */\n      mstore\n        /* \"#utility.yul\":25992:26063   */\n      pop\n      jump\t// out\n        /* \"#utility.yul\":26069:26249   */\n    tag_438:\n        /* \"#utility.yul\":26209:26241   */\n      0x50726963652053686f756c642062652067726561746572207468656e20300000\n        /* \"#utility.yul\":26205:26206   */\n      0x00\n        /* \"#utility.yul\":26197:26203   */\n      dup3\n        /* \"#utility.yul\":26193:26207   */\n      add\n        /* \"#utility.yul\":26186:26242   */\n      mstore\n        /* \"#utility.yul\":26175:26249   */\n      pop\n      jump\t// out\n        /* \"#utility.yul\":26255:26480   */\n    tag_443:\n        /* \"#utility.yul\":26395:26429   */\n      0x656e642050726963652053686f756c642062652067726561746572207468656e\n        /* \"#utility.yul\":26391:26392   */\n      0x00\n        /* \"#utility.yul\":26383:26389   */\n      dup3\n        /* \"#utility.yul\":26379:26393   */\n      add\n        /* \"#utility.yul\":26372:26430   */\n      mstore\n        /* \"#utility.yul\":26464:26472   */\n      0x2070726963650000000000000000000000000000000000000000000000000000\n        /* \"#utility.yul\":26459:26461   */\n      0x20\n        /* \"#utility.yul\":26451:26457   */\n      dup3\n        /* \"#utility.yul\":26447:26462   */\n      add\n        /* \"#utility.yul\":26440:26473   */\n      mstore\n        /* \"#utility.yul\":26361:26480   */\n      pop\n      jump\t// out\n        /* \"#utility.yul\":26486:26607   */\n    tag_551:\n        /* \"#utility.yul\":26575:26576   */\n      0x04\n        /* \"#utility.yul\":26568:26573   */\n      dup2\n        /* \"#utility.yul\":26565:26577   */\n      lt\n        /* \"#utility.yul\":26555:26557   */\n      tag_598\n      jumpi\n        /* \"#utility.yul\":26581:26599   */\n      tag_599\n      tag_584\n      jump\t// in\n    tag_599:\n        /* \"#utility.yul\":26555:26557   */\n    tag_598:\n        /* \"#utility.yul\":26545:26607   */\n      pop\n      jump\t// out\n        /* \"#utility.yul\":26613:26732   */\n    tag_555:\n        /* \"#utility.yul\":26700:26701   */\n      0x03\n        /* \"#utility.yul\":26693:26698   */\n      dup2\n        /* \"#utility.yul\":26690:26702   */\n      lt\n        /* \"#utility.yul\":26680:26682   */\n      tag_601\n      jumpi\n        /* \"#utility.yul\":26706:26724   */\n      tag_602\n      tag_584\n      jump\t// in\n    tag_602:\n        /* \"#utility.yul\":26680:26682   */\n    tag_601:\n        /* \"#utility.yul\":26670:26732   */\n      pop\n      jump\t// out\n        /* \"#utility.yul\":26738:26860   */\n    tag_292:\n        /* \"#utility.yul\":26811:26835   */\n      tag_604\n        /* \"#utility.yul\":26829:26834   */\n      dup2\n        /* \"#utility.yul\":26811:26835   */\n      tag_366\n      jump\t// in\n    tag_604:\n        /* \"#utility.yul\":26804:26809   */\n      dup2\n        /* \"#utility.yul\":26801:26836   */\n      eq\n        /* \"#utility.yul\":26791:26793   */\n      tag_605\n      jumpi\n        /* \"#utility.yul\":26850:26851   */\n      0x00\n        /* \"#utility.yul\":26847:26848   */\n      dup1\n        /* \"#utility.yul\":26840:26852   */\n      revert\n        /* \"#utility.yul\":26791:26793   */\n    tag_605:\n        /* \"#utility.yul\":26781:26860   */\n      pop\n      jump\t// out\n        /* \"#utility.yul\":26866:27004   */\n    tag_299:\n        /* \"#utility.yul\":26947:26979   */\n      tag_607\n        /* \"#utility.yul\":26973:26978   */\n      dup2\n        /* \"#utility.yul\":26947:26979   */\n      tag_362\n      jump\t// in\n    tag_607:\n        /* \"#utility.yul\":26940:26945   */\n      dup2\n        /* \"#utility.yul\":26937:26980   */\n      eq\n        /* \"#utility.yul\":26927:26929   */\n      tag_608\n      jumpi\n        /* \"#utility.yul\":26994:26995   */\n      0x00\n        /* \"#utility.yul\":26991:26992   */\n      dup1\n        /* \"#utility.yul\":26984:26996   */\n      revert\n        /* \"#utility.yul\":26927:26929   */\n    tag_608:\n        /* \"#utility.yul\":26917:27004   */\n      pop\n      jump\t// out\n        /* \"#utility.yul\":27010:27126   */\n    tag_303:\n        /* \"#utility.yul\":27080:27101   */\n      tag_610\n        /* \"#utility.yul\":27095:27100   */\n      dup2\n        /* \"#utility.yul\":27080:27101   */\n      tag_544\n      jump\t// in\n    tag_610:\n        /* \"#utility.yul\":27073:27078   */\n      dup2\n        /* \"#utility.yul\":27070:27102   */\n      eq\n        /* \"#utility.yul\":27060:27062   */\n      tag_611\n      jumpi\n        /* \"#utility.yul\":27116:27117   */\n      0x00\n        /* \"#utility.yul\":27113:27114   */\n      dup1\n        /* \"#utility.yul\":27106:27118   */\n      revert\n        /* \"#utility.yul\":27060:27062   */\n    tag_611:\n        /* \"#utility.yul\":27050:27126   */\n      pop\n      jump\t// out\n        /* \"#utility.yul\":27132:27254   */\n    tag_307:\n        /* \"#utility.yul\":27205:27229   */\n      tag_613\n        /* \"#utility.yul\":27223:27228   */\n      dup2\n        /* \"#utility.yul\":27205:27229   */\n      tag_546\n      jump\t// in\n    tag_613:\n        /* \"#utility.yul\":27198:27203   */\n      dup2\n        /* \"#utility.yul\":27195:27230   */\n      eq\n        /* \"#utility.yul\":27185:27187   */\n      tag_614\n      jumpi\n        /* \"#utility.yul\":27244:27245   */\n      0x00\n        /* \"#utility.yul\":27241:27242   */\n      dup1\n        /* \"#utility.yul\":27234:27246   */\n      revert\n        /* \"#utility.yul\":27185:27187   */\n    tag_614:\n        /* \"#utility.yul\":27175:27254   */\n      pop\n      jump\t// out\n        /* \"#utility.yul\":27260:27382   */\n    tag_311:\n        /* \"#utility.yul\":27333:27357   */\n      tag_616\n        /* \"#utility.yul\":27351:27356   */\n      dup2\n        /* \"#utility.yul\":27333:27357   */\n      tag_457\n      jump\t// in\n    tag_616:\n        /* \"#utility.yul\":27326:27331   */\n      dup2\n        /* \"#utility.yul\":27323:27358   */\n      eq\n        /* \"#utility.yul\":27313:27315   */\n      tag_617\n      jumpi\n        /* \"#utility.yul\":27372:27373   */\n      0x00\n        /* \"#utility.yul\":27369:27370   */\n      dup1\n        /* \"#utility.yul\":27362:27374   */\n      revert\n        /* \"#utility.yul\":27313:27315   */\n    tag_617:\n        /* \"#utility.yul\":27303:27382   */\n      pop\n      jump\t// out\n\n    auxdata: 0xa264697066735822122067c97f23a8de3dae720f254c72c57b7a9dcaec99043d38ca2dc55665a82b601f64736f6c63430008040033\n}\n",
				"bytecode": {
					"linkReferences": {},
					"object": "60806040523480156200001157600080fd5b5060405162003503380380620035038339818101604052810190620000379190620001c9565b336000806101000a81548173ffffffffffffffffffffffffffffffffffffffff021916908373ffffffffffffffffffffffffffffffffffffffff16021790555060008054906101000a900473ffffffffffffffffffffffffffffffffffffffff1673ffffffffffffffffffffffffffffffffffffffff16600073ffffffffffffffffffffffffffffffffffffffff167f8be0079c531659141344cd1fd0a4f28419497f9722a3daafe3b4186f6b6457e060405160405180910390a38160028190555080600360006101000a81548173ffffffffffffffffffffffffffffffffffffffff021916908373ffffffffffffffffffffffffffffffffffffffff16021790555082600160006101000a81548173ffffffffffffffffffffffffffffffffffffffff021916908373ffffffffffffffffffffffffffffffffffffffff160217905550505050620002bf565b600081519050620001958162000271565b92915050565b600081519050620001ac816200028b565b92915050565b600081519050620001c381620002a5565b92915050565b600080600060608486031215620001df57600080fd5b6000620001ef8682870162000184565b93505060206200020286828701620001b2565b925050604062000215868287016200019b565b9150509250925092565b60006200022c8262000247565b9050919050565b6000620002408262000247565b9050919050565b600073ffffffffffffffffffffffffffffffffffffffff82169050919050565b6000819050919050565b6200027c816200021f565b81146200028857600080fd5b50565b620002968162000233565b8114620002a257600080fd5b50565b620002b08162000267565b8114620002bc57600080fd5b50565b61323480620002cf6000396000f3fe608060405234801561001057600080fd5b50600436106101005760003560e01c80639677d02e11610097578063de56248711610066578063de56248714610278578063ec10246414610294578063f2fde38b146102b0578063f699343e146102cc57610100565b80639677d02e1461020657806398590ef914610222578063ae06c1b71461023e578063cb278aad1461025a57610100565b80636548d2c2116100d35780636548d2c214610177578063715018a6146101a75780637564912b146101b15780638da5cb5b146101e857610100565b806310ae7085146101055780631f40ff841461012357806326f8a07a1461013f5780633dfe92421461015b575b600080fd5b61010d6102ea565b60405161011a91906129c8565b60405180910390f35b61013d60048036038101906101389190612531565b610310565b005b6101596004803603810190610154919061247d565b610ac6565b005b610175600480360381019061017091906124e2565b610b98565b005b610191600480360381019061018c91906124a6565b61143d565b60405161019e9190612c2a565b60405180910390f35b6101af6116a9565b005b6101cb60048036038101906101c69190612620565b6117f5565b6040516101df989796959493929190612a51565b60405180910390f35b6101f06118b7565b6040516101fd91906129ad565b60405180910390f35b610220600480360381019061021b9190612594565b6118e0565b005b61023c600480360381019061023791906124a6565b6118f4565b005b61025860048036038101906102539190612649565b611aec565b005b610262611b84565b60405161026f9190612acf565b60405180910390f35b610292600480360381019061028d9190612454565b611baa565b005b6102ae60048036038101906102a991906124e2565b611c7c565b005b6102ca60048036038101906102c59190612454565b611c90565b005b6102d4611d2a565b6040516102e19190612c46565b60405180910390f35b600360009054906101000a900473ffffffffffffffffffffffffffffffffffffffff1681565b600061031c8585611d30565b90503373ffffffffffffffffffffffffffffffffffffffff166004600083815260200190815260200160002060050160009054906101000a900473ffffffffffffffffffffffffffffffffffffffff1673ffffffffffffffffffffffffffffffffffffffff16146103c2576040517f08c379a00000000000000000000000000000000000000000000000000000000081526004016103b990612b6a565b60405180910390fd5b600160038111156103fc577f4e487b7100000000000000000000000000000000000000000000000000000000600052602160045260246000fd5b6004600083815260200190815260200160002060020160019054906101000a900460ff166003811115610458577f4e487b7100000000000000000000000000000000000000000000000000000000600052602160045260246000fd5b1415610a8457600280811115610497577f4e487b7100000000000000000000000000000000000000000000000000000000600052602160045260246000fd5b6004600083815260200190815260200160002060020160009054906101000a900460ff1660028111156104f3577f4e487b7100000000000000000000000000000000000000000000000000000000600052602160045260246000fd5b14610533576040517f08c379a000000000000000000000000000000000000000000000000000000000815260040161052a90612bca565b60405180910390fd5b8260046000838152602001908152602001600020600301541015610a445760006004600083815260200190815260200160002060000160009054906101000a900473ffffffffffffffffffffffffffffffffffffffff169050600061059a85600254611d63565b9050600081111561067a57600160009054906101000a900473ffffffffffffffffffffffffffffffffffffffff1673ffffffffffffffffffffffffffffffffffffffff166323b872dd85600360009054906101000a900473ffffffffffffffffffffffffffffffffffffffff16846040518463ffffffff1660e01b8152600401610626939291906129e3565b602060405180830381600087803b15801561064057600080fd5b505af1158015610654573d6000803e3d6000fd5b505050506040513d601f19601f8201168201806040525081019061067891906125f7565b505b6000808373ffffffffffffffffffffffffffffffffffffffff1663179efa20896040518263ffffffff1660e01b81526004016106b69190612c46565b604080518083038186803b1580156106cd57600080fd5b505afa1580156106e1573d6000803e3d6000fd5b505050506040513d601f19601f820116820180604052508101906107059190612672565b9150915060006107158884611d63565b9050600160009054906101000a900473ffffffffffffffffffffffffffffffffffffffff1673ffffffffffffffffffffffffffffffffffffffff166323b872dd8884846040518463ffffffff1660e01b815260040161077693929190612a1a565b602060405180830381600087803b15801561079057600080fd5b505af11580156107a4573d6000803e3d6000fd5b505050506040513d601f19601f820116820180604052508101906107c891906125f7565b5060006107f06107e18387611d9390919063ffffffff16565b8a611da990919063ffffffff16565b9050600160009054906101000a900473ffffffffffffffffffffffffffffffffffffffff1673ffffffffffffffffffffffffffffffffffffffff166323b872dd89600460008b815260200190815260200160002060050160009054906101000a900473ffffffffffffffffffffffffffffffffffffffff16846040518463ffffffff1660e01b815260040161088793929190612a1a565b602060405180830381600087803b1580156108a157600080fd5b505af11580156108b5573d6000803e3d6000fd5b505050506040513d601f19601f820116820180604052508101906108d991906125f7565b508573ffffffffffffffffffffffffffffffffffffffff166342842e0e600460008a815260200190815260200160002060050160009054906101000a900473ffffffffffffffffffffffffffffffffffffffff168a8d6040518463ffffffff1660e01b815260040161094d93929190612a1a565b600060405180830381600087803b15801561096757600080fd5b505af115801561097b573d6000803e3d6000fd5b5050505060036004600089815260200190815260200160002060020160016101000a81548160ff021916908360038111156109df577f4e487b7100000000000000000000000000000000000000000000000000000000600052602160045260246000fd5b0217905550876004600089815260200190815260200160002060060160006101000a81548173ffffffffffffffffffffffffffffffffffffffff021916908373ffffffffffffffffffffffffffffffffffffffff160217905550505050505050610a7f565b6040517f08c379a0000000000000000000000000000000000000000000000000000000008152600401610a7690612b2a565b60405180910390fd5b610abf565b6040517f08c379a0000000000000000000000000000000000000000000000000000000008152600401610ab690612baa565b60405180910390fd5b5050505050565b3373ffffffffffffffffffffffffffffffffffffffff1660008054906101000a900473ffffffffffffffffffffffffffffffffffffffff1673ffffffffffffffffffffffffffffffffffffffff1614610b54576040517f08c379a0000000000000000000000000000000000000000000000000000000008152600401610b4b90612b0a565b60405180910390fd5b80600360006101000a81548173ffffffffffffffffffffffffffffffffffffffff021916908373ffffffffffffffffffffffffffffffffffffffff16021790555050565b6000610ba48484611d30565b905060016003811115610be0577f4e487b7100000000000000000000000000000000000000000000000000000000600052602160045260246000fd5b6004600083815260200190815260200160002060020160019054906101000a900460ff166003811115610c3c577f4e487b7100000000000000000000000000000000000000000000000000000000600052602160045260246000fd5b14156113fc5760006002811115610c7c577f4e487b7100000000000000000000000000000000000000000000000000000000600052602160045260246000fd5b6004600083815260200190815260200160002060020160009054906101000a900460ff166002811115610cd8577f4e487b7100000000000000000000000000000000000000000000000000000000600052602160045260246000fd5b1415610d19576040517f08c379a0000000000000000000000000000000000000000000000000000000008152600401610d1090612aea565b60405180910390fd5b60016002811115610d53577f4e487b7100000000000000000000000000000000000000000000000000000000600052602160045260246000fd5b6004600083815260200190815260200160002060020160009054906101000a900460ff166002811115610daf577f4e487b7100000000000000000000000000000000000000000000000000000000600052602160045260246000fd5b1415610e13578160046000838152602001908152602001600020600301541015610e0e576040517f08c379a0000000000000000000000000000000000000000000000000000000008152600401610e0590612b2a565b60405180910390fd5b610f09565b600280811115610e4c577f4e487b7100000000000000000000000000000000000000000000000000000000600052602160045260246000fd5b6004600083815260200190815260200160002060020160009054906101000a900460ff166002811115610ea8577f4e487b7100000000000000000000000000000000000000000000000000000000600052602160045260246000fd5b1415610f08578160046000838152602001908152602001600020600401541015610f07576040517f08c379a0000000000000000000000000000000000000000000000000000000008152600401610efe90612b2a565b60405180910390fd5b5b5b60006004600083815260200190815260200160002060000160009054906101000a900473ffffffffffffffffffffffffffffffffffffffff1690506000808273ffffffffffffffffffffffffffffffffffffffff1663179efa20876040518263ffffffff1660e01b8152600401610f809190612c46565b604080518083038186803b158015610f9757600080fd5b505afa158015610fab573d6000803e3d6000fd5b505050506040513d601f19601f82011682018060405250810190610fcf9190612672565b915091506000610fe186600254611d63565b905060008111156110c157600160009054906101000a900473ffffffffffffffffffffffffffffffffffffffff1673ffffffffffffffffffffffffffffffffffffffff166323b872dd33600360009054906101000a900473ffffffffffffffffffffffffffffffffffffffff16846040518463ffffffff1660e01b815260040161106d939291906129e3565b602060405180830381600087803b15801561108757600080fd5b505af115801561109b573d6000803e3d6000fd5b505050506040513d601f19601f820116820180604052508101906110bf91906125f7565b505b60006110cd8785611d63565b9050600160009054906101000a900473ffffffffffffffffffffffffffffffffffffffff1673ffffffffffffffffffffffffffffffffffffffff166323b872dd3385846040518463ffffffff1660e01b815260040161112e93929190612a1a565b602060405180830381600087803b15801561114857600080fd5b505af115801561115c573d6000803e3d6000fd5b505050506040513d601f19601f8201168201806040525081019061118091906125f7565b5060006111a86111998385611d9390919063ffffffff16565b89611da990919063ffffffff16565b9050600160009054906101000a900473ffffffffffffffffffffffffffffffffffffffff1673ffffffffffffffffffffffffffffffffffffffff166323b872dd33600460008b815260200190815260200160002060050160009054906101000a900473ffffffffffffffffffffffffffffffffffffffff16846040518463ffffffff1660e01b815260040161123f93929190612a1a565b602060405180830381600087803b15801561125957600080fd5b505af115801561126d573d6000803e3d6000fd5b505050506040513d601f19601f8201168201806040525081019061129191906125f7565b508573ffffffffffffffffffffffffffffffffffffffff166342842e0e600460008a815260200190815260200160002060050160009054906101000a900473ffffffffffffffffffffffffffffffffffffffff16338c6040518463ffffffff1660e01b815260040161130593929190612a1a565b600060405180830381600087803b15801561131f57600080fd5b505af1158015611333573d6000803e3d6000fd5b5050505060036004600089815260200190815260200160002060020160016101000a81548160ff02191690836003811115611397577f4e487b7100000000000000000000000000000000000000000000000000000000600052602160045260246000fd5b0217905550336004600089815260200190815260200160002060060160006101000a81548173ffffffffffffffffffffffffffffffffffffffff021916908373ffffffffffffffffffffffffffffffffffffffff160217905550505050505050611437565b6040517f08c379a000000000000000000000000000000000000000000000000000000000815260040161142e90612baa565b60405180910390fd5b50505050565b6114456122ca565b60006114518484611d30565b905060046000828152602001908152602001600020604051806101000160405290816000820160009054906101000a900473ffffffffffffffffffffffffffffffffffffffff1673ffffffffffffffffffffffffffffffffffffffff1673ffffffffffffffffffffffffffffffffffffffff168152602001600182015481526020016002820160009054906101000a900460ff16600281111561151d577f4e487b7100000000000000000000000000000000000000000000000000000000600052602160045260246000fd5b6002811115611555577f4e487b7100000000000000000000000000000000000000000000000000000000600052602160045260246000fd5b81526020016002820160019054906101000a900460ff1660038111156115a4577f4e487b7100000000000000000000000000000000000000000000000000000000600052602160045260246000fd5b60038111156115dc577f4e487b7100000000000000000000000000000000000000000000000000000000600052602160045260246000fd5b815260200160038201548152602001600482015481526020016005820160009054906101000a900473ffffffffffffffffffffffffffffffffffffffff1673ffffffffffffffffffffffffffffffffffffffff1673ffffffffffffffffffffffffffffffffffffffff1681526020016006820160009054906101000a900473ffffffffffffffffffffffffffffffffffffffff1673ffffffffffffffffffffffffffffffffffffffff1673ffffffffffffffffffffffffffffffffffffffff168152505091505092915050565b3373ffffffffffffffffffffffffffffffffffffffff1660008054906101000a900473ffffffffffffffffffffffffffffffffffffffff1673ffffffffffffffffffffffffffffffffffffffff1614611737576040517f08c379a000000000000000000000000000000000000000000000000000000000815260040161172e90612b0a565b60405180910390fd5b600073ffffffffffffffffffffffffffffffffffffffff1660008054906101000a900473ffffffffffffffffffffffffffffffffffffffff1673ffffffffffffffffffffffffffffffffffffffff167f8be0079c531659141344cd1fd0a4f28419497f9722a3daafe3b4186f6b6457e060405160405180910390a360008060006101000a81548173ffffffffffffffffffffffffffffffffffffffff021916908373ffffffffffffffffffffffffffffffffffffffff160217905550565b60046020528060005260406000206000915090508060000160009054906101000a900473ffffffffffffffffffffffffffffffffffffffff16908060010154908060020160009054906101000a900460ff16908060020160019054906101000a900460ff16908060030154908060040154908060050160009054906101000a900473ffffffffffffffffffffffffffffffffffffffff16908060060160009054906101000a900473ffffffffffffffffffffffffffffffffffffffff16905088565b60008060009054906101000a900473ffffffffffffffffffffffffffffffffffffffff16905090565b6118ee848484600285611dbf565b50505050565b60006119008383611d30565b90503373ffffffffffffffffffffffffffffffffffffffff166004600083815260200190815260200160002060050160009054906101000a900473ffffffffffffffffffffffffffffffffffffffff1673ffffffffffffffffffffffffffffffffffffffff16146119a6576040517f08c379a000000000000000000000000000000000000000000000000000000000815260040161199d90612b6a565b60405180910390fd5b600160038111156119e0577f4e487b7100000000000000000000000000000000000000000000000000000000600052602160045260246000fd5b6004600083815260200190815260200160002060020160019054906101000a900460ff166003811115611a3c577f4e487b7100000000000000000000000000000000000000000000000000000000600052602160045260246000fd5b1415611aac5760026004600083815260200190815260200160002060020160016101000a81548160ff02191690836003811115611aa2577f4e487b7100000000000000000000000000000000000000000000000000000000600052602160045260246000fd5b0217905550611ae7565b6040517f08c379a0000000000000000000000000000000000000000000000000000000008152600401611ade90612baa565b60405180910390fd5b505050565b3373ffffffffffffffffffffffffffffffffffffffff1660008054906101000a900473ffffffffffffffffffffffffffffffffffffffff1673ffffffffffffffffffffffffffffffffffffffff1614611b7a576040517f08c379a0000000000000000000000000000000000000000000000000000000008152600401611b7190612b0a565b60405180910390fd5b8060028190555050565b600160009054906101000a900473ffffffffffffffffffffffffffffffffffffffff1681565b3373ffffffffffffffffffffffffffffffffffffffff1660008054906101000a900473ffffffffffffffffffffffffffffffffffffffff1673ffffffffffffffffffffffffffffffffffffffff1614611c38576040517f08c379a0000000000000000000000000000000000000000000000000000000008152600401611c2f90612b0a565b60405180910390fd5b80600160006101000a81548173ffffffffffffffffffffffffffffffffffffffff021916908373ffffffffffffffffffffffffffffffffffffffff16021790555050565b611c8b83838360016000611dbf565b505050565b3373ffffffffffffffffffffffffffffffffffffffff1660008054906101000a900473ffffffffffffffffffffffffffffffffffffffff1673ffffffffffffffffffffffffffffffffffffffff1614611d1e576040517f08c379a0000000000000000000000000000000000000000000000000000000008152600401611d1590612b0a565b60405180910390fd5b611d2781612171565b50565b60025481565b60008282604051602001611d45929190612981565b60405160208183030381529060405280519060200120905092915050565b6000611d8b6064611d7d848661229e90919063ffffffff16565b6122b490919063ffffffff16565b905092915050565b60008183611da19190612c72565b905092915050565b60008183611db79190612d53565b905092915050565b6000611dcb8686611d30565b905060016003811115611e07577f4e487b7100000000000000000000000000000000000000000000000000000000600052602160045260246000fd5b6004600083815260200190815260200160002060020160019054906101000a900460ff166003811115611e63577f4e487b7100000000000000000000000000000000000000000000000000000000600052602160045260246000fd5b1415611ea4576040517f08c379a0000000000000000000000000000000000000000000000000000000008152600401611e9b90612b8a565b60405180910390fd5b60008411611ee7576040517f08c379a0000000000000000000000000000000000000000000000000000000008152600401611ede90612bea565b60405180910390fd5b600280811115611f20577f4e487b7100000000000000000000000000000000000000000000000000000000600052602160045260246000fd5b836002811115611f59577f4e487b7100000000000000000000000000000000000000000000000000000000600052602160045260246000fd5b148015611f6557508184115b15611fa5576040517f08c379a0000000000000000000000000000000000000000000000000000000008152600401611f9c90612c0a565b60405180910390fd5b60016004600083815260200190815260200160002060020160016101000a81548160ff02191690836003811115612005577f4e487b7100000000000000000000000000000000000000000000000000000000600052602160045260246000fd5b0217905550826004600083815260200190815260200160002060020160006101000a81548160ff02191690836002811115612069577f4e487b7100000000000000000000000000000000000000000000000000000000600052602160045260246000fd5b0217905550836004600083815260200190815260200160002060030181905550816004600083815260200190815260200160002060040181905550856004600083815260200190815260200160002060000160006101000a81548173ffffffffffffffffffffffffffffffffffffffff021916908373ffffffffffffffffffffffffffffffffffffffff160217905550846004600083815260200190815260200160002060010181905550336004600083815260200190815260200160002060050160006101000a81548173ffffffffffffffffffffffffffffffffffffffff021916908373ffffffffffffffffffffffffffffffffffffffff160217905550505050505050565b600073ffffffffffffffffffffffffffffffffffffffff168173ffffffffffffffffffffffffffffffffffffffff1614156121e1576040517f08c379a00000000000000000000000000000000000000000000000000000000081526004016121d890612b4a565b60405180910390fd5b8073ffffffffffffffffffffffffffffffffffffffff1660008054906101000a900473ffffffffffffffffffffffffffffffffffffffff1673ffffffffffffffffffffffffffffffffffffffff167f8be0079c531659141344cd1fd0a4f28419497f9722a3daafe3b4186f6b6457e060405160405180910390a3806000806101000a81548173ffffffffffffffffffffffffffffffffffffffff021916908373ffffffffffffffffffffffffffffffffffffffff16021790555050565b600081836122ac9190612cf9565b905092915050565b600081836122c29190612cc8565b905092915050565b604051806101000160405280600073ffffffffffffffffffffffffffffffffffffffff1681526020016000815260200160006002811115612334577f4e487b7100000000000000000000000000000000000000000000000000000000600052602160045260246000fd5b815260200160006003811115612373577f4e487b7100000000000000000000000000000000000000000000000000000000600052602160045260246000fd5b81526020016000815260200160008152602001600073ffffffffffffffffffffffffffffffffffffffff168152602001600073ffffffffffffffffffffffffffffffffffffffff1681525090565b6000813590506123d08161318b565b92915050565b6000815190506123e58161318b565b92915050565b6000813590506123fa816131a2565b92915050565b60008151905061240f816131b9565b92915050565b600081359050612424816131d0565b92915050565b600081359050612439816131e7565b92915050565b60008151905061244e816131e7565b92915050565b60006020828403121561246657600080fd5b6000612474848285016123c1565b91505092915050565b60006020828403121561248f57600080fd5b600061249d848285016123eb565b91505092915050565b600080604083850312156124b957600080fd5b60006124c7858286016123c1565b92505060206124d88582860161242a565b9150509250929050565b6000806000606084860312156124f757600080fd5b6000612505868287016123c1565b93505060206125168682870161242a565b92505060406125278682870161242a565b9150509250925092565b6000806000806080858703121561254757600080fd5b6000612555878288016123c1565b94505060206125668782880161242a565b93505060406125778782880161242a565b9250506060612588878288016123c1565b91505092959194509250565b600080600080608085870312156125aa57600080fd5b60006125b8878288016123c1565b94505060206125c98782880161242a565b93505060406125da8782880161242a565b92505060606125eb8782880161242a565b91505092959194509250565b60006020828403121561260957600080fd5b600061261784828501612400565b91505092915050565b60006020828403121561263257600080fd5b600061264084828501612415565b91505092915050565b60006020828403121561265b57600080fd5b60006126698482850161242a565b91505092915050565b6000806040838503121561268557600080fd5b60006126938582860161243f565b92505060206126a4858286016123d6565b9150509250929050565b6126b781612e11565b82525050565b6126c681612d99565b82525050565b6126d581612d87565b82525050565b6126e481612d87565b82525050565b6126fb6126f682612d87565b612e8f565b82525050565b61270a81612e23565b82525050565b61271981612e47565b82525050565b61272881612e47565b82525050565b61273781612e59565b82525050565b61274681612e59565b82525050565b6000612759600e83612c61565b915061276482612f57565b602082019050919050565b600061277c602a83612c61565b915061278782612f80565b604082019050919050565b600061279f601183612c61565b91506127aa82612fcf565b602082019050919050565b60006127c2602683612c61565b91506127cd82612ff8565b604082019050919050565b60006127e5601883612c61565b91506127f082613047565b602082019050919050565b6000612808601e83612c61565b915061281382613070565b602082019050919050565b600061282b601a83612c61565b915061283682613099565b602082019050919050565b600061284e601b83612c61565b9150612859826130c2565b602082019050919050565b6000612871601e83612c61565b915061287c826130eb565b602082019050919050565b6000612894602683612c61565b915061289f82613114565b604082019050919050565b610100820160008201516128c160008501826126cc565b5060208201516128d4602085018261294c565b5060408201516128e7604085018261272e565b5060608201516128fa6060850182612710565b50608082015161290d608085018261294c565b5060a082015161292060a085018261294c565b5060c082015161293360c08501826126cc565b5060e082015161294660e08501826126cc565b50505050565b61295581612e07565b82525050565b61296481612e07565b82525050565b61297b61297682612e07565b612eb3565b82525050565b600061298d82856126ea565b60148201915061299d828461296a565b6020820191508190509392505050565b60006020820190506129c260008301846126db565b92915050565b60006020820190506129dd60008301846126bd565b92915050565b60006060820190506129f860008301866126db565b612a0560208301856126ae565b612a12604083018461295b565b949350505050565b6000606082019050612a2f60008301866126db565b612a3c60208301856126db565b612a49604083018461295b565b949350505050565b600061010082019050612a67600083018b6126db565b612a74602083018a61295b565b612a81604083018961273d565b612a8e606083018861271f565b612a9b608083018761295b565b612aa860a083018661295b565b612ab560c08301856126db565b612ac260e08301846126db565b9998505050505050505050565b6000602082019050612ae46000830184612701565b92915050565b60006020820190508181036000830152612b038161274c565b9050919050565b60006020820190508181036000830152612b238161276f565b9050919050565b60006020820190508181036000830152612b4381612792565b9050919050565b60006020820190508181036000830152612b63816127b5565b9050919050565b60006020820190508181036000830152612b83816127d8565b9050919050565b60006020820190508181036000830152612ba3816127fb565b9050919050565b60006020820190508181036000830152612bc38161281e565b9050919050565b60006020820190508181036000830152612be381612841565b9050919050565b60006020820190508181036000830152612c0381612864565b9050919050565b60006020820190508181036000830152612c2381612887565b9050919050565b600061010082019050612c4060008301846128aa565b92915050565b6000602082019050612c5b600083018461295b565b92915050565b600082825260208201905092915050565b6000612c7d82612e07565b9150612c8883612e07565b9250827fffffffffffffffffffffffffffffffffffffffffffffffffffffffffffffffff03821115612cbd57612cbc612ebd565b5b828201905092915050565b6000612cd382612e07565b9150612cde83612e07565b925082612cee57612ced612eec565b5b828204905092915050565b6000612d0482612e07565b9150612d0f83612e07565b9250817fffffffffffffffffffffffffffffffffffffffffffffffffffffffffffffffff0483118215151615612d4857612d47612ebd565b5b828202905092915050565b6000612d5e82612e07565b9150612d6983612e07565b925082821015612d7c57612d7b612ebd565b5b828203905092915050565b6000612d9282612de7565b9050919050565b6000612da482612de7565b9050919050565b60008115159050919050565b6000819050919050565b6000819050612dcf82613163565b919050565b6000819050612de282613177565b919050565b600073ffffffffffffffffffffffffffffffffffffffff82169050919050565b6000819050919050565b6000612e1c82612e6b565b9050919050565b6000612e2e82612e35565b9050919050565b6000612e4082612de7565b9050919050565b6000612e5282612dc1565b9050919050565b6000612e6482612dd4565b9050919050565b6000612e7682612e7d565b9050919050565b6000612e8882612de7565b9050919050565b6000612e9a82612ea1565b9050919050565b6000612eac82612f4a565b9050919050565b6000819050919050565b7f4e487b7100000000000000000000000000000000000000000000000000000000600052601160045260246000fd5b7f4e487b7100000000000000000000000000000000000000000000000000000000600052601260045260246000fd5b7f4e487b7100000000000000000000000000000000000000000000000000000000600052602160045260246000fd5b60008160601b9050919050565b7f6e6674206e6f74206f70656e6564000000000000000000000000000000000000600082015250565b7f4f776e61626c653a206f6e6c79206f776e65722063616e2063616c6c2074686960008201527f732066756e6374696f6e00000000000000000000000000000000000000000000602082015250565b7f56616c7565206e6f74206d617463686564000000000000000000000000000000600082015250565b7f4f776e61626c653a206e6577206f776e657220697320746865207a65726f206160008201527f6464726573730000000000000000000000000000000000000000000000000000602082015250565b7f6f6e6c7920666f72206d61726b6574206f70657261746f720000000000000000600082015250565b7f4d61726b6574206f7264657220697320616c7265616479206f70656e65640000600082015250565b7f4d61726b6574206f72646572206973206e6f74206f70656e6564000000000000600082015250565b7f6e6674206973206e6f74206f70656e20666f722041756374696f6e0000000000600082015250565b7f50726963652053686f756c642062652067726561746572207468656e20300000600082015250565b7f656e642050726963652053686f756c642062652067726561746572207468656e60008201527f2070726963650000000000000000000000000000000000000000000000000000602082015250565b6004811061317457613173612f1b565b5b50565b6003811061318857613187612f1b565b5b50565b61319481612d87565b811461319f57600080fd5b50565b6131ab81612d99565b81146131b657600080fd5b50565b6131c281612dab565b81146131cd57600080fd5b50565b6131d981612db7565b81146131e457600080fd5b50565b6131f081612e07565b81146131fb57600080fd5b5056fea264697066735822122067c97f23a8de3dae720f254c72c57b7a9dcaec99043d38ca2dc55665a82b601f64736f6c63430008040033",
					"opcodes": "PUSH1 0x80 PUSH1 0x40 MSTORE CALLVALUE DUP1 ISZERO PUSH3 0x11 JUMPI PUSH1 0x0 DUP1 REVERT JUMPDEST POP PUSH1 0x40 MLOAD PUSH3 0x3503 CODESIZE SUB DUP1 PUSH3 0x3503 DUP4 CODECOPY DUP2 DUP2 ADD PUSH1 0x40 MSTORE DUP2 ADD SWAP1 PUSH3 0x37 SWAP2 SWAP1 PUSH3 0x1C9 JUMP JUMPDEST CALLER PUSH1 0x0 DUP1 PUSH2 0x100 EXP DUP2 SLOAD DUP2 PUSH20 0xFFFFFFFFFFFFFFFFFFFFFFFFFFFFFFFFFFFFFFFF MUL NOT AND SWAP1 DUP4 PUSH20 0xFFFFFFFFFFFFFFFFFFFFFFFFFFFFFFFFFFFFFFFF AND MUL OR SWAP1 SSTORE POP PUSH1 0x0 DUP1 SLOAD SWAP1 PUSH2 0x100 EXP SWAP1 DIV PUSH20 0xFFFFFFFFFFFFFFFFFFFFFFFFFFFFFFFFFFFFFFFF AND PUSH20 0xFFFFFFFFFFFFFFFFFFFFFFFFFFFFFFFFFFFFFFFF AND PUSH1 0x0 PUSH20 0xFFFFFFFFFFFFFFFFFFFFFFFFFFFFFFFFFFFFFFFF AND PUSH32 0x8BE0079C531659141344CD1FD0A4F28419497F9722A3DAAFE3B4186F6B6457E0 PUSH1 0x40 MLOAD PUSH1 0x40 MLOAD DUP1 SWAP2 SUB SWAP1 LOG3 DUP2 PUSH1 0x2 DUP2 SWAP1 SSTORE POP DUP1 PUSH1 0x3 PUSH1 0x0 PUSH2 0x100 EXP DUP2 SLOAD DUP2 PUSH20 0xFFFFFFFFFFFFFFFFFFFFFFFFFFFFFFFFFFFFFFFF MUL NOT AND SWAP1 DUP4 PUSH20 0xFFFFFFFFFFFFFFFFFFFFFFFFFFFFFFFFFFFFFFFF AND MUL OR SWAP1 SSTORE POP DUP3 PUSH1 0x1 PUSH1 0x0 PUSH2 0x100 EXP DUP2 SLOAD DUP2 PUSH20 0xFFFFFFFFFFFFFFFFFFFFFFFFFFFFFFFFFFFFFFFF MUL NOT AND SWAP1 DUP4 PUSH20 0xFFFFFFFFFFFFFFFFFFFFFFFFFFFFFFFFFFFFFFFF AND MUL OR SWAP1 SSTORE POP POP POP POP PUSH3 0x2BF JUMP JUMPDEST PUSH1 0x0 DUP2 MLOAD SWAP1 POP PUSH3 0x195 DUP2 PUSH3 0x271 JUMP JUMPDEST SWAP3 SWAP2 POP POP JUMP JUMPDEST PUSH1 0x0 DUP2 MLOAD SWAP1 POP PUSH3 0x1AC DUP2 PUSH3 0x28B JUMP JUMPDEST SWAP3 SWAP2 POP POP JUMP JUMPDEST PUSH1 0x0 DUP2 MLOAD SWAP1 POP PUSH3 0x1C3 DUP2 PUSH3 0x2A5 JUMP JUMPDEST SWAP3 SWAP2 POP POP JUMP JUMPDEST PUSH1 0x0 DUP1 PUSH1 0x0 PUSH1 0x60 DUP5 DUP7 SUB SLT ISZERO PUSH3 0x1DF JUMPI PUSH1 0x0 DUP1 REVERT JUMPDEST PUSH1 0x0 PUSH3 0x1EF DUP7 DUP3 DUP8 ADD PUSH3 0x184 JUMP JUMPDEST SWAP4 POP POP PUSH1 0x20 PUSH3 0x202 DUP7 DUP3 DUP8 ADD PUSH3 0x1B2 JUMP JUMPDEST SWAP3 POP POP PUSH1 0x40 PUSH3 0x215 DUP7 DUP3 DUP8 ADD PUSH3 0x19B JUMP JUMPDEST SWAP2 POP POP SWAP3 POP SWAP3 POP SWAP3 JUMP JUMPDEST PUSH1 0x0 PUSH3 0x22C DUP3 PUSH3 0x247 JUMP JUMPDEST SWAP1 POP SWAP2 SWAP1 POP JUMP JUMPDEST PUSH1 0x0 PUSH3 0x240 DUP3 PUSH3 0x247 JUMP JUMPDEST SWAP1 POP SWAP2 SWAP1 POP JUMP JUMPDEST PUSH1 0x0 PUSH20 0xFFFFFFFFFFFFFFFFFFFFFFFFFFFFFFFFFFFFFFFF DUP3 AND SWAP1 POP SWAP2 SWAP1 POP JUMP JUMPDEST PUSH1 0x0 DUP2 SWAP1 POP SWAP2 SWAP1 POP JUMP JUMPDEST PUSH3 0x27C DUP2 PUSH3 0x21F JUMP JUMPDEST DUP2 EQ PUSH3 0x288 JUMPI PUSH1 0x0 DUP1 REVERT JUMPDEST POP JUMP JUMPDEST PUSH3 0x296 DUP2 PUSH3 0x233 JUMP JUMPDEST DUP2 EQ PUSH3 0x2A2 JUMPI PUSH1 0x0 DUP1 REVERT JUMPDEST POP JUMP JUMPDEST PUSH3 0x2B0 DUP2 PUSH3 0x267 JUMP JUMPDEST DUP2 EQ PUSH3 0x2BC JUMPI PUSH1 0x0 DUP1 REVERT JUMPDEST POP JUMP JUMPDEST PUSH2 0x3234 DUP1 PUSH3 0x2CF PUSH1 0x0 CODECOPY PUSH1 0x0 RETURN INVALID PUSH1 0x80 PUSH1 0x40 MSTORE CALLVALUE DUP1 ISZERO PUSH2 0x10 JUMPI PUSH1 0x0 DUP1 REVERT JUMPDEST POP PUSH1 0x4 CALLDATASIZE LT PUSH2 0x100 JUMPI PUSH1 0x0 CALLDATALOAD PUSH1 0xE0 SHR DUP1 PUSH4 0x9677D02E GT PUSH2 0x97 JUMPI DUP1 PUSH4 0xDE562487 GT PUSH2 0x66 JUMPI DUP1 PUSH4 0xDE562487 EQ PUSH2 0x278 JUMPI DUP1 PUSH4 0xEC102464 EQ PUSH2 0x294 JUMPI DUP1 PUSH4 0xF2FDE38B EQ PUSH2 0x2B0 JUMPI DUP1 PUSH4 0xF699343E EQ PUSH2 0x2CC JUMPI PUSH2 0x100 JUMP JUMPDEST DUP1 PUSH4 0x9677D02E EQ PUSH2 0x206 JUMPI DUP1 PUSH4 0x98590EF9 EQ PUSH2 0x222 JUMPI DUP1 PUSH4 0xAE06C1B7 EQ PUSH2 0x23E JUMPI DUP1 PUSH4 0xCB278AAD EQ PUSH2 0x25A JUMPI PUSH2 0x100 JUMP JUMPDEST DUP1 PUSH4 0x6548D2C2 GT PUSH2 0xD3 JUMPI DUP1 PUSH4 0x6548D2C2 EQ PUSH2 0x177 JUMPI DUP1 PUSH4 0x715018A6 EQ PUSH2 0x1A7 JUMPI DUP1 PUSH4 0x7564912B EQ PUSH2 0x1B1 JUMPI DUP1 PUSH4 0x8DA5CB5B EQ PUSH2 0x1E8 JUMPI PUSH2 0x100 JUMP JUMPDEST DUP1 PUSH4 0x10AE7085 EQ PUSH2 0x105 JUMPI DUP1 PUSH4 0x1F40FF84 EQ PUSH2 0x123 JUMPI DUP1 PUSH4 0x26F8A07A EQ PUSH2 0x13F JUMPI DUP1 PUSH4 0x3DFE9242 EQ PUSH2 0x15B JUMPI JUMPDEST PUSH1 0x0 DUP1 REVERT JUMPDEST PUSH2 0x10D PUSH2 0x2EA JUMP JUMPDEST PUSH1 0x40 MLOAD PUSH2 0x11A SWAP2 SWAP1 PUSH2 0x29C8 JUMP JUMPDEST PUSH1 0x40 MLOAD DUP1 SWAP2 SUB SWAP1 RETURN JUMPDEST PUSH2 0x13D PUSH1 0x4 DUP1 CALLDATASIZE SUB DUP2 ADD SWAP1 PUSH2 0x138 SWAP2 SWAP1 PUSH2 0x2531 JUMP JUMPDEST PUSH2 0x310 JUMP JUMPDEST STOP JUMPDEST PUSH2 0x159 PUSH1 0x4 DUP1 CALLDATASIZE SUB DUP2 ADD SWAP1 PUSH2 0x154 SWAP2 SWAP1 PUSH2 0x247D JUMP JUMPDEST PUSH2 0xAC6 JUMP JUMPDEST STOP JUMPDEST PUSH2 0x175 PUSH1 0x4 DUP1 CALLDATASIZE SUB DUP2 ADD SWAP1 PUSH2 0x170 SWAP2 SWAP1 PUSH2 0x24E2 JUMP JUMPDEST PUSH2 0xB98 JUMP JUMPDEST STOP JUMPDEST PUSH2 0x191 PUSH1 0x4 DUP1 CALLDATASIZE SUB DUP2 ADD SWAP1 PUSH2 0x18C SWAP2 SWAP1 PUSH2 0x24A6 JUMP JUMPDEST PUSH2 0x143D JUMP JUMPDEST PUSH1 0x40 MLOAD PUSH2 0x19E SWAP2 SWAP1 PUSH2 0x2C2A JUMP JUMPDEST PUSH1 0x40 MLOAD DUP1 SWAP2 SUB SWAP1 RETURN JUMPDEST PUSH2 0x1AF PUSH2 0x16A9 JUMP JUMPDEST STOP JUMPDEST PUSH2 0x1CB PUSH1 0x4 DUP1 CALLDATASIZE SUB DUP2 ADD SWAP1 PUSH2 0x1C6 SWAP2 SWAP1 PUSH2 0x2620 JUMP JUMPDEST PUSH2 0x17F5 JUMP JUMPDEST PUSH1 0x40 MLOAD PUSH2 0x1DF SWAP9 SWAP8 SWAP7 SWAP6 SWAP5 SWAP4 SWAP3 SWAP2 SWAP1 PUSH2 0x2A51 JUMP JUMPDEST PUSH1 0x40 MLOAD DUP1 SWAP2 SUB SWAP1 RETURN JUMPDEST PUSH2 0x1F0 PUSH2 0x18B7 JUMP JUMPDEST PUSH1 0x40 MLOAD PUSH2 0x1FD SWAP2 SWAP1 PUSH2 0x29AD JUMP JUMPDEST PUSH1 0x40 MLOAD DUP1 SWAP2 SUB SWAP1 RETURN JUMPDEST PUSH2 0x220 PUSH1 0x4 DUP1 CALLDATASIZE SUB DUP2 ADD SWAP1 PUSH2 0x21B SWAP2 SWAP1 PUSH2 0x2594 JUMP JUMPDEST PUSH2 0x18E0 JUMP JUMPDEST STOP JUMPDEST PUSH2 0x23C PUSH1 0x4 DUP1 CALLDATASIZE SUB DUP2 ADD SWAP1 PUSH2 0x237 SWAP2 SWAP1 PUSH2 0x24A6 JUMP JUMPDEST PUSH2 0x18F4 JUMP JUMPDEST STOP JUMPDEST PUSH2 0x258 PUSH1 0x4 DUP1 CALLDATASIZE SUB DUP2 ADD SWAP1 PUSH2 0x253 SWAP2 SWAP1 PUSH2 0x2649 JUMP JUMPDEST PUSH2 0x1AEC JUMP JUMPDEST STOP JUMPDEST PUSH2 0x262 PUSH2 0x1B84 JUMP JUMPDEST PUSH1 0x40 MLOAD PUSH2 0x26F SWAP2 SWAP1 PUSH2 0x2ACF JUMP JUMPDEST PUSH1 0x40 MLOAD DUP1 SWAP2 SUB SWAP1 RETURN JUMPDEST PUSH2 0x292 PUSH1 0x4 DUP1 CALLDATASIZE SUB DUP2 ADD SWAP1 PUSH2 0x28D SWAP2 SWAP1 PUSH2 0x2454 JUMP JUMPDEST PUSH2 0x1BAA JUMP JUMPDEST STOP JUMPDEST PUSH2 0x2AE PUSH1 0x4 DUP1 CALLDATASIZE SUB DUP2 ADD SWAP1 PUSH2 0x2A9 SWAP2 SWAP1 PUSH2 0x24E2 JUMP JUMPDEST PUSH2 0x1C7C JUMP JUMPDEST STOP JUMPDEST PUSH2 0x2CA PUSH1 0x4 DUP1 CALLDATASIZE SUB DUP2 ADD SWAP1 PUSH2 0x2C5 SWAP2 SWAP1 PUSH2 0x2454 JUMP JUMPDEST PUSH2 0x1C90 JUMP JUMPDEST STOP JUMPDEST PUSH2 0x2D4 PUSH2 0x1D2A JUMP JUMPDEST PUSH1 0x40 MLOAD PUSH2 0x2E1 SWAP2 SWAP1 PUSH2 0x2C46 JUMP JUMPDEST PUSH1 0x40 MLOAD DUP1 SWAP2 SUB SWAP1 RETURN JUMPDEST PUSH1 0x3 PUSH1 0x0 SWAP1 SLOAD SWAP1 PUSH2 0x100 EXP SWAP1 DIV PUSH20 0xFFFFFFFFFFFFFFFFFFFFFFFFFFFFFFFFFFFFFFFF AND DUP2 JUMP JUMPDEST PUSH1 0x0 PUSH2 0x31C DUP6 DUP6 PUSH2 0x1D30 JUMP JUMPDEST SWAP1 POP CALLER PUSH20 0xFFFFFFFFFFFFFFFFFFFFFFFFFFFFFFFFFFFFFFFF AND PUSH1 0x4 PUSH1 0x0 DUP4 DUP2 MSTORE PUSH1 0x20 ADD SWAP1 DUP2 MSTORE PUSH1 0x20 ADD PUSH1 0x0 KECCAK256 PUSH1 0x5 ADD PUSH1 0x0 SWAP1 SLOAD SWAP1 PUSH2 0x100 EXP SWAP1 DIV PUSH20 0xFFFFFFFFFFFFFFFFFFFFFFFFFFFFFFFFFFFFFFFF AND PUSH20 0xFFFFFFFFFFFFFFFFFFFFFFFFFFFFFFFFFFFFFFFF AND EQ PUSH2 0x3C2 JUMPI PUSH1 0x40 MLOAD PUSH32 0x8C379A000000000000000000000000000000000000000000000000000000000 DUP2 MSTORE PUSH1 0x4 ADD PUSH2 0x3B9 SWAP1 PUSH2 0x2B6A JUMP JUMPDEST PUSH1 0x40 MLOAD DUP1 SWAP2 SUB SWAP1 REVERT JUMPDEST PUSH1 0x1 PUSH1 0x3 DUP2 GT ISZERO PUSH2 0x3FC JUMPI PUSH32 0x4E487B7100000000000000000000000000000000000000000000000000000000 PUSH1 0x0 MSTORE PUSH1 0x21 PUSH1 0x4 MSTORE PUSH1 0x24 PUSH1 0x0 REVERT JUMPDEST PUSH1 0x4 PUSH1 0x0 DUP4 DUP2 MSTORE PUSH1 0x20 ADD SWAP1 DUP2 MSTORE PUSH1 0x20 ADD PUSH1 0x0 KECCAK256 PUSH1 0x2 ADD PUSH1 0x1 SWAP1 SLOAD SWAP1 PUSH2 0x100 EXP SWAP1 DIV PUSH1 0xFF AND PUSH1 0x3 DUP2 GT ISZERO PUSH2 0x458 JUMPI PUSH32 0x4E487B7100000000000000000000000000000000000000000000000000000000 PUSH1 0x0 MSTORE PUSH1 0x21 PUSH1 0x4 MSTORE PUSH1 0x24 PUSH1 0x0 REVERT JUMPDEST EQ ISZERO PUSH2 0xA84 JUMPI PUSH1 0x2 DUP1 DUP2 GT ISZERO PUSH2 0x497 JUMPI PUSH32 0x4E487B7100000000000000000000000000000000000000000000000000000000 PUSH1 0x0 MSTORE PUSH1 0x21 PUSH1 0x4 MSTORE PUSH1 0x24 PUSH1 0x0 REVERT JUMPDEST PUSH1 0x4 PUSH1 0x0 DUP4 DUP2 MSTORE PUSH1 0x20 ADD SWAP1 DUP2 MSTORE PUSH1 0x20 ADD PUSH1 0x0 KECCAK256 PUSH1 0x2 ADD PUSH1 0x0 SWAP1 SLOAD SWAP1 PUSH2 0x100 EXP SWAP1 DIV PUSH1 0xFF AND PUSH1 0x2 DUP2 GT ISZERO PUSH2 0x4F3 JUMPI PUSH32 0x4E487B7100000000000000000000000000000000000000000000000000000000 PUSH1 0x0 MSTORE PUSH1 0x21 PUSH1 0x4 MSTORE PUSH1 0x24 PUSH1 0x0 REVERT JUMPDEST EQ PUSH2 0x533 JUMPI PUSH1 0x40 MLOAD PUSH32 0x8C379A000000000000000000000000000000000000000000000000000000000 DUP2 MSTORE PUSH1 0x4 ADD PUSH2 0x52A SWAP1 PUSH2 0x2BCA JUMP JUMPDEST PUSH1 0x40 MLOAD DUP1 SWAP2 SUB SWAP1 REVERT JUMPDEST DUP3 PUSH1 0x4 PUSH1 0x0 DUP4 DUP2 MSTORE PUSH1 0x20 ADD SWAP1 DUP2 MSTORE PUSH1 0x20 ADD PUSH1 0x0 KECCAK256 PUSH1 0x3 ADD SLOAD LT ISZERO PUSH2 0xA44 JUMPI PUSH1 0x0 PUSH1 0x4 PUSH1 0x0 DUP4 DUP2 MSTORE PUSH1 0x20 ADD SWAP1 DUP2 MSTORE PUSH1 0x20 ADD PUSH1 0x0 KECCAK256 PUSH1 0x0 ADD PUSH1 0x0 SWAP1 SLOAD SWAP1 PUSH2 0x100 EXP SWAP1 DIV PUSH20 0xFFFFFFFFFFFFFFFFFFFFFFFFFFFFFFFFFFFFFFFF AND SWAP1 POP PUSH1 0x0 PUSH2 0x59A DUP6 PUSH1 0x2 SLOAD PUSH2 0x1D63 JUMP JUMPDEST SWAP1 POP PUSH1 0x0 DUP2 GT ISZERO PUSH2 0x67A JUMPI PUSH1 0x1 PUSH1 0x0 SWAP1 SLOAD SWAP1 PUSH2 0x100 EXP SWAP1 DIV PUSH20 0xFFFFFFFFFFFFFFFFFFFFFFFFFFFFFFFFFFFFFFFF AND PUSH20 0xFFFFFFFFFFFFFFFFFFFFFFFFFFFFFFFFFFFFFFFF AND PUSH4 0x23B872DD DUP6 PUSH1 0x3 PUSH1 0x0 SWAP1 SLOAD SWAP1 PUSH2 0x100 EXP SWAP1 DIV PUSH20 0xFFFFFFFFFFFFFFFFFFFFFFFFFFFFFFFFFFFFFFFF AND DUP5 PUSH1 0x40 MLOAD DUP5 PUSH4 0xFFFFFFFF AND PUSH1 0xE0 SHL DUP2 MSTORE PUSH1 0x4 ADD PUSH2 0x626 SWAP4 SWAP3 SWAP2 SWAP1 PUSH2 0x29E3 JUMP JUMPDEST PUSH1 0x20 PUSH1 0x40 MLOAD DUP1 DUP4 SUB DUP2 PUSH1 0x0 DUP8 DUP1 EXTCODESIZE ISZERO DUP1 ISZERO PUSH2 0x640 JUMPI PUSH1 0x0 DUP1 REVERT JUMPDEST POP GAS CALL ISZERO DUP1 ISZERO PUSH2 0x654 JUMPI RETURNDATASIZE PUSH1 0x0 DUP1 RETURNDATACOPY RETURNDATASIZE PUSH1 0x0 REVERT JUMPDEST POP POP POP POP PUSH1 0x40 MLOAD RETURNDATASIZE PUSH1 0x1F NOT PUSH1 0x1F DUP3 ADD AND DUP3 ADD DUP1 PUSH1 0x40 MSTORE POP DUP2 ADD SWAP1 PUSH2 0x678 SWAP2 SWAP1 PUSH2 0x25F7 JUMP JUMPDEST POP JUMPDEST PUSH1 0x0 DUP1 DUP4 PUSH20 0xFFFFFFFFFFFFFFFFFFFFFFFFFFFFFFFFFFFFFFFF AND PUSH4 0x179EFA20 DUP10 PUSH1 0x40 MLOAD DUP3 PUSH4 0xFFFFFFFF AND PUSH1 0xE0 SHL DUP2 MSTORE PUSH1 0x4 ADD PUSH2 0x6B6 SWAP2 SWAP1 PUSH2 0x2C46 JUMP JUMPDEST PUSH1 0x40 DUP1 MLOAD DUP1 DUP4 SUB DUP2 DUP7 DUP1 EXTCODESIZE ISZERO DUP1 ISZERO PUSH2 0x6CD JUMPI PUSH1 0x0 DUP1 REVERT JUMPDEST POP GAS STATICCALL ISZERO DUP1 ISZERO PUSH2 0x6E1 JUMPI RETURNDATASIZE PUSH1 0x0 DUP1 RETURNDATACOPY RETURNDATASIZE PUSH1 0x0 REVERT JUMPDEST POP POP POP POP PUSH1 0x40 MLOAD RETURNDATASIZE PUSH1 0x1F NOT PUSH1 0x1F DUP3 ADD AND DUP3 ADD DUP1 PUSH1 0x40 MSTORE POP DUP2 ADD SWAP1 PUSH2 0x705 SWAP2 SWAP1 PUSH2 0x2672 JUMP JUMPDEST SWAP2 POP SWAP2 POP PUSH1 0x0 PUSH2 0x715 DUP9 DUP5 PUSH2 0x1D63 JUMP JUMPDEST SWAP1 POP PUSH1 0x1 PUSH1 0x0 SWAP1 SLOAD SWAP1 PUSH2 0x100 EXP SWAP1 DIV PUSH20 0xFFFFFFFFFFFFFFFFFFFFFFFFFFFFFFFFFFFFFFFF AND PUSH20 0xFFFFFFFFFFFFFFFFFFFFFFFFFFFFFFFFFFFFFFFF AND PUSH4 0x23B872DD DUP9 DUP5 DUP5 PUSH1 0x40 MLOAD DUP5 PUSH4 0xFFFFFFFF AND PUSH1 0xE0 SHL DUP2 MSTORE PUSH1 0x4 ADD PUSH2 0x776 SWAP4 SWAP3 SWAP2 SWAP1 PUSH2 0x2A1A JUMP JUMPDEST PUSH1 0x20 PUSH1 0x40 MLOAD DUP1 DUP4 SUB DUP2 PUSH1 0x0 DUP8 DUP1 EXTCODESIZE ISZERO DUP1 ISZERO PUSH2 0x790 JUMPI PUSH1 0x0 DUP1 REVERT JUMPDEST POP GAS CALL ISZERO DUP1 ISZERO PUSH2 0x7A4 JUMPI RETURNDATASIZE PUSH1 0x0 DUP1 RETURNDATACOPY RETURNDATASIZE PUSH1 0x0 REVERT JUMPDEST POP POP POP POP PUSH1 0x40 MLOAD RETURNDATASIZE PUSH1 0x1F NOT PUSH1 0x1F DUP3 ADD AND DUP3 ADD DUP1 PUSH1 0x40 MSTORE POP DUP2 ADD SWAP1 PUSH2 0x7C8 SWAP2 SWAP1 PUSH2 0x25F7 JUMP JUMPDEST POP PUSH1 0x0 PUSH2 0x7F0 PUSH2 0x7E1 DUP4 DUP8 PUSH2 0x1D93 SWAP1 SWAP2 SWAP1 PUSH4 0xFFFFFFFF AND JUMP JUMPDEST DUP11 PUSH2 0x1DA9 SWAP1 SWAP2 SWAP1 PUSH4 0xFFFFFFFF AND JUMP JUMPDEST SWAP1 POP PUSH1 0x1 PUSH1 0x0 SWAP1 SLOAD SWAP1 PUSH2 0x100 EXP SWAP1 DIV PUSH20 0xFFFFFFFFFFFFFFFFFFFFFFFFFFFFFFFFFFFFFFFF AND PUSH20 0xFFFFFFFFFFFFFFFFFFFFFFFFFFFFFFFFFFFFFFFF AND PUSH4 0x23B872DD DUP10 PUSH1 0x4 PUSH1 0x0 DUP12 DUP2 MSTORE PUSH1 0x20 ADD SWAP1 DUP2 MSTORE PUSH1 0x20 ADD PUSH1 0x0 KECCAK256 PUSH1 0x5 ADD PUSH1 0x0 SWAP1 SLOAD SWAP1 PUSH2 0x100 EXP SWAP1 DIV PUSH20 0xFFFFFFFFFFFFFFFFFFFFFFFFFFFFFFFFFFFFFFFF AND DUP5 PUSH1 0x40 MLOAD DUP5 PUSH4 0xFFFFFFFF AND PUSH1 0xE0 SHL DUP2 MSTORE PUSH1 0x4 ADD PUSH2 0x887 SWAP4 SWAP3 SWAP2 SWAP1 PUSH2 0x2A1A JUMP JUMPDEST PUSH1 0x20 PUSH1 0x40 MLOAD DUP1 DUP4 SUB DUP2 PUSH1 0x0 DUP8 DUP1 EXTCODESIZE ISZERO DUP1 ISZERO PUSH2 0x8A1 JUMPI PUSH1 0x0 DUP1 REVERT JUMPDEST POP GAS CALL ISZERO DUP1 ISZERO PUSH2 0x8B5 JUMPI RETURNDATASIZE PUSH1 0x0 DUP1 RETURNDATACOPY RETURNDATASIZE PUSH1 0x0 REVERT JUMPDEST POP POP POP POP PUSH1 0x40 MLOAD RETURNDATASIZE PUSH1 0x1F NOT PUSH1 0x1F DUP3 ADD AND DUP3 ADD DUP1 PUSH1 0x40 MSTORE POP DUP2 ADD SWAP1 PUSH2 0x8D9 SWAP2 SWAP1 PUSH2 0x25F7 JUMP JUMPDEST POP DUP6 PUSH20 0xFFFFFFFFFFFFFFFFFFFFFFFFFFFFFFFFFFFFFFFF AND PUSH4 0x42842E0E PUSH1 0x4 PUSH1 0x0 DUP11 DUP2 MSTORE PUSH1 0x20 ADD SWAP1 DUP2 MSTORE PUSH1 0x20 ADD PUSH1 0x0 KECCAK256 PUSH1 0x5 ADD PUSH1 0x0 SWAP1 SLOAD SWAP1 PUSH2 0x100 EXP SWAP1 DIV PUSH20 0xFFFFFFFFFFFFFFFFFFFFFFFFFFFFFFFFFFFFFFFF AND DUP11 DUP14 PUSH1 0x40 MLOAD DUP5 PUSH4 0xFFFFFFFF AND PUSH1 0xE0 SHL DUP2 MSTORE PUSH1 0x4 ADD PUSH2 0x94D SWAP4 SWAP3 SWAP2 SWAP1 PUSH2 0x2A1A JUMP JUMPDEST PUSH1 0x0 PUSH1 0x40 MLOAD DUP1 DUP4 SUB DUP2 PUSH1 0x0 DUP8 DUP1 EXTCODESIZE ISZERO DUP1 ISZERO PUSH2 0x967 JUMPI PUSH1 0x0 DUP1 REVERT JUMPDEST POP GAS CALL ISZERO DUP1 ISZERO PUSH2 0x97B JUMPI RETURNDATASIZE PUSH1 0x0 DUP1 RETURNDATACOPY RETURNDATASIZE PUSH1 0x0 REVERT JUMPDEST POP POP POP POP PUSH1 0x3 PUSH1 0x4 PUSH1 0x0 DUP10 DUP2 MSTORE PUSH1 0x20 ADD SWAP1 DUP2 MSTORE PUSH1 0x20 ADD PUSH1 0x0 KECCAK256 PUSH1 0x2 ADD PUSH1 0x1 PUSH2 0x100 EXP DUP2 SLOAD DUP2 PUSH1 0xFF MUL NOT AND SWAP1 DUP4 PUSH1 0x3 DUP2 GT ISZERO PUSH2 0x9DF JUMPI PUSH32 0x4E487B7100000000000000000000000000000000000000000000000000000000 PUSH1 0x0 MSTORE PUSH1 0x21 PUSH1 0x4 MSTORE PUSH1 0x24 PUSH1 0x0 REVERT JUMPDEST MUL OR SWAP1 SSTORE POP DUP8 PUSH1 0x4 PUSH1 0x0 DUP10 DUP2 MSTORE PUSH1 0x20 ADD SWAP1 DUP2 MSTORE PUSH1 0x20 ADD PUSH1 0x0 KECCAK256 PUSH1 0x6 ADD PUSH1 0x0 PUSH2 0x100 EXP DUP2 SLOAD DUP2 PUSH20 0xFFFFFFFFFFFFFFFFFFFFFFFFFFFFFFFFFFFFFFFF MUL NOT AND SWAP1 DUP4 PUSH20 0xFFFFFFFFFFFFFFFFFFFFFFFFFFFFFFFFFFFFFFFF AND MUL OR SWAP1 SSTORE POP POP POP POP POP POP POP PUSH2 0xA7F JUMP JUMPDEST PUSH1 0x40 MLOAD PUSH32 0x8C379A000000000000000000000000000000000000000000000000000000000 DUP2 MSTORE PUSH1 0x4 ADD PUSH2 0xA76 SWAP1 PUSH2 0x2B2A JUMP JUMPDEST PUSH1 0x40 MLOAD DUP1 SWAP2 SUB SWAP1 REVERT JUMPDEST PUSH2 0xABF JUMP JUMPDEST PUSH1 0x40 MLOAD PUSH32 0x8C379A000000000000000000000000000000000000000000000000000000000 DUP2 MSTORE PUSH1 0x4 ADD PUSH2 0xAB6 SWAP1 PUSH2 0x2BAA JUMP JUMPDEST PUSH1 0x40 MLOAD DUP1 SWAP2 SUB SWAP1 REVERT JUMPDEST POP POP POP POP POP JUMP JUMPDEST CALLER PUSH20 0xFFFFFFFFFFFFFFFFFFFFFFFFFFFFFFFFFFFFFFFF AND PUSH1 0x0 DUP1 SLOAD SWAP1 PUSH2 0x100 EXP SWAP1 DIV PUSH20 0xFFFFFFFFFFFFFFFFFFFFFFFFFFFFFFFFFFFFFFFF AND PUSH20 0xFFFFFFFFFFFFFFFFFFFFFFFFFFFFFFFFFFFFFFFF AND EQ PUSH2 0xB54 JUMPI PUSH1 0x40 MLOAD PUSH32 0x8C379A000000000000000000000000000000000000000000000000000000000 DUP2 MSTORE PUSH1 0x4 ADD PUSH2 0xB4B SWAP1 PUSH2 0x2B0A JUMP JUMPDEST PUSH1 0x40 MLOAD DUP1 SWAP2 SUB SWAP1 REVERT JUMPDEST DUP1 PUSH1 0x3 PUSH1 0x0 PUSH2 0x100 EXP DUP2 SLOAD DUP2 PUSH20 0xFFFFFFFFFFFFFFFFFFFFFFFFFFFFFFFFFFFFFFFF MUL NOT AND SWAP1 DUP4 PUSH20 0xFFFFFFFFFFFFFFFFFFFFFFFFFFFFFFFFFFFFFFFF AND MUL OR SWAP1 SSTORE POP POP JUMP JUMPDEST PUSH1 0x0 PUSH2 0xBA4 DUP5 DUP5 PUSH2 0x1D30 JUMP JUMPDEST SWAP1 POP PUSH1 0x1 PUSH1 0x3 DUP2 GT ISZERO PUSH2 0xBE0 JUMPI PUSH32 0x4E487B7100000000000000000000000000000000000000000000000000000000 PUSH1 0x0 MSTORE PUSH1 0x21 PUSH1 0x4 MSTORE PUSH1 0x24 PUSH1 0x0 REVERT JUMPDEST PUSH1 0x4 PUSH1 0x0 DUP4 DUP2 MSTORE PUSH1 0x20 ADD SWAP1 DUP2 MSTORE PUSH1 0x20 ADD PUSH1 0x0 KECCAK256 PUSH1 0x2 ADD PUSH1 0x1 SWAP1 SLOAD SWAP1 PUSH2 0x100 EXP SWAP1 DIV PUSH1 0xFF AND PUSH1 0x3 DUP2 GT ISZERO PUSH2 0xC3C JUMPI PUSH32 0x4E487B7100000000000000000000000000000000000000000000000000000000 PUSH1 0x0 MSTORE PUSH1 0x21 PUSH1 0x4 MSTORE PUSH1 0x24 PUSH1 0x0 REVERT JUMPDEST EQ ISZERO PUSH2 0x13FC JUMPI PUSH1 0x0 PUSH1 0x2 DUP2 GT ISZERO PUSH2 0xC7C JUMPI PUSH32 0x4E487B7100000000000000000000000000000000000000000000000000000000 PUSH1 0x0 MSTORE PUSH1 0x21 PUSH1 0x4 MSTORE PUSH1 0x24 PUSH1 0x0 REVERT JUMPDEST PUSH1 0x4 PUSH1 0x0 DUP4 DUP2 MSTORE PUSH1 0x20 ADD SWAP1 DUP2 MSTORE PUSH1 0x20 ADD PUSH1 0x0 KECCAK256 PUSH1 0x2 ADD PUSH1 0x0 SWAP1 SLOAD SWAP1 PUSH2 0x100 EXP SWAP1 DIV PUSH1 0xFF AND PUSH1 0x2 DUP2 GT ISZERO PUSH2 0xCD8 JUMPI PUSH32 0x4E487B7100000000000000000000000000000000000000000000000000000000 PUSH1 0x0 MSTORE PUSH1 0x21 PUSH1 0x4 MSTORE PUSH1 0x24 PUSH1 0x0 REVERT JUMPDEST EQ ISZERO PUSH2 0xD19 JUMPI PUSH1 0x40 MLOAD PUSH32 0x8C379A000000000000000000000000000000000000000000000000000000000 DUP2 MSTORE PUSH1 0x4 ADD PUSH2 0xD10 SWAP1 PUSH2 0x2AEA JUMP JUMPDEST PUSH1 0x40 MLOAD DUP1 SWAP2 SUB SWAP1 REVERT JUMPDEST PUSH1 0x1 PUSH1 0x2 DUP2 GT ISZERO PUSH2 0xD53 JUMPI PUSH32 0x4E487B7100000000000000000000000000000000000000000000000000000000 PUSH1 0x0 MSTORE PUSH1 0x21 PUSH1 0x4 MSTORE PUSH1 0x24 PUSH1 0x0 REVERT JUMPDEST PUSH1 0x4 PUSH1 0x0 DUP4 DUP2 MSTORE PUSH1 0x20 ADD SWAP1 DUP2 MSTORE PUSH1 0x20 ADD PUSH1 0x0 KECCAK256 PUSH1 0x2 ADD PUSH1 0x0 SWAP1 SLOAD SWAP1 PUSH2 0x100 EXP SWAP1 DIV PUSH1 0xFF AND PUSH1 0x2 DUP2 GT ISZERO PUSH2 0xDAF JUMPI PUSH32 0x4E487B7100000000000000000000000000000000000000000000000000000000 PUSH1 0x0 MSTORE PUSH1 0x21 PUSH1 0x4 MSTORE PUSH1 0x24 PUSH1 0x0 REVERT JUMPDEST EQ ISZERO PUSH2 0xE13 JUMPI DUP2 PUSH1 0x4 PUSH1 0x0 DUP4 DUP2 MSTORE PUSH1 0x20 ADD SWAP1 DUP2 MSTORE PUSH1 0x20 ADD PUSH1 0x0 KECCAK256 PUSH1 0x3 ADD SLOAD LT ISZERO PUSH2 0xE0E JUMPI PUSH1 0x40 MLOAD PUSH32 0x8C379A000000000000000000000000000000000000000000000000000000000 DUP2 MSTORE PUSH1 0x4 ADD PUSH2 0xE05 SWAP1 PUSH2 0x2B2A JUMP JUMPDEST PUSH1 0x40 MLOAD DUP1 SWAP2 SUB SWAP1 REVERT JUMPDEST PUSH2 0xF09 JUMP JUMPDEST PUSH1 0x2 DUP1 DUP2 GT ISZERO PUSH2 0xE4C JUMPI PUSH32 0x4E487B7100000000000000000000000000000000000000000000000000000000 PUSH1 0x0 MSTORE PUSH1 0x21 PUSH1 0x4 MSTORE PUSH1 0x24 PUSH1 0x0 REVERT JUMPDEST PUSH1 0x4 PUSH1 0x0 DUP4 DUP2 MSTORE PUSH1 0x20 ADD SWAP1 DUP2 MSTORE PUSH1 0x20 ADD PUSH1 0x0 KECCAK256 PUSH1 0x2 ADD PUSH1 0x0 SWAP1 SLOAD SWAP1 PUSH2 0x100 EXP SWAP1 DIV PUSH1 0xFF AND PUSH1 0x2 DUP2 GT ISZERO PUSH2 0xEA8 JUMPI PUSH32 0x4E487B7100000000000000000000000000000000000000000000000000000000 PUSH1 0x0 MSTORE PUSH1 0x21 PUSH1 0x4 MSTORE PUSH1 0x24 PUSH1 0x0 REVERT JUMPDEST EQ ISZERO PUSH2 0xF08 JUMPI DUP2 PUSH1 0x4 PUSH1 0x0 DUP4 DUP2 MSTORE PUSH1 0x20 ADD SWAP1 DUP2 MSTORE PUSH1 0x20 ADD PUSH1 0x0 KECCAK256 PUSH1 0x4 ADD SLOAD LT ISZERO PUSH2 0xF07 JUMPI PUSH1 0x40 MLOAD PUSH32 0x8C379A000000000000000000000000000000000000000000000000000000000 DUP2 MSTORE PUSH1 0x4 ADD PUSH2 0xEFE SWAP1 PUSH2 0x2B2A JUMP JUMPDEST PUSH1 0x40 MLOAD DUP1 SWAP2 SUB SWAP1 REVERT JUMPDEST JUMPDEST JUMPDEST PUSH1 0x0 PUSH1 0x4 PUSH1 0x0 DUP4 DUP2 MSTORE PUSH1 0x20 ADD SWAP1 DUP2 MSTORE PUSH1 0x20 ADD PUSH1 0x0 KECCAK256 PUSH1 0x0 ADD PUSH1 0x0 SWAP1 SLOAD SWAP1 PUSH2 0x100 EXP SWAP1 DIV PUSH20 0xFFFFFFFFFFFFFFFFFFFFFFFFFFFFFFFFFFFFFFFF AND SWAP1 POP PUSH1 0x0 DUP1 DUP3 PUSH20 0xFFFFFFFFFFFFFFFFFFFFFFFFFFFFFFFFFFFFFFFF AND PUSH4 0x179EFA20 DUP8 PUSH1 0x40 MLOAD DUP3 PUSH4 0xFFFFFFFF AND PUSH1 0xE0 SHL DUP2 MSTORE PUSH1 0x4 ADD PUSH2 0xF80 SWAP2 SWAP1 PUSH2 0x2C46 JUMP JUMPDEST PUSH1 0x40 DUP1 MLOAD DUP1 DUP4 SUB DUP2 DUP7 DUP1 EXTCODESIZE ISZERO DUP1 ISZERO PUSH2 0xF97 JUMPI PUSH1 0x0 DUP1 REVERT JUMPDEST POP GAS STATICCALL ISZERO DUP1 ISZERO PUSH2 0xFAB JUMPI RETURNDATASIZE PUSH1 0x0 DUP1 RETURNDATACOPY RETURNDATASIZE PUSH1 0x0 REVERT JUMPDEST POP POP POP POP PUSH1 0x40 MLOAD RETURNDATASIZE PUSH1 0x1F NOT PUSH1 0x1F DUP3 ADD AND DUP3 ADD DUP1 PUSH1 0x40 MSTORE POP DUP2 ADD SWAP1 PUSH2 0xFCF SWAP2 SWAP1 PUSH2 0x2672 JUMP JUMPDEST SWAP2 POP SWAP2 POP PUSH1 0x0 PUSH2 0xFE1 DUP7 PUSH1 0x2 SLOAD PUSH2 0x1D63 JUMP JUMPDEST SWAP1 POP PUSH1 0x0 DUP2 GT ISZERO PUSH2 0x10C1 JUMPI PUSH1 0x1 PUSH1 0x0 SWAP1 SLOAD SWAP1 PUSH2 0x100 EXP SWAP1 DIV PUSH20 0xFFFFFFFFFFFFFFFFFFFFFFFFFFFFFFFFFFFFFFFF AND PUSH20 0xFFFFFFFFFFFFFFFFFFFFFFFFFFFFFFFFFFFFFFFF AND PUSH4 0x23B872DD CALLER PUSH1 0x3 PUSH1 0x0 SWAP1 SLOAD SWAP1 PUSH2 0x100 EXP SWAP1 DIV PUSH20 0xFFFFFFFFFFFFFFFFFFFFFFFFFFFFFFFFFFFFFFFF AND DUP5 PUSH1 0x40 MLOAD DUP5 PUSH4 0xFFFFFFFF AND PUSH1 0xE0 SHL DUP2 MSTORE PUSH1 0x4 ADD PUSH2 0x106D SWAP4 SWAP3 SWAP2 SWAP1 PUSH2 0x29E3 JUMP JUMPDEST PUSH1 0x20 PUSH1 0x40 MLOAD DUP1 DUP4 SUB DUP2 PUSH1 0x0 DUP8 DUP1 EXTCODESIZE ISZERO DUP1 ISZERO PUSH2 0x1087 JUMPI PUSH1 0x0 DUP1 REVERT JUMPDEST POP GAS CALL ISZERO DUP1 ISZERO PUSH2 0x109B JUMPI RETURNDATASIZE PUSH1 0x0 DUP1 RETURNDATACOPY RETURNDATASIZE PUSH1 0x0 REVERT JUMPDEST POP POP POP POP PUSH1 0x40 MLOAD RETURNDATASIZE PUSH1 0x1F NOT PUSH1 0x1F DUP3 ADD AND DUP3 ADD DUP1 PUSH1 0x40 MSTORE POP DUP2 ADD SWAP1 PUSH2 0x10BF SWAP2 SWAP1 PUSH2 0x25F7 JUMP JUMPDEST POP JUMPDEST PUSH1 0x0 PUSH2 0x10CD DUP8 DUP6 PUSH2 0x1D63 JUMP JUMPDEST SWAP1 POP PUSH1 0x1 PUSH1 0x0 SWAP1 SLOAD SWAP1 PUSH2 0x100 EXP SWAP1 DIV PUSH20 0xFFFFFFFFFFFFFFFFFFFFFFFFFFFFFFFFFFFFFFFF AND PUSH20 0xFFFFFFFFFFFFFFFFFFFFFFFFFFFFFFFFFFFFFFFF AND PUSH4 0x23B872DD CALLER DUP6 DUP5 PUSH1 0x40 MLOAD DUP5 PUSH4 0xFFFFFFFF AND PUSH1 0xE0 SHL DUP2 MSTORE PUSH1 0x4 ADD PUSH2 0x112E SWAP4 SWAP3 SWAP2 SWAP1 PUSH2 0x2A1A JUMP JUMPDEST PUSH1 0x20 PUSH1 0x40 MLOAD DUP1 DUP4 SUB DUP2 PUSH1 0x0 DUP8 DUP1 EXTCODESIZE ISZERO DUP1 ISZERO PUSH2 0x1148 JUMPI PUSH1 0x0 DUP1 REVERT JUMPDEST POP GAS CALL ISZERO DUP1 ISZERO PUSH2 0x115C JUMPI RETURNDATASIZE PUSH1 0x0 DUP1 RETURNDATACOPY RETURNDATASIZE PUSH1 0x0 REVERT JUMPDEST POP POP POP POP PUSH1 0x40 MLOAD RETURNDATASIZE PUSH1 0x1F NOT PUSH1 0x1F DUP3 ADD AND DUP3 ADD DUP1 PUSH1 0x40 MSTORE POP DUP2 ADD SWAP1 PUSH2 0x1180 SWAP2 SWAP1 PUSH2 0x25F7 JUMP JUMPDEST POP PUSH1 0x0 PUSH2 0x11A8 PUSH2 0x1199 DUP4 DUP6 PUSH2 0x1D93 SWAP1 SWAP2 SWAP1 PUSH4 0xFFFFFFFF AND JUMP JUMPDEST DUP10 PUSH2 0x1DA9 SWAP1 SWAP2 SWAP1 PUSH4 0xFFFFFFFF AND JUMP JUMPDEST SWAP1 POP PUSH1 0x1 PUSH1 0x0 SWAP1 SLOAD SWAP1 PUSH2 0x100 EXP SWAP1 DIV PUSH20 0xFFFFFFFFFFFFFFFFFFFFFFFFFFFFFFFFFFFFFFFF AND PUSH20 0xFFFFFFFFFFFFFFFFFFFFFFFFFFFFFFFFFFFFFFFF AND PUSH4 0x23B872DD CALLER PUSH1 0x4 PUSH1 0x0 DUP12 DUP2 MSTORE PUSH1 0x20 ADD SWAP1 DUP2 MSTORE PUSH1 0x20 ADD PUSH1 0x0 KECCAK256 PUSH1 0x5 ADD PUSH1 0x0 SWAP1 SLOAD SWAP1 PUSH2 0x100 EXP SWAP1 DIV PUSH20 0xFFFFFFFFFFFFFFFFFFFFFFFFFFFFFFFFFFFFFFFF AND DUP5 PUSH1 0x40 MLOAD DUP5 PUSH4 0xFFFFFFFF AND PUSH1 0xE0 SHL DUP2 MSTORE PUSH1 0x4 ADD PUSH2 0x123F SWAP4 SWAP3 SWAP2 SWAP1 PUSH2 0x2A1A JUMP JUMPDEST PUSH1 0x20 PUSH1 0x40 MLOAD DUP1 DUP4 SUB DUP2 PUSH1 0x0 DUP8 DUP1 EXTCODESIZE ISZERO DUP1 ISZERO PUSH2 0x1259 JUMPI PUSH1 0x0 DUP1 REVERT JUMPDEST POP GAS CALL ISZERO DUP1 ISZERO PUSH2 0x126D JUMPI RETURNDATASIZE PUSH1 0x0 DUP1 RETURNDATACOPY RETURNDATASIZE PUSH1 0x0 REVERT JUMPDEST POP POP POP POP PUSH1 0x40 MLOAD RETURNDATASIZE PUSH1 0x1F NOT PUSH1 0x1F DUP3 ADD AND DUP3 ADD DUP1 PUSH1 0x40 MSTORE POP DUP2 ADD SWAP1 PUSH2 0x1291 SWAP2 SWAP1 PUSH2 0x25F7 JUMP JUMPDEST POP DUP6 PUSH20 0xFFFFFFFFFFFFFFFFFFFFFFFFFFFFFFFFFFFFFFFF AND PUSH4 0x42842E0E PUSH1 0x4 PUSH1 0x0 DUP11 DUP2 MSTORE PUSH1 0x20 ADD SWAP1 DUP2 MSTORE PUSH1 0x20 ADD PUSH1 0x0 KECCAK256 PUSH1 0x5 ADD PUSH1 0x0 SWAP1 SLOAD SWAP1 PUSH2 0x100 EXP SWAP1 DIV PUSH20 0xFFFFFFFFFFFFFFFFFFFFFFFFFFFFFFFFFFFFFFFF AND CALLER DUP13 PUSH1 0x40 MLOAD DUP5 PUSH4 0xFFFFFFFF AND PUSH1 0xE0 SHL DUP2 MSTORE PUSH1 0x4 ADD PUSH2 0x1305 SWAP4 SWAP3 SWAP2 SWAP1 PUSH2 0x2A1A JUMP JUMPDEST PUSH1 0x0 PUSH1 0x40 MLOAD DUP1 DUP4 SUB DUP2 PUSH1 0x0 DUP8 DUP1 EXTCODESIZE ISZERO DUP1 ISZERO PUSH2 0x131F JUMPI PUSH1 0x0 DUP1 REVERT JUMPDEST POP GAS CALL ISZERO DUP1 ISZERO PUSH2 0x1333 JUMPI RETURNDATASIZE PUSH1 0x0 DUP1 RETURNDATACOPY RETURNDATASIZE PUSH1 0x0 REVERT JUMPDEST POP POP POP POP PUSH1 0x3 PUSH1 0x4 PUSH1 0x0 DUP10 DUP2 MSTORE PUSH1 0x20 ADD SWAP1 DUP2 MSTORE PUSH1 0x20 ADD PUSH1 0x0 KECCAK256 PUSH1 0x2 ADD PUSH1 0x1 PUSH2 0x100 EXP DUP2 SLOAD DUP2 PUSH1 0xFF MUL NOT AND SWAP1 DUP4 PUSH1 0x3 DUP2 GT ISZERO PUSH2 0x1397 JUMPI PUSH32 0x4E487B7100000000000000000000000000000000000000000000000000000000 PUSH1 0x0 MSTORE PUSH1 0x21 PUSH1 0x4 MSTORE PUSH1 0x24 PUSH1 0x0 REVERT JUMPDEST MUL OR SWAP1 SSTORE POP CALLER PUSH1 0x4 PUSH1 0x0 DUP10 DUP2 MSTORE PUSH1 0x20 ADD SWAP1 DUP2 MSTORE PUSH1 0x20 ADD PUSH1 0x0 KECCAK256 PUSH1 0x6 ADD PUSH1 0x0 PUSH2 0x100 EXP DUP2 SLOAD DUP2 PUSH20 0xFFFFFFFFFFFFFFFFFFFFFFFFFFFFFFFFFFFFFFFF MUL NOT AND SWAP1 DUP4 PUSH20 0xFFFFFFFFFFFFFFFFFFFFFFFFFFFFFFFFFFFFFFFF AND MUL OR SWAP1 SSTORE POP POP POP POP POP POP POP PUSH2 0x1437 JUMP JUMPDEST PUSH1 0x40 MLOAD PUSH32 0x8C379A000000000000000000000000000000000000000000000000000000000 DUP2 MSTORE PUSH1 0x4 ADD PUSH2 0x142E SWAP1 PUSH2 0x2BAA JUMP JUMPDEST PUSH1 0x40 MLOAD DUP1 SWAP2 SUB SWAP1 REVERT JUMPDEST POP POP POP POP JUMP JUMPDEST PUSH2 0x1445 PUSH2 0x22CA JUMP JUMPDEST PUSH1 0x0 PUSH2 0x1451 DUP5 DUP5 PUSH2 0x1D30 JUMP JUMPDEST SWAP1 POP PUSH1 0x4 PUSH1 0x0 DUP3 DUP2 MSTORE PUSH1 0x20 ADD SWAP1 DUP2 MSTORE PUSH1 0x20 ADD PUSH1 0x0 KECCAK256 PUSH1 0x40 MLOAD DUP1 PUSH2 0x100 ADD PUSH1 0x40 MSTORE SWAP1 DUP2 PUSH1 0x0 DUP3 ADD PUSH1 0x0 SWAP1 SLOAD SWAP1 PUSH2 0x100 EXP SWAP1 DIV PUSH20 0xFFFFFFFFFFFFFFFFFFFFFFFFFFFFFFFFFFFFFFFF AND PUSH20 0xFFFFFFFFFFFFFFFFFFFFFFFFFFFFFFFFFFFFFFFF AND PUSH20 0xFFFFFFFFFFFFFFFFFFFFFFFFFFFFFFFFFFFFFFFF AND DUP2 MSTORE PUSH1 0x20 ADD PUSH1 0x1 DUP3 ADD SLOAD DUP2 MSTORE PUSH1 0x20 ADD PUSH1 0x2 DUP3 ADD PUSH1 0x0 SWAP1 SLOAD SWAP1 PUSH2 0x100 EXP SWAP1 DIV PUSH1 0xFF AND PUSH1 0x2 DUP2 GT ISZERO PUSH2 0x151D JUMPI PUSH32 0x4E487B7100000000000000000000000000000000000000000000000000000000 PUSH1 0x0 MSTORE PUSH1 0x21 PUSH1 0x4 MSTORE PUSH1 0x24 PUSH1 0x0 REVERT JUMPDEST PUSH1 0x2 DUP2 GT ISZERO PUSH2 0x1555 JUMPI PUSH32 0x4E487B7100000000000000000000000000000000000000000000000000000000 PUSH1 0x0 MSTORE PUSH1 0x21 PUSH1 0x4 MSTORE PUSH1 0x24 PUSH1 0x0 REVERT JUMPDEST DUP2 MSTORE PUSH1 0x20 ADD PUSH1 0x2 DUP3 ADD PUSH1 0x1 SWAP1 SLOAD SWAP1 PUSH2 0x100 EXP SWAP1 DIV PUSH1 0xFF AND PUSH1 0x3 DUP2 GT ISZERO PUSH2 0x15A4 JUMPI PUSH32 0x4E487B7100000000000000000000000000000000000000000000000000000000 PUSH1 0x0 MSTORE PUSH1 0x21 PUSH1 0x4 MSTORE PUSH1 0x24 PUSH1 0x0 REVERT JUMPDEST PUSH1 0x3 DUP2 GT ISZERO PUSH2 0x15DC JUMPI PUSH32 0x4E487B7100000000000000000000000000000000000000000000000000000000 PUSH1 0x0 MSTORE PUSH1 0x21 PUSH1 0x4 MSTORE PUSH1 0x24 PUSH1 0x0 REVERT JUMPDEST DUP2 MSTORE PUSH1 0x20 ADD PUSH1 0x3 DUP3 ADD SLOAD DUP2 MSTORE PUSH1 0x20 ADD PUSH1 0x4 DUP3 ADD SLOAD DUP2 MSTORE PUSH1 0x20 ADD PUSH1 0x5 DUP3 ADD PUSH1 0x0 SWAP1 SLOAD SWAP1 PUSH2 0x100 EXP SWAP1 DIV PUSH20 0xFFFFFFFFFFFFFFFFFFFFFFFFFFFFFFFFFFFFFFFF AND PUSH20 0xFFFFFFFFFFFFFFFFFFFFFFFFFFFFFFFFFFFFFFFF AND PUSH20 0xFFFFFFFFFFFFFFFFFFFFFFFFFFFFFFFFFFFFFFFF AND DUP2 MSTORE PUSH1 0x20 ADD PUSH1 0x6 DUP3 ADD PUSH1 0x0 SWAP1 SLOAD SWAP1 PUSH2 0x100 EXP SWAP1 DIV PUSH20 0xFFFFFFFFFFFFFFFFFFFFFFFFFFFFFFFFFFFFFFFF AND PUSH20 0xFFFFFFFFFFFFFFFFFFFFFFFFFFFFFFFFFFFFFFFF AND PUSH20 0xFFFFFFFFFFFFFFFFFFFFFFFFFFFFFFFFFFFFFFFF AND DUP2 MSTORE POP POP SWAP2 POP POP SWAP3 SWAP2 POP POP JUMP JUMPDEST CALLER PUSH20 0xFFFFFFFFFFFFFFFFFFFFFFFFFFFFFFFFFFFFFFFF AND PUSH1 0x0 DUP1 SLOAD SWAP1 PUSH2 0x100 EXP SWAP1 DIV PUSH20 0xFFFFFFFFFFFFFFFFFFFFFFFFFFFFFFFFFFFFFFFF AND PUSH20 0xFFFFFFFFFFFFFFFFFFFFFFFFFFFFFFFFFFFFFFFF AND EQ PUSH2 0x1737 JUMPI PUSH1 0x40 MLOAD PUSH32 0x8C379A000000000000000000000000000000000000000000000000000000000 DUP2 MSTORE PUSH1 0x4 ADD PUSH2 0x172E SWAP1 PUSH2 0x2B0A JUMP JUMPDEST PUSH1 0x40 MLOAD DUP1 SWAP2 SUB SWAP1 REVERT JUMPDEST PUSH1 0x0 PUSH20 0xFFFFFFFFFFFFFFFFFFFFFFFFFFFFFFFFFFFFFFFF AND PUSH1 0x0 DUP1 SLOAD SWAP1 PUSH2 0x100 EXP SWAP1 DIV PUSH20 0xFFFFFFFFFFFFFFFFFFFFFFFFFFFFFFFFFFFFFFFF AND PUSH20 0xFFFFFFFFFFFFFFFFFFFFFFFFFFFFFFFFFFFFFFFF AND PUSH32 0x8BE0079C531659141344CD1FD0A4F28419497F9722A3DAAFE3B4186F6B6457E0 PUSH1 0x40 MLOAD PUSH1 0x40 MLOAD DUP1 SWAP2 SUB SWAP1 LOG3 PUSH1 0x0 DUP1 PUSH1 0x0 PUSH2 0x100 EXP DUP2 SLOAD DUP2 PUSH20 0xFFFFFFFFFFFFFFFFFFFFFFFFFFFFFFFFFFFFFFFF MUL NOT AND SWAP1 DUP4 PUSH20 0xFFFFFFFFFFFFFFFFFFFFFFFFFFFFFFFFFFFFFFFF AND MUL OR SWAP1 SSTORE POP JUMP JUMPDEST PUSH1 0x4 PUSH1 0x20 MSTORE DUP1 PUSH1 0x0 MSTORE PUSH1 0x40 PUSH1 0x0 KECCAK256 PUSH1 0x0 SWAP2 POP SWAP1 POP DUP1 PUSH1 0x0 ADD PUSH1 0x0 SWAP1 SLOAD SWAP1 PUSH2 0x100 EXP SWAP1 DIV PUSH20 0xFFFFFFFFFFFFFFFFFFFFFFFFFFFFFFFFFFFFFFFF AND SWAP1 DUP1 PUSH1 0x1 ADD SLOAD SWAP1 DUP1 PUSH1 0x2 ADD PUSH1 0x0 SWAP1 SLOAD SWAP1 PUSH2 0x100 EXP SWAP1 DIV PUSH1 0xFF AND SWAP1 DUP1 PUSH1 0x2 ADD PUSH1 0x1 SWAP1 SLOAD SWAP1 PUSH2 0x100 EXP SWAP1 DIV PUSH1 0xFF AND SWAP1 DUP1 PUSH1 0x3 ADD SLOAD SWAP1 DUP1 PUSH1 0x4 ADD SLOAD SWAP1 DUP1 PUSH1 0x5 ADD PUSH1 0x0 SWAP1 SLOAD SWAP1 PUSH2 0x100 EXP SWAP1 DIV PUSH20 0xFFFFFFFFFFFFFFFFFFFFFFFFFFFFFFFFFFFFFFFF AND SWAP1 DUP1 PUSH1 0x6 ADD PUSH1 0x0 SWAP1 SLOAD SWAP1 PUSH2 0x100 EXP SWAP1 DIV PUSH20 0xFFFFFFFFFFFFFFFFFFFFFFFFFFFFFFFFFFFFFFFF AND SWAP1 POP DUP9 JUMP JUMPDEST PUSH1 0x0 DUP1 PUSH1 0x0 SWAP1 SLOAD SWAP1 PUSH2 0x100 EXP SWAP1 DIV PUSH20 0xFFFFFFFFFFFFFFFFFFFFFFFFFFFFFFFFFFFFFFFF AND SWAP1 POP SWAP1 JUMP JUMPDEST PUSH2 0x18EE DUP5 DUP5 DUP5 PUSH1 0x2 DUP6 PUSH2 0x1DBF JUMP JUMPDEST POP POP POP POP JUMP JUMPDEST PUSH1 0x0 PUSH2 0x1900 DUP4 DUP4 PUSH2 0x1D30 JUMP JUMPDEST SWAP1 POP CALLER PUSH20 0xFFFFFFFFFFFFFFFFFFFFFFFFFFFFFFFFFFFFFFFF AND PUSH1 0x4 PUSH1 0x0 DUP4 DUP2 MSTORE PUSH1 0x20 ADD SWAP1 DUP2 MSTORE PUSH1 0x20 ADD PUSH1 0x0 KECCAK256 PUSH1 0x5 ADD PUSH1 0x0 SWAP1 SLOAD SWAP1 PUSH2 0x100 EXP SWAP1 DIV PUSH20 0xFFFFFFFFFFFFFFFFFFFFFFFFFFFFFFFFFFFFFFFF AND PUSH20 0xFFFFFFFFFFFFFFFFFFFFFFFFFFFFFFFFFFFFFFFF AND EQ PUSH2 0x19A6 JUMPI PUSH1 0x40 MLOAD PUSH32 0x8C379A000000000000000000000000000000000000000000000000000000000 DUP2 MSTORE PUSH1 0x4 ADD PUSH2 0x199D SWAP1 PUSH2 0x2B6A JUMP JUMPDEST PUSH1 0x40 MLOAD DUP1 SWAP2 SUB SWAP1 REVERT JUMPDEST PUSH1 0x1 PUSH1 0x3 DUP2 GT ISZERO PUSH2 0x19E0 JUMPI PUSH32 0x4E487B7100000000000000000000000000000000000000000000000000000000 PUSH1 0x0 MSTORE PUSH1 0x21 PUSH1 0x4 MSTORE PUSH1 0x24 PUSH1 0x0 REVERT JUMPDEST PUSH1 0x4 PUSH1 0x0 DUP4 DUP2 MSTORE PUSH1 0x20 ADD SWAP1 DUP2 MSTORE PUSH1 0x20 ADD PUSH1 0x0 KECCAK256 PUSH1 0x2 ADD PUSH1 0x1 SWAP1 SLOAD SWAP1 PUSH2 0x100 EXP SWAP1 DIV PUSH1 0xFF AND PUSH1 0x3 DUP2 GT ISZERO PUSH2 0x1A3C JUMPI PUSH32 0x4E487B7100000000000000000000000000000000000000000000000000000000 PUSH1 0x0 MSTORE PUSH1 0x21 PUSH1 0x4 MSTORE PUSH1 0x24 PUSH1 0x0 REVERT JUMPDEST EQ ISZERO PUSH2 0x1AAC JUMPI PUSH1 0x2 PUSH1 0x4 PUSH1 0x0 DUP4 DUP2 MSTORE PUSH1 0x20 ADD SWAP1 DUP2 MSTORE PUSH1 0x20 ADD PUSH1 0x0 KECCAK256 PUSH1 0x2 ADD PUSH1 0x1 PUSH2 0x100 EXP DUP2 SLOAD DUP2 PUSH1 0xFF MUL NOT AND SWAP1 DUP4 PUSH1 0x3 DUP2 GT ISZERO PUSH2 0x1AA2 JUMPI PUSH32 0x4E487B7100000000000000000000000000000000000000000000000000000000 PUSH1 0x0 MSTORE PUSH1 0x21 PUSH1 0x4 MSTORE PUSH1 0x24 PUSH1 0x0 REVERT JUMPDEST MUL OR SWAP1 SSTORE POP PUSH2 0x1AE7 JUMP JUMPDEST PUSH1 0x40 MLOAD PUSH32 0x8C379A000000000000000000000000000000000000000000000000000000000 DUP2 MSTORE PUSH1 0x4 ADD PUSH2 0x1ADE SWAP1 PUSH2 0x2BAA JUMP JUMPDEST PUSH1 0x40 MLOAD DUP1 SWAP2 SUB SWAP1 REVERT JUMPDEST POP POP POP JUMP JUMPDEST CALLER PUSH20 0xFFFFFFFFFFFFFFFFFFFFFFFFFFFFFFFFFFFFFFFF AND PUSH1 0x0 DUP1 SLOAD SWAP1 PUSH2 0x100 EXP SWAP1 DIV PUSH20 0xFFFFFFFFFFFFFFFFFFFFFFFFFFFFFFFFFFFFFFFF AND PUSH20 0xFFFFFFFFFFFFFFFFFFFFFFFFFFFFFFFFFFFFFFFF AND EQ PUSH2 0x1B7A JUMPI PUSH1 0x40 MLOAD PUSH32 0x8C379A000000000000000000000000000000000000000000000000000000000 DUP2 MSTORE PUSH1 0x4 ADD PUSH2 0x1B71 SWAP1 PUSH2 0x2B0A JUMP JUMPDEST PUSH1 0x40 MLOAD DUP1 SWAP2 SUB SWAP1 REVERT JUMPDEST DUP1 PUSH1 0x2 DUP2 SWAP1 SSTORE POP POP JUMP JUMPDEST PUSH1 0x1 PUSH1 0x0 SWAP1 SLOAD SWAP1 PUSH2 0x100 EXP SWAP1 DIV PUSH20 0xFFFFFFFFFFFFFFFFFFFFFFFFFFFFFFFFFFFFFFFF AND DUP2 JUMP JUMPDEST CALLER PUSH20 0xFFFFFFFFFFFFFFFFFFFFFFFFFFFFFFFFFFFFFFFF AND PUSH1 0x0 DUP1 SLOAD SWAP1 PUSH2 0x100 EXP SWAP1 DIV PUSH20 0xFFFFFFFFFFFFFFFFFFFFFFFFFFFFFFFFFFFFFFFF AND PUSH20 0xFFFFFFFFFFFFFFFFFFFFFFFFFFFFFFFFFFFFFFFF AND EQ PUSH2 0x1C38 JUMPI PUSH1 0x40 MLOAD PUSH32 0x8C379A000000000000000000000000000000000000000000000000000000000 DUP2 MSTORE PUSH1 0x4 ADD PUSH2 0x1C2F SWAP1 PUSH2 0x2B0A JUMP JUMPDEST PUSH1 0x40 MLOAD DUP1 SWAP2 SUB SWAP1 REVERT JUMPDEST DUP1 PUSH1 0x1 PUSH1 0x0 PUSH2 0x100 EXP DUP2 SLOAD DUP2 PUSH20 0xFFFFFFFFFFFFFFFFFFFFFFFFFFFFFFFFFFFFFFFF MUL NOT AND SWAP1 DUP4 PUSH20 0xFFFFFFFFFFFFFFFFFFFFFFFFFFFFFFFFFFFFFFFF AND MUL OR SWAP1 SSTORE POP POP JUMP JUMPDEST PUSH2 0x1C8B DUP4 DUP4 DUP4 PUSH1 0x1 PUSH1 0x0 PUSH2 0x1DBF JUMP JUMPDEST POP POP POP JUMP JUMPDEST CALLER PUSH20 0xFFFFFFFFFFFFFFFFFFFFFFFFFFFFFFFFFFFFFFFF AND PUSH1 0x0 DUP1 SLOAD SWAP1 PUSH2 0x100 EXP SWAP1 DIV PUSH20 0xFFFFFFFFFFFFFFFFFFFFFFFFFFFFFFFFFFFFFFFF AND PUSH20 0xFFFFFFFFFFFFFFFFFFFFFFFFFFFFFFFFFFFFFFFF AND EQ PUSH2 0x1D1E JUMPI PUSH1 0x40 MLOAD PUSH32 0x8C379A000000000000000000000000000000000000000000000000000000000 DUP2 MSTORE PUSH1 0x4 ADD PUSH2 0x1D15 SWAP1 PUSH2 0x2B0A JUMP JUMPDEST PUSH1 0x40 MLOAD DUP1 SWAP2 SUB SWAP1 REVERT JUMPDEST PUSH2 0x1D27 DUP2 PUSH2 0x2171 JUMP JUMPDEST POP JUMP JUMPDEST PUSH1 0x2 SLOAD DUP2 JUMP JUMPDEST PUSH1 0x0 DUP3 DUP3 PUSH1 0x40 MLOAD PUSH1 0x20 ADD PUSH2 0x1D45 SWAP3 SWAP2 SWAP1 PUSH2 0x2981 JUMP JUMPDEST PUSH1 0x40 MLOAD PUSH1 0x20 DUP2 DUP4 SUB SUB DUP2 MSTORE SWAP1 PUSH1 0x40 MSTORE DUP1 MLOAD SWAP1 PUSH1 0x20 ADD KECCAK256 SWAP1 POP SWAP3 SWAP2 POP POP JUMP JUMPDEST PUSH1 0x0 PUSH2 0x1D8B PUSH1 0x64 PUSH2 0x1D7D DUP5 DUP7 PUSH2 0x229E SWAP1 SWAP2 SWAP1 PUSH4 0xFFFFFFFF AND JUMP JUMPDEST PUSH2 0x22B4 SWAP1 SWAP2 SWAP1 PUSH4 0xFFFFFFFF AND JUMP JUMPDEST SWAP1 POP SWAP3 SWAP2 POP POP JUMP JUMPDEST PUSH1 0x0 DUP2 DUP4 PUSH2 0x1DA1 SWAP2 SWAP1 PUSH2 0x2C72 JUMP JUMPDEST SWAP1 POP SWAP3 SWAP2 POP POP JUMP JUMPDEST PUSH1 0x0 DUP2 DUP4 PUSH2 0x1DB7 SWAP2 SWAP1 PUSH2 0x2D53 JUMP JUMPDEST SWAP1 POP SWAP3 SWAP2 POP POP JUMP JUMPDEST PUSH1 0x0 PUSH2 0x1DCB DUP7 DUP7 PUSH2 0x1D30 JUMP JUMPDEST SWAP1 POP PUSH1 0x1 PUSH1 0x3 DUP2 GT ISZERO PUSH2 0x1E07 JUMPI PUSH32 0x4E487B7100000000000000000000000000000000000000000000000000000000 PUSH1 0x0 MSTORE PUSH1 0x21 PUSH1 0x4 MSTORE PUSH1 0x24 PUSH1 0x0 REVERT JUMPDEST PUSH1 0x4 PUSH1 0x0 DUP4 DUP2 MSTORE PUSH1 0x20 ADD SWAP1 DUP2 MSTORE PUSH1 0x20 ADD PUSH1 0x0 KECCAK256 PUSH1 0x2 ADD PUSH1 0x1 SWAP1 SLOAD SWAP1 PUSH2 0x100 EXP SWAP1 DIV PUSH1 0xFF AND PUSH1 0x3 DUP2 GT ISZERO PUSH2 0x1E63 JUMPI PUSH32 0x4E487B7100000000000000000000000000000000000000000000000000000000 PUSH1 0x0 MSTORE PUSH1 0x21 PUSH1 0x4 MSTORE PUSH1 0x24 PUSH1 0x0 REVERT JUMPDEST EQ ISZERO PUSH2 0x1EA4 JUMPI PUSH1 0x40 MLOAD PUSH32 0x8C379A000000000000000000000000000000000000000000000000000000000 DUP2 MSTORE PUSH1 0x4 ADD PUSH2 0x1E9B SWAP1 PUSH2 0x2B8A JUMP JUMPDEST PUSH1 0x40 MLOAD DUP1 SWAP2 SUB SWAP1 REVERT JUMPDEST PUSH1 0x0 DUP5 GT PUSH2 0x1EE7 JUMPI PUSH1 0x40 MLOAD PUSH32 0x8C379A000000000000000000000000000000000000000000000000000000000 DUP2 MSTORE PUSH1 0x4 ADD PUSH2 0x1EDE SWAP1 PUSH2 0x2BEA JUMP JUMPDEST PUSH1 0x40 MLOAD DUP1 SWAP2 SUB SWAP1 REVERT JUMPDEST PUSH1 0x2 DUP1 DUP2 GT ISZERO PUSH2 0x1F20 JUMPI PUSH32 0x4E487B7100000000000000000000000000000000000000000000000000000000 PUSH1 0x0 MSTORE PUSH1 0x21 PUSH1 0x4 MSTORE PUSH1 0x24 PUSH1 0x0 REVERT JUMPDEST DUP4 PUSH1 0x2 DUP2 GT ISZERO PUSH2 0x1F59 JUMPI PUSH32 0x4E487B7100000000000000000000000000000000000000000000000000000000 PUSH1 0x0 MSTORE PUSH1 0x21 PUSH1 0x4 MSTORE PUSH1 0x24 PUSH1 0x0 REVERT JUMPDEST EQ DUP1 ISZERO PUSH2 0x1F65 JUMPI POP DUP2 DUP5 GT JUMPDEST ISZERO PUSH2 0x1FA5 JUMPI PUSH1 0x40 MLOAD PUSH32 0x8C379A000000000000000000000000000000000000000000000000000000000 DUP2 MSTORE PUSH1 0x4 ADD PUSH2 0x1F9C SWAP1 PUSH2 0x2C0A JUMP JUMPDEST PUSH1 0x40 MLOAD DUP1 SWAP2 SUB SWAP1 REVERT JUMPDEST PUSH1 0x1 PUSH1 0x4 PUSH1 0x0 DUP4 DUP2 MSTORE PUSH1 0x20 ADD SWAP1 DUP2 MSTORE PUSH1 0x20 ADD PUSH1 0x0 KECCAK256 PUSH1 0x2 ADD PUSH1 0x1 PUSH2 0x100 EXP DUP2 SLOAD DUP2 PUSH1 0xFF MUL NOT AND SWAP1 DUP4 PUSH1 0x3 DUP2 GT ISZERO PUSH2 0x2005 JUMPI PUSH32 0x4E487B7100000000000000000000000000000000000000000000000000000000 PUSH1 0x0 MSTORE PUSH1 0x21 PUSH1 0x4 MSTORE PUSH1 0x24 PUSH1 0x0 REVERT JUMPDEST MUL OR SWAP1 SSTORE POP DUP3 PUSH1 0x4 PUSH1 0x0 DUP4 DUP2 MSTORE PUSH1 0x20 ADD SWAP1 DUP2 MSTORE PUSH1 0x20 ADD PUSH1 0x0 KECCAK256 PUSH1 0x2 ADD PUSH1 0x0 PUSH2 0x100 EXP DUP2 SLOAD DUP2 PUSH1 0xFF MUL NOT AND SWAP1 DUP4 PUSH1 0x2 DUP2 GT ISZERO PUSH2 0x2069 JUMPI PUSH32 0x4E487B7100000000000000000000000000000000000000000000000000000000 PUSH1 0x0 MSTORE PUSH1 0x21 PUSH1 0x4 MSTORE PUSH1 0x24 PUSH1 0x0 REVERT JUMPDEST MUL OR SWAP1 SSTORE POP DUP4 PUSH1 0x4 PUSH1 0x0 DUP4 DUP2 MSTORE PUSH1 0x20 ADD SWAP1 DUP2 MSTORE PUSH1 0x20 ADD PUSH1 0x0 KECCAK256 PUSH1 0x3 ADD DUP2 SWAP1 SSTORE POP DUP2 PUSH1 0x4 PUSH1 0x0 DUP4 DUP2 MSTORE PUSH1 0x20 ADD SWAP1 DUP2 MSTORE PUSH1 0x20 ADD PUSH1 0x0 KECCAK256 PUSH1 0x4 ADD DUP2 SWAP1 SSTORE POP DUP6 PUSH1 0x4 PUSH1 0x0 DUP4 DUP2 MSTORE PUSH1 0x20 ADD SWAP1 DUP2 MSTORE PUSH1 0x20 ADD PUSH1 0x0 KECCAK256 PUSH1 0x0 ADD PUSH1 0x0 PUSH2 0x100 EXP DUP2 SLOAD DUP2 PUSH20 0xFFFFFFFFFFFFFFFFFFFFFFFFFFFFFFFFFFFFFFFF MUL NOT AND SWAP1 DUP4 PUSH20 0xFFFFFFFFFFFFFFFFFFFFFFFFFFFFFFFFFFFFFFFF AND MUL OR SWAP1 SSTORE POP DUP5 PUSH1 0x4 PUSH1 0x0 DUP4 DUP2 MSTORE PUSH1 0x20 ADD SWAP1 DUP2 MSTORE PUSH1 0x20 ADD PUSH1 0x0 KECCAK256 PUSH1 0x1 ADD DUP2 SWAP1 SSTORE POP CALLER PUSH1 0x4 PUSH1 0x0 DUP4 DUP2 MSTORE PUSH1 0x20 ADD SWAP1 DUP2 MSTORE PUSH1 0x20 ADD PUSH1 0x0 KECCAK256 PUSH1 0x5 ADD PUSH1 0x0 PUSH2 0x100 EXP DUP2 SLOAD DUP2 PUSH20 0xFFFFFFFFFFFFFFFFFFFFFFFFFFFFFFFFFFFFFFFF MUL NOT AND SWAP1 DUP4 PUSH20 0xFFFFFFFFFFFFFFFFFFFFFFFFFFFFFFFFFFFFFFFF AND MUL OR SWAP1 SSTORE POP POP POP POP POP POP POP JUMP JUMPDEST PUSH1 0x0 PUSH20 0xFFFFFFFFFFFFFFFFFFFFFFFFFFFFFFFFFFFFFFFF AND DUP2 PUSH20 0xFFFFFFFFFFFFFFFFFFFFFFFFFFFFFFFFFFFFFFFF AND EQ ISZERO PUSH2 0x21E1 JUMPI PUSH1 0x40 MLOAD PUSH32 0x8C379A000000000000000000000000000000000000000000000000000000000 DUP2 MSTORE PUSH1 0x4 ADD PUSH2 0x21D8 SWAP1 PUSH2 0x2B4A JUMP JUMPDEST PUSH1 0x40 MLOAD DUP1 SWAP2 SUB SWAP1 REVERT JUMPDEST DUP1 PUSH20 0xFFFFFFFFFFFFFFFFFFFFFFFFFFFFFFFFFFFFFFFF AND PUSH1 0x0 DUP1 SLOAD SWAP1 PUSH2 0x100 EXP SWAP1 DIV PUSH20 0xFFFFFFFFFFFFFFFFFFFFFFFFFFFFFFFFFFFFFFFF AND PUSH20 0xFFFFFFFFFFFFFFFFFFFFFFFFFFFFFFFFFFFFFFFF AND PUSH32 0x8BE0079C531659141344CD1FD0A4F28419497F9722A3DAAFE3B4186F6B6457E0 PUSH1 0x40 MLOAD PUSH1 0x40 MLOAD DUP1 SWAP2 SUB SWAP1 LOG3 DUP1 PUSH1 0x0 DUP1 PUSH2 0x100 EXP DUP2 SLOAD DUP2 PUSH20 0xFFFFFFFFFFFFFFFFFFFFFFFFFFFFFFFFFFFFFFFF MUL NOT AND SWAP1 DUP4 PUSH20 0xFFFFFFFFFFFFFFFFFFFFFFFFFFFFFFFFFFFFFFFF AND MUL OR SWAP1 SSTORE POP POP JUMP JUMPDEST PUSH1 0x0 DUP2 DUP4 PUSH2 0x22AC SWAP2 SWAP1 PUSH2 0x2CF9 JUMP JUMPDEST SWAP1 POP SWAP3 SWAP2 POP POP JUMP JUMPDEST PUSH1 0x0 DUP2 DUP4 PUSH2 0x22C2 SWAP2 SWAP1 PUSH2 0x2CC8 JUMP JUMPDEST SWAP1 POP SWAP3 SWAP2 POP POP JUMP JUMPDEST PUSH1 0x40 MLOAD DUP1 PUSH2 0x100 ADD PUSH1 0x40 MSTORE DUP1 PUSH1 0x0 PUSH20 0xFFFFFFFFFFFFFFFFFFFFFFFFFFFFFFFFFFFFFFFF AND DUP2 MSTORE PUSH1 0x20 ADD PUSH1 0x0 DUP2 MSTORE PUSH1 0x20 ADD PUSH1 0x0 PUSH1 0x2 DUP2 GT ISZERO PUSH2 0x2334 JUMPI PUSH32 0x4E487B7100000000000000000000000000000000000000000000000000000000 PUSH1 0x0 MSTORE PUSH1 0x21 PUSH1 0x4 MSTORE PUSH1 0x24 PUSH1 0x0 REVERT JUMPDEST DUP2 MSTORE PUSH1 0x20 ADD PUSH1 0x0 PUSH1 0x3 DUP2 GT ISZERO PUSH2 0x2373 JUMPI PUSH32 0x4E487B7100000000000000000000000000000000000000000000000000000000 PUSH1 0x0 MSTORE PUSH1 0x21 PUSH1 0x4 MSTORE PUSH1 0x24 PUSH1 0x0 REVERT JUMPDEST DUP2 MSTORE PUSH1 0x20 ADD PUSH1 0x0 DUP2 MSTORE PUSH1 0x20 ADD PUSH1 0x0 DUP2 MSTORE PUSH1 0x20 ADD PUSH1 0x0 PUSH20 0xFFFFFFFFFFFFFFFFFFFFFFFFFFFFFFFFFFFFFFFF AND DUP2 MSTORE PUSH1 0x20 ADD PUSH1 0x0 PUSH20 0xFFFFFFFFFFFFFFFFFFFFFFFFFFFFFFFFFFFFFFFF AND DUP2 MSTORE POP SWAP1 JUMP JUMPDEST PUSH1 0x0 DUP2 CALLDATALOAD SWAP1 POP PUSH2 0x23D0 DUP2 PUSH2 0x318B JUMP JUMPDEST SWAP3 SWAP2 POP POP JUMP JUMPDEST PUSH1 0x0 DUP2 MLOAD SWAP1 POP PUSH2 0x23E5 DUP2 PUSH2 0x318B JUMP JUMPDEST SWAP3 SWAP2 POP POP JUMP JUMPDEST PUSH1 0x0 DUP2 CALLDATALOAD SWAP1 POP PUSH2 0x23FA DUP2 PUSH2 0x31A2 JUMP JUMPDEST SWAP3 SWAP2 POP POP JUMP JUMPDEST PUSH1 0x0 DUP2 MLOAD SWAP1 POP PUSH2 0x240F DUP2 PUSH2 0x31B9 JUMP JUMPDEST SWAP3 SWAP2 POP POP JUMP JUMPDEST PUSH1 0x0 DUP2 CALLDATALOAD SWAP1 POP PUSH2 0x2424 DUP2 PUSH2 0x31D0 JUMP JUMPDEST SWAP3 SWAP2 POP POP JUMP JUMPDEST PUSH1 0x0 DUP2 CALLDATALOAD SWAP1 POP PUSH2 0x2439 DUP2 PUSH2 0x31E7 JUMP JUMPDEST SWAP3 SWAP2 POP POP JUMP JUMPDEST PUSH1 0x0 DUP2 MLOAD SWAP1 POP PUSH2 0x244E DUP2 PUSH2 0x31E7 JUMP JUMPDEST SWAP3 SWAP2 POP POP JUMP JUMPDEST PUSH1 0x0 PUSH1 0x20 DUP3 DUP5 SUB SLT ISZERO PUSH2 0x2466 JUMPI PUSH1 0x0 DUP1 REVERT JUMPDEST PUSH1 0x0 PUSH2 0x2474 DUP5 DUP3 DUP6 ADD PUSH2 0x23C1 JUMP JUMPDEST SWAP2 POP POP SWAP3 SWAP2 POP POP JUMP JUMPDEST PUSH1 0x0 PUSH1 0x20 DUP3 DUP5 SUB SLT ISZERO PUSH2 0x248F JUMPI PUSH1 0x0 DUP1 REVERT JUMPDEST PUSH1 0x0 PUSH2 0x249D DUP5 DUP3 DUP6 ADD PUSH2 0x23EB JUMP JUMPDEST SWAP2 POP POP SWAP3 SWAP2 POP POP JUMP JUMPDEST PUSH1 0x0 DUP1 PUSH1 0x40 DUP4 DUP6 SUB SLT ISZERO PUSH2 0x24B9 JUMPI PUSH1 0x0 DUP1 REVERT JUMPDEST PUSH1 0x0 PUSH2 0x24C7 DUP6 DUP3 DUP7 ADD PUSH2 0x23C1 JUMP JUMPDEST SWAP3 POP POP PUSH1 0x20 PUSH2 0x24D8 DUP6 DUP3 DUP7 ADD PUSH2 0x242A JUMP JUMPDEST SWAP2 POP POP SWAP3 POP SWAP3 SWAP1 POP JUMP JUMPDEST PUSH1 0x0 DUP1 PUSH1 0x0 PUSH1 0x60 DUP5 DUP7 SUB SLT ISZERO PUSH2 0x24F7 JUMPI PUSH1 0x0 DUP1 REVERT JUMPDEST PUSH1 0x0 PUSH2 0x2505 DUP7 DUP3 DUP8 ADD PUSH2 0x23C1 JUMP JUMPDEST SWAP4 POP POP PUSH1 0x20 PUSH2 0x2516 DUP7 DUP3 DUP8 ADD PUSH2 0x242A JUMP JUMPDEST SWAP3 POP POP PUSH1 0x40 PUSH2 0x2527 DUP7 DUP3 DUP8 ADD PUSH2 0x242A JUMP JUMPDEST SWAP2 POP POP SWAP3 POP SWAP3 POP SWAP3 JUMP JUMPDEST PUSH1 0x0 DUP1 PUSH1 0x0 DUP1 PUSH1 0x80 DUP6 DUP8 SUB SLT ISZERO PUSH2 0x2547 JUMPI PUSH1 0x0 DUP1 REVERT JUMPDEST PUSH1 0x0 PUSH2 0x2555 DUP8 DUP3 DUP9 ADD PUSH2 0x23C1 JUMP JUMPDEST SWAP5 POP POP PUSH1 0x20 PUSH2 0x2566 DUP8 DUP3 DUP9 ADD PUSH2 0x242A JUMP JUMPDEST SWAP4 POP POP PUSH1 0x40 PUSH2 0x2577 DUP8 DUP3 DUP9 ADD PUSH2 0x242A JUMP JUMPDEST SWAP3 POP POP PUSH1 0x60 PUSH2 0x2588 DUP8 DUP3 DUP9 ADD PUSH2 0x23C1 JUMP JUMPDEST SWAP2 POP POP SWAP3 SWAP6 SWAP2 SWAP5 POP SWAP3 POP JUMP JUMPDEST PUSH1 0x0 DUP1 PUSH1 0x0 DUP1 PUSH1 0x80 DUP6 DUP8 SUB SLT ISZERO PUSH2 0x25AA JUMPI PUSH1 0x0 DUP1 REVERT JUMPDEST PUSH1 0x0 PUSH2 0x25B8 DUP8 DUP3 DUP9 ADD PUSH2 0x23C1 JUMP JUMPDEST SWAP5 POP POP PUSH1 0x20 PUSH2 0x25C9 DUP8 DUP3 DUP9 ADD PUSH2 0x242A JUMP JUMPDEST SWAP4 POP POP PUSH1 0x40 PUSH2 0x25DA DUP8 DUP3 DUP9 ADD PUSH2 0x242A JUMP JUMPDEST SWAP3 POP POP PUSH1 0x60 PUSH2 0x25EB DUP8 DUP3 DUP9 ADD PUSH2 0x242A JUMP JUMPDEST SWAP2 POP POP SWAP3 SWAP6 SWAP2 SWAP5 POP SWAP3 POP JUMP JUMPDEST PUSH1 0x0 PUSH1 0x20 DUP3 DUP5 SUB SLT ISZERO PUSH2 0x2609 JUMPI PUSH1 0x0 DUP1 REVERT JUMPDEST PUSH1 0x0 PUSH2 0x2617 DUP5 DUP3 DUP6 ADD PUSH2 0x2400 JUMP JUMPDEST SWAP2 POP POP SWAP3 SWAP2 POP POP JUMP JUMPDEST PUSH1 0x0 PUSH1 0x20 DUP3 DUP5 SUB SLT ISZERO PUSH2 0x2632 JUMPI PUSH1 0x0 DUP1 REVERT JUMPDEST PUSH1 0x0 PUSH2 0x2640 DUP5 DUP3 DUP6 ADD PUSH2 0x2415 JUMP JUMPDEST SWAP2 POP POP SWAP3 SWAP2 POP POP JUMP JUMPDEST PUSH1 0x0 PUSH1 0x20 DUP3 DUP5 SUB SLT ISZERO PUSH2 0x265B JUMPI PUSH1 0x0 DUP1 REVERT JUMPDEST PUSH1 0x0 PUSH2 0x2669 DUP5 DUP3 DUP6 ADD PUSH2 0x242A JUMP JUMPDEST SWAP2 POP POP SWAP3 SWAP2 POP POP JUMP JUMPDEST PUSH1 0x0 DUP1 PUSH1 0x40 DUP4 DUP6 SUB SLT ISZERO PUSH2 0x2685 JUMPI PUSH1 0x0 DUP1 REVERT JUMPDEST PUSH1 0x0 PUSH2 0x2693 DUP6 DUP3 DUP7 ADD PUSH2 0x243F JUMP JUMPDEST SWAP3 POP POP PUSH1 0x20 PUSH2 0x26A4 DUP6 DUP3 DUP7 ADD PUSH2 0x23D6 JUMP JUMPDEST SWAP2 POP POP SWAP3 POP SWAP3 SWAP1 POP JUMP JUMPDEST PUSH2 0x26B7 DUP2 PUSH2 0x2E11 JUMP JUMPDEST DUP3 MSTORE POP POP JUMP JUMPDEST PUSH2 0x26C6 DUP2 PUSH2 0x2D99 JUMP JUMPDEST DUP3 MSTORE POP POP JUMP JUMPDEST PUSH2 0x26D5 DUP2 PUSH2 0x2D87 JUMP JUMPDEST DUP3 MSTORE POP POP JUMP JUMPDEST PUSH2 0x26E4 DUP2 PUSH2 0x2D87 JUMP JUMPDEST DUP3 MSTORE POP POP JUMP JUMPDEST PUSH2 0x26FB PUSH2 0x26F6 DUP3 PUSH2 0x2D87 JUMP JUMPDEST PUSH2 0x2E8F JUMP JUMPDEST DUP3 MSTORE POP POP JUMP JUMPDEST PUSH2 0x270A DUP2 PUSH2 0x2E23 JUMP JUMPDEST DUP3 MSTORE POP POP JUMP JUMPDEST PUSH2 0x2719 DUP2 PUSH2 0x2E47 JUMP JUMPDEST DUP3 MSTORE POP POP JUMP JUMPDEST PUSH2 0x2728 DUP2 PUSH2 0x2E47 JUMP JUMPDEST DUP3 MSTORE POP POP JUMP JUMPDEST PUSH2 0x2737 DUP2 PUSH2 0x2E59 JUMP JUMPDEST DUP3 MSTORE POP POP JUMP JUMPDEST PUSH2 0x2746 DUP2 PUSH2 0x2E59 JUMP JUMPDEST DUP3 MSTORE POP POP JUMP JUMPDEST PUSH1 0x0 PUSH2 0x2759 PUSH1 0xE DUP4 PUSH2 0x2C61 JUMP JUMPDEST SWAP2 POP PUSH2 0x2764 DUP3 PUSH2 0x2F57 JUMP JUMPDEST PUSH1 0x20 DUP3 ADD SWAP1 POP SWAP2 SWAP1 POP JUMP JUMPDEST PUSH1 0x0 PUSH2 0x277C PUSH1 0x2A DUP4 PUSH2 0x2C61 JUMP JUMPDEST SWAP2 POP PUSH2 0x2787 DUP3 PUSH2 0x2F80 JUMP JUMPDEST PUSH1 0x40 DUP3 ADD SWAP1 POP SWAP2 SWAP1 POP JUMP JUMPDEST PUSH1 0x0 PUSH2 0x279F PUSH1 0x11 DUP4 PUSH2 0x2C61 JUMP JUMPDEST SWAP2 POP PUSH2 0x27AA DUP3 PUSH2 0x2FCF JUMP JUMPDEST PUSH1 0x20 DUP3 ADD SWAP1 POP SWAP2 SWAP1 POP JUMP JUMPDEST PUSH1 0x0 PUSH2 0x27C2 PUSH1 0x26 DUP4 PUSH2 0x2C61 JUMP JUMPDEST SWAP2 POP PUSH2 0x27CD DUP3 PUSH2 0x2FF8 JUMP JUMPDEST PUSH1 0x40 DUP3 ADD SWAP1 POP SWAP2 SWAP1 POP JUMP JUMPDEST PUSH1 0x0 PUSH2 0x27E5 PUSH1 0x18 DUP4 PUSH2 0x2C61 JUMP JUMPDEST SWAP2 POP PUSH2 0x27F0 DUP3 PUSH2 0x3047 JUMP JUMPDEST PUSH1 0x20 DUP3 ADD SWAP1 POP SWAP2 SWAP1 POP JUMP JUMPDEST PUSH1 0x0 PUSH2 0x2808 PUSH1 0x1E DUP4 PUSH2 0x2C61 JUMP JUMPDEST SWAP2 POP PUSH2 0x2813 DUP3 PUSH2 0x3070 JUMP JUMPDEST PUSH1 0x20 DUP3 ADD SWAP1 POP SWAP2 SWAP1 POP JUMP JUMPDEST PUSH1 0x0 PUSH2 0x282B PUSH1 0x1A DUP4 PUSH2 0x2C61 JUMP JUMPDEST SWAP2 POP PUSH2 0x2836 DUP3 PUSH2 0x3099 JUMP JUMPDEST PUSH1 0x20 DUP3 ADD SWAP1 POP SWAP2 SWAP1 POP JUMP JUMPDEST PUSH1 0x0 PUSH2 0x284E PUSH1 0x1B DUP4 PUSH2 0x2C61 JUMP JUMPDEST SWAP2 POP PUSH2 0x2859 DUP3 PUSH2 0x30C2 JUMP JUMPDEST PUSH1 0x20 DUP3 ADD SWAP1 POP SWAP2 SWAP1 POP JUMP JUMPDEST PUSH1 0x0 PUSH2 0x2871 PUSH1 0x1E DUP4 PUSH2 0x2C61 JUMP JUMPDEST SWAP2 POP PUSH2 0x287C DUP3 PUSH2 0x30EB JUMP JUMPDEST PUSH1 0x20 DUP3 ADD SWAP1 POP SWAP2 SWAP1 POP JUMP JUMPDEST PUSH1 0x0 PUSH2 0x2894 PUSH1 0x26 DUP4 PUSH2 0x2C61 JUMP JUMPDEST SWAP2 POP PUSH2 0x289F DUP3 PUSH2 0x3114 JUMP JUMPDEST PUSH1 0x40 DUP3 ADD SWAP1 POP SWAP2 SWAP1 POP JUMP JUMPDEST PUSH2 0x100 DUP3 ADD PUSH1 0x0 DUP3 ADD MLOAD PUSH2 0x28C1 PUSH1 0x0 DUP6 ADD DUP3 PUSH2 0x26CC JUMP JUMPDEST POP PUSH1 0x20 DUP3 ADD MLOAD PUSH2 0x28D4 PUSH1 0x20 DUP6 ADD DUP3 PUSH2 0x294C JUMP JUMPDEST POP PUSH1 0x40 DUP3 ADD MLOAD PUSH2 0x28E7 PUSH1 0x40 DUP6 ADD DUP3 PUSH2 0x272E JUMP JUMPDEST POP PUSH1 0x60 DUP3 ADD MLOAD PUSH2 0x28FA PUSH1 0x60 DUP6 ADD DUP3 PUSH2 0x2710 JUMP JUMPDEST POP PUSH1 0x80 DUP3 ADD MLOAD PUSH2 0x290D PUSH1 0x80 DUP6 ADD DUP3 PUSH2 0x294C JUMP JUMPDEST POP PUSH1 0xA0 DUP3 ADD MLOAD PUSH2 0x2920 PUSH1 0xA0 DUP6 ADD DUP3 PUSH2 0x294C JUMP JUMPDEST POP PUSH1 0xC0 DUP3 ADD MLOAD PUSH2 0x2933 PUSH1 0xC0 DUP6 ADD DUP3 PUSH2 0x26CC JUMP JUMPDEST POP PUSH1 0xE0 DUP3 ADD MLOAD PUSH2 0x2946 PUSH1 0xE0 DUP6 ADD DUP3 PUSH2 0x26CC JUMP JUMPDEST POP POP POP POP JUMP JUMPDEST PUSH2 0x2955 DUP2 PUSH2 0x2E07 JUMP JUMPDEST DUP3 MSTORE POP POP JUMP JUMPDEST PUSH2 0x2964 DUP2 PUSH2 0x2E07 JUMP JUMPDEST DUP3 MSTORE POP POP JUMP JUMPDEST PUSH2 0x297B PUSH2 0x2976 DUP3 PUSH2 0x2E07 JUMP JUMPDEST PUSH2 0x2EB3 JUMP JUMPDEST DUP3 MSTORE POP POP JUMP JUMPDEST PUSH1 0x0 PUSH2 0x298D DUP3 DUP6 PUSH2 0x26EA JUMP JUMPDEST PUSH1 0x14 DUP3 ADD SWAP2 POP PUSH2 0x299D DUP3 DUP5 PUSH2 0x296A JUMP JUMPDEST PUSH1 0x20 DUP3 ADD SWAP2 POP DUP2 SWAP1 POP SWAP4 SWAP3 POP POP POP JUMP JUMPDEST PUSH1 0x0 PUSH1 0x20 DUP3 ADD SWAP1 POP PUSH2 0x29C2 PUSH1 0x0 DUP4 ADD DUP5 PUSH2 0x26DB JUMP JUMPDEST SWAP3 SWAP2 POP POP JUMP JUMPDEST PUSH1 0x0 PUSH1 0x20 DUP3 ADD SWAP1 POP PUSH2 0x29DD PUSH1 0x0 DUP4 ADD DUP5 PUSH2 0x26BD JUMP JUMPDEST SWAP3 SWAP2 POP POP JUMP JUMPDEST PUSH1 0x0 PUSH1 0x60 DUP3 ADD SWAP1 POP PUSH2 0x29F8 PUSH1 0x0 DUP4 ADD DUP7 PUSH2 0x26DB JUMP JUMPDEST PUSH2 0x2A05 PUSH1 0x20 DUP4 ADD DUP6 PUSH2 0x26AE JUMP JUMPDEST PUSH2 0x2A12 PUSH1 0x40 DUP4 ADD DUP5 PUSH2 0x295B JUMP JUMPDEST SWAP5 SWAP4 POP POP POP POP JUMP JUMPDEST PUSH1 0x0 PUSH1 0x60 DUP3 ADD SWAP1 POP PUSH2 0x2A2F PUSH1 0x0 DUP4 ADD DUP7 PUSH2 0x26DB JUMP JUMPDEST PUSH2 0x2A3C PUSH1 0x20 DUP4 ADD DUP6 PUSH2 0x26DB JUMP JUMPDEST PUSH2 0x2A49 PUSH1 0x40 DUP4 ADD DUP5 PUSH2 0x295B JUMP JUMPDEST SWAP5 SWAP4 POP POP POP POP JUMP JUMPDEST PUSH1 0x0 PUSH2 0x100 DUP3 ADD SWAP1 POP PUSH2 0x2A67 PUSH1 0x0 DUP4 ADD DUP12 PUSH2 0x26DB JUMP JUMPDEST PUSH2 0x2A74 PUSH1 0x20 DUP4 ADD DUP11 PUSH2 0x295B JUMP JUMPDEST PUSH2 0x2A81 PUSH1 0x40 DUP4 ADD DUP10 PUSH2 0x273D JUMP JUMPDEST PUSH2 0x2A8E PUSH1 0x60 DUP4 ADD DUP9 PUSH2 0x271F JUMP JUMPDEST PUSH2 0x2A9B PUSH1 0x80 DUP4 ADD DUP8 PUSH2 0x295B JUMP JUMPDEST PUSH2 0x2AA8 PUSH1 0xA0 DUP4 ADD DUP7 PUSH2 0x295B JUMP JUMPDEST PUSH2 0x2AB5 PUSH1 0xC0 DUP4 ADD DUP6 PUSH2 0x26DB JUMP JUMPDEST PUSH2 0x2AC2 PUSH1 0xE0 DUP4 ADD DUP5 PUSH2 0x26DB JUMP JUMPDEST SWAP10 SWAP9 POP POP POP POP POP POP POP POP POP JUMP JUMPDEST PUSH1 0x0 PUSH1 0x20 DUP3 ADD SWAP1 POP PUSH2 0x2AE4 PUSH1 0x0 DUP4 ADD DUP5 PUSH2 0x2701 JUMP JUMPDEST SWAP3 SWAP2 POP POP JUMP JUMPDEST PUSH1 0x0 PUSH1 0x20 DUP3 ADD SWAP1 POP DUP2 DUP2 SUB PUSH1 0x0 DUP4 ADD MSTORE PUSH2 0x2B03 DUP2 PUSH2 0x274C JUMP JUMPDEST SWAP1 POP SWAP2 SWAP1 POP JUMP JUMPDEST PUSH1 0x0 PUSH1 0x20 DUP3 ADD SWAP1 POP DUP2 DUP2 SUB PUSH1 0x0 DUP4 ADD MSTORE PUSH2 0x2B23 DUP2 PUSH2 0x276F JUMP JUMPDEST SWAP1 POP SWAP2 SWAP1 POP JUMP JUMPDEST PUSH1 0x0 PUSH1 0x20 DUP3 ADD SWAP1 POP DUP2 DUP2 SUB PUSH1 0x0 DUP4 ADD MSTORE PUSH2 0x2B43 DUP2 PUSH2 0x2792 JUMP JUMPDEST SWAP1 POP SWAP2 SWAP1 POP JUMP JUMPDEST PUSH1 0x0 PUSH1 0x20 DUP3 ADD SWAP1 POP DUP2 DUP2 SUB PUSH1 0x0 DUP4 ADD MSTORE PUSH2 0x2B63 DUP2 PUSH2 0x27B5 JUMP JUMPDEST SWAP1 POP SWAP2 SWAP1 POP JUMP JUMPDEST PUSH1 0x0 PUSH1 0x20 DUP3 ADD SWAP1 POP DUP2 DUP2 SUB PUSH1 0x0 DUP4 ADD MSTORE PUSH2 0x2B83 DUP2 PUSH2 0x27D8 JUMP JUMPDEST SWAP1 POP SWAP2 SWAP1 POP JUMP JUMPDEST PUSH1 0x0 PUSH1 0x20 DUP3 ADD SWAP1 POP DUP2 DUP2 SUB PUSH1 0x0 DUP4 ADD MSTORE PUSH2 0x2BA3 DUP2 PUSH2 0x27FB JUMP JUMPDEST SWAP1 POP SWAP2 SWAP1 POP JUMP JUMPDEST PUSH1 0x0 PUSH1 0x20 DUP3 ADD SWAP1 POP DUP2 DUP2 SUB PUSH1 0x0 DUP4 ADD MSTORE PUSH2 0x2BC3 DUP2 PUSH2 0x281E JUMP JUMPDEST SWAP1 POP SWAP2 SWAP1 POP JUMP JUMPDEST PUSH1 0x0 PUSH1 0x20 DUP3 ADD SWAP1 POP DUP2 DUP2 SUB PUSH1 0x0 DUP4 ADD MSTORE PUSH2 0x2BE3 DUP2 PUSH2 0x2841 JUMP JUMPDEST SWAP1 POP SWAP2 SWAP1 POP JUMP JUMPDEST PUSH1 0x0 PUSH1 0x20 DUP3 ADD SWAP1 POP DUP2 DUP2 SUB PUSH1 0x0 DUP4 ADD MSTORE PUSH2 0x2C03 DUP2 PUSH2 0x2864 JUMP JUMPDEST SWAP1 POP SWAP2 SWAP1 POP JUMP JUMPDEST PUSH1 0x0 PUSH1 0x20 DUP3 ADD SWAP1 POP DUP2 DUP2 SUB PUSH1 0x0 DUP4 ADD MSTORE PUSH2 0x2C23 DUP2 PUSH2 0x2887 JUMP JUMPDEST SWAP1 POP SWAP2 SWAP1 POP JUMP JUMPDEST PUSH1 0x0 PUSH2 0x100 DUP3 ADD SWAP1 POP PUSH2 0x2C40 PUSH1 0x0 DUP4 ADD DUP5 PUSH2 0x28AA JUMP JUMPDEST SWAP3 SWAP2 POP POP JUMP JUMPDEST PUSH1 0x0 PUSH1 0x20 DUP3 ADD SWAP1 POP PUSH2 0x2C5B PUSH1 0x0 DUP4 ADD DUP5 PUSH2 0x295B JUMP JUMPDEST SWAP3 SWAP2 POP POP JUMP JUMPDEST PUSH1 0x0 DUP3 DUP3 MSTORE PUSH1 0x20 DUP3 ADD SWAP1 POP SWAP3 SWAP2 POP POP JUMP JUMPDEST PUSH1 0x0 PUSH2 0x2C7D DUP3 PUSH2 0x2E07 JUMP JUMPDEST SWAP2 POP PUSH2 0x2C88 DUP4 PUSH2 0x2E07 JUMP JUMPDEST SWAP3 POP DUP3 PUSH32 0xFFFFFFFFFFFFFFFFFFFFFFFFFFFFFFFFFFFFFFFFFFFFFFFFFFFFFFFFFFFFFFFF SUB DUP3 GT ISZERO PUSH2 0x2CBD JUMPI PUSH2 0x2CBC PUSH2 0x2EBD JUMP JUMPDEST JUMPDEST DUP3 DUP3 ADD SWAP1 POP SWAP3 SWAP2 POP POP JUMP JUMPDEST PUSH1 0x0 PUSH2 0x2CD3 DUP3 PUSH2 0x2E07 JUMP JUMPDEST SWAP2 POP PUSH2 0x2CDE DUP4 PUSH2 0x2E07 JUMP JUMPDEST SWAP3 POP DUP3 PUSH2 0x2CEE JUMPI PUSH2 0x2CED PUSH2 0x2EEC JUMP JUMPDEST JUMPDEST DUP3 DUP3 DIV SWAP1 POP SWAP3 SWAP2 POP POP JUMP JUMPDEST PUSH1 0x0 PUSH2 0x2D04 DUP3 PUSH2 0x2E07 JUMP JUMPDEST SWAP2 POP PUSH2 0x2D0F DUP4 PUSH2 0x2E07 JUMP JUMPDEST SWAP3 POP DUP2 PUSH32 0xFFFFFFFFFFFFFFFFFFFFFFFFFFFFFFFFFFFFFFFFFFFFFFFFFFFFFFFFFFFFFFFF DIV DUP4 GT DUP3 ISZERO ISZERO AND ISZERO PUSH2 0x2D48 JUMPI PUSH2 0x2D47 PUSH2 0x2EBD JUMP JUMPDEST JUMPDEST DUP3 DUP3 MUL SWAP1 POP SWAP3 SWAP2 POP POP JUMP JUMPDEST PUSH1 0x0 PUSH2 0x2D5E DUP3 PUSH2 0x2E07 JUMP JUMPDEST SWAP2 POP PUSH2 0x2D69 DUP4 PUSH2 0x2E07 JUMP JUMPDEST SWAP3 POP DUP3 DUP3 LT ISZERO PUSH2 0x2D7C JUMPI PUSH2 0x2D7B PUSH2 0x2EBD JUMP JUMPDEST JUMPDEST DUP3 DUP3 SUB SWAP1 POP SWAP3 SWAP2 POP POP JUMP JUMPDEST PUSH1 0x0 PUSH2 0x2D92 DUP3 PUSH2 0x2DE7 JUMP JUMPDEST SWAP1 POP SWAP2 SWAP1 POP JUMP JUMPDEST PUSH1 0x0 PUSH2 0x2DA4 DUP3 PUSH2 0x2DE7 JUMP JUMPDEST SWAP1 POP SWAP2 SWAP1 POP JUMP JUMPDEST PUSH1 0x0 DUP2 ISZERO ISZERO SWAP1 POP SWAP2 SWAP1 POP JUMP JUMPDEST PUSH1 0x0 DUP2 SWAP1 POP SWAP2 SWAP1 POP JUMP JUMPDEST PUSH1 0x0 DUP2 SWAP1 POP PUSH2 0x2DCF DUP3 PUSH2 0x3163 JUMP JUMPDEST SWAP2 SWAP1 POP JUMP JUMPDEST PUSH1 0x0 DUP2 SWAP1 POP PUSH2 0x2DE2 DUP3 PUSH2 0x3177 JUMP JUMPDEST SWAP2 SWAP1 POP JUMP JUMPDEST PUSH1 0x0 PUSH20 0xFFFFFFFFFFFFFFFFFFFFFFFFFFFFFFFFFFFFFFFF DUP3 AND SWAP1 POP SWAP2 SWAP1 POP JUMP JUMPDEST PUSH1 0x0 DUP2 SWAP1 POP SWAP2 SWAP1 POP JUMP JUMPDEST PUSH1 0x0 PUSH2 0x2E1C DUP3 PUSH2 0x2E6B JUMP JUMPDEST SWAP1 POP SWAP2 SWAP1 POP JUMP JUMPDEST PUSH1 0x0 PUSH2 0x2E2E DUP3 PUSH2 0x2E35 JUMP JUMPDEST SWAP1 POP SWAP2 SWAP1 POP JUMP JUMPDEST PUSH1 0x0 PUSH2 0x2E40 DUP3 PUSH2 0x2DE7 JUMP JUMPDEST SWAP1 POP SWAP2 SWAP1 POP JUMP JUMPDEST PUSH1 0x0 PUSH2 0x2E52 DUP3 PUSH2 0x2DC1 JUMP JUMPDEST SWAP1 POP SWAP2 SWAP1 POP JUMP JUMPDEST PUSH1 0x0 PUSH2 0x2E64 DUP3 PUSH2 0x2DD4 JUMP JUMPDEST SWAP1 POP SWAP2 SWAP1 POP JUMP JUMPDEST PUSH1 0x0 PUSH2 0x2E76 DUP3 PUSH2 0x2E7D JUMP JUMPDEST SWAP1 POP SWAP2 SWAP1 POP JUMP JUMPDEST PUSH1 0x0 PUSH2 0x2E88 DUP3 PUSH2 0x2DE7 JUMP JUMPDEST SWAP1 POP SWAP2 SWAP1 POP JUMP JUMPDEST PUSH1 0x0 PUSH2 0x2E9A DUP3 PUSH2 0x2EA1 JUMP JUMPDEST SWAP1 POP SWAP2 SWAP1 POP JUMP JUMPDEST PUSH1 0x0 PUSH2 0x2EAC DUP3 PUSH2 0x2F4A JUMP JUMPDEST SWAP1 POP SWAP2 SWAP1 POP JUMP JUMPDEST PUSH1 0x0 DUP2 SWAP1 POP SWAP2 SWAP1 POP JUMP JUMPDEST PUSH32 0x4E487B7100000000000000000000000000000000000000000000000000000000 PUSH1 0x0 MSTORE PUSH1 0x11 PUSH1 0x4 MSTORE PUSH1 0x24 PUSH1 0x0 REVERT JUMPDEST PUSH32 0x4E487B7100000000000000000000000000000000000000000000000000000000 PUSH1 0x0 MSTORE PUSH1 0x12 PUSH1 0x4 MSTORE PUSH1 0x24 PUSH1 0x0 REVERT JUMPDEST PUSH32 0x4E487B7100000000000000000000000000000000000000000000000000000000 PUSH1 0x0 MSTORE PUSH1 0x21 PUSH1 0x4 MSTORE PUSH1 0x24 PUSH1 0x0 REVERT JUMPDEST PUSH1 0x0 DUP2 PUSH1 0x60 SHL SWAP1 POP SWAP2 SWAP1 POP JUMP JUMPDEST PUSH32 0x6E6674206E6F74206F70656E6564000000000000000000000000000000000000 PUSH1 0x0 DUP3 ADD MSTORE POP JUMP JUMPDEST PUSH32 0x4F776E61626C653A206F6E6C79206F776E65722063616E2063616C6C20746869 PUSH1 0x0 DUP3 ADD MSTORE PUSH32 0x732066756E6374696F6E00000000000000000000000000000000000000000000 PUSH1 0x20 DUP3 ADD MSTORE POP JUMP JUMPDEST PUSH32 0x56616C7565206E6F74206D617463686564000000000000000000000000000000 PUSH1 0x0 DUP3 ADD MSTORE POP JUMP JUMPDEST PUSH32 0x4F776E61626C653A206E6577206F776E657220697320746865207A65726F2061 PUSH1 0x0 DUP3 ADD MSTORE PUSH32 0x6464726573730000000000000000000000000000000000000000000000000000 PUSH1 0x20 DUP3 ADD MSTORE POP JUMP JUMPDEST PUSH32 0x6F6E6C7920666F72206D61726B6574206F70657261746F720000000000000000 PUSH1 0x0 DUP3 ADD MSTORE POP JUMP JUMPDEST PUSH32 0x4D61726B6574206F7264657220697320616C7265616479206F70656E65640000 PUSH1 0x0 DUP3 ADD MSTORE POP JUMP JUMPDEST PUSH32 0x4D61726B6574206F72646572206973206E6F74206F70656E6564000000000000 PUSH1 0x0 DUP3 ADD MSTORE POP JUMP JUMPDEST PUSH32 0x6E6674206973206E6F74206F70656E20666F722041756374696F6E0000000000 PUSH1 0x0 DUP3 ADD MSTORE POP JUMP JUMPDEST PUSH32 0x50726963652053686F756C642062652067726561746572207468656E20300000 PUSH1 0x0 DUP3 ADD MSTORE POP JUMP JUMPDEST PUSH32 0x656E642050726963652053686F756C642062652067726561746572207468656E PUSH1 0x0 DUP3 ADD MSTORE PUSH32 0x2070726963650000000000000000000000000000000000000000000000000000 PUSH1 0x20 DUP3 ADD MSTORE POP JUMP JUMPDEST PUSH1 0x4 DUP2 LT PUSH2 0x3174 JUMPI PUSH2 0x3173 PUSH2 0x2F1B JUMP JUMPDEST JUMPDEST POP JUMP JUMPDEST PUSH1 0x3 DUP2 LT PUSH2 0x3188 JUMPI PUSH2 0x3187 PUSH2 0x2F1B JUMP JUMPDEST JUMPDEST POP JUMP JUMPDEST PUSH2 0x3194 DUP2 PUSH2 0x2D87 JUMP JUMPDEST DUP2 EQ PUSH2 0x319F JUMPI PUSH1 0x0 DUP1 REVERT JUMPDEST POP JUMP JUMPDEST PUSH2 0x31AB DUP2 PUSH2 0x2D99 JUMP JUMPDEST DUP2 EQ PUSH2 0x31B6 JUMPI PUSH1 0x0 DUP1 REVERT JUMPDEST POP JUMP JUMPDEST PUSH2 0x31C2 DUP2 PUSH2 0x2DAB JUMP JUMPDEST DUP2 EQ PUSH2 0x31CD JUMPI PUSH1 0x0 DUP1 REVERT JUMPDEST POP JUMP JUMPDEST PUSH2 0x31D9 DUP2 PUSH2 0x2DB7 JUMP JUMPDEST DUP2 EQ PUSH2 0x31E4 JUMPI PUSH1 0x0 DUP1 REVERT JUMPDEST POP JUMP JUMPDEST PUSH2 0x31F0 DUP2 PUSH2 0x2E07 JUMP JUMPDEST DUP2 EQ PUSH2 0x31FB JUMPI PUSH1 0x0 DUP1 REVERT JUMPDEST POP JUMP INVALID LOG2 PUSH5 0x6970667358 0x22 SLT KECCAK256 PUSH8 0xC97F23A8DE3DAE72 0xF 0x25 0x4C PUSH19 0xC57B7A9DCAEC99043D38CA2DC55665A82B601F PUSH5 0x736F6C6343 STOP ADDMOD DIV STOP CALLER "
				},
				"gasEstimates": {
					"creation": {
						"codeDepositCost": "2570400",
						"executionCost": "infinite",
						"totalCost": "infinite"
					},
					"external": {
						"_feeDestinationAddress()": "1238",
						"_feePercentage()": "1217",
						"_wrapToken()": "1346",
						"cancel(address,uint256)": "infinite",
						"closeMarketForAuctionType(address,uint256,uint256,address)": "infinite",
						"closeMarketForFixedType(address,uint256,uint256)": "infinite",
						"getMarketObj(address,uint256)": "infinite",
						"markets(bytes32)": "infinite",
						"openMarketForAuctionType(address,uint256,uint256,uint256)": "infinite",
						"openMarketForFixedType(address,uint256,uint256)": "infinite",
						"owner()": "1311",
						"renounceOwnership()": "24301",
						"setERC20Token(address)": "22211",
						"setFeeDestinationAddress(address)": "22257",
						"setFeePercentage(uint256)": "21354",
						"transferOwnership(address)": "24700"
					},
					"internal": {
						"getFeePercentage(uint256,uint256)": "infinite",
						"getPrivateUniqueKey(address,uint256)": "infinite",
						"openMarket(address,uint256,uint256,enum NFTMarketplace.EOrderType,uint256)": "infinite"
					}
				},
				"methodIdentifiers": {
					"_feeDestinationAddress()": "10ae7085",
					"_feePercentage()": "f699343e",
					"_wrapToken()": "cb278aad",
					"cancel(address,uint256)": "98590ef9",
					"closeMarketForAuctionType(address,uint256,uint256,address)": "1f40ff84",
					"closeMarketForFixedType(address,uint256,uint256)": "3dfe9242",
					"getMarketObj(address,uint256)": "6548d2c2",
					"markets(bytes32)": "7564912b",
					"openMarketForAuctionType(address,uint256,uint256,uint256)": "9677d02e",
					"openMarketForFixedType(address,uint256,uint256)": "ec102464",
					"owner()": "8da5cb5b",
					"renounceOwnership()": "715018a6",
					"setERC20Token(address)": "de562487",
					"setFeeDestinationAddress(address)": "26f8a07a",
					"setFeePercentage(uint256)": "ae06c1b7",
					"transferOwnership(address)": "f2fde38b"
				}
			},
			"storageLayout": {
				"storage": [
					{
						"astId": 3,
						"contract": "verify/NFT-MP-Combine.sol:NFTMarketplace",
						"label": "_owner",
						"offset": 0,
						"slot": "0",
						"type": "t_address"
					},
					{
						"astId": 922,
						"contract": "verify/NFT-MP-Combine.sol:NFTMarketplace",
						"label": "_wrapToken",
						"offset": 0,
						"slot": "1",
						"type": "t_contract(IERC20)787"
					},
					{
						"astId": 924,
						"contract": "verify/NFT-MP-Combine.sol:NFTMarketplace",
						"label": "_feePercentage",
						"offset": 0,
						"slot": "2",
						"type": "t_uint256"
					},
					{
						"astId": 926,
						"contract": "verify/NFT-MP-Combine.sol:NFTMarketplace",
						"label": "_feeDestinationAddress",
						"offset": 0,
						"slot": "3",
						"type": "t_address_payable"
					},
					{
						"astId": 931,
						"contract": "verify/NFT-MP-Combine.sol:NFTMarketplace",
						"label": "markets",
						"offset": 0,
						"slot": "4",
						"type": "t_mapping(t_bytes32,t_struct(Market)919_storage)"
					}
				],
				"types": {
					"t_address": {
						"encoding": "inplace",
						"label": "address",
						"numberOfBytes": "20"
					},
					"t_address_payable": {
						"encoding": "inplace",
						"label": "address payable",
						"numberOfBytes": "20"
					},
					"t_bytes32": {
						"encoding": "inplace",
						"label": "bytes32",
						"numberOfBytes": "32"
					},
					"t_contract(IERC20)787": {
						"encoding": "inplace",
						"label": "contract IERC20",
						"numberOfBytes": "20"
					},
					"t_enum(EOrderStatus)900": {
						"encoding": "inplace",
						"label": "enum NFTMarketplace.EOrderStatus",
						"numberOfBytes": "1"
					},
					"t_enum(EOrderType)895": {
						"encoding": "inplace",
						"label": "enum NFTMarketplace.EOrderType",
						"numberOfBytes": "1"
					},
					"t_mapping(t_bytes32,t_struct(Market)919_storage)": {
						"encoding": "mapping",
						"key": "t_bytes32",
						"label": "mapping(bytes32 => struct NFTMarketplace.Market)",
						"numberOfBytes": "32",
						"value": "t_struct(Market)919_storage"
					},
					"t_struct(Market)919_storage": {
						"encoding": "inplace",
						"label": "struct NFTMarketplace.Market",
						"members": [
							{
								"astId": 902,
								"contract": "verify/NFT-MP-Combine.sol:NFTMarketplace",
								"label": "contractAddress",
								"offset": 0,
								"slot": "0",
								"type": "t_address"
							},
							{
								"astId": 904,
								"contract": "verify/NFT-MP-Combine.sol:NFTMarketplace",
								"label": "tokenId",
								"offset": 0,
								"slot": "1",
								"type": "t_uint256"
							},
							{
								"astId": 907,
								"contract": "verify/NFT-MP-Combine.sol:NFTMarketplace",
								"label": "orderType",
								"offset": 0,
								"slot": "2",
								"type": "t_enum(EOrderType)895"
							},
							{
								"astId": 910,
								"contract": "verify/NFT-MP-Combine.sol:NFTMarketplace",
								"label": "orderStatus",
								"offset": 1,
								"slot": "2",
								"type": "t_enum(EOrderStatus)900"
							},
							{
								"astId": 912,
								"contract": "verify/NFT-MP-Combine.sol:NFTMarketplace",
								"label": "askAmount",
								"offset": 0,
								"slot": "3",
								"type": "t_uint256"
							},
							{
								"astId": 914,
								"contract": "verify/NFT-MP-Combine.sol:NFTMarketplace",
								"label": "maxAskAmount",
								"offset": 0,
								"slot": "4",
								"type": "t_uint256"
							},
							{
								"astId": 916,
								"contract": "verify/NFT-MP-Combine.sol:NFTMarketplace",
								"label": "currentOwner",
								"offset": 0,
								"slot": "5",
								"type": "t_address"
							},
							{
								"astId": 918,
								"contract": "verify/NFT-MP-Combine.sol:NFTMarketplace",
								"label": "newOwner",
								"offset": 0,
								"slot": "6",
								"type": "t_address"
							}
						],
						"numberOfBytes": "224"
					},
					"t_uint256": {
						"encoding": "inplace",
						"label": "uint256",
						"numberOfBytes": "32"
					}
				}
			},
			"userdoc": {
				"events": {
					"OwnershipTransferred(address,address)": {
						"notice": "Event OwnershipTransferred is used to log that a ownership change of the token has occured"
					}
				},
				"kind": "user",
				"methods": {
					"owner()": {
						"notice": "owner() returns the currently assigned owner of the Token"
					},
					"transferOwnership(address)": {
						"notice": "transferOwnership will assign the {newOwner} as owner"
					}
				},
				"version": 1
			}
		}
	}
}